{
  "_format": "hh-sol-artifact-1",
  "contractName": "SentimentAnalyzer",
  "sourceName": "contracts/SentimentAnalyzer.sol",
  "abi": [
    {
      "anonymous": false,
      "inputs": [
        {
          "indexed": true,
          "internalType": "uint256",
          "name": "requestId",
          "type": "uint256"
        },
        {
          "indexed": false,
          "internalType": "enum ResponseStatus",
          "name": "status",
          "type": "uint8"
        }
      ],
      "name": "AnalysisFailed",
      "type": "event"
    },
    {
      "anonymous": false,
      "inputs": [
        {
          "indexed": true,
          "internalType": "uint256",
          "name": "requestId",
          "type": "uint256"
        },
        {
          "indexed": false,
          "internalType": "string",
          "name": "classification",
          "type": "string"
        }
      ],
      "name": "ClassificationReceived",
      "type": "event"
    },
    {
      "anonymous": false,
      "inputs": [
        {
          "indexed": true,
          "internalType": "uint256",
          "name": "requestId",
          "type": "uint256"
        },
        {
          "indexed": false,
          "internalType": "string",
          "name": "text",
          "type": "string"
        }
      ],
      "name": "ClassificationRequested",
      "type": "event"
    },
    {
      "anonymous": false,
      "inputs": [
        {
          "indexed": true,
          "internalType": "uint256",
          "name": "requestId",
          "type": "uint256"
        },
        {
          "indexed": false,
          "internalType": "int256",
          "name": "score",
          "type": "int256"
        }
      ],
      "name": "ScoreReceived",
      "type": "event"
    },
    {
      "anonymous": false,
      "inputs": [
        {
          "indexed": true,
          "internalType": "uint256",
          "name": "requestId",
          "type": "uint256"
        },
        {
          "indexed": false,
          "internalType": "string",
          "name": "text",
          "type": "string"
        }
      ],
      "name": "ScoreRequested",
      "type": "event"
    },
    {
      "inputs": [],
      "name": "LLM_AGENT_ID",
      "outputs": [
        {
          "internalType": "uint256",
          "name": "",
          "type": "uint256"
        }
      ],
      "stateMutability": "view",
      "type": "function"
    },
    {
      "inputs": [],
      "name": "PLATFORM",
      "outputs": [
        {
          "internalType": "contract IAgentRequester",
          "name": "",
          "type": "address"
        }
      ],
      "stateMutability": "view",
      "type": "function"
    },
    {
      "inputs": [
        {
          "internalType": "uint256",
          "name": "",
          "type": "uint256"
        }
      ],
      "name": "analyses",
      "outputs": [
        {
          "internalType": "string",
          "name": "inputText",
          "type": "string"
        },
        {
          "internalType": "string",
          "name": "classification",
          "type": "string"
        },
        {
          "internalType": "int256",
          "name": "score",
          "type": "int256"
        },
        {
          "internalType": "enum SentimentAnalyzer.AnalysisType",
          "name": "analysisType",
          "type": "uint8"
        },
        {
          "internalType": "uint256",
          "name": "timestamp",
          "type": "uint256"
        },
        {
          "internalType": "bool",
          "name": "completed",
          "type": "bool"
        }
      ],
      "stateMutability": "view",
      "type": "function"
    },
    {
      "inputs": [
        {
          "internalType": "string",
          "name": "text",
          "type": "string"
        }
      ],
      "name": "classifySentiment",
      "outputs": [
        {
          "internalType": "uint256",
          "name": "requestId",
          "type": "uint256"
        }
      ],
      "stateMutability": "payable",
      "type": "function"
    },
    {
      "inputs": [
        {
          "internalType": "uint256",
          "name": "requestId",
          "type": "uint256"
        }
      ],
      "name": "getAnalysis",
      "outputs": [
        {
          "components": [
            {
              "internalType": "string",
              "name": "inputText",
              "type": "string"
            },
            {
              "internalType": "string",
              "name": "classification",
              "type": "string"
            },
            {
              "internalType": "int256",
              "name": "score",
              "type": "int256"
            },
            {
              "internalType": "enum SentimentAnalyzer.AnalysisType",
              "name": "analysisType",
              "type": "uint8"
            },
            {
              "internalType": "uint256",
              "name": "timestamp",
              "type": "uint256"
            },
            {
              "internalType": "bool",
              "name": "completed",
              "type": "bool"
            }
          ],
          "internalType": "struct SentimentAnalyzer.Analysis",
          "name": "",
          "type": "tuple"
        }
      ],
      "stateMutability": "view",
      "type": "function"
    },
    {
      "inputs": [],
      "name": "getRequiredDeposit",
      "outputs": [
        {
          "internalType": "uint256",
          "name": "",
          "type": "uint256"
        }
      ],
      "stateMutability": "view",
      "type": "function"
    },
    {
      "inputs": [
        {
          "internalType": "uint256",
          "name": "requestId",
          "type": "uint256"
        },
        {
          "components": [
            {
              "internalType": "address",
              "name": "validator",
              "type": "address"
            },
            {
              "internalType": "bytes",
              "name": "result",
              "type": "bytes"
            },
            {
              "internalType": "enum ResponseStatus",
              "name": "status",
              "type": "uint8"
            },
            {
              "internalType": "uint256",
              "name": "receipt",
              "type": "uint256"
            },
            {
              "internalType": "uint256",
              "name": "timestamp",
              "type": "uint256"
            },
            {
              "internalType": "uint256",
              "name": "executionCost",
              "type": "uint256"
            }
          ],
          "internalType": "struct Response[]",
          "name": "responses",
          "type": "tuple[]"
        },
        {
          "internalType": "enum ResponseStatus",
          "name": "status",
          "type": "uint8"
        },
        {
          "components": [
            {
              "internalType": "uint256",
              "name": "id",
              "type": "uint256"
            },
            {
              "internalType": "address",
              "name": "requester",
              "type": "address"
            },
            {
              "internalType": "address",
              "name": "callbackAddress",
              "type": "address"
            },
            {
              "internalType": "bytes4",
              "name": "callbackSelector",
              "type": "bytes4"
            },
            {
              "internalType": "address[]",
              "name": "subcommittee",
              "type": "address[]"
            },
            {
              "components": [
                {
                  "internalType": "address",
                  "name": "validator",
                  "type": "address"
                },
                {
                  "internalType": "bytes",
                  "name": "result",
                  "type": "bytes"
                },
                {
                  "internalType": "enum ResponseStatus",
                  "name": "status",
                  "type": "uint8"
                },
                {
                  "internalType": "uint256",
                  "name": "receipt",
                  "type": "uint256"
                },
                {
                  "internalType": "uint256",
                  "name": "timestamp",
                  "type": "uint256"
                },
                {
                  "internalType": "uint256",
                  "name": "executionCost",
                  "type": "uint256"
                }
              ],
              "internalType": "struct Response[]",
              "name": "responses",
              "type": "tuple[]"
            },
            {
              "internalType": "uint256",
              "name": "responseCount",
              "type": "uint256"
            },
            {
              "internalType": "uint256",
              "name": "failureCount",
              "type": "uint256"
            },
            {
              "internalType": "uint256",
              "name": "threshold",
              "type": "uint256"
            },
            {
              "internalType": "uint256",
              "name": "createdAt",
              "type": "uint256"
            },
            {
              "internalType": "uint256",
              "name": "deadline",
              "type": "uint256"
            },
            {
              "internalType": "enum ResponseStatus",
              "name": "status",
              "type": "uint8"
            },
            {
              "internalType": "enum ConsensusType",
              "name": "consensusType",
              "type": "uint8"
            },
            {
              "internalType": "uint256",
              "name": "remainingBudget",
              "type": "uint256"
            }
          ],
          "internalType": "struct Request",
          "name": "",
          "type": "tuple"
        }
      ],
      "name": "handleClassification",
      "outputs": [],
      "stateMutability": "nonpayable",
      "type": "function"
    },
    {
      "inputs": [
        {
          "internalType": "uint256",
          "name": "requestId",
          "type": "uint256"
        },
        {
          "components": [
            {
              "internalType": "address",
              "name": "validator",
              "type": "address"
            },
            {
              "internalType": "bytes",
              "name": "result",
              "type": "bytes"
            },
            {
              "internalType": "enum ResponseStatus",
              "name": "status",
              "type": "uint8"
            },
            {
              "internalType": "uint256",
              "name": "receipt",
              "type": "uint256"
            },
            {
              "internalType": "uint256",
              "name": "timestamp",
              "type": "uint256"
            },
            {
              "internalType": "uint256",
              "name": "executionCost",
              "type": "uint256"
            }
          ],
          "internalType": "struct Response[]",
          "name": "responses",
          "type": "tuple[]"
        },
        {
          "internalType": "enum ResponseStatus",
          "name": "status",
          "type": "uint8"
        },
        {
          "components": [
            {
              "internalType": "uint256",
              "name": "id",
              "type": "uint256"
            },
            {
              "internalType": "address",
              "name": "requester",
              "type": "address"
            },
            {
              "internalType": "address",
              "name": "callbackAddress",
              "type": "address"
            },
            {
              "internalType": "bytes4",
              "name": "callbackSelector",
              "type": "bytes4"
            },
            {
              "internalType": "address[]",
              "name": "subcommittee",
              "type": "address[]"
            },
            {
              "components": [
                {
                  "internalType": "address",
                  "name": "validator",
                  "type": "address"
                },
                {
                  "internalType": "bytes",
                  "name": "result",
                  "type": "bytes"
                },
                {
                  "internalType": "enum ResponseStatus",
                  "name": "status",
                  "type": "uint8"
                },
                {
                  "internalType": "uint256",
                  "name": "receipt",
                  "type": "uint256"
                },
                {
                  "internalType": "uint256",
                  "name": "timestamp",
                  "type": "uint256"
                },
                {
                  "internalType": "uint256",
                  "name": "executionCost",
                  "type": "uint256"
                }
              ],
              "internalType": "struct Response[]",
              "name": "responses",
              "type": "tuple[]"
            },
            {
              "internalType": "uint256",
              "name": "responseCount",
              "type": "uint256"
            },
            {
              "internalType": "uint256",
              "name": "failureCount",
              "type": "uint256"
            },
            {
              "internalType": "uint256",
              "name": "threshold",
              "type": "uint256"
            },
            {
              "internalType": "uint256",
              "name": "createdAt",
              "type": "uint256"
            },
            {
              "internalType": "uint256",
              "name": "deadline",
              "type": "uint256"
            },
            {
              "internalType": "enum ResponseStatus",
              "name": "status",
              "type": "uint8"
            },
            {
              "internalType": "enum ConsensusType",
              "name": "consensusType",
              "type": "uint8"
            },
            {
              "internalType": "uint256",
              "name": "remainingBudget",
              "type": "uint256"
            }
          ],
          "internalType": "struct Request",
          "name": "",
          "type": "tuple"
        }
      ],
      "name": "handleScore",
      "outputs": [],
      "stateMutability": "nonpayable",
      "type": "function"
    },
    {
      "inputs": [],
      "name": "latestClassification",
      "outputs": [
        {
          "internalType": "string",
          "name": "",
          "type": "string"
        }
      ],
      "stateMutability": "view",
      "type": "function"
    },
    {
      "inputs": [],
      "name": "latestScore",
      "outputs": [
        {
          "internalType": "int256",
          "name": "",
          "type": "int256"
        }
      ],
      "stateMutability": "view",
      "type": "function"
    },
    {
      "inputs": [
        {
          "internalType": "string",
          "name": "text",
          "type": "string"
        }
      ],
      "name": "scoreSentiment",
      "outputs": [
        {
          "internalType": "uint256",
          "name": "requestId",
          "type": "uint256"
        }
      ],
      "stateMutability": "payable",
      "type": "function"
    },
    {
      "stateMutability": "payable",
      "type": "receive"
    }
  ],
  "bytecode": "0x6080806040523461001657611c34908161001c8239f35b600080fdfe6080604052600436101561001b575b361561001957600080fd5b005b60003560e01c80631a1ace28146112505780632e90c1a91461122d5780633ed7722514610c5f5780635170b93414610b4657806358e56db414610abf5780636c9ac38a146109d85780637552b813146108df5780637efc77fa146108b05780639bd8cf2e1461015a578063af56cc72146100bc5763c6c1cd4d0361000e57346100b75760003660031901126100b7576020600254604051908152f35b600080fd5b346100b75760203660031901126100b757600435600052600060205261012c60406000206100e981611a9f565b906100f660018201611a9f565b60028201549161014a60ff60038301541661013a60ff60056004860154950154169460405198899860c08a5260c08a0190611a33565b9088820360208a0152611a33565b9460408701526060860190611a58565b6080840152151560a08301520390f35b610163366119c7565b90604051907f416e616c797a65207468652073656e74696d656e74206f662074686520666f6c60208301526c03637bbb4b733903a32bc3a171609d1b6040830152662a32bc3a1d101160c91b604d830152828160548401376101dc605583858101601160f91b6054820152036035810185520183611653565b60405192608084018481106001600160401b038211176106b9576040526003845260005b60608082101561021a579060209182828801015201610200565b5050926102e19260405161022d81611638565b60078152660c4ead8d8d2e6d60cb1b602082015261024a83611b93565b5261025482611b93565b5060405161026181611638565b60078152660c4cac2e4d2e6d60cb1b602082015261027e83611bb6565b5261028882611bb6565b5060405161029581611638565b60078152661b995d5d1c985b60ca1b60208201526102b283611bc6565b526102bc82611bc6565b50604051631fcf941360e31b60208201526080602482015293849160a4830190611a33565b9181830360231981016044840152603484527f596f752061726520612073656e74696d656e7420616e616c7973742e20436c6160208501527339b9b4b33c903a34329039b2b73a34b6b2b73a1760611b6040850152603c60608501916000606486015201608484015281518091526080840193602060808360051b8301019301946000915b83831061087f5750505050610384925003601f198101845283611653565b604051630ffeb17d60e11b815273037bb9c718f3f7fe5ecbdb0b600d607b5270677690602081600481855afa9081156107ca5760009161084d575b506702ea11e32ad5000081018091116108375734106107d6576040516345de5df160e11b815267b24ac1afbcefc708600482015230602482015263034359c560e31b60448201526080606482015292602091849182908190610425906084830190611a33565b039134905af19182156107ca57600092610796575b5060405161044781611602565b6104523685846116ba565b81526040516104608161161d565b6000815260208201526000604082015260006060820152426080820152600060a082015282600052600060205260406000209381518051906001600160401b0382116106b95781906104b28854611a65565b601f8111610746575b50602090601f83116001146106da576000926106cf575b50508160011b916000199060031b1c19161785555b60208201518051906001600160401b0382116106b957819061050c6001890154611a65565b601f8111610666575b50602090601f83116001146105f9576000926105ee575b50508160011b916000199060031b1c19161760018601555b60408201516002860155600385019260608301519260028410156105d857602096600560a06105be9389987f9d673ccd61e1e56c20887d3b8f72e6ce7e7b8a3df48af4dec704d46830a738c39860ff80198354169116179055608081015160048501550151151591019060ff801983541691151516179055565b6105cd60405192839283611bd6565b0390a2604051908152f35b634e487b7160e01b600052602160045260246000fd5b01519050878061052c565b600189016000908152602081209350601f198516905b81811061064e5750908460019594939210610635575b505050811b016001860155610544565b015160001960f88460031b161c19169055878080610625565b9293602060018192878601518155019501930161060f565b909150600188016000526020600020601f840160051c8101602085106106b2575b90849392915b601f830160051c820181106106a3575050610515565b6000815585945060010161068d565b5080610687565b634e487b7160e01b600052604160045260246000fd5b0151905087806104d2565b9250876000526020600020906000935b601f198416851061072b576001945083601f19811610610712575b505050811b0185556104e7565b015160001960f88460031b161c19169055878080610705565b818101518355602094850194600190930192909101906106ea565b909150876000526020600020601f840160051c81016020851061078f575b90849392915b601f830160051c820181106107805750506104bb565b6000815585945060010161076a565b5080610764565b9091506020813d6020116107c2575b816107b260209383611653565b810103126100b75751908361043a565b3d91506107a5565b6040513d6000823e3d90fd5b60405162461bcd60e51b815260206004820152603360248201527f4e65656420302e32342053545420746f74616c20286465706f736974202b20336044820152722076616c696461746f7273207820302e30372960681b6064820152608490fd5b634e487b7160e01b600052601160045260246000fd5b90506020813d602011610877575b8161086860209383611653565b810103126100b75751856103bf565b3d915061085b565b9193600191939550602061089e8192607f198682030187528951611a33565b97019301930190928794929593610366565b346100b75760003660031901126100b757602060405173037bb9c718f3f7fe5ecbdb0b600d607b527067768152f35b346100b7576108ed366117f4565b5061090d73037bb9c718f3f7fe5ecbdb0b600d607b527067763314611b44565b60058110156105d85760028114806109ce575b156109965750610931602091611b93565b5101516020818051810103126100b7576020807f034d74a9bbf999d62d688ddc4cff473536c0a792a81e4a8d158b16aa215af98592015183600052600082526005604060002082600282015501600160ff1982541617905580600255604051908152a2005b7f12741fa7fac2b8ed98f6279878746bb34936177209fa16187fcbe2e6e2ce566891506109c99060405191829182611b80565b0390a2005b5081511515610920565b346100b75760003660031901126100b7576040516000600182600154926109fe84611a65565b9283835260209485600182169182600014610a9f575050600114610a42575b50610a2a92500383611653565b610a3e604051928284938452830190611a33565b0390f35b84915060016000527fb10e2d527612073b26eecdfd717e6a320cf44b4afac2b0732d9fcbe2b7fa0cf6906000915b858310610a87575050610a2a935082010185610a1d565b80548389018501528794508693909201918101610a70565b60ff191685820152610a2a95151560051b8501019250879150610a1d9050565b346100b75760003660031901126100b757604051630ffeb17d60e11b815260208160048173037bb9c718f3f7fe5ecbdb0b600d607b527067765afa80156107ca57600090610b13575b602090604051908152f35b506020813d602011610b3e575b81610b2d60209383611653565b810103126100b75760209051610b08565b3d9150610b20565b346100b7576020806003193601126100b757600060a0604051610b6881611602565b60608152606084820152826040820152826060820152826080820152015260043560005260008152604060002060405190610ba282611602565b610bab81611a9f565b8252610bb960018201611a9f565b928083019384526002820154916040840192835260ff600382015416946060850160028710156105d857610c3b610c4d9260c0988352610c2860ff600560048801549760808c019889520154169660a08a0197151588526040519a8b9a828c5251918b015260e08a0190611a33565b9051888203601f190160408a0152611a33565b94516060870152516080860190611a58565b5160a084015251151560c08301520390f35b610c68366119c7565b90604051907f52617465207468652073656e74696d656e74206f6e2061207363616c65206f66602083015267010189698981817160c51b60408301527f31203d2065787472656d656c79206e656761746976652c203530203d206e657560488301527f7472616c2c20313030203d2065787472656d656c7920706f7369746976652e206068830152662a32bc3a1d101160c91b60888301528281608f840137610d28609083858101601160f91b608f820152036070810185520183611653565b610dc66060610d526040519463c6833c3d60e01b602087015260a0602487015260c4860190611a33565b713ab9371037b7363c903090373ab6b132b91760711b60408683039260231984016044890152603281527f596f752061726520612073656e74696d656e7420616e616c7973742e20526574602082015201526001606486015260646084860152600060a48601526040810185520183611653565b604051630ffeb17d60e11b815273037bb9c718f3f7fe5ecbdb0b600d607b5270677690602081600481855afa9081156107ca576000916111fb575b506702ea11e32ad5000081018091116108375734106111c0576040516345de5df160e11b815267b24ac1afbcefc7086004820152306024820152637552b81360e01b60448201526080606482015292602091849182908190610e67906084830190611a33565b039134905af19182156107ca5760009261118c575b50604051610e8981611602565b610e943685846116ba565b8152604051610ea28161161d565b6000815260208201526000604082015260016060820152426080820152600060a082015282600052600060205260406000209381518051906001600160401b0382116106b9578190610ef48854611a65565b601f811161113c575b50602090601f83116001146110d6576000926110cb575b50508160011b916000199060031b1c19161785555b60208201518051906001600160401b0382116106b9578190610f4e6001890154611a65565b601f8111611078575b50602090601f831160011461100b57600092611000575b50508160011b916000199060031b1c19161760018601555b60408201516002860155600385019260608301519260028410156105d857602096600560a06105be9389987f7fd82c485a7f5c847af195bb9dd92827c22a50caec68e7922be49c3ae5c7db979860ff80198354169116179055608081015160048501550151151591019060ff801983541691151516179055565b015190508780610f6e565b600189016000908152602081209350601f198516905b8181106110605750908460019594939210611047575b505050811b016001860155610f86565b015160001960f88460031b161c19169055878080611037565b92936020600181928786015181550195019301611021565b909150600188016000526020600020601f840160051c8101602085106110c4575b90849392915b601f830160051c820181106110b5575050610f57565b6000815585945060010161109f565b5080611099565b015190508780610f14565b6000898152602081209350601f198516905b818110611124575090846001959493921061110b575b505050811b018555610f29565b015160001960f88460031b161c191690558780806110fe565b929360206001819287860151815501950193016110e8565b909150876000526020600020601f840160051c810160208510611185575b90849392915b601f830160051c82018110611176575050610efd565b60008155859450600101611160565b508061115a565b9091506020813d6020116111b8575b816111a860209383611653565b810103126100b757519083610e7c565b3d915061119b565b60405162461bcd60e51b815260206004820152601360248201527213995959080c0b8c8d0814d515081d1bdd185b606a1b6044820152606490fd5b90506020813d602011611225575b8161121660209383611653565b810103126100b7575185610e01565b3d9150611209565b346100b75760003660031901126100b757602060405167b24ac1afbcefc7088152f35b346100b75761125e366117f4565b50919061128073037bb9c718f3f7fe5ecbdb0b600d607b527067763314611b44565b600590818410156105d85760028414806115f8575b156115c4576112a993506020938491611b93565b51015192835184019181858185019403126100b757818501516001600160401b03958682116100b7570183603f820112156100b757828101516112eb8161169f565b946112f96040519687611653565b818652604082840101116100b7576113179160408587019101611a10565b836000526000825260019081604060002001908451918783116106b95761133e8154611a65565b92601f93848111611580575b50808685821160011461151e57600091611513575b50600019600383901b1c191690851b1790555b8560005260008452806040600020018360ff1982541617905584519687116106b95761139e8354611a65565b908282116114b2575b5050829086116001146114135794807f70c9a38efb3947ac3e3105616f69840852d6a77722f2857a504d32b45731e14b9596600091611408575b50600019600383901b1c191690821b1790555b6109c9604051928284938452830190611a33565b9050840151876113e1565b601f19861690826000527fb10e2d527612073b26eecdfd717e6a320cf44b4afac2b0732d9fcbe2b7fa0cf69160005b81811061149d57509187917f70c9a38efb3947ac3e3105616f69840852d6a77722f2857a504d32b45731e14b9798859410611484575b5050811b0190556113f4565b86015160001960f88460031b161c191690558780611478565b86830151845592840192918501918501611442565b836000527fb10e2d527612073b26eecdfd717e6a320cf44b4afac2b0732d9fcbe2b7fa0cf69083808a01821c830193878b1061150a575b01901c019083905b8281106114fe57506113a7565b600081550183906114f1565b935082936114e9565b90508701518a61135f565b869250601f1982169084600052886000209160005b8a8c83831061156b575050508311611552575b5050811b019055611372565b89015160001960f88460031b161c191690558a80611546565b84015185558a96909401939283019201611533565b826000528660002085808401861c8201928985106115bb575b01851c019086905b8281106115af57505061134a565b600081550186906115a1565b92508192611599565b5050906109c97f12741fa7fac2b8ed98f6279878746bb34936177209fa16187fcbe2e6e2ce56689160405191829182611b80565b5080511515611295565b60c081019081106001600160401b038211176106b957604052565b602081019081106001600160401b038211176106b957604052565b604081019081106001600160401b038211176106b957604052565b90601f801991011681019081106001600160401b038211176106b957604052565b6001600160401b0381116106b95760051b60200190565b35906001600160a01b03821682036100b757565b6001600160401b0381116106b957601f01601f191660200190565b9291926116c68261169f565b916116d46040519384611653565b8294818452818301116100b7578281602093846000960137010152565b81601f820112156100b75780359160209161170b84611674565b9360409161171c6040519687611653565b818652848601918560059160051b830101948086116100b757868301935b86851061174c57505050505050505090565b6001600160401b0385358181116100b75785019160c09182601f1985870301126100b75788519061177c82611602565b6117878c860161168b565b8252898501359081116100b757840185603f820112156100b75785818b8e6117b294013591016116ba565b8b82015260608085013593878510156100b7578c9586958c850152608092838201359085015260a092838201359085015201359082015281520194019361173a565b60031991906080838201126100b75760048035936001600160401b0393916024358581116100b757846118289183016116f1565b9460443560058110156100b75794606435928284116100b7576101c0809585840301126100b757604051948501858110848211176119b2576040528381013585526118756024850161168b565b60209060208701526118896044860161168b565b604087015260648501356001600160e01b0319811681036100b757606087015260848501358481116100b757850190836023830112156100b75782820135916118d183611674565b926118df6040519485611653565b8084526024602085019160051b830101918683116100b757602401905b82821061199b5750505050608086015260a48401359283116100b757611924928401016116f1565b60a083015260c481013560c083015260e481013560e083015261010481013561010083015261012481013561012083015261014481013561014083015261016481013560058110156100b7576101608301526101848101359060028210156100b7576101a49161018084015201356101a082015290565b8380916119a78461168b565b8152019101906118fc565b604182634e487b7160e01b6000525260246000fd5b9060206003198301126100b7576004356001600160401b03928382116100b757806023830112156100b75781600401359384116100b757602484830101116100b7576024019190565b60005b838110611a235750506000910152565b8181015183820152602001611a13565b90602091611a4c81518092818552858086019101611a10565b601f01601f1916010190565b9060028210156105d85752565b90600182811c92168015611a95575b6020831014611a7f57565b634e487b7160e01b600052602260045260246000fd5b91607f1691611a74565b90604051918260008254611ab281611a65565b90818452602094600191600181169081600014611b225750600114611ae3575b505050611ae192500383611653565b565b600090815285812095935091905b818310611b0a575050611ae19350820101388080611ad2565b85548884018501529485019487945091830191611af1565b92505050611ae194925060ff191682840152151560051b820101388080611ad2565b15611b4b57565b60405162461bcd60e51b815260206004820152600d60248201526c4f6e6c7920706c6174666f726d60981b6044820152606490fd5b9190602083019260058210156105d85752565b805115611ba05760200190565b634e487b7160e01b600052603260045260246000fd5b805160011015611ba05760400190565b805160021015611ba05760600190565b90918060409360208452816020850152848401376000828201840152601f01601f191601019056fea2646970667358221220070bfdf8cb54381fca850c19bc5271f7284941688816722454fad53ea7fc991064736f6c63430008180033",
  "linkReferences": {},
  "deployedLinkReferences": {}
}