{"contracts/DrugInfoV2.sol":{"DrugInfoV2":{"abi":[{"anonymous":false,"inputs":[{"indexed":true,"internalType":"uint256","name":"requestId","type":"uint256"},{"indexed":false,"internalType":"enum ResponseStatus","name":"status","type":"uint8"}],"name":"DrugInfoFailed","type":"event"},{"anonymous":false,"inputs":[{"indexed":true,"internalType":"uint256","name":"requestId","type":"uint256"},{"indexed":false,"internalType":"string","name":"drugName","type":"string"},{"indexed":false,"internalType":"string","name":"info","type":"string"}],"name":"DrugInfoReceived","type":"event"},{"anonymous":false,"inputs":[{"indexed":true,"internalType":"uint256","name":"requestId","type":"uint256"},{"indexed":false,"internalType":"string","name":"drugName","type":"string"}],"name":"DrugInfoRequested","type":"event"},{"inputs":[],"name":"LLM_AGENT_ID","outputs":[{"internalType":"uint256","name":"","type":"uint256"}],"stateMutability":"view","type":"function"},{"inputs":[],"name":"PLATFORM","outputs":[{"internalType":"contract IAgentRequester","name":"","type":"address"}],"stateMutability":"view","type":"function"},{"inputs":[{"internalType":"uint256","name":"","type":"uint256"}],"name":"drugInfo","outputs":[{"internalType":"string","name":"","type":"string"}],"stateMutability":"view","type":"function"},{"inputs":[{"internalType":"uint256","name":"","type":"uint256"}],"name":"drugNames","outputs":[{"internalType":"string","name":"","type":"string"}],"stateMutability":"view","type":"function"},{"inputs":[{"internalType":"string","name":"drugName","type":"string"}],"name":"getDrugInfo","outputs":[{"internalType":"uint256","name":"requestId","type":"uint256"}],"stateMutability":"payable","type":"function"},{"inputs":[{"internalType":"uint256","name":"index","type":"uint256"}],"name":"getInfo","outputs":[{"internalType":"string","name":"drugName","type":"string"},{"internalType":"string","name":"info","type":"string"}],"stateMutability":"view","type":"function"},{"inputs":[],"name":"getInfoCount","outputs":[{"internalType":"uint256","name":"","type":"uint256"}],"stateMutability":"view","type":"function"},{"inputs":[],"name":"getRequiredDeposit","outputs":[{"internalType":"uint256","name":"","type":"uint256"}],"stateMutability":"view","type":"function"},{"inputs":[{"internalType":"uint256","name":"requestId","type":"uint256"},{"components":[{"internalType":"address","name":"validator","type":"address"},{"internalType":"bytes","name":"result","type":"bytes"},{"internalType":"enum ResponseStatus","name":"status","type":"uint8"},{"internalType":"uint256","name":"receipt","type":"uint256"},{"internalType":"uint256","name":"timestamp","type":"uint256"},{"internalType":"uint256","name":"executionCost","type":"uint256"}],"internalType":"struct Response[]","name":"responses","type":"tuple[]"},{"internalType":"enum ResponseStatus","name":"status","type":"uint8"},{"components":[{"internalType":"uint256","name":"id","type":"uint256"},{"internalType":"address","name":"requester","type":"address"},{"internalType":"address","name":"callbackAddress","type":"address"},{"internalType":"bytes4","name":"callbackSelector","type":"bytes4"},{"internalType":"address[]","name":"subcommittee","type":"address[]"},{"components":[{"internalType":"address","name":"validator","type":"address"},{"internalType":"bytes","name":"result","type":"bytes"},{"internalType":"enum ResponseStatus","name":"status","type":"uint8"},{"internalType":"uint256","name":"receipt","type":"uint256"},{"internalType":"uint256","name":"timestamp","type":"uint256"},{"internalType":"uint256","name":"executionCost","type":"uint256"}],"internalType":"struct Response[]","name":"responses","type":"tuple[]"},{"internalType":"uint256","name":"responseCount","type":"uint256"},{"internalType":"uint256","name":"failureCount","type":"uint256"},{"internalType":"uint256","name":"threshold","type":"uint256"},{"internalType":"uint256","name":"createdAt","type":"uint256"},{"internalType":"uint256","name":"deadline","type":"uint256"},{"internalType":"enum ResponseStatus","name":"status","type":"uint8"},{"internalType":"enum ConsensusType","name":"consensusType","type":"uint8"},{"internalType":"uint256","name":"remainingBudget","type":"uint256"}],"internalType":"struct Request","name":"","type":"tuple"}],"name":"handleResult","outputs":[],"stateMutability":"nonpayable","type":"function"},{"inputs":[{"internalType":"uint256","name":"","type":"uint256"}],"name":"requestToInfoIndex","outputs":[{"internalType":"uint256","name":"","type":"uint256"}],"stateMutability":"view","type":"function"},{"stateMutability":"payable","type":"receive"}],"evm":{"bytecode":{"linkReferences":{},"object":"60808060405234610016576112e6908161001c8239f35b600080fdfe60406080815260049081361015610020575b5050361561001e57600080fd5b005b600091823560e01c9081631a3cd59a14610e235781632e90c1a914610e005781634282574e146108e7578163497482a01461022557816358e56db4146101905781636419feee146101685781637efc77fa1461013957816390311e8c1461010a578163b81c392a146100b8575063c7c20ed40361001157346100b457816003193601126100b4576020906001549051908152f35b5080fd5b905034610106576020366003190112610106573591805483101561010357506100ec6100e66100ff936110ba565b90611221565b9051918291602083526020830190610ec5565b0390f35b80fd5b8280fd5b90503461010657602036600319011261010657359160015483101561010357506100ec6100e66100ff93611104565b5050346100b457816003193601126100b4576020905173037bb9c718f3f7fe5ecbdb0b600d607b527067768152f35b9050346101065760203660031901126101065760209282913581526002845220549051908152f35b91905034610106578260031936011261010657602081518093630ffeb17d60e11b82528173037bb9c718f3f7fe5ecbdb0b600d607b527067765afa91821561021b5783926101e3575b6020838351908152f35b9091506020813d602011610213575b816101ff60209383610eea565b8101031261010657602092505190386101d9565b3d91506101f2565b81513d85823e3d90fd5b6020929150366003190183136108e357803567ffffffffffffffff9485821161010357366023830112156101035781830135928684116100b45760249081840191368187870101116108e3578651987f50726f7669646520636f6e636973652c206163637572617465206d6564696361898b0152730361034b73337b936b0ba34b7b71030b137baba160651b888b0152868460548c01376103e56101218b89810161017160f51b60548201527f496e636c7564653a203129205768617420697420697320616e6420686f77206960568201527f7420776f726b732c20322920436f6d6d6f6e20757365732c203329205479706960768201526b031b0b6103237b9b0b3b296160a51b60968201527f342920436f6d6d6f6e207369646520656666656374732c20352920496d706f7260a28201527103a30b73a10383932b1b0baba34b7b73997160751b60c28201527f426173652074686973206f6e207374616e64617264206d65646963616c20726560d48201527f666572656e6365732e204b65657020656163682073656374696f6e20746f203160f48201526c16991039b2b73a32b731b2b99760991b6101148201520361010181018d52018b610eea565b8751908982019081118282101761073c578089528582528851631fcf941360e31b8b8201526080848201529a8b91906104229060a4840190610ec5565b8281039360231985016044850152609082527f596f7520617265206120636c696e6963616c20706861726d61636973742070728d8301527f6f766964696e672061636375726174652c2065766964656e63652d62617365648c8301527f206472756720696e666f726d6174696f6e2e20416c7761797320696e636c756460608301527f65206120646973636c61696d657220746f20636f6e73756c742061206865616c60808301526f3a3431b0b93290383937bb34b232b91760811b60a083015260c0820190609c600196876064880152016084860152518091528c60e0830160e08360051b8501019493878c935b8585106108b157505050505050500395610533601f19978881018d528c610eea565b8851630ffeb17d60e11b815273037bb9c718f3f7fe5ecbdb0b600d607b52706776908b818781855afa9081156108a7578891610876575b506702ea11e32ad50000810180911161086457341061082c5789516345de5df160e11b815267b24ac1afbcefc7088682015230858201526321412ba760e11b6044820152608060648201529a9b8c918c91829081906105cd906084830190610ec5565b039134905af1998a1561082257869a6107ef575b508554906801000000000000000091828110156107dd578084610606920189556110ba565b9190916107cc57898d86926106258361061f8754611151565b87611269565b8a91601f841160011461075b5750928291610657948c9361074e575b5050508160011b916000199060031b1c19161790565b90555b81549081101561073c57808261067292018355611104565b61072b57808b61068460009354611151565b601f811161070c575b505055546000198101929083116106fb5750507f84a36581ef5402b73b738a564da2f28ed179aa557278c4cf4e21441d7faf9fa493601f8685818a968d968d809c9a526002885288842055875198878a9889528801528787013785828601015201168101030190a251908152f35b634e487b7160e01b85526011905283fd5b601f61072492848b528a20910160051c810190611252565b8b3861068d565b634e487b7160e01b86528584528286fd5b634e487b7160e01b8652604184528286fd5b0101359050863880610641565b939190928c8116868d52858d20958d905b8a8383106107aa575050501061078d575b505050508289811b01905561065a565b8c60f86000199160031b161c19920101351690553880858161077d565b9093508497849395968493978901013581550196019301918993928f9261076c565b634e487b7160e01b88528786528488fd5b634e487b7160e01b8852604186528488fd5b9099508a81813d831161081b575b6108078183610eea565b81010312610817575198386105e1565b8580fd5b503d6107fd565b89513d88823e3d90fd5b895162461bcd60e51b81528086018c90526013818601527213995959080c0b8c8d0814d515081d1bdd185b606a1b6044820152606490fd5b634e487b7160e01b8852601186528488fd5b90508b81813d83116108a0575b61088d8183610eea565b8101031261089c57513861056a565b8780fd5b503d610883565b8b513d8a823e3d90fd5b91939597509193956108ce829160df198682030187528951610ec5565b97019301930190928f959492938f8890610511565b8380fd5b90503461010657600319916080368401126108e35781359260249267ffffffffffffffff90843582811161089c576109229036908301610f6f565b91604435926005841015610dfc5760643594828611610ca5576101c080918736030112610ca557865190810181811084821117610dea57875285840135815261096c888701610f3a565b956020968783015261098060448201610f3a565b8289015260648101356001600160e01b031981168103610dca5760608301526084810135848111610dca57810136602382011215610dca5785810135906109c682610f22565b916109d38b519384610eea565b8083528b8a84019160051b83010191368311610de6578c8b9101915b838310610dce5750505050608083015260a4810135848111610dca57610a1a90863691840101610f6f565b60a083015260c481013560c083015260e481013560e08301526101048101356101008301526101248101356101208301526101448101356101408301526101648101356005811015610dca576101608301526101848101356002811015610dca576101a0916101a491610180850152013591015273037bb9c718f3f7fe5ecbdb0b600d607b527067763303610d98578789526002855285892054936002811480610d8e575b15610cbb5750805115610ca957848091015101519586518701968581818a01990312610ca5578581015190838211610ca1570187603f82011215610ca55785810151610b0a81610f53565b98610b1789519a8b610eea565b818a52888284010111610ca157610b339188888b019101610ea2565b610b3c84611104565b939093610c91578751928311610c80575050610b6281610b5c8454611151565b84611269565b83601f8211600114610bf557927f893517a5d723982dec709b52dda08b1b426e7c2fe2e98b38ed33eb60f1abc86696959492610bbb83610bc294610be4978d91610bea575b508160011b916000199060031b1c19161790565b90556110ba565b5093610bd7845195858796875286019061118b565b9184830390850152610ec5565b0390a280f35b905089015138610ba7565b82895284892090601f1983168a5b818110610c69575083610be496937f893517a5d723982dec709b52dda08b1b426e7c2fe2e98b38ed33eb60f1abc8669a99989693610bc29660019410610c50575b5050811b0190556110ba565b8a015160001960f88460031b161c191690553880610c44565b91928760018192868d015181550194019201610c03565b634e487b7160e01b8a526041905288fd5b634e487b7160e01b8a5289905288fd5b8a80fd5b8980fd5b634e487b7160e01b8952603283528689fd5b9495939050610cce915097969597611104565b919091610d7d57507f25de5ae65e960cdb90c690dfdeefd74729e50b4647a4c4e85d31ee95d362243594959650610d058154611151565b601f8111610d5c575b506063815586527034b7b71030ba103a3434b9903a34b6b29760791b60018488207f556e61626c6520746f207265747269657665206472756720696e666f726d61748155015551908152a280f35b818852848820610d7791601f0160051c810190600201611252565b38610d0e565b634e487b7160e01b87528690528686fd5b5081511515610abf565b855162461bcd60e51b8152808401869052600d818901526c4f6e6c7920706c6174666f726d60981b6044820152606490fd5b8b80fd5b8190610dd984610f3a565b8152019101908a906109ef565b8e80fd5b634e487b7160e01b8b5260418552888bfd5b8880fd5b5050346100b457816003193601126100b4576020905167b24ac1afbcefc7088152f35b82843461010357602036600319011261010357506100ff610e7a610e81610e689435610e6f610e5b610e54836110ba565b5092611104565b509186519788809261118b565b0387610eea565b84519283809261118b565b0382610eea565b610e948351948486958652850190610ec5565b908382036020850152610ec5565b60005b838110610eb55750506000910152565b8181015183820152602001610ea5565b90602091610ede81518092818552858086019101610ea2565b601f01601f1916010190565b90601f8019910116810190811067ffffffffffffffff821117610f0c57604052565b634e487b7160e01b600052604160045260246000fd5b67ffffffffffffffff8111610f0c5760051b60200190565b35906001600160a01b0382168203610f4e57565b600080fd5b67ffffffffffffffff8111610f0c57601f01601f191660200190565b9080601f83011215610f4e576020908235610f8981610f22565b93604090610f9982519687610eea565b828652848601918560059460051b83010193858511610f4e57868301935b858510610fc957505050505050505090565b67ffffffffffffffff8535818111610f4e57850160c080601f19838c030112610f4e57855192818401848110828211176110a557875261100a8c8401610f3a565b845286830135908111610f4e578201918a603f84011215610f4e578b83013561103281610f53565b9061103f89519283610eea565b8082528c898287010111610f4e5780898f9601868401376000948591830101528c8501526060928382013590878210156101035750878501526080808201359385019390935260a080820135938501939093520135908201528152938701938701610fb7565b60246000634e487b7160e01b81526041600452fd5b9060009182548110156110f0578280527f290decd9548b62a8d60345a988386fc84ba6bc95484008f6362f93160ef3e563019190565b634e487b7160e01b83526032600452602483fd5b60015481101561113b5760016000527fb10e2d527612073b26eecdfd717e6a320cf44b4afac2b0732d9fcbe2b7fa0cf60190600090565b634e487b7160e01b600052603260045260246000fd5b90600182811c92168015611181575b602083101461116b57565b634e487b7160e01b600052602260045260246000fd5b91607f1691611160565b80546000939261119a82611151565b9182825260209360019160018116908160001461120257506001146111c1575b5050505050565b90939495506000929192528360002092846000945b8386106111ee575050505001019038808080806111ba565b8054858701830152940193859082016111d6565b60ff19168685015250505090151560051b0101915038808080806111ba565b9061123c57611239610e7a916040519283809261118b565b90565b634e487b7160e01b600052600060045260246000fd5b81811061125d575050565b60008155600101611252565b9190601f811161127857505050565b6112a4926000526020600020906020601f840160051c830193106112a6575b601f0160051c0190611252565b565b909150819061129756fea2646970667358221220eefcf847d1374707ffedbaffa297e10c39926e51b03f44d815e8912b5333f6c764736f6c63430008180033","opcodes":"PUSH1 0x80 DUP1 PUSH1 0x40 MSTORE CALLVALUE PUSH2 0x16 JUMPI PUSH2 0x12E6 SWAP1 DUP2 PUSH2 0x1C DUP3 CODECOPY RETURN JUMPDEST PUSH1 0x0 DUP1 REVERT INVALID PUSH1 0x40 PUSH1 0x80 DUP2 MSTORE PUSH1 0x4 SWAP1 DUP2 CALLDATASIZE LT ISZERO PUSH2 0x20 JUMPI JUMPDEST POP POP CALLDATASIZE ISZERO PUSH2 0x1E JUMPI PUSH1 0x0 DUP1 REVERT JUMPDEST STOP JUMPDEST PUSH1 0x0 SWAP2 DUP3 CALLDATALOAD PUSH1 0xE0 SHR SWAP1 DUP2 PUSH4 0x1A3CD59A EQ PUSH2 0xE23 JUMPI DUP2 PUSH4 0x2E90C1A9 EQ PUSH2 0xE00 JUMPI DUP2 PUSH4 0x4282574E EQ PUSH2 0x8E7 JUMPI DUP2 PUSH4 0x497482A0 EQ PUSH2 0x225 JUMPI DUP2 PUSH4 0x58E56DB4 EQ PUSH2 0x190 JUMPI DUP2 PUSH4 0x6419FEEE EQ PUSH2 0x168 JUMPI DUP2 PUSH4 0x7EFC77FA EQ PUSH2 0x139 JUMPI DUP2 PUSH4 0x90311E8C EQ PUSH2 0x10A JUMPI DUP2 PUSH4 0xB81C392A EQ PUSH2 0xB8 JUMPI POP PUSH4 0xC7C20ED4 SUB PUSH2 0x11 JUMPI CALLVALUE PUSH2 0xB4 JUMPI DUP2 PUSH1 0x3 NOT CALLDATASIZE ADD SLT PUSH2 0xB4 JUMPI PUSH1 0x20 SWAP1 PUSH1 0x1 SLOAD SWAP1 MLOAD SWAP1 DUP2 MSTORE RETURN JUMPDEST POP DUP1 REVERT JUMPDEST SWAP1 POP CALLVALUE PUSH2 0x106 JUMPI PUSH1 0x20 CALLDATASIZE PUSH1 0x3 NOT ADD SLT PUSH2 0x106 JUMPI CALLDATALOAD SWAP2 DUP1 SLOAD DUP4 LT ISZERO PUSH2 0x103 JUMPI POP PUSH2 0xEC PUSH2 0xE6 PUSH2 0xFF SWAP4 PUSH2 0x10BA JUMP JUMPDEST SWAP1 PUSH2 0x1221 JUMP JUMPDEST SWAP1 MLOAD SWAP2 DUP3 SWAP2 PUSH1 0x20 DUP4 MSTORE PUSH1 0x20 DUP4 ADD SWAP1 PUSH2 0xEC5 JUMP JUMPDEST SUB SWAP1 RETURN JUMPDEST DUP1 REVERT JUMPDEST DUP3 DUP1 REVERT JUMPDEST SWAP1 POP CALLVALUE PUSH2 0x106 JUMPI PUSH1 0x20 CALLDATASIZE PUSH1 0x3 NOT ADD SLT PUSH2 0x106 JUMPI CALLDATALOAD SWAP2 PUSH1 0x1 SLOAD DUP4 LT ISZERO PUSH2 0x103 JUMPI POP PUSH2 0xEC PUSH2 0xE6 PUSH2 0xFF SWAP4 PUSH2 0x1104 JUMP JUMPDEST POP POP CALLVALUE PUSH2 0xB4 JUMPI DUP2 PUSH1 0x3 NOT CALLDATASIZE ADD SLT PUSH2 0xB4 JUMPI PUSH1 0x20 SWAP1 MLOAD PUSH20 0x37BB9C718F3F7FE5ECBDB0B600D607B52706776 DUP2 MSTORE RETURN JUMPDEST SWAP1 POP CALLVALUE PUSH2 0x106 JUMPI PUSH1 0x20 CALLDATASIZE PUSH1 0x3 NOT ADD SLT PUSH2 0x106 JUMPI PUSH1 0x20 SWAP3 DUP3 SWAP2 CALLDATALOAD DUP2 MSTORE PUSH1 0x2 DUP5 MSTORE KECCAK256 SLOAD SWAP1 MLOAD SWAP1 DUP2 MSTORE RETURN JUMPDEST SWAP2 SWAP1 POP CALLVALUE PUSH2 0x106 JUMPI DUP3 PUSH1 0x3 NOT CALLDATASIZE ADD SLT PUSH2 0x106 JUMPI PUSH1 0x20 DUP2 MLOAD DUP1 SWAP4 PUSH4 0xFFEB17D PUSH1 0xE1 SHL DUP3 MSTORE DUP2 PUSH20 0x37BB9C718F3F7FE5ECBDB0B600D607B52706776 GAS STATICCALL SWAP2 DUP3 ISZERO PUSH2 0x21B JUMPI DUP4 SWAP3 PUSH2 0x1E3 JUMPI JUMPDEST PUSH1 0x20 DUP4 DUP4 MLOAD SWAP1 DUP2 MSTORE RETURN JUMPDEST SWAP1 SWAP2 POP PUSH1 0x20 DUP2 RETURNDATASIZE PUSH1 0x20 GT PUSH2 0x213 JUMPI JUMPDEST DUP2 PUSH2 0x1FF PUSH1 0x20 SWAP4 DUP4 PUSH2 0xEEA JUMP JUMPDEST DUP2 ADD SUB SLT PUSH2 0x106 JUMPI PUSH1 0x20 SWAP3 POP MLOAD SWAP1 CODESIZE PUSH2 0x1D9 JUMP JUMPDEST RETURNDATASIZE SWAP2 POP PUSH2 0x1F2 JUMP JUMPDEST DUP2 MLOAD RETURNDATASIZE DUP6 DUP3 RETURNDATACOPY RETURNDATASIZE SWAP1 REVERT JUMPDEST PUSH1 0x20 SWAP3 SWAP2 POP CALLDATASIZE PUSH1 0x3 NOT ADD DUP4 SGT PUSH2 0x8E3 JUMPI DUP1 CALLDATALOAD PUSH8 0xFFFFFFFFFFFFFFFF SWAP5 DUP6 DUP3 GT PUSH2 0x103 JUMPI CALLDATASIZE PUSH1 0x23 DUP4 ADD SLT ISZERO PUSH2 0x103 JUMPI DUP2 DUP4 ADD CALLDATALOAD SWAP3 DUP7 DUP5 GT PUSH2 0xB4 JUMPI PUSH1 0x24 SWAP1 DUP2 DUP5 ADD SWAP2 CALLDATASIZE DUP2 DUP8 DUP8 ADD ADD GT PUSH2 0x8E3 JUMPI DUP7 MLOAD SWAP9 PUSH32 0x50726F7669646520636F6E636973652C206163637572617465206D6564696361 DUP10 DUP12 ADD MSTORE PUSH20 0x361034B73337B936B0BA34B7B71030B137BABA1 PUSH1 0x65 SHL DUP9 DUP12 ADD MSTORE DUP7 DUP5 PUSH1 0x54 DUP13 ADD CALLDATACOPY PUSH2 0x3E5 PUSH2 0x121 DUP12 DUP10 DUP2 ADD PUSH2 0x171 PUSH1 0xF5 SHL PUSH1 0x54 DUP3 ADD MSTORE PUSH32 0x496E636C7564653A203129205768617420697420697320616E6420686F772069 PUSH1 0x56 DUP3 ADD MSTORE PUSH32 0x7420776F726B732C20322920436F6D6D6F6E20757365732C2033292054797069 PUSH1 0x76 DUP3 ADD MSTORE PUSH12 0x31B0B6103237B9B0B3B2961 PUSH1 0xA5 SHL PUSH1 0x96 DUP3 ADD MSTORE PUSH32 0x342920436F6D6D6F6E207369646520656666656374732C20352920496D706F72 PUSH1 0xA2 DUP3 ADD MSTORE PUSH18 0x3A30B73A10383932B1B0BABA34B7B739971 PUSH1 0x75 SHL PUSH1 0xC2 DUP3 ADD MSTORE PUSH32 0x426173652074686973206F6E207374616E64617264206D65646963616C207265 PUSH1 0xD4 DUP3 ADD MSTORE PUSH32 0x666572656E6365732E204B65657020656163682073656374696F6E20746F2031 PUSH1 0xF4 DUP3 ADD MSTORE PUSH13 0x16991039B2B73A32B731B2B997 PUSH1 0x99 SHL PUSH2 0x114 DUP3 ADD MSTORE SUB PUSH2 0x101 DUP2 ADD DUP14 MSTORE ADD DUP12 PUSH2 0xEEA JUMP JUMPDEST DUP8 MLOAD SWAP1 DUP10 DUP3 ADD SWAP1 DUP2 GT DUP3 DUP3 LT OR PUSH2 0x73C JUMPI DUP1 DUP10 MSTORE DUP6 DUP3 MSTORE DUP9 MLOAD PUSH4 0x1FCF9413 PUSH1 0xE3 SHL DUP12 DUP3 ADD MSTORE PUSH1 0x80 DUP5 DUP3 ADD MSTORE SWAP11 DUP12 SWAP2 SWAP1 PUSH2 0x422 SWAP1 PUSH1 0xA4 DUP5 ADD SWAP1 PUSH2 0xEC5 JUMP JUMPDEST DUP3 DUP2 SUB SWAP4 PUSH1 0x23 NOT DUP6 ADD PUSH1 0x44 DUP6 ADD MSTORE PUSH1 0x90 DUP3 MSTORE PUSH32 0x596F7520617265206120636C696E6963616C20706861726D6163697374207072 DUP14 DUP4 ADD MSTORE PUSH32 0x6F766964696E672061636375726174652C2065766964656E63652D6261736564 DUP13 DUP4 ADD MSTORE PUSH32 0x206472756720696E666F726D6174696F6E2E20416C7761797320696E636C7564 PUSH1 0x60 DUP4 ADD MSTORE PUSH32 0x65206120646973636C61696D657220746F20636F6E73756C742061206865616C PUSH1 0x80 DUP4 ADD MSTORE PUSH16 0x3A3431B0B93290383937BB34B232B917 PUSH1 0x81 SHL PUSH1 0xA0 DUP4 ADD MSTORE PUSH1 0xC0 DUP3 ADD SWAP1 PUSH1 0x9C PUSH1 0x1 SWAP7 DUP8 PUSH1 0x64 DUP9 ADD MSTORE ADD PUSH1 0x84 DUP7 ADD MSTORE MLOAD DUP1 SWAP2 MSTORE DUP13 PUSH1 0xE0 DUP4 ADD PUSH1 0xE0 DUP4 PUSH1 0x5 SHL DUP6 ADD ADD SWAP5 SWAP4 DUP8 DUP13 SWAP4 JUMPDEST DUP6 DUP6 LT PUSH2 0x8B1 JUMPI POP POP POP POP POP POP POP SUB SWAP6 PUSH2 0x533 PUSH1 0x1F NOT SWAP8 DUP9 DUP2 ADD DUP14 MSTORE DUP13 PUSH2 0xEEA JUMP JUMPDEST DUP9 MLOAD PUSH4 0xFFEB17D PUSH1 0xE1 SHL DUP2 MSTORE PUSH20 0x37BB9C718F3F7FE5ECBDB0B600D607B52706776 SWAP1 DUP12 DUP2 DUP8 DUP2 DUP6 GAS STATICCALL SWAP1 DUP2 ISZERO PUSH2 0x8A7 JUMPI DUP9 SWAP2 PUSH2 0x876 JUMPI JUMPDEST POP PUSH8 0x2EA11E32AD50000 DUP2 ADD DUP1 SWAP2 GT PUSH2 0x864 JUMPI CALLVALUE LT PUSH2 0x82C JUMPI DUP10 MLOAD PUSH4 0x45DE5DF1 PUSH1 0xE1 SHL DUP2 MSTORE PUSH8 0xB24AC1AFBCEFC708 DUP7 DUP3 ADD MSTORE ADDRESS DUP6 DUP3 ADD MSTORE PUSH4 0x21412BA7 PUSH1 0xE1 SHL PUSH1 0x44 DUP3 ADD MSTORE PUSH1 0x80 PUSH1 0x64 DUP3 ADD MSTORE SWAP11 SWAP12 DUP13 SWAP2 DUP13 SWAP2 DUP3 SWAP1 DUP2 SWAP1 PUSH2 0x5CD SWAP1 PUSH1 0x84 DUP4 ADD SWAP1 PUSH2 0xEC5 JUMP JUMPDEST SUB SWAP2 CALLVALUE SWAP1 GAS CALL SWAP10 DUP11 ISZERO PUSH2 0x822 JUMPI DUP7 SWAP11 PUSH2 0x7EF JUMPI JUMPDEST POP DUP6 SLOAD SWAP1 PUSH9 0x10000000000000000 SWAP2 DUP3 DUP2 LT ISZERO PUSH2 0x7DD JUMPI DUP1 DUP5 PUSH2 0x606 SWAP3 ADD DUP10 SSTORE PUSH2 0x10BA JUMP JUMPDEST SWAP2 SWAP1 SWAP2 PUSH2 0x7CC JUMPI DUP10 DUP14 DUP7 SWAP3 PUSH2 0x625 DUP4 PUSH2 0x61F DUP8 SLOAD PUSH2 0x1151 JUMP JUMPDEST DUP8 PUSH2 0x1269 JUMP JUMPDEST DUP11 SWAP2 PUSH1 0x1F DUP5 GT PUSH1 0x1 EQ PUSH2 0x75B JUMPI POP SWAP3 DUP3 SWAP2 PUSH2 0x657 SWAP5 DUP13 SWAP4 PUSH2 0x74E JUMPI JUMPDEST POP POP POP DUP2 PUSH1 0x1 SHL SWAP2 PUSH1 0x0 NOT SWAP1 PUSH1 0x3 SHL SHR NOT AND OR SWAP1 JUMP JUMPDEST SWAP1 SSTORE JUMPDEST DUP2 SLOAD SWAP1 DUP2 LT ISZERO PUSH2 0x73C JUMPI DUP1 DUP3 PUSH2 0x672 SWAP3 ADD DUP4 SSTORE PUSH2 0x1104 JUMP JUMPDEST PUSH2 0x72B JUMPI DUP1 DUP12 PUSH2 0x684 PUSH1 0x0 SWAP4 SLOAD PUSH2 0x1151 JUMP JUMPDEST PUSH1 0x1F DUP2 GT PUSH2 0x70C JUMPI JUMPDEST POP POP SSTORE SLOAD PUSH1 0x0 NOT DUP2 ADD SWAP3 SWAP1 DUP4 GT PUSH2 0x6FB JUMPI POP POP PUSH32 0x84A36581EF5402B73B738A564DA2F28ED179AA557278C4CF4E21441D7FAF9FA4 SWAP4 PUSH1 0x1F DUP7 DUP6 DUP2 DUP11 SWAP7 DUP14 SWAP7 DUP14 DUP1 SWAP13 SWAP11 MSTORE PUSH1 0x2 DUP9 MSTORE DUP9 DUP5 KECCAK256 SSTORE DUP8 MLOAD SWAP9 DUP8 DUP11 SWAP9 DUP10 MSTORE DUP9 ADD MSTORE DUP8 DUP8 ADD CALLDATACOPY DUP6 DUP3 DUP7 ADD ADD MSTORE ADD AND DUP2 ADD SUB ADD SWAP1 LOG2 MLOAD SWAP1 DUP2 MSTORE RETURN JUMPDEST PUSH4 0x4E487B71 PUSH1 0xE0 SHL DUP6 MSTORE PUSH1 0x11 SWAP1 MSTORE DUP4 REVERT JUMPDEST PUSH1 0x1F PUSH2 0x724 SWAP3 DUP5 DUP12 MSTORE DUP11 KECCAK256 SWAP2 ADD PUSH1 0x5 SHR DUP2 ADD SWAP1 PUSH2 0x1252 JUMP JUMPDEST DUP12 CODESIZE PUSH2 0x68D JUMP JUMPDEST PUSH4 0x4E487B71 PUSH1 0xE0 SHL DUP7 MSTORE DUP6 DUP5 MSTORE DUP3 DUP7 REVERT JUMPDEST PUSH4 0x4E487B71 PUSH1 0xE0 SHL DUP7 MSTORE PUSH1 0x41 DUP5 MSTORE DUP3 DUP7 REVERT JUMPDEST ADD ADD CALLDATALOAD SWAP1 POP DUP7 CODESIZE DUP1 PUSH2 0x641 JUMP JUMPDEST SWAP4 SWAP2 SWAP1 SWAP3 DUP13 DUP2 AND DUP7 DUP14 MSTORE DUP6 DUP14 KECCAK256 SWAP6 DUP14 SWAP1 JUMPDEST DUP11 DUP4 DUP4 LT PUSH2 0x7AA JUMPI POP POP POP LT PUSH2 0x78D JUMPI JUMPDEST POP POP POP POP DUP3 DUP10 DUP2 SHL ADD SWAP1 SSTORE PUSH2 0x65A JUMP JUMPDEST DUP13 PUSH1 0xF8 PUSH1 0x0 NOT SWAP2 PUSH1 0x3 SHL AND SHR NOT SWAP3 ADD ADD CALLDATALOAD AND SWAP1 SSTORE CODESIZE DUP1 DUP6 DUP2 PUSH2 0x77D JUMP JUMPDEST SWAP1 SWAP4 POP DUP5 SWAP8 DUP5 SWAP4 SWAP6 SWAP7 DUP5 SWAP4 SWAP8 DUP10 ADD ADD CALLDATALOAD DUP2 SSTORE ADD SWAP7 ADD SWAP4 ADD SWAP2 DUP10 SWAP4 SWAP3 DUP16 SWAP3 PUSH2 0x76C JUMP JUMPDEST PUSH4 0x4E487B71 PUSH1 0xE0 SHL DUP9 MSTORE DUP8 DUP7 MSTORE DUP5 DUP9 REVERT JUMPDEST PUSH4 0x4E487B71 PUSH1 0xE0 SHL DUP9 MSTORE PUSH1 0x41 DUP7 MSTORE DUP5 DUP9 REVERT JUMPDEST SWAP1 SWAP10 POP DUP11 DUP2 DUP2 RETURNDATASIZE DUP4 GT PUSH2 0x81B JUMPI JUMPDEST PUSH2 0x807 DUP2 DUP4 PUSH2 0xEEA JUMP JUMPDEST DUP2 ADD SUB SLT PUSH2 0x817 JUMPI MLOAD SWAP9 CODESIZE PUSH2 0x5E1 JUMP JUMPDEST DUP6 DUP1 REVERT JUMPDEST POP RETURNDATASIZE PUSH2 0x7FD JUMP JUMPDEST DUP10 MLOAD RETURNDATASIZE DUP9 DUP3 RETURNDATACOPY RETURNDATASIZE SWAP1 REVERT JUMPDEST DUP10 MLOAD PUSH3 0x461BCD PUSH1 0xE5 SHL DUP2 MSTORE DUP1 DUP7 ADD DUP13 SWAP1 MSTORE PUSH1 0x13 DUP2 DUP7 ADD MSTORE PUSH19 0x13995959080C0B8C8D0814D515081D1BDD185B PUSH1 0x6A SHL PUSH1 0x44 DUP3 ADD MSTORE PUSH1 0x64 SWAP1 REVERT JUMPDEST PUSH4 0x4E487B71 PUSH1 0xE0 SHL DUP9 MSTORE PUSH1 0x11 DUP7 MSTORE DUP5 DUP9 REVERT JUMPDEST SWAP1 POP DUP12 DUP2 DUP2 RETURNDATASIZE DUP4 GT PUSH2 0x8A0 JUMPI JUMPDEST PUSH2 0x88D DUP2 DUP4 PUSH2 0xEEA JUMP JUMPDEST DUP2 ADD SUB SLT PUSH2 0x89C JUMPI MLOAD CODESIZE PUSH2 0x56A JUMP JUMPDEST DUP8 DUP1 REVERT JUMPDEST POP RETURNDATASIZE PUSH2 0x883 JUMP JUMPDEST DUP12 MLOAD RETURNDATASIZE DUP11 DUP3 RETURNDATACOPY RETURNDATASIZE SWAP1 REVERT JUMPDEST SWAP2 SWAP4 SWAP6 SWAP8 POP SWAP2 SWAP4 SWAP6 PUSH2 0x8CE DUP3 SWAP2 PUSH1 0xDF NOT DUP7 DUP3 SUB ADD DUP8 MSTORE DUP10 MLOAD PUSH2 0xEC5 JUMP JUMPDEST SWAP8 ADD SWAP4 ADD SWAP4 ADD SWAP1 SWAP3 DUP16 SWAP6 SWAP5 SWAP3 SWAP4 DUP16 DUP9 SWAP1 PUSH2 0x511 JUMP JUMPDEST DUP4 DUP1 REVERT JUMPDEST SWAP1 POP CALLVALUE PUSH2 0x106 JUMPI PUSH1 0x3 NOT SWAP2 PUSH1 0x80 CALLDATASIZE DUP5 ADD SLT PUSH2 0x8E3 JUMPI DUP2 CALLDATALOAD SWAP3 PUSH1 0x24 SWAP3 PUSH8 0xFFFFFFFFFFFFFFFF SWAP1 DUP5 CALLDATALOAD DUP3 DUP2 GT PUSH2 0x89C JUMPI PUSH2 0x922 SWAP1 CALLDATASIZE SWAP1 DUP4 ADD PUSH2 0xF6F JUMP JUMPDEST SWAP2 PUSH1 0x44 CALLDATALOAD SWAP3 PUSH1 0x5 DUP5 LT ISZERO PUSH2 0xDFC JUMPI PUSH1 0x64 CALLDATALOAD SWAP5 DUP3 DUP7 GT PUSH2 0xCA5 JUMPI PUSH2 0x1C0 DUP1 SWAP2 DUP8 CALLDATASIZE SUB ADD SLT PUSH2 0xCA5 JUMPI DUP7 MLOAD SWAP1 DUP2 ADD DUP2 DUP2 LT DUP5 DUP3 GT OR PUSH2 0xDEA JUMPI DUP8 MSTORE DUP6 DUP5 ADD CALLDATALOAD DUP2 MSTORE PUSH2 0x96C DUP9 DUP8 ADD PUSH2 0xF3A JUMP JUMPDEST SWAP6 PUSH1 0x20 SWAP7 DUP8 DUP4 ADD MSTORE PUSH2 0x980 PUSH1 0x44 DUP3 ADD PUSH2 0xF3A JUMP JUMPDEST DUP3 DUP10 ADD MSTORE PUSH1 0x64 DUP2 ADD CALLDATALOAD PUSH1 0x1 PUSH1 0x1 PUSH1 0xE0 SHL SUB NOT DUP2 AND DUP2 SUB PUSH2 0xDCA JUMPI PUSH1 0x60 DUP4 ADD MSTORE PUSH1 0x84 DUP2 ADD CALLDATALOAD DUP5 DUP2 GT PUSH2 0xDCA JUMPI DUP2 ADD CALLDATASIZE PUSH1 0x23 DUP3 ADD SLT ISZERO PUSH2 0xDCA JUMPI DUP6 DUP2 ADD CALLDATALOAD SWAP1 PUSH2 0x9C6 DUP3 PUSH2 0xF22 JUMP JUMPDEST SWAP2 PUSH2 0x9D3 DUP12 MLOAD SWAP4 DUP5 PUSH2 0xEEA JUMP JUMPDEST DUP1 DUP4 MSTORE DUP12 DUP11 DUP5 ADD SWAP2 PUSH1 0x5 SHL DUP4 ADD ADD SWAP2 CALLDATASIZE DUP4 GT PUSH2 0xDE6 JUMPI DUP13 DUP12 SWAP2 ADD SWAP2 JUMPDEST DUP4 DUP4 LT PUSH2 0xDCE JUMPI POP POP POP POP PUSH1 0x80 DUP4 ADD MSTORE PUSH1 0xA4 DUP2 ADD CALLDATALOAD DUP5 DUP2 GT PUSH2 0xDCA JUMPI PUSH2 0xA1A SWAP1 DUP7 CALLDATASIZE SWAP2 DUP5 ADD ADD PUSH2 0xF6F JUMP JUMPDEST PUSH1 0xA0 DUP4 ADD MSTORE PUSH1 0xC4 DUP2 ADD CALLDATALOAD PUSH1 0xC0 DUP4 ADD MSTORE PUSH1 0xE4 DUP2 ADD CALLDATALOAD PUSH1 0xE0 DUP4 ADD MSTORE PUSH2 0x104 DUP2 ADD CALLDATALOAD PUSH2 0x100 DUP4 ADD MSTORE PUSH2 0x124 DUP2 ADD CALLDATALOAD PUSH2 0x120 DUP4 ADD MSTORE PUSH2 0x144 DUP2 ADD CALLDATALOAD PUSH2 0x140 DUP4 ADD MSTORE PUSH2 0x164 DUP2 ADD CALLDATALOAD PUSH1 0x5 DUP2 LT ISZERO PUSH2 0xDCA JUMPI PUSH2 0x160 DUP4 ADD MSTORE PUSH2 0x184 DUP2 ADD CALLDATALOAD PUSH1 0x2 DUP2 LT ISZERO PUSH2 0xDCA JUMPI PUSH2 0x1A0 SWAP2 PUSH2 0x1A4 SWAP2 PUSH2 0x180 DUP6 ADD MSTORE ADD CALLDATALOAD SWAP2 ADD MSTORE PUSH20 0x37BB9C718F3F7FE5ECBDB0B600D607B52706776 CALLER SUB PUSH2 0xD98 JUMPI DUP8 DUP10 MSTORE PUSH1 0x2 DUP6 MSTORE DUP6 DUP10 KECCAK256 SLOAD SWAP4 PUSH1 0x2 DUP2 EQ DUP1 PUSH2 0xD8E JUMPI JUMPDEST ISZERO PUSH2 0xCBB JUMPI POP DUP1 MLOAD ISZERO PUSH2 0xCA9 JUMPI DUP5 DUP1 SWAP2 ADD MLOAD ADD MLOAD SWAP6 DUP7 MLOAD DUP8 ADD SWAP7 DUP6 DUP2 DUP2 DUP11 ADD SWAP10 SUB SLT PUSH2 0xCA5 JUMPI DUP6 DUP2 ADD MLOAD SWAP1 DUP4 DUP3 GT PUSH2 0xCA1 JUMPI ADD DUP8 PUSH1 0x3F DUP3 ADD SLT ISZERO PUSH2 0xCA5 JUMPI DUP6 DUP2 ADD MLOAD PUSH2 0xB0A DUP2 PUSH2 0xF53 JUMP JUMPDEST SWAP9 PUSH2 0xB17 DUP10 MLOAD SWAP11 DUP12 PUSH2 0xEEA JUMP JUMPDEST DUP2 DUP11 MSTORE DUP9 DUP3 DUP5 ADD ADD GT PUSH2 0xCA1 JUMPI PUSH2 0xB33 SWAP2 DUP9 DUP9 DUP12 ADD SWAP2 ADD PUSH2 0xEA2 JUMP JUMPDEST PUSH2 0xB3C DUP5 PUSH2 0x1104 JUMP JUMPDEST SWAP4 SWAP1 SWAP4 PUSH2 0xC91 JUMPI DUP8 MLOAD SWAP3 DUP4 GT PUSH2 0xC80 JUMPI POP POP PUSH2 0xB62 DUP2 PUSH2 0xB5C DUP5 SLOAD PUSH2 0x1151 JUMP JUMPDEST DUP5 PUSH2 0x1269 JUMP JUMPDEST DUP4 PUSH1 0x1F DUP3 GT PUSH1 0x1 EQ PUSH2 0xBF5 JUMPI SWAP3 PUSH32 0x893517A5D723982DEC709B52DDA08B1B426E7C2FE2E98B38ED33EB60F1ABC866 SWAP7 SWAP6 SWAP5 SWAP3 PUSH2 0xBBB DUP4 PUSH2 0xBC2 SWAP5 PUSH2 0xBE4 SWAP8 DUP14 SWAP2 PUSH2 0xBEA JUMPI JUMPDEST POP DUP2 PUSH1 0x1 SHL SWAP2 PUSH1 0x0 NOT SWAP1 PUSH1 0x3 SHL SHR NOT AND OR SWAP1 JUMP JUMPDEST SWAP1 SSTORE PUSH2 0x10BA JUMP JUMPDEST POP SWAP4 PUSH2 0xBD7 DUP5 MLOAD SWAP6 DUP6 DUP8 SWAP7 DUP8 MSTORE DUP7 ADD SWAP1 PUSH2 0x118B JUMP JUMPDEST SWAP2 DUP5 DUP4 SUB SWAP1 DUP6 ADD MSTORE PUSH2 0xEC5 JUMP JUMPDEST SUB SWAP1 LOG2 DUP1 RETURN JUMPDEST SWAP1 POP DUP10 ADD MLOAD CODESIZE PUSH2 0xBA7 JUMP JUMPDEST DUP3 DUP10 MSTORE DUP5 DUP10 KECCAK256 SWAP1 PUSH1 0x1F NOT DUP4 AND DUP11 JUMPDEST DUP2 DUP2 LT PUSH2 0xC69 JUMPI POP DUP4 PUSH2 0xBE4 SWAP7 SWAP4 PUSH32 0x893517A5D723982DEC709B52DDA08B1B426E7C2FE2E98B38ED33EB60F1ABC866 SWAP11 SWAP10 SWAP9 SWAP7 SWAP4 PUSH2 0xBC2 SWAP7 PUSH1 0x1 SWAP5 LT PUSH2 0xC50 JUMPI JUMPDEST POP POP DUP2 SHL ADD SWAP1 SSTORE PUSH2 0x10BA JUMP JUMPDEST DUP11 ADD MLOAD PUSH1 0x0 NOT PUSH1 0xF8 DUP5 PUSH1 0x3 SHL AND SHR NOT AND SWAP1 SSTORE CODESIZE DUP1 PUSH2 0xC44 JUMP JUMPDEST SWAP2 SWAP3 DUP8 PUSH1 0x1 DUP2 SWAP3 DUP7 DUP14 ADD MLOAD DUP2 SSTORE ADD SWAP5 ADD SWAP3 ADD PUSH2 0xC03 JUMP JUMPDEST PUSH4 0x4E487B71 PUSH1 0xE0 SHL DUP11 MSTORE PUSH1 0x41 SWAP1 MSTORE DUP9 REVERT JUMPDEST PUSH4 0x4E487B71 PUSH1 0xE0 SHL DUP11 MSTORE DUP10 SWAP1 MSTORE DUP9 REVERT JUMPDEST DUP11 DUP1 REVERT JUMPDEST DUP10 DUP1 REVERT JUMPDEST PUSH4 0x4E487B71 PUSH1 0xE0 SHL DUP10 MSTORE PUSH1 0x32 DUP4 MSTORE DUP7 DUP10 REVERT JUMPDEST SWAP5 SWAP6 SWAP4 SWAP1 POP PUSH2 0xCCE SWAP2 POP SWAP8 SWAP7 SWAP6 SWAP8 PUSH2 0x1104 JUMP JUMPDEST SWAP2 SWAP1 SWAP2 PUSH2 0xD7D JUMPI POP PUSH32 0x25DE5AE65E960CDB90C690DFDEEFD74729E50B4647A4C4E85D31EE95D3622435 SWAP5 SWAP6 SWAP7 POP PUSH2 0xD05 DUP2 SLOAD PUSH2 0x1151 JUMP JUMPDEST PUSH1 0x1F DUP2 GT PUSH2 0xD5C JUMPI JUMPDEST POP PUSH1 0x63 DUP2 SSTORE DUP7 MSTORE PUSH17 0x34B7B71030BA103A3434B9903A34B6B297 PUSH1 0x79 SHL PUSH1 0x1 DUP5 DUP9 KECCAK256 PUSH32 0x556E61626C6520746F207265747269657665206472756720696E666F726D6174 DUP2 SSTORE ADD SSTORE MLOAD SWAP1 DUP2 MSTORE LOG2 DUP1 RETURN JUMPDEST DUP2 DUP9 MSTORE DUP5 DUP9 KECCAK256 PUSH2 0xD77 SWAP2 PUSH1 0x1F ADD PUSH1 0x5 SHR DUP2 ADD SWAP1 PUSH1 0x2 ADD PUSH2 0x1252 JUMP JUMPDEST CODESIZE PUSH2 0xD0E JUMP JUMPDEST PUSH4 0x4E487B71 PUSH1 0xE0 SHL DUP8 MSTORE DUP7 SWAP1 MSTORE DUP7 DUP7 REVERT JUMPDEST POP DUP2 MLOAD ISZERO ISZERO PUSH2 0xABF JUMP JUMPDEST DUP6 MLOAD PUSH3 0x461BCD PUSH1 0xE5 SHL DUP2 MSTORE DUP1 DUP5 ADD DUP7 SWAP1 MSTORE PUSH1 0xD DUP2 DUP10 ADD MSTORE PUSH13 0x4F6E6C7920706C6174666F726D PUSH1 0x98 SHL PUSH1 0x44 DUP3 ADD MSTORE PUSH1 0x64 SWAP1 REVERT JUMPDEST DUP12 DUP1 REVERT JUMPDEST DUP2 SWAP1 PUSH2 0xDD9 DUP5 PUSH2 0xF3A JUMP JUMPDEST DUP2 MSTORE ADD SWAP2 ADD SWAP1 DUP11 SWAP1 PUSH2 0x9EF JUMP JUMPDEST DUP15 DUP1 REVERT JUMPDEST PUSH4 0x4E487B71 PUSH1 0xE0 SHL DUP12 MSTORE PUSH1 0x41 DUP6 MSTORE DUP9 DUP12 REVERT JUMPDEST DUP9 DUP1 REVERT JUMPDEST POP POP CALLVALUE PUSH2 0xB4 JUMPI DUP2 PUSH1 0x3 NOT CALLDATASIZE ADD SLT PUSH2 0xB4 JUMPI PUSH1 0x20 SWAP1 MLOAD PUSH8 0xB24AC1AFBCEFC708 DUP2 MSTORE RETURN JUMPDEST DUP3 DUP5 CALLVALUE PUSH2 0x103 JUMPI PUSH1 0x20 CALLDATASIZE PUSH1 0x3 NOT ADD SLT PUSH2 0x103 JUMPI POP PUSH2 0xFF PUSH2 0xE7A PUSH2 0xE81 PUSH2 0xE68 SWAP5 CALLDATALOAD PUSH2 0xE6F PUSH2 0xE5B PUSH2 0xE54 DUP4 PUSH2 0x10BA JUMP JUMPDEST POP SWAP3 PUSH2 0x1104 JUMP JUMPDEST POP SWAP2 DUP7 MLOAD SWAP8 DUP9 DUP1 SWAP3 PUSH2 0x118B JUMP JUMPDEST SUB DUP8 PUSH2 0xEEA JUMP JUMPDEST DUP5 MLOAD SWAP3 DUP4 DUP1 SWAP3 PUSH2 0x118B JUMP JUMPDEST SUB DUP3 PUSH2 0xEEA JUMP JUMPDEST PUSH2 0xE94 DUP4 MLOAD SWAP5 DUP5 DUP7 SWAP6 DUP7 MSTORE DUP6 ADD SWAP1 PUSH2 0xEC5 JUMP JUMPDEST SWAP1 DUP4 DUP3 SUB PUSH1 0x20 DUP6 ADD MSTORE PUSH2 0xEC5 JUMP JUMPDEST PUSH1 0x0 JUMPDEST DUP4 DUP2 LT PUSH2 0xEB5 JUMPI POP POP PUSH1 0x0 SWAP2 ADD MSTORE JUMP JUMPDEST DUP2 DUP2 ADD MLOAD DUP4 DUP3 ADD MSTORE PUSH1 0x20 ADD PUSH2 0xEA5 JUMP JUMPDEST SWAP1 PUSH1 0x20 SWAP2 PUSH2 0xEDE DUP2 MLOAD DUP1 SWAP3 DUP2 DUP6 MSTORE DUP6 DUP1 DUP7 ADD SWAP2 ADD PUSH2 0xEA2 JUMP JUMPDEST PUSH1 0x1F ADD PUSH1 0x1F NOT AND ADD ADD SWAP1 JUMP JUMPDEST SWAP1 PUSH1 0x1F DUP1 NOT SWAP2 ADD AND DUP2 ADD SWAP1 DUP2 LT PUSH8 0xFFFFFFFFFFFFFFFF DUP3 GT OR PUSH2 0xF0C JUMPI PUSH1 0x40 MSTORE JUMP JUMPDEST PUSH4 0x4E487B71 PUSH1 0xE0 SHL PUSH1 0x0 MSTORE PUSH1 0x41 PUSH1 0x4 MSTORE PUSH1 0x24 PUSH1 0x0 REVERT JUMPDEST PUSH8 0xFFFFFFFFFFFFFFFF DUP2 GT PUSH2 0xF0C JUMPI PUSH1 0x5 SHL PUSH1 0x20 ADD SWAP1 JUMP JUMPDEST CALLDATALOAD SWAP1 PUSH1 0x1 PUSH1 0x1 PUSH1 0xA0 SHL SUB DUP3 AND DUP3 SUB PUSH2 0xF4E JUMPI JUMP JUMPDEST PUSH1 0x0 DUP1 REVERT JUMPDEST PUSH8 0xFFFFFFFFFFFFFFFF DUP2 GT PUSH2 0xF0C JUMPI PUSH1 0x1F ADD PUSH1 0x1F NOT AND PUSH1 0x20 ADD SWAP1 JUMP JUMPDEST SWAP1 DUP1 PUSH1 0x1F DUP4 ADD SLT ISZERO PUSH2 0xF4E JUMPI PUSH1 0x20 SWAP1 DUP3 CALLDATALOAD PUSH2 0xF89 DUP2 PUSH2 0xF22 JUMP JUMPDEST SWAP4 PUSH1 0x40 SWAP1 PUSH2 0xF99 DUP3 MLOAD SWAP7 DUP8 PUSH2 0xEEA JUMP JUMPDEST DUP3 DUP7 MSTORE DUP5 DUP7 ADD SWAP2 DUP6 PUSH1 0x5 SWAP5 PUSH1 0x5 SHL DUP4 ADD ADD SWAP4 DUP6 DUP6 GT PUSH2 0xF4E JUMPI DUP7 DUP4 ADD SWAP4 JUMPDEST DUP6 DUP6 LT PUSH2 0xFC9 JUMPI POP POP POP POP POP POP POP POP SWAP1 JUMP JUMPDEST PUSH8 0xFFFFFFFFFFFFFFFF DUP6 CALLDATALOAD DUP2 DUP2 GT PUSH2 0xF4E JUMPI DUP6 ADD PUSH1 0xC0 DUP1 PUSH1 0x1F NOT DUP4 DUP13 SUB ADD SLT PUSH2 0xF4E JUMPI DUP6 MLOAD SWAP3 DUP2 DUP5 ADD DUP5 DUP2 LT DUP3 DUP3 GT OR PUSH2 0x10A5 JUMPI DUP8 MSTORE PUSH2 0x100A DUP13 DUP5 ADD PUSH2 0xF3A JUMP JUMPDEST DUP5 MSTORE DUP7 DUP4 ADD CALLDATALOAD SWAP1 DUP2 GT PUSH2 0xF4E JUMPI DUP3 ADD SWAP2 DUP11 PUSH1 0x3F DUP5 ADD SLT ISZERO PUSH2 0xF4E JUMPI DUP12 DUP4 ADD CALLDATALOAD PUSH2 0x1032 DUP2 PUSH2 0xF53 JUMP JUMPDEST SWAP1 PUSH2 0x103F DUP10 MLOAD SWAP3 DUP4 PUSH2 0xEEA JUMP JUMPDEST DUP1 DUP3 MSTORE DUP13 DUP10 DUP3 DUP8 ADD ADD GT PUSH2 0xF4E JUMPI DUP1 DUP10 DUP16 SWAP7 ADD DUP7 DUP5 ADD CALLDATACOPY PUSH1 0x0 SWAP5 DUP6 SWAP2 DUP4 ADD ADD MSTORE DUP13 DUP6 ADD MSTORE PUSH1 0x60 SWAP3 DUP4 DUP3 ADD CALLDATALOAD SWAP1 DUP8 DUP3 LT ISZERO PUSH2 0x103 JUMPI POP DUP8 DUP6 ADD MSTORE PUSH1 0x80 DUP1 DUP3 ADD CALLDATALOAD SWAP4 DUP6 ADD SWAP4 SWAP1 SWAP4 MSTORE PUSH1 0xA0 DUP1 DUP3 ADD CALLDATALOAD SWAP4 DUP6 ADD SWAP4 SWAP1 SWAP4 MSTORE ADD CALLDATALOAD SWAP1 DUP3 ADD MSTORE DUP2 MSTORE SWAP4 DUP8 ADD SWAP4 DUP8 ADD PUSH2 0xFB7 JUMP JUMPDEST PUSH1 0x24 PUSH1 0x0 PUSH4 0x4E487B71 PUSH1 0xE0 SHL DUP2 MSTORE PUSH1 0x41 PUSH1 0x4 MSTORE REVERT JUMPDEST SWAP1 PUSH1 0x0 SWAP2 DUP3 SLOAD DUP2 LT ISZERO PUSH2 0x10F0 JUMPI DUP3 DUP1 MSTORE PUSH32 0x290DECD9548B62A8D60345A988386FC84BA6BC95484008F6362F93160EF3E563 ADD SWAP2 SWAP1 JUMP JUMPDEST PUSH4 0x4E487B71 PUSH1 0xE0 SHL DUP4 MSTORE PUSH1 0x32 PUSH1 0x4 MSTORE PUSH1 0x24 DUP4 REVERT JUMPDEST PUSH1 0x1 SLOAD DUP2 LT ISZERO PUSH2 0x113B JUMPI PUSH1 0x1 PUSH1 0x0 MSTORE PUSH32 0xB10E2D527612073B26EECDFD717E6A320CF44B4AFAC2B0732D9FCBE2B7FA0CF6 ADD SWAP1 PUSH1 0x0 SWAP1 JUMP JUMPDEST PUSH4 0x4E487B71 PUSH1 0xE0 SHL PUSH1 0x0 MSTORE PUSH1 0x32 PUSH1 0x4 MSTORE PUSH1 0x24 PUSH1 0x0 REVERT JUMPDEST SWAP1 PUSH1 0x1 DUP3 DUP2 SHR SWAP3 AND DUP1 ISZERO PUSH2 0x1181 JUMPI JUMPDEST PUSH1 0x20 DUP4 LT EQ PUSH2 0x116B JUMPI JUMP JUMPDEST PUSH4 0x4E487B71 PUSH1 0xE0 SHL PUSH1 0x0 MSTORE PUSH1 0x22 PUSH1 0x4 MSTORE PUSH1 0x24 PUSH1 0x0 REVERT JUMPDEST SWAP2 PUSH1 0x7F AND SWAP2 PUSH2 0x1160 JUMP JUMPDEST DUP1 SLOAD PUSH1 0x0 SWAP4 SWAP3 PUSH2 0x119A DUP3 PUSH2 0x1151 JUMP JUMPDEST SWAP2 DUP3 DUP3 MSTORE PUSH1 0x20 SWAP4 PUSH1 0x1 SWAP2 PUSH1 0x1 DUP2 AND SWAP1 DUP2 PUSH1 0x0 EQ PUSH2 0x1202 JUMPI POP PUSH1 0x1 EQ PUSH2 0x11C1 JUMPI JUMPDEST POP POP POP POP POP JUMP JUMPDEST SWAP1 SWAP4 SWAP5 SWAP6 POP PUSH1 0x0 SWAP3 SWAP2 SWAP3 MSTORE DUP4 PUSH1 0x0 KECCAK256 SWAP3 DUP5 PUSH1 0x0 SWAP5 JUMPDEST DUP4 DUP7 LT PUSH2 0x11EE JUMPI POP POP POP POP ADD ADD SWAP1 CODESIZE DUP1 DUP1 DUP1 DUP1 PUSH2 0x11BA JUMP JUMPDEST DUP1 SLOAD DUP6 DUP8 ADD DUP4 ADD MSTORE SWAP5 ADD SWAP4 DUP6 SWAP1 DUP3 ADD PUSH2 0x11D6 JUMP JUMPDEST PUSH1 0xFF NOT AND DUP7 DUP6 ADD MSTORE POP POP POP SWAP1 ISZERO ISZERO PUSH1 0x5 SHL ADD ADD SWAP2 POP CODESIZE DUP1 DUP1 DUP1 DUP1 PUSH2 0x11BA JUMP JUMPDEST SWAP1 PUSH2 0x123C JUMPI PUSH2 0x1239 PUSH2 0xE7A SWAP2 PUSH1 0x40 MLOAD SWAP3 DUP4 DUP1 SWAP3 PUSH2 0x118B JUMP JUMPDEST SWAP1 JUMP JUMPDEST PUSH4 0x4E487B71 PUSH1 0xE0 SHL PUSH1 0x0 MSTORE PUSH1 0x0 PUSH1 0x4 MSTORE PUSH1 0x24 PUSH1 0x0 REVERT JUMPDEST DUP2 DUP2 LT PUSH2 0x125D JUMPI POP POP JUMP JUMPDEST PUSH1 0x0 DUP2 SSTORE PUSH1 0x1 ADD PUSH2 0x1252 JUMP JUMPDEST SWAP2 SWAP1 PUSH1 0x1F DUP2 GT PUSH2 0x1278 JUMPI POP POP POP JUMP JUMPDEST PUSH2 0x12A4 SWAP3 PUSH1 0x0 MSTORE PUSH1 0x20 PUSH1 0x0 KECCAK256 SWAP1 PUSH1 0x20 PUSH1 0x1F DUP5 ADD PUSH1 0x5 SHR DUP4 ADD SWAP4 LT PUSH2 0x12A6 JUMPI JUMPDEST PUSH1 0x1F ADD PUSH1 0x5 SHR ADD SWAP1 PUSH2 0x1252 JUMP JUMPDEST JUMP JUMPDEST SWAP1 SWAP2 POP DUP2 SWAP1 PUSH2 0x1297 JUMP INVALID LOG2 PUSH5 0x6970667358 0x22 SLT KECCAK256 0xEE 0xFC 0xF8 SELFBALANCE 0xD1 CALLDATACOPY SELFBALANCE SMOD SELFDESTRUCT 0xED 0xBA SELFDESTRUCT LOG2 SWAP8 0xE1 0xC CODECOPY SWAP3 PUSH15 0x51B03F44D815E8912B5333F6C76473 PUSH16 0x6C634300081800330000000000000000 "},"methodIdentifiers":{"LLM_AGENT_ID()":"2e90c1a9","PLATFORM()":"7efc77fa","drugInfo(uint256)":"90311e8c","drugNames(uint256)":"b81c392a","getDrugInfo(string)":"497482a0","getInfo(uint256)":"1a3cd59a","getInfoCount()":"c7c20ed4","getRequiredDeposit()":"58e56db4","handleResult(uint256,(address,bytes,uint8,uint256,uint256,uint256)[],uint8,(uint256,address,address,bytes4,address[],(address,bytes,uint8,uint256,uint256,uint256)[],uint256,uint256,uint256,uint256,uint256,uint8,uint8,uint256))":"4282574e","requestToInfoIndex(uint256)":"6419feee"}}}}}