{"contracts/DrugInfo.sol":{"DrugInfo":{"abi":[{"anonymous":false,"inputs":[{"indexed":true,"internalType":"uint256","name":"requestId","type":"uint256"},{"indexed":false,"internalType":"enum ResponseStatus","name":"status","type":"uint8"}],"name":"DrugInfoFailed","type":"event"},{"anonymous":false,"inputs":[{"indexed":true,"internalType":"uint256","name":"requestId","type":"uint256"},{"indexed":false,"internalType":"string","name":"drugName","type":"string"},{"indexed":false,"internalType":"string","name":"result","type":"string"}],"name":"DrugInfoReceived","type":"event"},{"anonymous":false,"inputs":[{"indexed":true,"internalType":"uint256","name":"requestId","type":"uint256"},{"indexed":false,"internalType":"string","name":"drugName","type":"string"}],"name":"DrugInfoRequested","type":"event"},{"inputs":[],"name":"PLATFORM","outputs":[{"internalType":"contract IAgentRequester","name":"","type":"address"}],"stateMutability":"view","type":"function"},{"inputs":[],"name":"WEB_AGENT_ID","outputs":[{"internalType":"uint256","name":"","type":"uint256"}],"stateMutability":"view","type":"function"},{"inputs":[{"internalType":"uint256","name":"","type":"uint256"}],"name":"drugNames","outputs":[{"internalType":"string","name":"","type":"string"}],"stateMutability":"view","type":"function"},{"inputs":[{"internalType":"string","name":"drugName","type":"string"}],"name":"getDrugInfo","outputs":[{"internalType":"uint256","name":"requestId","type":"uint256"}],"stateMutability":"payable","type":"function"},{"inputs":[],"name":"getRequiredDeposit","outputs":[{"internalType":"uint256","name":"","type":"uint256"}],"stateMutability":"view","type":"function"},{"inputs":[{"internalType":"uint256","name":"index","type":"uint256"}],"name":"getResult","outputs":[{"internalType":"string","name":"drugName","type":"string"},{"internalType":"string","name":"result","type":"string"}],"stateMutability":"view","type":"function"},{"inputs":[],"name":"getResultCount","outputs":[{"internalType":"uint256","name":"","type":"uint256"}],"stateMutability":"view","type":"function"},{"inputs":[{"internalType":"uint256","name":"requestId","type":"uint256"},{"components":[{"internalType":"address","name":"validator","type":"address"},{"internalType":"bytes","name":"result","type":"bytes"},{"internalType":"enum ResponseStatus","name":"status","type":"uint8"},{"internalType":"uint256","name":"receipt","type":"uint256"},{"internalType":"uint256","name":"timestamp","type":"uint256"},{"internalType":"uint256","name":"executionCost","type":"uint256"}],"internalType":"struct Response[]","name":"responses","type":"tuple[]"},{"internalType":"enum ResponseStatus","name":"status","type":"uint8"},{"components":[{"internalType":"uint256","name":"id","type":"uint256"},{"internalType":"address","name":"requester","type":"address"},{"internalType":"address","name":"callbackAddress","type":"address"},{"internalType":"bytes4","name":"callbackSelector","type":"bytes4"},{"internalType":"address[]","name":"subcommittee","type":"address[]"},{"components":[{"internalType":"address","name":"validator","type":"address"},{"internalType":"bytes","name":"result","type":"bytes"},{"internalType":"enum ResponseStatus","name":"status","type":"uint8"},{"internalType":"uint256","name":"receipt","type":"uint256"},{"internalType":"uint256","name":"timestamp","type":"uint256"},{"internalType":"uint256","name":"executionCost","type":"uint256"}],"internalType":"struct Response[]","name":"responses","type":"tuple[]"},{"internalType":"uint256","name":"responseCount","type":"uint256"},{"internalType":"uint256","name":"failureCount","type":"uint256"},{"internalType":"uint256","name":"threshold","type":"uint256"},{"internalType":"uint256","name":"createdAt","type":"uint256"},{"internalType":"uint256","name":"deadline","type":"uint256"},{"internalType":"enum ResponseStatus","name":"status","type":"uint8"},{"internalType":"enum ConsensusType","name":"consensusType","type":"uint8"},{"internalType":"uint256","name":"remainingBudget","type":"uint256"}],"internalType":"struct Request","name":"","type":"tuple"}],"name":"handleResult","outputs":[],"stateMutability":"nonpayable","type":"function"},{"inputs":[{"internalType":"uint256","name":"","type":"uint256"}],"name":"requestToResultIndex","outputs":[{"internalType":"uint256","name":"","type":"uint256"}],"stateMutability":"view","type":"function"},{"inputs":[{"internalType":"uint256","name":"","type":"uint256"}],"name":"searchResults","outputs":[{"internalType":"string","name":"","type":"string"}],"stateMutability":"view","type":"function"},{"stateMutability":"payable","type":"receive"}],"evm":{"bytecode":{"linkReferences":{},"object":"6080806040523461001657611201908161001c8239f35b600080fdfe60806040818152600480361015610021575b505050361561001f57600080fd5b005b600092833560e01c90816329fad5fe14610da1575080634282574e1461089a578063445bd91a14610873578063497482a01461028057806358e56db4146101ec5780637efc77fa146101bd57806385b64cf514610195578063995e433914610116578063af9db5a7146100e85763b81c392a0361001157346100e45760203660031901126100e457359180548310156100e157506100ca6100c46100dd93611022565b9061113c565b9051918291602083526020830190610fb0565b0390f35b80fd5b8280fd5b50346100e45760203660031901126100e45735916001548310156100e157506100ca6100c46100dd93610fd5565b5091346100e15760203660031901126100e157506100dd61016d61017461015b943561016261014e61014783611022565b5092610fd5565b50918651978880926110a6565b0387610dbd565b8451928380926110a6565b0382610dbd565b6101878351948486958652850190610fb0565b908382036020850152610fb0565b5050346101b957816003193601126101b95760209051680516658387d1455b868152f35b5080fd5b5050346101b957816003193601126101b9576020905173037bb9c718f3f7fe5ecbdb0b600d607b527067768152f35b5090346100e457826003193601126100e457602081518093630ffeb17d60e11b82528173037bb9c718f3f7fe5ecbdb0b600d607b527067765afa91821561027657839261023e575b6020838351908152f35b9091506020813d60201161026e575b8161025a60209383610dbd565b810103126100e45760209250519038610234565b3d915061024d565b81513d85823e3d90fd5b5090602092836003193601126100e15767ffffffffffffffff9280358481116100e457366023820112156100e4578082013585811161086f57602491828101903684848301011161086b578651907f457874726163742074686520757365732c20646f736167652c20616e642073698a8301526d032329032b33332b1ba399037b3160951b888301528383604e840137610331604f83868101601760f91b604e82015203602f810185520183610dbd565b8751988a8a019081118a82101761085957808952878a52888b8151809c635d966f2360e11b8383015260e08a83015260076101048301526673756d6d61727960c81b6101248301526101206044830152601e6101448301527f557365732c20646f736167652c20616e6420736964652065666665637473000061016483015261016060646101848401930152518091528c6101a4808201908360051b83010195938d925b84841061082957505050505050610413743f7365617263687465726d3d445255475f4e414d4560581b92602319958d60848882850301910152610fb0565b8b810394850160a48d0152603581527f68747470733a2f2f7777772e64727567732e636f6d2f7365617263682e7068708d820152015261046960606001938460c48d01528460e48d01528a81018c52018a610dbd565b8751630ffeb17d60e11b81529873037bb9c718f3f7fe5ecbdb0b600d607b527067768b8b8981845afa9a8b1561081f57899b6107ec575b508a34106107b35789516345de5df160e11b8152680516658387d1455b868982015230818901526321412ba760e11b6044820152608060648201529a9695949392918c918c9182908a9082906104fa906084830190610fb0565b03925af1998a156107a957889a610776575b5087549068010000000000000000918281101561076457808461053192018b55611022565b91909161075357858d88926105508361054a875461106c565b87611184565b8c8092601f85116001146106e35750916105819491846106d6575b5050508160011b916000199060031b1c19161790565b90555b8154908110156106c457808261059c92018355610fd5565b6106b357808b6105ae6000935461106c565b601f8111610694575b5050555460001981019081116106825791878a82807f84a36581ef5402b73b738a564da2f28ed179aa557278c4cf4e21441d7faf9fa4958d97888d5260028552858d205584519584879586528501528484013781810183018a9052601f01601f19168101030190a2813411610631575b5050505051908152f35b8134039234841161067157505082808093819382903414610668575b3390f11561065d57808080610627565b9051903d90823e3d90fd5b506108fc61064d565b634e487b7160e01b85526011905283fd5b634e487b7160e01b8752601186528387fd5b601f6106ac92848d528c20910160051c81019061116d565b8b386105b7565b634e487b7160e01b88528787528488fd5b634e487b7160e01b8852604187528488fd5b010135905088388061056b565b86825280822095929492939291601f198316915b8a8383106107345750505010610718575b505050508285811b019055610584565b60001960f88a60031b161c199201013516905538808781610708565b87860190960135885596909401958c94938101938c93508101906106f7565b634e487b7160e01b8a52898952868afd5b634e487b7160e01b8a5260418952868afd5b9099508a81813d83116107a2575b61078e8183610dbd565b8101031261079e5751983861050c565b8780fd5b503d610784565b89513d8a823e3d90fd5b895162461bcd60e51b81528089018d905260148189015273125b9cdd59999a58da595b9d0819195c1bdcda5d60621b6044820152606490fd5b909a508b81813d8311610818575b6108048183610dbd565b81010312610814575199386104a0565b8880fd5b503d6107fa565b8a513d8b823e3d90fd5b81929496506001939597610848916101a3199082030186528851610fb0565b9601920192018c9391928f8f6103d5565b634e487b7160e01b8852604187528588fd5b8580fd5b8380fd5b50346100e45760203660031901126100e45760209282913581526002845220549051908152f35b50346100e4576003199160803684011261086f5781359260249267ffffffffffffffff90843582811161079e576108d49036908301610e42565b916044359260058410156108145760643594828611610c57576101c080918736030112610c5757865190810181811084821117610d8f57875285840135815261091e888701610e0d565b956020968783015261093260448201610e0d565b8289015260648101356001600160e01b031981168103610d6f5760608301526084810135848111610d6f57810136602382011215610d6f57858101359061097882610df5565b916109858b519384610dbd565b8083528b8a84019160051b83010191368311610d8b578c8b9101915b838310610d735750505050608083015260a4810135848111610d6f576109cc90863691840101610e42565b60a083015260c481013560c083015260e481013560e08301526101048101356101008301526101248101356101208301526101448101356101408301526101648101356005811015610d6f576101608301526101848101356002811015610d6f576101a0916101a491610180850152013591015273037bb9c718f3f7fe5ecbdb0b600d607b527067763303610d3d578789526002855285892054936002811480610d33575b15610c6d5750805115610c5b57848091015101519586518701968581818a01990312610c57578581015190838211610c53570187603f82011215610c575785810151610abc81610e26565b98610ac989519a8b610dbd565b818a52888284010111610c5357610ae59188888b019101610f8d565b610aee84610fd5565b939093610c43578751928311610c32575050610b1481610b0e845461106c565b84611184565b83601f8211600114610ba757927f893517a5d723982dec709b52dda08b1b426e7c2fe2e98b38ed33eb60f1abc86696959492610b6d83610b7494610b96978d91610b9c575b508160011b916000199060031b1c19161790565b9055611022565b5093610b8984519585879687528601906110a6565b9184830390850152610fb0565b0390a280f35b905089015138610b59565b82895284892090601f1983168a5b818110610c1b575083610b9696937f893517a5d723982dec709b52dda08b1b426e7c2fe2e98b38ed33eb60f1abc8669a99989693610b749660019410610c02575b5050811b019055611022565b8a015160001960f88460031b161c191690553880610bf6565b91928760018192868d015181550194019201610bb5565b634e487b7160e01b8a526041905288fd5b634e487b7160e01b8a5289905288fd5b8a80fd5b8980fd5b634e487b7160e01b8952603283528689fd5b9495939050610c80915097969597610fd5565b919091610d2257507f25de5ae65e960cdb90c690dfdeefd74729e50b4647a4c4e85d31ee95d362243594959650610cb7815461106c565b601f8111610d01575b506049815586526334b7b71760e11b60018488207f556e61626c6520746f207265747269657665206472756720696e666f726d61748155015551908152a280f35b818852848820610d1c91601f0160051c81019060020161116d565b38610cc0565b634e487b7160e01b87528690528686fd5b5081511515610a71565b855162461bcd60e51b8152808401869052600d818901526c4f6e6c7920706c6174666f726d60981b6044820152606490fd5b8b80fd5b8190610d7e84610e0d565b8152019101908a906109a1565b8e80fd5b634e487b7160e01b8b5260418552888bfd5b8490346101b957816003193601126101b9576020906001548152f35b90601f8019910116810190811067ffffffffffffffff821117610ddf57604052565b634e487b7160e01b600052604160045260246000fd5b67ffffffffffffffff8111610ddf5760051b60200190565b35906001600160a01b0382168203610e2157565b600080fd5b67ffffffffffffffff8111610ddf57601f01601f191660200190565b9080601f83011215610e21576020908235610e5c81610df5565b93604090610e6c82519687610dbd565b828652848601918560059460051b83010193858511610e2157868301935b858510610e9c57505050505050505090565b67ffffffffffffffff8535818111610e2157850160c080601f19838c030112610e215785519281840184811082821117610f78578752610edd8c8401610e0d565b845286830135908111610e21578201918a603f84011215610e21578b830135610f0581610e26565b90610f1289519283610dbd565b8082528c898287010111610e215780898f9601868401376000948591830101528c8501526060928382013590878210156100e15750878501526080808201359385019390935260a080820135938501939093520135908201528152938701938701610e8a565b60246000634e487b7160e01b81526041600452fd5b60005b838110610fa05750506000910152565b8181015183820152602001610f90565b90602091610fc981518092818552858086019101610f8d565b601f01601f1916010190565b60015481101561100c5760016000527fb10e2d527612073b26eecdfd717e6a320cf44b4afac2b0732d9fcbe2b7fa0cf60190600090565b634e487b7160e01b600052603260045260246000fd5b906000918254811015611058578280527f290decd9548b62a8d60345a988386fc84ba6bc95484008f6362f93160ef3e563019190565b634e487b7160e01b83526032600452602483fd5b90600182811c9216801561109c575b602083101461108657565b634e487b7160e01b600052602260045260246000fd5b91607f169161107b565b8054600093926110b58261106c565b9182825260209360019160018116908160001461111d57506001146110dc575b5050505050565b90939495506000929192528360002092846000945b838610611109575050505001019038808080806110d5565b8054858701830152940193859082016110f1565b60ff19168685015250505090151560051b0101915038808080806110d5565b906111575761115461016d91604051928380926110a6565b90565b634e487b7160e01b600052600060045260246000fd5b818110611178575050565b6000815560010161116d565b9190601f811161119357505050565b6111bf926000526020600020906020601f840160051c830193106111c1575b601f0160051c019061116d565b565b90915081906111b256fea2646970667358221220cfc8602ca3b9ef2b8a141728c12bec7e355686bf8d8949e98bbd0df039100ea664736f6c63430008180033","opcodes":"PUSH1 0x80 DUP1 PUSH1 0x40 MSTORE CALLVALUE PUSH2 0x16 JUMPI PUSH2 0x1201 SWAP1 DUP2 PUSH2 0x1C DUP3 CODECOPY RETURN JUMPDEST PUSH1 0x0 DUP1 REVERT INVALID PUSH1 0x80 PUSH1 0x40 DUP2 DUP2 MSTORE PUSH1 0x4 DUP1 CALLDATASIZE LT ISZERO PUSH2 0x21 JUMPI JUMPDEST POP POP POP CALLDATASIZE ISZERO PUSH2 0x1F JUMPI PUSH1 0x0 DUP1 REVERT JUMPDEST STOP JUMPDEST PUSH1 0x0 SWAP3 DUP4 CALLDATALOAD PUSH1 0xE0 SHR SWAP1 DUP2 PUSH4 0x29FAD5FE EQ PUSH2 0xDA1 JUMPI POP DUP1 PUSH4 0x4282574E EQ PUSH2 0x89A JUMPI DUP1 PUSH4 0x445BD91A EQ PUSH2 0x873 JUMPI DUP1 PUSH4 0x497482A0 EQ PUSH2 0x280 JUMPI DUP1 PUSH4 0x58E56DB4 EQ PUSH2 0x1EC JUMPI DUP1 PUSH4 0x7EFC77FA EQ PUSH2 0x1BD JUMPI DUP1 PUSH4 0x85B64CF5 EQ PUSH2 0x195 JUMPI DUP1 PUSH4 0x995E4339 EQ PUSH2 0x116 JUMPI DUP1 PUSH4 0xAF9DB5A7 EQ PUSH2 0xE8 JUMPI PUSH4 0xB81C392A SUB PUSH2 0x11 JUMPI CALLVALUE PUSH2 0xE4 JUMPI PUSH1 0x20 CALLDATASIZE PUSH1 0x3 NOT ADD SLT PUSH2 0xE4 JUMPI CALLDATALOAD SWAP2 DUP1 SLOAD DUP4 LT ISZERO PUSH2 0xE1 JUMPI POP PUSH2 0xCA PUSH2 0xC4 PUSH2 0xDD SWAP4 PUSH2 0x1022 JUMP JUMPDEST SWAP1 PUSH2 0x113C JUMP JUMPDEST SWAP1 MLOAD SWAP2 DUP3 SWAP2 PUSH1 0x20 DUP4 MSTORE PUSH1 0x20 DUP4 ADD SWAP1 PUSH2 0xFB0 JUMP JUMPDEST SUB SWAP1 RETURN JUMPDEST DUP1 REVERT JUMPDEST DUP3 DUP1 REVERT JUMPDEST POP CALLVALUE PUSH2 0xE4 JUMPI PUSH1 0x20 CALLDATASIZE PUSH1 0x3 NOT ADD SLT PUSH2 0xE4 JUMPI CALLDATALOAD SWAP2 PUSH1 0x1 SLOAD DUP4 LT ISZERO PUSH2 0xE1 JUMPI POP PUSH2 0xCA PUSH2 0xC4 PUSH2 0xDD SWAP4 PUSH2 0xFD5 JUMP JUMPDEST POP SWAP2 CALLVALUE PUSH2 0xE1 JUMPI PUSH1 0x20 CALLDATASIZE PUSH1 0x3 NOT ADD SLT PUSH2 0xE1 JUMPI POP PUSH2 0xDD PUSH2 0x16D PUSH2 0x174 PUSH2 0x15B SWAP5 CALLDATALOAD PUSH2 0x162 PUSH2 0x14E PUSH2 0x147 DUP4 PUSH2 0x1022 JUMP JUMPDEST POP SWAP3 PUSH2 0xFD5 JUMP JUMPDEST POP SWAP2 DUP7 MLOAD SWAP8 DUP9 DUP1 SWAP3 PUSH2 0x10A6 JUMP JUMPDEST SUB DUP8 PUSH2 0xDBD JUMP JUMPDEST DUP5 MLOAD SWAP3 DUP4 DUP1 SWAP3 PUSH2 0x10A6 JUMP JUMPDEST SUB DUP3 PUSH2 0xDBD JUMP JUMPDEST PUSH2 0x187 DUP4 MLOAD SWAP5 DUP5 DUP7 SWAP6 DUP7 MSTORE DUP6 ADD SWAP1 PUSH2 0xFB0 JUMP JUMPDEST SWAP1 DUP4 DUP3 SUB PUSH1 0x20 DUP6 ADD MSTORE PUSH2 0xFB0 JUMP JUMPDEST POP POP CALLVALUE PUSH2 0x1B9 JUMPI DUP2 PUSH1 0x3 NOT CALLDATASIZE ADD SLT PUSH2 0x1B9 JUMPI PUSH1 0x20 SWAP1 MLOAD PUSH9 0x516658387D1455B86 DUP2 MSTORE RETURN JUMPDEST POP DUP1 REVERT JUMPDEST POP POP CALLVALUE PUSH2 0x1B9 JUMPI DUP2 PUSH1 0x3 NOT CALLDATASIZE ADD SLT PUSH2 0x1B9 JUMPI PUSH1 0x20 SWAP1 MLOAD PUSH20 0x37BB9C718F3F7FE5ECBDB0B600D607B52706776 DUP2 MSTORE RETURN JUMPDEST POP SWAP1 CALLVALUE PUSH2 0xE4 JUMPI DUP3 PUSH1 0x3 NOT CALLDATASIZE ADD SLT PUSH2 0xE4 JUMPI PUSH1 0x20 DUP2 MLOAD DUP1 SWAP4 PUSH4 0xFFEB17D PUSH1 0xE1 SHL DUP3 MSTORE DUP2 PUSH20 0x37BB9C718F3F7FE5ECBDB0B600D607B52706776 GAS STATICCALL SWAP2 DUP3 ISZERO PUSH2 0x276 JUMPI DUP4 SWAP3 PUSH2 0x23E JUMPI JUMPDEST PUSH1 0x20 DUP4 DUP4 MLOAD SWAP1 DUP2 MSTORE RETURN JUMPDEST SWAP1 SWAP2 POP PUSH1 0x20 DUP2 RETURNDATASIZE PUSH1 0x20 GT PUSH2 0x26E JUMPI JUMPDEST DUP2 PUSH2 0x25A PUSH1 0x20 SWAP4 DUP4 PUSH2 0xDBD JUMP JUMPDEST DUP2 ADD SUB SLT PUSH2 0xE4 JUMPI PUSH1 0x20 SWAP3 POP MLOAD SWAP1 CODESIZE PUSH2 0x234 JUMP JUMPDEST RETURNDATASIZE SWAP2 POP PUSH2 0x24D JUMP JUMPDEST DUP2 MLOAD RETURNDATASIZE DUP6 DUP3 RETURNDATACOPY RETURNDATASIZE SWAP1 REVERT JUMPDEST POP SWAP1 PUSH1 0x20 SWAP3 DUP4 PUSH1 0x3 NOT CALLDATASIZE ADD SLT PUSH2 0xE1 JUMPI PUSH8 0xFFFFFFFFFFFFFFFF SWAP3 DUP1 CALLDATALOAD DUP5 DUP2 GT PUSH2 0xE4 JUMPI CALLDATASIZE PUSH1 0x23 DUP3 ADD SLT ISZERO PUSH2 0xE4 JUMPI DUP1 DUP3 ADD CALLDATALOAD DUP6 DUP2 GT PUSH2 0x86F JUMPI PUSH1 0x24 SWAP2 DUP3 DUP2 ADD SWAP1 CALLDATASIZE DUP5 DUP5 DUP4 ADD ADD GT PUSH2 0x86B JUMPI DUP7 MLOAD SWAP1 PUSH32 0x457874726163742074686520757365732C20646F736167652C20616E64207369 DUP11 DUP4 ADD MSTORE PUSH14 0x32329032B33332B1BA399037B31 PUSH1 0x95 SHL DUP9 DUP4 ADD MSTORE DUP4 DUP4 PUSH1 0x4E DUP5 ADD CALLDATACOPY PUSH2 0x331 PUSH1 0x4F DUP4 DUP7 DUP2 ADD PUSH1 0x17 PUSH1 0xF9 SHL PUSH1 0x4E DUP3 ADD MSTORE SUB PUSH1 0x2F DUP2 ADD DUP6 MSTORE ADD DUP4 PUSH2 0xDBD JUMP JUMPDEST DUP8 MLOAD SWAP9 DUP11 DUP11 ADD SWAP1 DUP2 GT DUP11 DUP3 LT OR PUSH2 0x859 JUMPI DUP1 DUP10 MSTORE DUP8 DUP11 MSTORE DUP9 DUP12 DUP2 MLOAD DUP1 SWAP13 PUSH4 0x5D966F23 PUSH1 0xE1 SHL DUP4 DUP4 ADD MSTORE PUSH1 0xE0 DUP11 DUP4 ADD MSTORE PUSH1 0x7 PUSH2 0x104 DUP4 ADD MSTORE PUSH7 0x73756D6D617279 PUSH1 0xC8 SHL PUSH2 0x124 DUP4 ADD MSTORE PUSH2 0x120 PUSH1 0x44 DUP4 ADD MSTORE PUSH1 0x1E PUSH2 0x144 DUP4 ADD MSTORE PUSH32 0x557365732C20646F736167652C20616E64207369646520656666656374730000 PUSH2 0x164 DUP4 ADD MSTORE PUSH2 0x160 PUSH1 0x64 PUSH2 0x184 DUP5 ADD SWAP4 ADD MSTORE MLOAD DUP1 SWAP2 MSTORE DUP13 PUSH2 0x1A4 DUP1 DUP3 ADD SWAP1 DUP4 PUSH1 0x5 SHL DUP4 ADD ADD SWAP6 SWAP4 DUP14 SWAP3 JUMPDEST DUP5 DUP5 LT PUSH2 0x829 JUMPI POP POP POP POP POP POP PUSH2 0x413 PUSH21 0x3F7365617263687465726D3D445255475F4E414D45 PUSH1 0x58 SHL SWAP3 PUSH1 0x23 NOT SWAP6 DUP14 PUSH1 0x84 DUP9 DUP3 DUP6 SUB ADD SWAP2 ADD MSTORE PUSH2 0xFB0 JUMP JUMPDEST DUP12 DUP2 SUB SWAP5 DUP6 ADD PUSH1 0xA4 DUP14 ADD MSTORE PUSH1 0x35 DUP2 MSTORE PUSH32 0x68747470733A2F2F7777772E64727567732E636F6D2F7365617263682E706870 DUP14 DUP3 ADD MSTORE ADD MSTORE PUSH2 0x469 PUSH1 0x60 PUSH1 0x1 SWAP4 DUP5 PUSH1 0xC4 DUP14 ADD MSTORE DUP5 PUSH1 0xE4 DUP14 ADD MSTORE DUP11 DUP2 ADD DUP13 MSTORE ADD DUP11 PUSH2 0xDBD JUMP JUMPDEST DUP8 MLOAD PUSH4 0xFFEB17D PUSH1 0xE1 SHL DUP2 MSTORE SWAP9 PUSH20 0x37BB9C718F3F7FE5ECBDB0B600D607B52706776 DUP12 DUP12 DUP10 DUP2 DUP5 GAS STATICCALL SWAP11 DUP12 ISZERO PUSH2 0x81F JUMPI DUP10 SWAP12 PUSH2 0x7EC JUMPI JUMPDEST POP DUP11 CALLVALUE LT PUSH2 0x7B3 JUMPI DUP10 MLOAD PUSH4 0x45DE5DF1 PUSH1 0xE1 SHL DUP2 MSTORE PUSH9 0x516658387D1455B86 DUP10 DUP3 ADD MSTORE ADDRESS DUP2 DUP10 ADD MSTORE PUSH4 0x21412BA7 PUSH1 0xE1 SHL PUSH1 0x44 DUP3 ADD MSTORE PUSH1 0x80 PUSH1 0x64 DUP3 ADD MSTORE SWAP11 SWAP7 SWAP6 SWAP5 SWAP4 SWAP3 SWAP2 DUP13 SWAP2 DUP13 SWAP2 DUP3 SWAP1 DUP11 SWAP1 DUP3 SWAP1 PUSH2 0x4FA SWAP1 PUSH1 0x84 DUP4 ADD SWAP1 PUSH2 0xFB0 JUMP JUMPDEST SUB SWAP3 GAS CALL SWAP10 DUP11 ISZERO PUSH2 0x7A9 JUMPI DUP9 SWAP11 PUSH2 0x776 JUMPI JUMPDEST POP DUP8 SLOAD SWAP1 PUSH9 0x10000000000000000 SWAP2 DUP3 DUP2 LT ISZERO PUSH2 0x764 JUMPI DUP1 DUP5 PUSH2 0x531 SWAP3 ADD DUP12 SSTORE PUSH2 0x1022 JUMP JUMPDEST SWAP2 SWAP1 SWAP2 PUSH2 0x753 JUMPI DUP6 DUP14 DUP9 SWAP3 PUSH2 0x550 DUP4 PUSH2 0x54A DUP8 SLOAD PUSH2 0x106C JUMP JUMPDEST DUP8 PUSH2 0x1184 JUMP JUMPDEST DUP13 DUP1 SWAP3 PUSH1 0x1F DUP6 GT PUSH1 0x1 EQ PUSH2 0x6E3 JUMPI POP SWAP2 PUSH2 0x581 SWAP5 SWAP2 DUP5 PUSH2 0x6D6 JUMPI JUMPDEST POP POP POP DUP2 PUSH1 0x1 SHL SWAP2 PUSH1 0x0 NOT SWAP1 PUSH1 0x3 SHL SHR NOT AND OR SWAP1 JUMP JUMPDEST SWAP1 SSTORE JUMPDEST DUP2 SLOAD SWAP1 DUP2 LT ISZERO PUSH2 0x6C4 JUMPI DUP1 DUP3 PUSH2 0x59C SWAP3 ADD DUP4 SSTORE PUSH2 0xFD5 JUMP JUMPDEST PUSH2 0x6B3 JUMPI DUP1 DUP12 PUSH2 0x5AE PUSH1 0x0 SWAP4 SLOAD PUSH2 0x106C JUMP JUMPDEST PUSH1 0x1F DUP2 GT PUSH2 0x694 JUMPI JUMPDEST POP POP SSTORE SLOAD PUSH1 0x0 NOT DUP2 ADD SWAP1 DUP2 GT PUSH2 0x682 JUMPI SWAP2 DUP8 DUP11 DUP3 DUP1 PUSH32 0x84A36581EF5402B73B738A564DA2F28ED179AA557278C4CF4E21441D7FAF9FA4 SWAP6 DUP14 SWAP8 DUP9 DUP14 MSTORE PUSH1 0x2 DUP6 MSTORE DUP6 DUP14 KECCAK256 SSTORE DUP5 MLOAD SWAP6 DUP5 DUP8 SWAP6 DUP7 MSTORE DUP6 ADD MSTORE DUP5 DUP5 ADD CALLDATACOPY DUP2 DUP2 ADD DUP4 ADD DUP11 SWAP1 MSTORE PUSH1 0x1F ADD PUSH1 0x1F NOT AND DUP2 ADD SUB ADD SWAP1 LOG2 DUP2 CALLVALUE GT PUSH2 0x631 JUMPI JUMPDEST POP POP POP POP MLOAD SWAP1 DUP2 MSTORE RETURN JUMPDEST DUP2 CALLVALUE SUB SWAP3 CALLVALUE DUP5 GT PUSH2 0x671 JUMPI POP POP DUP3 DUP1 DUP1 SWAP4 DUP2 SWAP4 DUP3 SWAP1 CALLVALUE EQ PUSH2 0x668 JUMPI JUMPDEST CALLER SWAP1 CALL ISZERO PUSH2 0x65D JUMPI DUP1 DUP1 DUP1 PUSH2 0x627 JUMP JUMPDEST SWAP1 MLOAD SWAP1 RETURNDATASIZE SWAP1 DUP3 RETURNDATACOPY RETURNDATASIZE SWAP1 REVERT JUMPDEST POP PUSH2 0x8FC PUSH2 0x64D JUMP JUMPDEST PUSH4 0x4E487B71 PUSH1 0xE0 SHL DUP6 MSTORE PUSH1 0x11 SWAP1 MSTORE DUP4 REVERT JUMPDEST PUSH4 0x4E487B71 PUSH1 0xE0 SHL DUP8 MSTORE PUSH1 0x11 DUP7 MSTORE DUP4 DUP8 REVERT JUMPDEST PUSH1 0x1F PUSH2 0x6AC SWAP3 DUP5 DUP14 MSTORE DUP13 KECCAK256 SWAP2 ADD PUSH1 0x5 SHR DUP2 ADD SWAP1 PUSH2 0x116D JUMP JUMPDEST DUP12 CODESIZE PUSH2 0x5B7 JUMP JUMPDEST PUSH4 0x4E487B71 PUSH1 0xE0 SHL DUP9 MSTORE DUP8 DUP8 MSTORE DUP5 DUP9 REVERT JUMPDEST PUSH4 0x4E487B71 PUSH1 0xE0 SHL DUP9 MSTORE PUSH1 0x41 DUP8 MSTORE DUP5 DUP9 REVERT JUMPDEST ADD ADD CALLDATALOAD SWAP1 POP DUP9 CODESIZE DUP1 PUSH2 0x56B JUMP JUMPDEST DUP7 DUP3 MSTORE DUP1 DUP3 KECCAK256 SWAP6 SWAP3 SWAP5 SWAP3 SWAP4 SWAP3 SWAP2 PUSH1 0x1F NOT DUP4 AND SWAP2 JUMPDEST DUP11 DUP4 DUP4 LT PUSH2 0x734 JUMPI POP POP POP LT PUSH2 0x718 JUMPI JUMPDEST POP POP POP POP DUP3 DUP6 DUP2 SHL ADD SWAP1 SSTORE PUSH2 0x584 JUMP JUMPDEST PUSH1 0x0 NOT PUSH1 0xF8 DUP11 PUSH1 0x3 SHL AND SHR NOT SWAP3 ADD ADD CALLDATALOAD AND SWAP1 SSTORE CODESIZE DUP1 DUP8 DUP2 PUSH2 0x708 JUMP JUMPDEST DUP8 DUP7 ADD SWAP1 SWAP7 ADD CALLDATALOAD DUP9 SSTORE SWAP7 SWAP1 SWAP5 ADD SWAP6 DUP13 SWAP5 SWAP4 DUP2 ADD SWAP4 DUP13 SWAP4 POP DUP2 ADD SWAP1 PUSH2 0x6F7 JUMP JUMPDEST PUSH4 0x4E487B71 PUSH1 0xE0 SHL DUP11 MSTORE DUP10 DUP10 MSTORE DUP7 DUP11 REVERT JUMPDEST PUSH4 0x4E487B71 PUSH1 0xE0 SHL DUP11 MSTORE PUSH1 0x41 DUP10 MSTORE DUP7 DUP11 REVERT JUMPDEST SWAP1 SWAP10 POP DUP11 DUP2 DUP2 RETURNDATASIZE DUP4 GT PUSH2 0x7A2 JUMPI JUMPDEST PUSH2 0x78E DUP2 DUP4 PUSH2 0xDBD JUMP JUMPDEST DUP2 ADD SUB SLT PUSH2 0x79E JUMPI MLOAD SWAP9 CODESIZE PUSH2 0x50C JUMP JUMPDEST DUP8 DUP1 REVERT JUMPDEST POP RETURNDATASIZE PUSH2 0x784 JUMP JUMPDEST DUP10 MLOAD RETURNDATASIZE DUP11 DUP3 RETURNDATACOPY RETURNDATASIZE SWAP1 REVERT JUMPDEST DUP10 MLOAD PUSH3 0x461BCD PUSH1 0xE5 SHL DUP2 MSTORE DUP1 DUP10 ADD DUP14 SWAP1 MSTORE PUSH1 0x14 DUP2 DUP10 ADD MSTORE PUSH20 0x125B9CDD59999A58DA595B9D0819195C1BDCDA5D PUSH1 0x62 SHL PUSH1 0x44 DUP3 ADD MSTORE PUSH1 0x64 SWAP1 REVERT JUMPDEST SWAP1 SWAP11 POP DUP12 DUP2 DUP2 RETURNDATASIZE DUP4 GT PUSH2 0x818 JUMPI JUMPDEST PUSH2 0x804 DUP2 DUP4 PUSH2 0xDBD JUMP JUMPDEST DUP2 ADD SUB SLT PUSH2 0x814 JUMPI MLOAD SWAP10 CODESIZE PUSH2 0x4A0 JUMP JUMPDEST DUP9 DUP1 REVERT JUMPDEST POP RETURNDATASIZE PUSH2 0x7FA JUMP JUMPDEST DUP11 MLOAD RETURNDATASIZE DUP12 DUP3 RETURNDATACOPY RETURNDATASIZE SWAP1 REVERT JUMPDEST DUP2 SWAP3 SWAP5 SWAP7 POP PUSH1 0x1 SWAP4 SWAP6 SWAP8 PUSH2 0x848 SWAP2 PUSH2 0x1A3 NOT SWAP1 DUP3 SUB ADD DUP7 MSTORE DUP9 MLOAD PUSH2 0xFB0 JUMP JUMPDEST SWAP7 ADD SWAP3 ADD SWAP3 ADD DUP13 SWAP4 SWAP2 SWAP3 DUP16 DUP16 PUSH2 0x3D5 JUMP JUMPDEST PUSH4 0x4E487B71 PUSH1 0xE0 SHL DUP9 MSTORE PUSH1 0x41 DUP8 MSTORE DUP6 DUP9 REVERT JUMPDEST DUP6 DUP1 REVERT JUMPDEST DUP4 DUP1 REVERT JUMPDEST POP CALLVALUE PUSH2 0xE4 JUMPI PUSH1 0x20 CALLDATASIZE PUSH1 0x3 NOT ADD SLT PUSH2 0xE4 JUMPI PUSH1 0x20 SWAP3 DUP3 SWAP2 CALLDATALOAD DUP2 MSTORE PUSH1 0x2 DUP5 MSTORE KECCAK256 SLOAD SWAP1 MLOAD SWAP1 DUP2 MSTORE RETURN JUMPDEST POP CALLVALUE PUSH2 0xE4 JUMPI PUSH1 0x3 NOT SWAP2 PUSH1 0x80 CALLDATASIZE DUP5 ADD SLT PUSH2 0x86F JUMPI DUP2 CALLDATALOAD SWAP3 PUSH1 0x24 SWAP3 PUSH8 0xFFFFFFFFFFFFFFFF SWAP1 DUP5 CALLDATALOAD DUP3 DUP2 GT PUSH2 0x79E JUMPI PUSH2 0x8D4 SWAP1 CALLDATASIZE SWAP1 DUP4 ADD PUSH2 0xE42 JUMP JUMPDEST SWAP2 PUSH1 0x44 CALLDATALOAD SWAP3 PUSH1 0x5 DUP5 LT ISZERO PUSH2 0x814 JUMPI PUSH1 0x64 CALLDATALOAD SWAP5 DUP3 DUP7 GT PUSH2 0xC57 JUMPI PUSH2 0x1C0 DUP1 SWAP2 DUP8 CALLDATASIZE SUB ADD SLT PUSH2 0xC57 JUMPI DUP7 MLOAD SWAP1 DUP2 ADD DUP2 DUP2 LT DUP5 DUP3 GT OR PUSH2 0xD8F JUMPI DUP8 MSTORE DUP6 DUP5 ADD CALLDATALOAD DUP2 MSTORE PUSH2 0x91E DUP9 DUP8 ADD PUSH2 0xE0D JUMP JUMPDEST SWAP6 PUSH1 0x20 SWAP7 DUP8 DUP4 ADD MSTORE PUSH2 0x932 PUSH1 0x44 DUP3 ADD PUSH2 0xE0D JUMP JUMPDEST DUP3 DUP10 ADD MSTORE PUSH1 0x64 DUP2 ADD CALLDATALOAD PUSH1 0x1 PUSH1 0x1 PUSH1 0xE0 SHL SUB NOT DUP2 AND DUP2 SUB PUSH2 0xD6F JUMPI PUSH1 0x60 DUP4 ADD MSTORE PUSH1 0x84 DUP2 ADD CALLDATALOAD DUP5 DUP2 GT PUSH2 0xD6F JUMPI DUP2 ADD CALLDATASIZE PUSH1 0x23 DUP3 ADD SLT ISZERO PUSH2 0xD6F JUMPI DUP6 DUP2 ADD CALLDATALOAD SWAP1 PUSH2 0x978 DUP3 PUSH2 0xDF5 JUMP JUMPDEST SWAP2 PUSH2 0x985 DUP12 MLOAD SWAP4 DUP5 PUSH2 0xDBD JUMP JUMPDEST DUP1 DUP4 MSTORE DUP12 DUP11 DUP5 ADD SWAP2 PUSH1 0x5 SHL DUP4 ADD ADD SWAP2 CALLDATASIZE DUP4 GT PUSH2 0xD8B JUMPI DUP13 DUP12 SWAP2 ADD SWAP2 JUMPDEST DUP4 DUP4 LT PUSH2 0xD73 JUMPI POP POP POP POP PUSH1 0x80 DUP4 ADD MSTORE PUSH1 0xA4 DUP2 ADD CALLDATALOAD DUP5 DUP2 GT PUSH2 0xD6F JUMPI PUSH2 0x9CC SWAP1 DUP7 CALLDATASIZE SWAP2 DUP5 ADD ADD PUSH2 0xE42 JUMP JUMPDEST PUSH1 0xA0 DUP4 ADD MSTORE PUSH1 0xC4 DUP2 ADD CALLDATALOAD PUSH1 0xC0 DUP4 ADD MSTORE PUSH1 0xE4 DUP2 ADD CALLDATALOAD PUSH1 0xE0 DUP4 ADD MSTORE PUSH2 0x104 DUP2 ADD CALLDATALOAD PUSH2 0x100 DUP4 ADD MSTORE PUSH2 0x124 DUP2 ADD CALLDATALOAD PUSH2 0x120 DUP4 ADD MSTORE PUSH2 0x144 DUP2 ADD CALLDATALOAD PUSH2 0x140 DUP4 ADD MSTORE PUSH2 0x164 DUP2 ADD CALLDATALOAD PUSH1 0x5 DUP2 LT ISZERO PUSH2 0xD6F JUMPI PUSH2 0x160 DUP4 ADD MSTORE PUSH2 0x184 DUP2 ADD CALLDATALOAD PUSH1 0x2 DUP2 LT ISZERO PUSH2 0xD6F JUMPI PUSH2 0x1A0 SWAP2 PUSH2 0x1A4 SWAP2 PUSH2 0x180 DUP6 ADD MSTORE ADD CALLDATALOAD SWAP2 ADD MSTORE PUSH20 0x37BB9C718F3F7FE5ECBDB0B600D607B52706776 CALLER SUB PUSH2 0xD3D JUMPI DUP8 DUP10 MSTORE PUSH1 0x2 DUP6 MSTORE DUP6 DUP10 KECCAK256 SLOAD SWAP4 PUSH1 0x2 DUP2 EQ DUP1 PUSH2 0xD33 JUMPI JUMPDEST ISZERO PUSH2 0xC6D JUMPI POP DUP1 MLOAD ISZERO PUSH2 0xC5B JUMPI DUP5 DUP1 SWAP2 ADD MLOAD ADD MLOAD SWAP6 DUP7 MLOAD DUP8 ADD SWAP7 DUP6 DUP2 DUP2 DUP11 ADD SWAP10 SUB SLT PUSH2 0xC57 JUMPI DUP6 DUP2 ADD MLOAD SWAP1 DUP4 DUP3 GT PUSH2 0xC53 JUMPI ADD DUP8 PUSH1 0x3F DUP3 ADD SLT ISZERO PUSH2 0xC57 JUMPI DUP6 DUP2 ADD MLOAD PUSH2 0xABC DUP2 PUSH2 0xE26 JUMP JUMPDEST SWAP9 PUSH2 0xAC9 DUP10 MLOAD SWAP11 DUP12 PUSH2 0xDBD JUMP JUMPDEST DUP2 DUP11 MSTORE DUP9 DUP3 DUP5 ADD ADD GT PUSH2 0xC53 JUMPI PUSH2 0xAE5 SWAP2 DUP9 DUP9 DUP12 ADD SWAP2 ADD PUSH2 0xF8D JUMP JUMPDEST PUSH2 0xAEE DUP5 PUSH2 0xFD5 JUMP JUMPDEST SWAP4 SWAP1 SWAP4 PUSH2 0xC43 JUMPI DUP8 MLOAD SWAP3 DUP4 GT PUSH2 0xC32 JUMPI POP POP PUSH2 0xB14 DUP2 PUSH2 0xB0E DUP5 SLOAD PUSH2 0x106C JUMP JUMPDEST DUP5 PUSH2 0x1184 JUMP JUMPDEST DUP4 PUSH1 0x1F DUP3 GT PUSH1 0x1 EQ PUSH2 0xBA7 JUMPI SWAP3 PUSH32 0x893517A5D723982DEC709B52DDA08B1B426E7C2FE2E98B38ED33EB60F1ABC866 SWAP7 SWAP6 SWAP5 SWAP3 PUSH2 0xB6D DUP4 PUSH2 0xB74 SWAP5 PUSH2 0xB96 SWAP8 DUP14 SWAP2 PUSH2 0xB9C JUMPI JUMPDEST POP DUP2 PUSH1 0x1 SHL SWAP2 PUSH1 0x0 NOT SWAP1 PUSH1 0x3 SHL SHR NOT AND OR SWAP1 JUMP JUMPDEST SWAP1 SSTORE PUSH2 0x1022 JUMP JUMPDEST POP SWAP4 PUSH2 0xB89 DUP5 MLOAD SWAP6 DUP6 DUP8 SWAP7 DUP8 MSTORE DUP7 ADD SWAP1 PUSH2 0x10A6 JUMP JUMPDEST SWAP2 DUP5 DUP4 SUB SWAP1 DUP6 ADD MSTORE PUSH2 0xFB0 JUMP JUMPDEST SUB SWAP1 LOG2 DUP1 RETURN JUMPDEST SWAP1 POP DUP10 ADD MLOAD CODESIZE PUSH2 0xB59 JUMP JUMPDEST DUP3 DUP10 MSTORE DUP5 DUP10 KECCAK256 SWAP1 PUSH1 0x1F NOT DUP4 AND DUP11 JUMPDEST DUP2 DUP2 LT PUSH2 0xC1B JUMPI POP DUP4 PUSH2 0xB96 SWAP7 SWAP4 PUSH32 0x893517A5D723982DEC709B52DDA08B1B426E7C2FE2E98B38ED33EB60F1ABC866 SWAP11 SWAP10 SWAP9 SWAP7 SWAP4 PUSH2 0xB74 SWAP7 PUSH1 0x1 SWAP5 LT PUSH2 0xC02 JUMPI JUMPDEST POP POP DUP2 SHL ADD SWAP1 SSTORE PUSH2 0x1022 JUMP JUMPDEST DUP11 ADD MLOAD PUSH1 0x0 NOT PUSH1 0xF8 DUP5 PUSH1 0x3 SHL AND SHR NOT AND SWAP1 SSTORE CODESIZE DUP1 PUSH2 0xBF6 JUMP JUMPDEST SWAP2 SWAP3 DUP8 PUSH1 0x1 DUP2 SWAP3 DUP7 DUP14 ADD MLOAD DUP2 SSTORE ADD SWAP5 ADD SWAP3 ADD PUSH2 0xBB5 JUMP JUMPDEST PUSH4 0x4E487B71 PUSH1 0xE0 SHL DUP11 MSTORE PUSH1 0x41 SWAP1 MSTORE DUP9 REVERT JUMPDEST PUSH4 0x4E487B71 PUSH1 0xE0 SHL DUP11 MSTORE DUP10 SWAP1 MSTORE DUP9 REVERT JUMPDEST DUP11 DUP1 REVERT JUMPDEST DUP10 DUP1 REVERT JUMPDEST PUSH4 0x4E487B71 PUSH1 0xE0 SHL DUP10 MSTORE PUSH1 0x32 DUP4 MSTORE DUP7 DUP10 REVERT JUMPDEST SWAP5 SWAP6 SWAP4 SWAP1 POP PUSH2 0xC80 SWAP2 POP SWAP8 SWAP7 SWAP6 SWAP8 PUSH2 0xFD5 JUMP JUMPDEST SWAP2 SWAP1 SWAP2 PUSH2 0xD22 JUMPI POP PUSH32 0x25DE5AE65E960CDB90C690DFDEEFD74729E50B4647A4C4E85D31EE95D3622435 SWAP5 SWAP6 SWAP7 POP PUSH2 0xCB7 DUP2 SLOAD PUSH2 0x106C JUMP JUMPDEST PUSH1 0x1F DUP2 GT PUSH2 0xD01 JUMPI JUMPDEST POP PUSH1 0x49 DUP2 SSTORE DUP7 MSTORE PUSH4 0x34B7B717 PUSH1 0xE1 SHL PUSH1 0x1 DUP5 DUP9 KECCAK256 PUSH32 0x556E61626C6520746F207265747269657665206472756720696E666F726D6174 DUP2 SSTORE ADD SSTORE MLOAD SWAP1 DUP2 MSTORE LOG2 DUP1 RETURN JUMPDEST DUP2 DUP9 MSTORE DUP5 DUP9 KECCAK256 PUSH2 0xD1C SWAP2 PUSH1 0x1F ADD PUSH1 0x5 SHR DUP2 ADD SWAP1 PUSH1 0x2 ADD PUSH2 0x116D JUMP JUMPDEST CODESIZE PUSH2 0xCC0 JUMP JUMPDEST PUSH4 0x4E487B71 PUSH1 0xE0 SHL DUP8 MSTORE DUP7 SWAP1 MSTORE DUP7 DUP7 REVERT JUMPDEST POP DUP2 MLOAD ISZERO ISZERO PUSH2 0xA71 JUMP JUMPDEST DUP6 MLOAD PUSH3 0x461BCD PUSH1 0xE5 SHL DUP2 MSTORE DUP1 DUP5 ADD DUP7 SWAP1 MSTORE PUSH1 0xD DUP2 DUP10 ADD MSTORE PUSH13 0x4F6E6C7920706C6174666F726D PUSH1 0x98 SHL PUSH1 0x44 DUP3 ADD MSTORE PUSH1 0x64 SWAP1 REVERT JUMPDEST DUP12 DUP1 REVERT JUMPDEST DUP2 SWAP1 PUSH2 0xD7E DUP5 PUSH2 0xE0D JUMP JUMPDEST DUP2 MSTORE ADD SWAP2 ADD SWAP1 DUP11 SWAP1 PUSH2 0x9A1 JUMP JUMPDEST DUP15 DUP1 REVERT JUMPDEST PUSH4 0x4E487B71 PUSH1 0xE0 SHL DUP12 MSTORE PUSH1 0x41 DUP6 MSTORE DUP9 DUP12 REVERT JUMPDEST DUP5 SWAP1 CALLVALUE PUSH2 0x1B9 JUMPI DUP2 PUSH1 0x3 NOT CALLDATASIZE ADD SLT PUSH2 0x1B9 JUMPI PUSH1 0x20 SWAP1 PUSH1 0x1 SLOAD DUP2 MSTORE RETURN JUMPDEST SWAP1 PUSH1 0x1F DUP1 NOT SWAP2 ADD AND DUP2 ADD SWAP1 DUP2 LT PUSH8 0xFFFFFFFFFFFFFFFF DUP3 GT OR PUSH2 0xDDF JUMPI PUSH1 0x40 MSTORE JUMP JUMPDEST PUSH4 0x4E487B71 PUSH1 0xE0 SHL PUSH1 0x0 MSTORE PUSH1 0x41 PUSH1 0x4 MSTORE PUSH1 0x24 PUSH1 0x0 REVERT JUMPDEST PUSH8 0xFFFFFFFFFFFFFFFF DUP2 GT PUSH2 0xDDF JUMPI PUSH1 0x5 SHL PUSH1 0x20 ADD SWAP1 JUMP JUMPDEST CALLDATALOAD SWAP1 PUSH1 0x1 PUSH1 0x1 PUSH1 0xA0 SHL SUB DUP3 AND DUP3 SUB PUSH2 0xE21 JUMPI JUMP JUMPDEST PUSH1 0x0 DUP1 REVERT JUMPDEST PUSH8 0xFFFFFFFFFFFFFFFF DUP2 GT PUSH2 0xDDF JUMPI PUSH1 0x1F ADD PUSH1 0x1F NOT AND PUSH1 0x20 ADD SWAP1 JUMP JUMPDEST SWAP1 DUP1 PUSH1 0x1F DUP4 ADD SLT ISZERO PUSH2 0xE21 JUMPI PUSH1 0x20 SWAP1 DUP3 CALLDATALOAD PUSH2 0xE5C DUP2 PUSH2 0xDF5 JUMP JUMPDEST SWAP4 PUSH1 0x40 SWAP1 PUSH2 0xE6C DUP3 MLOAD SWAP7 DUP8 PUSH2 0xDBD JUMP JUMPDEST DUP3 DUP7 MSTORE DUP5 DUP7 ADD SWAP2 DUP6 PUSH1 0x5 SWAP5 PUSH1 0x5 SHL DUP4 ADD ADD SWAP4 DUP6 DUP6 GT PUSH2 0xE21 JUMPI DUP7 DUP4 ADD SWAP4 JUMPDEST DUP6 DUP6 LT PUSH2 0xE9C JUMPI POP POP POP POP POP POP POP POP SWAP1 JUMP JUMPDEST PUSH8 0xFFFFFFFFFFFFFFFF DUP6 CALLDATALOAD DUP2 DUP2 GT PUSH2 0xE21 JUMPI DUP6 ADD PUSH1 0xC0 DUP1 PUSH1 0x1F NOT DUP4 DUP13 SUB ADD SLT PUSH2 0xE21 JUMPI DUP6 MLOAD SWAP3 DUP2 DUP5 ADD DUP5 DUP2 LT DUP3 DUP3 GT OR PUSH2 0xF78 JUMPI DUP8 MSTORE PUSH2 0xEDD DUP13 DUP5 ADD PUSH2 0xE0D JUMP JUMPDEST DUP5 MSTORE DUP7 DUP4 ADD CALLDATALOAD SWAP1 DUP2 GT PUSH2 0xE21 JUMPI DUP3 ADD SWAP2 DUP11 PUSH1 0x3F DUP5 ADD SLT ISZERO PUSH2 0xE21 JUMPI DUP12 DUP4 ADD CALLDATALOAD PUSH2 0xF05 DUP2 PUSH2 0xE26 JUMP JUMPDEST SWAP1 PUSH2 0xF12 DUP10 MLOAD SWAP3 DUP4 PUSH2 0xDBD JUMP JUMPDEST DUP1 DUP3 MSTORE DUP13 DUP10 DUP3 DUP8 ADD ADD GT PUSH2 0xE21 JUMPI DUP1 DUP10 DUP16 SWAP7 ADD DUP7 DUP5 ADD CALLDATACOPY PUSH1 0x0 SWAP5 DUP6 SWAP2 DUP4 ADD ADD MSTORE DUP13 DUP6 ADD MSTORE PUSH1 0x60 SWAP3 DUP4 DUP3 ADD CALLDATALOAD SWAP1 DUP8 DUP3 LT ISZERO PUSH2 0xE1 JUMPI POP DUP8 DUP6 ADD MSTORE PUSH1 0x80 DUP1 DUP3 ADD CALLDATALOAD SWAP4 DUP6 ADD SWAP4 SWAP1 SWAP4 MSTORE PUSH1 0xA0 DUP1 DUP3 ADD CALLDATALOAD SWAP4 DUP6 ADD SWAP4 SWAP1 SWAP4 MSTORE ADD CALLDATALOAD SWAP1 DUP3 ADD MSTORE DUP2 MSTORE SWAP4 DUP8 ADD SWAP4 DUP8 ADD PUSH2 0xE8A JUMP JUMPDEST PUSH1 0x24 PUSH1 0x0 PUSH4 0x4E487B71 PUSH1 0xE0 SHL DUP2 MSTORE PUSH1 0x41 PUSH1 0x4 MSTORE REVERT JUMPDEST PUSH1 0x0 JUMPDEST DUP4 DUP2 LT PUSH2 0xFA0 JUMPI POP POP PUSH1 0x0 SWAP2 ADD MSTORE JUMP JUMPDEST DUP2 DUP2 ADD MLOAD DUP4 DUP3 ADD MSTORE PUSH1 0x20 ADD PUSH2 0xF90 JUMP JUMPDEST SWAP1 PUSH1 0x20 SWAP2 PUSH2 0xFC9 DUP2 MLOAD DUP1 SWAP3 DUP2 DUP6 MSTORE DUP6 DUP1 DUP7 ADD SWAP2 ADD PUSH2 0xF8D JUMP JUMPDEST PUSH1 0x1F ADD PUSH1 0x1F NOT AND ADD ADD SWAP1 JUMP JUMPDEST PUSH1 0x1 SLOAD DUP2 LT ISZERO PUSH2 0x100C JUMPI PUSH1 0x1 PUSH1 0x0 MSTORE PUSH32 0xB10E2D527612073B26EECDFD717E6A320CF44B4AFAC2B0732D9FCBE2B7FA0CF6 ADD SWAP1 PUSH1 0x0 SWAP1 JUMP JUMPDEST PUSH4 0x4E487B71 PUSH1 0xE0 SHL PUSH1 0x0 MSTORE PUSH1 0x32 PUSH1 0x4 MSTORE PUSH1 0x24 PUSH1 0x0 REVERT JUMPDEST SWAP1 PUSH1 0x0 SWAP2 DUP3 SLOAD DUP2 LT ISZERO PUSH2 0x1058 JUMPI DUP3 DUP1 MSTORE PUSH32 0x290DECD9548B62A8D60345A988386FC84BA6BC95484008F6362F93160EF3E563 ADD SWAP2 SWAP1 JUMP JUMPDEST PUSH4 0x4E487B71 PUSH1 0xE0 SHL DUP4 MSTORE PUSH1 0x32 PUSH1 0x4 MSTORE PUSH1 0x24 DUP4 REVERT JUMPDEST SWAP1 PUSH1 0x1 DUP3 DUP2 SHR SWAP3 AND DUP1 ISZERO PUSH2 0x109C JUMPI JUMPDEST PUSH1 0x20 DUP4 LT EQ PUSH2 0x1086 JUMPI JUMP JUMPDEST PUSH4 0x4E487B71 PUSH1 0xE0 SHL PUSH1 0x0 MSTORE PUSH1 0x22 PUSH1 0x4 MSTORE PUSH1 0x24 PUSH1 0x0 REVERT JUMPDEST SWAP2 PUSH1 0x7F AND SWAP2 PUSH2 0x107B JUMP JUMPDEST DUP1 SLOAD PUSH1 0x0 SWAP4 SWAP3 PUSH2 0x10B5 DUP3 PUSH2 0x106C JUMP JUMPDEST SWAP2 DUP3 DUP3 MSTORE PUSH1 0x20 SWAP4 PUSH1 0x1 SWAP2 PUSH1 0x1 DUP2 AND SWAP1 DUP2 PUSH1 0x0 EQ PUSH2 0x111D JUMPI POP PUSH1 0x1 EQ PUSH2 0x10DC JUMPI JUMPDEST POP POP POP POP POP JUMP JUMPDEST SWAP1 SWAP4 SWAP5 SWAP6 POP PUSH1 0x0 SWAP3 SWAP2 SWAP3 MSTORE DUP4 PUSH1 0x0 KECCAK256 SWAP3 DUP5 PUSH1 0x0 SWAP5 JUMPDEST DUP4 DUP7 LT PUSH2 0x1109 JUMPI POP POP POP POP ADD ADD SWAP1 CODESIZE DUP1 DUP1 DUP1 DUP1 PUSH2 0x10D5 JUMP JUMPDEST DUP1 SLOAD DUP6 DUP8 ADD DUP4 ADD MSTORE SWAP5 ADD SWAP4 DUP6 SWAP1 DUP3 ADD PUSH2 0x10F1 JUMP JUMPDEST PUSH1 0xFF NOT AND DUP7 DUP6 ADD MSTORE POP POP POP SWAP1 ISZERO ISZERO PUSH1 0x5 SHL ADD ADD SWAP2 POP CODESIZE DUP1 DUP1 DUP1 DUP1 PUSH2 0x10D5 JUMP JUMPDEST SWAP1 PUSH2 0x1157 JUMPI PUSH2 0x1154 PUSH2 0x16D SWAP2 PUSH1 0x40 MLOAD SWAP3 DUP4 DUP1 SWAP3 PUSH2 0x10A6 JUMP JUMPDEST SWAP1 JUMP JUMPDEST PUSH4 0x4E487B71 PUSH1 0xE0 SHL PUSH1 0x0 MSTORE PUSH1 0x0 PUSH1 0x4 MSTORE PUSH1 0x24 PUSH1 0x0 REVERT JUMPDEST DUP2 DUP2 LT PUSH2 0x1178 JUMPI POP POP JUMP JUMPDEST PUSH1 0x0 DUP2 SSTORE PUSH1 0x1 ADD PUSH2 0x116D JUMP JUMPDEST SWAP2 SWAP1 PUSH1 0x1F DUP2 GT PUSH2 0x1193 JUMPI POP POP POP JUMP JUMPDEST PUSH2 0x11BF SWAP3 PUSH1 0x0 MSTORE PUSH1 0x20 PUSH1 0x0 KECCAK256 SWAP1 PUSH1 0x20 PUSH1 0x1F DUP5 ADD PUSH1 0x5 SHR DUP4 ADD SWAP4 LT PUSH2 0x11C1 JUMPI JUMPDEST PUSH1 0x1F ADD PUSH1 0x5 SHR ADD SWAP1 PUSH2 0x116D JUMP JUMPDEST JUMP JUMPDEST SWAP1 SWAP2 POP DUP2 SWAP1 PUSH2 0x11B2 JUMP INVALID LOG2 PUSH5 0x6970667358 0x22 SLT KECCAK256 0xCF 0xC8 PUSH1 0x2C LOG3 0xB9 0xEF 0x2B DUP11 EQ OR 0x28 0xC1 0x2B 0xEC PUSH31 0x355686BF8D8949E98BBD0DF039100EA664736F6C6343000818003300000000 "},"methodIdentifiers":{"PLATFORM()":"7efc77fa","WEB_AGENT_ID()":"85b64cf5","drugNames(uint256)":"b81c392a","getDrugInfo(string)":"497482a0","getRequiredDeposit()":"58e56db4","getResult(uint256)":"995e4339","getResultCount()":"29fad5fe","handleResult(uint256,(address,bytes,uint8,uint256,uint256,uint256)[],uint8,(uint256,address,address,bytes4,address[],(address,bytes,uint8,uint256,uint256,uint256)[],uint256,uint256,uint256,uint256,uint256,uint8,uint8,uint256))":"4282574e","requestToResultIndex(uint256)":"445bd91a","searchResults(uint256)":"af9db5a7"}}}}}