{"contracts/PriceOracle.sol":{"PriceOracle":{"abi":[{"anonymous":false,"inputs":[{"indexed":true,"internalType":"uint256","name":"requestId","type":"uint256"},{"indexed":false,"internalType":"uint256","name":"price","type":"uint256"}],"name":"PriceReceived","type":"event"},{"anonymous":false,"inputs":[{"indexed":true,"internalType":"uint256","name":"requestId","type":"uint256"},{"indexed":false,"internalType":"string","name":"url","type":"string"},{"indexed":false,"internalType":"string","name":"selector","type":"string"}],"name":"PriceRequested","type":"event"},{"anonymous":false,"inputs":[{"indexed":true,"internalType":"uint256","name":"requestId","type":"uint256"},{"indexed":false,"internalType":"enum ResponseStatus","name":"status","type":"uint8"}],"name":"RequestFailed","type":"event"},{"inputs":[],"name":"JSON_API_AGENT_ID","outputs":[{"internalType":"uint256","name":"","type":"uint256"}],"stateMutability":"view","type":"function"},{"inputs":[],"name":"PLATFORM","outputs":[{"internalType":"contract IAgentRequester","name":"","type":"address"}],"stateMutability":"view","type":"function"},{"inputs":[],"name":"getFormattedPrice","outputs":[{"internalType":"uint256","name":"wholePart","type":"uint256"},{"internalType":"uint256","name":"decimalPart","type":"uint256"}],"stateMutability":"view","type":"function"},{"inputs":[],"name":"getRequiredDeposit","outputs":[{"internalType":"uint256","name":"","type":"uint256"}],"stateMutability":"view","type":"function"},{"inputs":[{"internalType":"uint256","name":"requestId","type":"uint256"},{"components":[{"internalType":"address","name":"validator","type":"address"},{"internalType":"bytes","name":"result","type":"bytes"},{"internalType":"enum ResponseStatus","name":"status","type":"uint8"},{"internalType":"uint256","name":"receipt","type":"uint256"},{"internalType":"uint256","name":"timestamp","type":"uint256"},{"internalType":"uint256","name":"executionCost","type":"uint256"}],"internalType":"struct Response[]","name":"responses","type":"tuple[]"},{"internalType":"enum ResponseStatus","name":"status","type":"uint8"},{"components":[{"internalType":"uint256","name":"id","type":"uint256"},{"internalType":"address","name":"requester","type":"address"},{"internalType":"address","name":"callbackAddress","type":"address"},{"internalType":"bytes4","name":"callbackSelector","type":"bytes4"},{"internalType":"address[]","name":"subcommittee","type":"address[]"},{"components":[{"internalType":"address","name":"validator","type":"address"},{"internalType":"bytes","name":"result","type":"bytes"},{"internalType":"enum ResponseStatus","name":"status","type":"uint8"},{"internalType":"uint256","name":"receipt","type":"uint256"},{"internalType":"uint256","name":"timestamp","type":"uint256"},{"internalType":"uint256","name":"executionCost","type":"uint256"}],"internalType":"struct Response[]","name":"responses","type":"tuple[]"},{"internalType":"uint256","name":"responseCount","type":"uint256"},{"internalType":"uint256","name":"failureCount","type":"uint256"},{"internalType":"uint256","name":"threshold","type":"uint256"},{"internalType":"uint256","name":"createdAt","type":"uint256"},{"internalType":"uint256","name":"deadline","type":"uint256"},{"internalType":"enum ResponseStatus","name":"status","type":"uint8"},{"internalType":"enum ConsensusType","name":"consensusType","type":"uint8"},{"internalType":"uint256","name":"remainingBudget","type":"uint256"}],"internalType":"struct Request","name":"","type":"tuple"}],"name":"handleResponse","outputs":[],"stateMutability":"nonpayable","type":"function"},{"inputs":[],"name":"lastUpdatedAt","outputs":[{"internalType":"uint256","name":"","type":"uint256"}],"stateMutability":"view","type":"function"},{"inputs":[],"name":"latestPrice","outputs":[{"internalType":"uint256","name":"","type":"uint256"}],"stateMutability":"view","type":"function"},{"inputs":[{"internalType":"uint256","name":"","type":"uint256"}],"name":"pendingRequests","outputs":[{"internalType":"bool","name":"","type":"bool"}],"stateMutability":"view","type":"function"},{"inputs":[],"name":"requestBtcPrice","outputs":[{"internalType":"uint256","name":"requestId","type":"uint256"}],"stateMutability":"payable","type":"function"},{"inputs":[],"name":"requestEthPrice","outputs":[{"internalType":"uint256","name":"requestId","type":"uint256"}],"stateMutability":"payable","type":"function"},{"stateMutability":"payable","type":"receive"}],"evm":{"bytecode":{"linkReferences":{},"object":"6080806040523461001657610bab908161001c8239f35b600080fdfe6080604081815260049182361015610022575b505050361561002057600080fd5b005b600092833560e01c918263011f8b1b146106945750816308db3305146106695781630e3da5b81461032a5781633812b250146102825781633c652a9a1461025557816354aea1271461023657816358e56db41461019d575080637efc77fa1461016f578063a3e6ba94146101535763f3adfbc7146100a05780610012565b8160031936011261014f5780610148602092516100bc816106b6565b604c81527f68747470733a2f2f6170692e636f696e6765636b6f2e636f6d2f6170692f7633848201527f2f73696d706c652f70726963653f6964733d657468657265756d2676735f6375838201526b1c9c995b98da595ccf5d5cd960a21b606082015282519061012b826106e8565b600c82526b195d1a195c995d5b4b9d5cd960a21b858301526108ea565b9051908152f35b5080fd5b503461014f578160031936011261014f57602091549051908152f35b503461014f578160031936011261014f576020905173037bb9c718f3f7fe5ecbdb0b600d607b527067768152f35b91905034610220578260031936011261022057602081518093630ffeb17d60e11b82528173037bb9c718f3f7fe5ecbdb0b600d607b527067765afa91821561022c5783926101f0575b6020838351908152f35b9091506020813d602011610224575b8161020c60209383610704565b8101031261022057602092505190386101e6565b8280fd5b3d91506101ff565b81513d85823e3d90fd5b50503461014f578160031936011261014f576020906001549051908152f35b905034610220576020366003190112610220578160209360ff923581526002855220541690519015158152f35b50508160031936011261014f5780610148602092516102a0816106b6565b604b81527f68747470733a2f2f6170692e636f696e6765636b6f2e636f6d2f6170692f7633848201527f2f73696d706c652f70726963653f6964733d626974636f696e2676735f637572838201526a1c995b98da595ccf5d5cd960aa1b606082015282519061030e826106e8565b600b82526a189a5d18dbda5b8b9d5cd960aa1b858301526108ea565b91905034610220576003199160803684011261066557803592602480359267ffffffffffffffff93848111610661576103669036908301610757565b9260443590600582101561065d57606435868111610659576101c080928236030112610659578751918201828110888211176106475788528084013582526103af85820161073e565b96602097888401526103c36044830161073e565b838a015260648201356001600160e01b03198116810361064357606084015260848201358181116106435782013660238201121561064357858101359061040982610726565b916104168c519384610704565b808352888b84019160051b8301019136831161063f57898c9101915b8383106106275750505050608084015260a48201359081116106235761045d90853691840101610757565b60a083015260c481013560c083015260e481013560e08301526101048101356101008301526101248101356101208301526101448101356101408301526101648101356005811015610623576101608301526101848101356002811015610623576101a0916101a491610180850152013591015273037bb9c718f3f7fe5ecbdb0b600d607b5270677633036105f2578688526002855260ff8689205416156105bf578688526002808652868920805460ff191690558114806105b5575b1561058757508251156105765750508180910151015191818380518101031261057257817fea9a71d98ddc7ea55a2fd4ddad706d82f99e1c51f75b9bc9417bbabc10fc91cb930151908186554260015551908152a280f35b8480fd5b634e487b7160e01b87526032905285fd5b925050507f3a4f0cc107942e96d99e5648c0043cdd51686b0ba8c85ceed4b0fbb7db61cbdc9251908152a280f35b508351151561051a565b50600f6064928587519362461bcd60e51b85528401528201526e155b9adb9bdddb881c995c5d595cdd608a1b6044820152fd5b50600d6064928587519362461bcd60e51b85528401528201526c4f6e6c7920706c6174666f726d60981b6044820152fd5b8a80fd5b81906106328461073e565b8152019101908b90610432565b8e80fd5b8b80fd5b634e487b7160e01b8b5260418552858bfd5b8980fd5b8880fd5b8780fd5b8380fd5b828434610691578060031936011261069157546305f5e1008251918181048352066020820152f35b80fd5b84903461014f578160031936011261014f578067b6d47da8dbbcb1b160209252f35b6080810190811067ffffffffffffffff8211176106d257604052565b634e487b7160e01b600052604160045260246000fd5b6040810190811067ffffffffffffffff8211176106d257604052565b90601f8019910116810190811067ffffffffffffffff8211176106d257604052565b67ffffffffffffffff81116106d25760051b60200190565b35906001600160a01b038216820361075257565b600080fd5b601f9082601f8201121561075257803560209261077382610726565b94604061078281519788610704565b838752858701928660059560051b8701019483861161075257878701945b8686106107b35750505050505050505090565b67ffffffffffffffff86358181116107525789019060c0601f19928184828b03011261075257875193828501858110858211176108955789526107f7828f0161073e565b855288820135848111610752578201938a603f86011215610752578e8501359081116108955761082f8f8b51938b8401160183610704565b8082528a8a828701011161075257808f958b01868401376000948591830101528d8501526060928382013590878210156106915750888501526080808201359385019390935260a0808201359385019390935201359082015281529488019488016107a0565b60246000634e487b7160e01b81526041600452fd5b919082519283825260005b8481106108d6575050826000602080949584010152601f8019910116010190565b6020818301810151848301820152016108b5565b9190916040908151906020631dde098160e11b81840152606060248401526109438361092e61091c60848301866108aa565b828103602319016044840152896108aa565b6008606483015203601f198101855284610704565b8351630ffeb17d60e11b81529273037bb9c718f3f7fe5ecbdb0b600d607b52706776908285600481855afa948515610b6a57600095610b3b575b50843410610b005785516345de5df160e11b815267b6d47da8dbbcb1b160048201523060248201526301c7b4b760e31b60448201526080606482015293929182918591908290889082906109d59060848301906108aa565b03925af1928315610af557600093610aa6575b507f6f5af20087f5ec1168f46e6a6b3f04fc77cfb13a534df5b100ee511eb4e14f8f91610a49610a3c928599866000526002825288600020600160ff1982541617905588519485948a86528a8601906108aa565b91848303908501526108aa565b0390a2803411610a57575050565b80340390348211610a90576000808093819382903414610a87575b3390f115610a7d5750565b513d6000823e3d90fd5b506108fc610a72565b634e487b7160e01b600052601160045260246000fd5b90928382813d8311610aee575b610abd8183610704565b81010312610691575051917f6f5af20087f5ec1168f46e6a6b3f04fc77cfb13a534df5b100ee511eb4e14f8f6109e8565b503d610ab3565b85513d6000823e3d90fd5b855162461bcd60e51b8152600481018490526014602482015273125b9cdd59999a58da595b9d0819195c1bdcda5d60621b6044820152606490fd5b90948382813d8311610b63575b610b528183610704565b81010312610691575051933861097d565b503d610b48565b86513d6000823e3d90fdfea2646970667358221220bed71733952157979bd85e588a659c6bb049e33aac3d26f281af917284326de864736f6c63430008180033","opcodes":"PUSH1 0x80 DUP1 PUSH1 0x40 MSTORE CALLVALUE PUSH2 0x16 JUMPI PUSH2 0xBAB SWAP1 DUP2 PUSH2 0x1C DUP3 CODECOPY RETURN JUMPDEST PUSH1 0x0 DUP1 REVERT INVALID PUSH1 0x80 PUSH1 0x40 DUP2 DUP2 MSTORE PUSH1 0x4 SWAP2 DUP3 CALLDATASIZE LT ISZERO PUSH2 0x22 JUMPI JUMPDEST POP POP POP CALLDATASIZE ISZERO PUSH2 0x20 JUMPI PUSH1 0x0 DUP1 REVERT JUMPDEST STOP JUMPDEST PUSH1 0x0 SWAP3 DUP4 CALLDATALOAD PUSH1 0xE0 SHR SWAP2 DUP3 PUSH4 0x11F8B1B EQ PUSH2 0x694 JUMPI POP DUP2 PUSH4 0x8DB3305 EQ PUSH2 0x669 JUMPI DUP2 PUSH4 0xE3DA5B8 EQ PUSH2 0x32A JUMPI DUP2 PUSH4 0x3812B250 EQ PUSH2 0x282 JUMPI DUP2 PUSH4 0x3C652A9A EQ PUSH2 0x255 JUMPI DUP2 PUSH4 0x54AEA127 EQ PUSH2 0x236 JUMPI DUP2 PUSH4 0x58E56DB4 EQ PUSH2 0x19D JUMPI POP DUP1 PUSH4 0x7EFC77FA EQ PUSH2 0x16F JUMPI DUP1 PUSH4 0xA3E6BA94 EQ PUSH2 0x153 JUMPI PUSH4 0xF3ADFBC7 EQ PUSH2 0xA0 JUMPI DUP1 PUSH2 0x12 JUMP JUMPDEST DUP2 PUSH1 0x3 NOT CALLDATASIZE ADD SLT PUSH2 0x14F JUMPI DUP1 PUSH2 0x148 PUSH1 0x20 SWAP3 MLOAD PUSH2 0xBC DUP2 PUSH2 0x6B6 JUMP JUMPDEST PUSH1 0x4C DUP2 MSTORE PUSH32 0x68747470733A2F2F6170692E636F696E6765636B6F2E636F6D2F6170692F7633 DUP5 DUP3 ADD MSTORE PUSH32 0x2F73696D706C652F70726963653F6964733D657468657265756D2676735F6375 DUP4 DUP3 ADD MSTORE PUSH12 0x1C9C995B98DA595CCF5D5CD9 PUSH1 0xA2 SHL PUSH1 0x60 DUP3 ADD MSTORE DUP3 MLOAD SWAP1 PUSH2 0x12B DUP3 PUSH2 0x6E8 JUMP JUMPDEST PUSH1 0xC DUP3 MSTORE PUSH12 0x195D1A195C995D5B4B9D5CD9 PUSH1 0xA2 SHL DUP6 DUP4 ADD MSTORE PUSH2 0x8EA JUMP JUMPDEST SWAP1 MLOAD SWAP1 DUP2 MSTORE RETURN JUMPDEST POP DUP1 REVERT JUMPDEST POP CALLVALUE PUSH2 0x14F JUMPI DUP2 PUSH1 0x3 NOT CALLDATASIZE ADD SLT PUSH2 0x14F JUMPI PUSH1 0x20 SWAP2 SLOAD SWAP1 MLOAD SWAP1 DUP2 MSTORE RETURN JUMPDEST POP CALLVALUE PUSH2 0x14F JUMPI DUP2 PUSH1 0x3 NOT CALLDATASIZE ADD SLT PUSH2 0x14F JUMPI PUSH1 0x20 SWAP1 MLOAD PUSH20 0x37BB9C718F3F7FE5ECBDB0B600D607B52706776 DUP2 MSTORE RETURN JUMPDEST SWAP2 SWAP1 POP CALLVALUE PUSH2 0x220 JUMPI DUP3 PUSH1 0x3 NOT CALLDATASIZE ADD SLT PUSH2 0x220 JUMPI PUSH1 0x20 DUP2 MLOAD DUP1 SWAP4 PUSH4 0xFFEB17D PUSH1 0xE1 SHL DUP3 MSTORE DUP2 PUSH20 0x37BB9C718F3F7FE5ECBDB0B600D607B52706776 GAS STATICCALL SWAP2 DUP3 ISZERO PUSH2 0x22C JUMPI DUP4 SWAP3 PUSH2 0x1F0 JUMPI JUMPDEST PUSH1 0x20 DUP4 DUP4 MLOAD SWAP1 DUP2 MSTORE RETURN JUMPDEST SWAP1 SWAP2 POP PUSH1 0x20 DUP2 RETURNDATASIZE PUSH1 0x20 GT PUSH2 0x224 JUMPI JUMPDEST DUP2 PUSH2 0x20C PUSH1 0x20 SWAP4 DUP4 PUSH2 0x704 JUMP JUMPDEST DUP2 ADD SUB SLT PUSH2 0x220 JUMPI PUSH1 0x20 SWAP3 POP MLOAD SWAP1 CODESIZE PUSH2 0x1E6 JUMP JUMPDEST DUP3 DUP1 REVERT JUMPDEST RETURNDATASIZE SWAP2 POP PUSH2 0x1FF JUMP JUMPDEST DUP2 MLOAD RETURNDATASIZE DUP6 DUP3 RETURNDATACOPY RETURNDATASIZE SWAP1 REVERT JUMPDEST POP POP CALLVALUE PUSH2 0x14F JUMPI DUP2 PUSH1 0x3 NOT CALLDATASIZE ADD SLT PUSH2 0x14F JUMPI PUSH1 0x20 SWAP1 PUSH1 0x1 SLOAD SWAP1 MLOAD SWAP1 DUP2 MSTORE RETURN JUMPDEST SWAP1 POP CALLVALUE PUSH2 0x220 JUMPI PUSH1 0x20 CALLDATASIZE PUSH1 0x3 NOT ADD SLT PUSH2 0x220 JUMPI DUP2 PUSH1 0x20 SWAP4 PUSH1 0xFF SWAP3 CALLDATALOAD DUP2 MSTORE PUSH1 0x2 DUP6 MSTORE KECCAK256 SLOAD AND SWAP1 MLOAD SWAP1 ISZERO ISZERO DUP2 MSTORE RETURN JUMPDEST POP POP DUP2 PUSH1 0x3 NOT CALLDATASIZE ADD SLT PUSH2 0x14F JUMPI DUP1 PUSH2 0x148 PUSH1 0x20 SWAP3 MLOAD PUSH2 0x2A0 DUP2 PUSH2 0x6B6 JUMP JUMPDEST PUSH1 0x4B DUP2 MSTORE PUSH32 0x68747470733A2F2F6170692E636F696E6765636B6F2E636F6D2F6170692F7633 DUP5 DUP3 ADD MSTORE PUSH32 0x2F73696D706C652F70726963653F6964733D626974636F696E2676735F637572 DUP4 DUP3 ADD MSTORE PUSH11 0x1C995B98DA595CCF5D5CD9 PUSH1 0xAA SHL PUSH1 0x60 DUP3 ADD MSTORE DUP3 MLOAD SWAP1 PUSH2 0x30E DUP3 PUSH2 0x6E8 JUMP JUMPDEST PUSH1 0xB DUP3 MSTORE PUSH11 0x189A5D18DBDA5B8B9D5CD9 PUSH1 0xAA SHL DUP6 DUP4 ADD MSTORE PUSH2 0x8EA JUMP JUMPDEST SWAP2 SWAP1 POP CALLVALUE PUSH2 0x220 JUMPI PUSH1 0x3 NOT SWAP2 PUSH1 0x80 CALLDATASIZE DUP5 ADD SLT PUSH2 0x665 JUMPI DUP1 CALLDATALOAD SWAP3 PUSH1 0x24 DUP1 CALLDATALOAD SWAP3 PUSH8 0xFFFFFFFFFFFFFFFF SWAP4 DUP5 DUP2 GT PUSH2 0x661 JUMPI PUSH2 0x366 SWAP1 CALLDATASIZE SWAP1 DUP4 ADD PUSH2 0x757 JUMP JUMPDEST SWAP3 PUSH1 0x44 CALLDATALOAD SWAP1 PUSH1 0x5 DUP3 LT ISZERO PUSH2 0x65D JUMPI PUSH1 0x64 CALLDATALOAD DUP7 DUP2 GT PUSH2 0x659 JUMPI PUSH2 0x1C0 DUP1 SWAP3 DUP3 CALLDATASIZE SUB ADD SLT PUSH2 0x659 JUMPI DUP8 MLOAD SWAP2 DUP3 ADD DUP3 DUP2 LT DUP9 DUP3 GT OR PUSH2 0x647 JUMPI DUP9 MSTORE DUP1 DUP5 ADD CALLDATALOAD DUP3 MSTORE PUSH2 0x3AF DUP6 DUP3 ADD PUSH2 0x73E JUMP JUMPDEST SWAP7 PUSH1 0x20 SWAP8 DUP9 DUP5 ADD MSTORE PUSH2 0x3C3 PUSH1 0x44 DUP4 ADD PUSH2 0x73E JUMP JUMPDEST DUP4 DUP11 ADD MSTORE PUSH1 0x64 DUP3 ADD CALLDATALOAD PUSH1 0x1 PUSH1 0x1 PUSH1 0xE0 SHL SUB NOT DUP2 AND DUP2 SUB PUSH2 0x643 JUMPI PUSH1 0x60 DUP5 ADD MSTORE PUSH1 0x84 DUP3 ADD CALLDATALOAD DUP2 DUP2 GT PUSH2 0x643 JUMPI DUP3 ADD CALLDATASIZE PUSH1 0x23 DUP3 ADD SLT ISZERO PUSH2 0x643 JUMPI DUP6 DUP2 ADD CALLDATALOAD SWAP1 PUSH2 0x409 DUP3 PUSH2 0x726 JUMP JUMPDEST SWAP2 PUSH2 0x416 DUP13 MLOAD SWAP4 DUP5 PUSH2 0x704 JUMP JUMPDEST DUP1 DUP4 MSTORE DUP9 DUP12 DUP5 ADD SWAP2 PUSH1 0x5 SHL DUP4 ADD ADD SWAP2 CALLDATASIZE DUP4 GT PUSH2 0x63F JUMPI DUP10 DUP13 SWAP2 ADD SWAP2 JUMPDEST DUP4 DUP4 LT PUSH2 0x627 JUMPI POP POP POP POP PUSH1 0x80 DUP5 ADD MSTORE PUSH1 0xA4 DUP3 ADD CALLDATALOAD SWAP1 DUP2 GT PUSH2 0x623 JUMPI PUSH2 0x45D SWAP1 DUP6 CALLDATASIZE SWAP2 DUP5 ADD ADD PUSH2 0x757 JUMP JUMPDEST PUSH1 0xA0 DUP4 ADD MSTORE PUSH1 0xC4 DUP2 ADD CALLDATALOAD PUSH1 0xC0 DUP4 ADD MSTORE PUSH1 0xE4 DUP2 ADD CALLDATALOAD PUSH1 0xE0 DUP4 ADD MSTORE PUSH2 0x104 DUP2 ADD CALLDATALOAD PUSH2 0x100 DUP4 ADD MSTORE PUSH2 0x124 DUP2 ADD CALLDATALOAD PUSH2 0x120 DUP4 ADD MSTORE PUSH2 0x144 DUP2 ADD CALLDATALOAD PUSH2 0x140 DUP4 ADD MSTORE PUSH2 0x164 DUP2 ADD CALLDATALOAD PUSH1 0x5 DUP2 LT ISZERO PUSH2 0x623 JUMPI PUSH2 0x160 DUP4 ADD MSTORE PUSH2 0x184 DUP2 ADD CALLDATALOAD PUSH1 0x2 DUP2 LT ISZERO PUSH2 0x623 JUMPI PUSH2 0x1A0 SWAP2 PUSH2 0x1A4 SWAP2 PUSH2 0x180 DUP6 ADD MSTORE ADD CALLDATALOAD SWAP2 ADD MSTORE PUSH20 0x37BB9C718F3F7FE5ECBDB0B600D607B52706776 CALLER SUB PUSH2 0x5F2 JUMPI DUP7 DUP9 MSTORE PUSH1 0x2 DUP6 MSTORE PUSH1 0xFF DUP7 DUP10 KECCAK256 SLOAD AND ISZERO PUSH2 0x5BF JUMPI DUP7 DUP9 MSTORE PUSH1 0x2 DUP1 DUP7 MSTORE DUP7 DUP10 KECCAK256 DUP1 SLOAD PUSH1 0xFF NOT AND SWAP1 SSTORE DUP2 EQ DUP1 PUSH2 0x5B5 JUMPI JUMPDEST ISZERO PUSH2 0x587 JUMPI POP DUP3 MLOAD ISZERO PUSH2 0x576 JUMPI POP POP DUP2 DUP1 SWAP2 ADD MLOAD ADD MLOAD SWAP2 DUP2 DUP4 DUP1 MLOAD DUP2 ADD SUB SLT PUSH2 0x572 JUMPI DUP2 PUSH32 0xEA9A71D98DDC7EA55A2FD4DDAD706D82F99E1C51F75B9BC9417BBABC10FC91CB SWAP4 ADD MLOAD SWAP1 DUP2 DUP7 SSTORE TIMESTAMP PUSH1 0x1 SSTORE MLOAD SWAP1 DUP2 MSTORE LOG2 DUP1 RETURN JUMPDEST DUP5 DUP1 REVERT JUMPDEST PUSH4 0x4E487B71 PUSH1 0xE0 SHL DUP8 MSTORE PUSH1 0x32 SWAP1 MSTORE DUP6 REVERT JUMPDEST SWAP3 POP POP POP PUSH32 0x3A4F0CC107942E96D99E5648C0043CDD51686B0BA8C85CEED4B0FBB7DB61CBDC SWAP3 MLOAD SWAP1 DUP2 MSTORE LOG2 DUP1 RETURN JUMPDEST POP DUP4 MLOAD ISZERO ISZERO PUSH2 0x51A JUMP JUMPDEST POP PUSH1 0xF PUSH1 0x64 SWAP3 DUP6 DUP8 MLOAD SWAP4 PUSH3 0x461BCD PUSH1 0xE5 SHL DUP6 MSTORE DUP5 ADD MSTORE DUP3 ADD MSTORE PUSH15 0x155B9ADB9BDDDB881C995C5D595CDD PUSH1 0x8A SHL PUSH1 0x44 DUP3 ADD MSTORE REVERT JUMPDEST POP PUSH1 0xD PUSH1 0x64 SWAP3 DUP6 DUP8 MLOAD SWAP4 PUSH3 0x461BCD PUSH1 0xE5 SHL DUP6 MSTORE DUP5 ADD MSTORE DUP3 ADD MSTORE PUSH13 0x4F6E6C7920706C6174666F726D PUSH1 0x98 SHL PUSH1 0x44 DUP3 ADD MSTORE REVERT JUMPDEST DUP11 DUP1 REVERT JUMPDEST DUP2 SWAP1 PUSH2 0x632 DUP5 PUSH2 0x73E JUMP JUMPDEST DUP2 MSTORE ADD SWAP2 ADD SWAP1 DUP12 SWAP1 PUSH2 0x432 JUMP JUMPDEST DUP15 DUP1 REVERT JUMPDEST DUP12 DUP1 REVERT JUMPDEST PUSH4 0x4E487B71 PUSH1 0xE0 SHL DUP12 MSTORE PUSH1 0x41 DUP6 MSTORE DUP6 DUP12 REVERT JUMPDEST DUP10 DUP1 REVERT JUMPDEST DUP9 DUP1 REVERT JUMPDEST DUP8 DUP1 REVERT JUMPDEST DUP4 DUP1 REVERT JUMPDEST DUP3 DUP5 CALLVALUE PUSH2 0x691 JUMPI DUP1 PUSH1 0x3 NOT CALLDATASIZE ADD SLT PUSH2 0x691 JUMPI SLOAD PUSH4 0x5F5E100 DUP3 MLOAD SWAP2 DUP2 DUP2 DIV DUP4 MSTORE MOD PUSH1 0x20 DUP3 ADD MSTORE RETURN JUMPDEST DUP1 REVERT JUMPDEST DUP5 SWAP1 CALLVALUE PUSH2 0x14F JUMPI DUP2 PUSH1 0x3 NOT CALLDATASIZE ADD SLT PUSH2 0x14F JUMPI DUP1 PUSH8 0xB6D47DA8DBBCB1B1 PUSH1 0x20 SWAP3 MSTORE RETURN JUMPDEST PUSH1 0x80 DUP2 ADD SWAP1 DUP2 LT PUSH8 0xFFFFFFFFFFFFFFFF DUP3 GT OR PUSH2 0x6D2 JUMPI PUSH1 0x40 MSTORE JUMP JUMPDEST PUSH4 0x4E487B71 PUSH1 0xE0 SHL PUSH1 0x0 MSTORE PUSH1 0x41 PUSH1 0x4 MSTORE PUSH1 0x24 PUSH1 0x0 REVERT JUMPDEST PUSH1 0x40 DUP2 ADD SWAP1 DUP2 LT PUSH8 0xFFFFFFFFFFFFFFFF DUP3 GT OR PUSH2 0x6D2 JUMPI PUSH1 0x40 MSTORE JUMP JUMPDEST SWAP1 PUSH1 0x1F DUP1 NOT SWAP2 ADD AND DUP2 ADD SWAP1 DUP2 LT PUSH8 0xFFFFFFFFFFFFFFFF DUP3 GT OR PUSH2 0x6D2 JUMPI PUSH1 0x40 MSTORE JUMP JUMPDEST PUSH8 0xFFFFFFFFFFFFFFFF DUP2 GT PUSH2 0x6D2 JUMPI PUSH1 0x5 SHL PUSH1 0x20 ADD SWAP1 JUMP JUMPDEST CALLDATALOAD SWAP1 PUSH1 0x1 PUSH1 0x1 PUSH1 0xA0 SHL SUB DUP3 AND DUP3 SUB PUSH2 0x752 JUMPI JUMP JUMPDEST PUSH1 0x0 DUP1 REVERT JUMPDEST PUSH1 0x1F SWAP1 DUP3 PUSH1 0x1F DUP3 ADD SLT ISZERO PUSH2 0x752 JUMPI DUP1 CALLDATALOAD PUSH1 0x20 SWAP3 PUSH2 0x773 DUP3 PUSH2 0x726 JUMP JUMPDEST SWAP5 PUSH1 0x40 PUSH2 0x782 DUP2 MLOAD SWAP8 DUP9 PUSH2 0x704 JUMP JUMPDEST DUP4 DUP8 MSTORE DUP6 DUP8 ADD SWAP3 DUP7 PUSH1 0x5 SWAP6 PUSH1 0x5 SHL DUP8 ADD ADD SWAP5 DUP4 DUP7 GT PUSH2 0x752 JUMPI DUP8 DUP8 ADD SWAP5 JUMPDEST DUP7 DUP7 LT PUSH2 0x7B3 JUMPI POP POP POP POP POP POP POP POP POP SWAP1 JUMP JUMPDEST PUSH8 0xFFFFFFFFFFFFFFFF DUP7 CALLDATALOAD DUP2 DUP2 GT PUSH2 0x752 JUMPI DUP10 ADD SWAP1 PUSH1 0xC0 PUSH1 0x1F NOT SWAP3 DUP2 DUP5 DUP3 DUP12 SUB ADD SLT PUSH2 0x752 JUMPI DUP8 MLOAD SWAP4 DUP3 DUP6 ADD DUP6 DUP2 LT DUP6 DUP3 GT OR PUSH2 0x895 JUMPI DUP10 MSTORE PUSH2 0x7F7 DUP3 DUP16 ADD PUSH2 0x73E JUMP JUMPDEST DUP6 MSTORE DUP9 DUP3 ADD CALLDATALOAD DUP5 DUP2 GT PUSH2 0x752 JUMPI DUP3 ADD SWAP4 DUP11 PUSH1 0x3F DUP7 ADD SLT ISZERO PUSH2 0x752 JUMPI DUP15 DUP6 ADD CALLDATALOAD SWAP1 DUP2 GT PUSH2 0x895 JUMPI PUSH2 0x82F DUP16 DUP12 MLOAD SWAP4 DUP12 DUP5 ADD AND ADD DUP4 PUSH2 0x704 JUMP JUMPDEST DUP1 DUP3 MSTORE DUP11 DUP11 DUP3 DUP8 ADD ADD GT PUSH2 0x752 JUMPI DUP1 DUP16 SWAP6 DUP12 ADD DUP7 DUP5 ADD CALLDATACOPY PUSH1 0x0 SWAP5 DUP6 SWAP2 DUP4 ADD ADD MSTORE DUP14 DUP6 ADD MSTORE PUSH1 0x60 SWAP3 DUP4 DUP3 ADD CALLDATALOAD SWAP1 DUP8 DUP3 LT ISZERO PUSH2 0x691 JUMPI POP DUP9 DUP6 ADD MSTORE PUSH1 0x80 DUP1 DUP3 ADD CALLDATALOAD SWAP4 DUP6 ADD SWAP4 SWAP1 SWAP4 MSTORE PUSH1 0xA0 DUP1 DUP3 ADD CALLDATALOAD SWAP4 DUP6 ADD SWAP4 SWAP1 SWAP4 MSTORE ADD CALLDATALOAD SWAP1 DUP3 ADD MSTORE DUP2 MSTORE SWAP5 DUP9 ADD SWAP5 DUP9 ADD PUSH2 0x7A0 JUMP JUMPDEST PUSH1 0x24 PUSH1 0x0 PUSH4 0x4E487B71 PUSH1 0xE0 SHL DUP2 MSTORE PUSH1 0x41 PUSH1 0x4 MSTORE REVERT JUMPDEST SWAP2 SWAP1 DUP3 MLOAD SWAP3 DUP4 DUP3 MSTORE PUSH1 0x0 JUMPDEST DUP5 DUP2 LT PUSH2 0x8D6 JUMPI POP POP DUP3 PUSH1 0x0 PUSH1 0x20 DUP1 SWAP5 SWAP6 DUP5 ADD ADD MSTORE PUSH1 0x1F DUP1 NOT SWAP2 ADD AND ADD ADD SWAP1 JUMP JUMPDEST PUSH1 0x20 DUP2 DUP4 ADD DUP2 ADD MLOAD DUP5 DUP4 ADD DUP3 ADD MSTORE ADD PUSH2 0x8B5 JUMP JUMPDEST SWAP2 SWAP1 SWAP2 PUSH1 0x40 SWAP1 DUP2 MLOAD SWAP1 PUSH1 0x20 PUSH4 0x1DDE0981 PUSH1 0xE1 SHL DUP2 DUP5 ADD MSTORE PUSH1 0x60 PUSH1 0x24 DUP5 ADD MSTORE PUSH2 0x943 DUP4 PUSH2 0x92E PUSH2 0x91C PUSH1 0x84 DUP4 ADD DUP7 PUSH2 0x8AA JUMP JUMPDEST DUP3 DUP2 SUB PUSH1 0x23 NOT ADD PUSH1 0x44 DUP5 ADD MSTORE DUP10 PUSH2 0x8AA JUMP JUMPDEST PUSH1 0x8 PUSH1 0x64 DUP4 ADD MSTORE SUB PUSH1 0x1F NOT DUP2 ADD DUP6 MSTORE DUP5 PUSH2 0x704 JUMP JUMPDEST DUP4 MLOAD PUSH4 0xFFEB17D PUSH1 0xE1 SHL DUP2 MSTORE SWAP3 PUSH20 0x37BB9C718F3F7FE5ECBDB0B600D607B52706776 SWAP1 DUP3 DUP6 PUSH1 0x4 DUP2 DUP6 GAS STATICCALL SWAP5 DUP6 ISZERO PUSH2 0xB6A JUMPI PUSH1 0x0 SWAP6 PUSH2 0xB3B JUMPI JUMPDEST POP DUP5 CALLVALUE LT PUSH2 0xB00 JUMPI DUP6 MLOAD PUSH4 0x45DE5DF1 PUSH1 0xE1 SHL DUP2 MSTORE PUSH8 0xB6D47DA8DBBCB1B1 PUSH1 0x4 DUP3 ADD MSTORE ADDRESS PUSH1 0x24 DUP3 ADD MSTORE PUSH4 0x1C7B4B7 PUSH1 0xE3 SHL PUSH1 0x44 DUP3 ADD MSTORE PUSH1 0x80 PUSH1 0x64 DUP3 ADD MSTORE SWAP4 SWAP3 SWAP2 DUP3 SWAP2 DUP6 SWAP2 SWAP1 DUP3 SWAP1 DUP9 SWAP1 DUP3 SWAP1 PUSH2 0x9D5 SWAP1 PUSH1 0x84 DUP4 ADD SWAP1 PUSH2 0x8AA JUMP JUMPDEST SUB SWAP3 GAS CALL SWAP3 DUP4 ISZERO PUSH2 0xAF5 JUMPI PUSH1 0x0 SWAP4 PUSH2 0xAA6 JUMPI JUMPDEST POP PUSH32 0x6F5AF20087F5EC1168F46E6A6B3F04FC77CFB13A534DF5B100EE511EB4E14F8F SWAP2 PUSH2 0xA49 PUSH2 0xA3C SWAP3 DUP6 SWAP10 DUP7 PUSH1 0x0 MSTORE PUSH1 0x2 DUP3 MSTORE DUP9 PUSH1 0x0 KECCAK256 PUSH1 0x1 PUSH1 0xFF NOT DUP3 SLOAD AND OR SWAP1 SSTORE DUP9 MLOAD SWAP5 DUP6 SWAP5 DUP11 DUP7 MSTORE DUP11 DUP7 ADD SWAP1 PUSH2 0x8AA JUMP JUMPDEST SWAP2 DUP5 DUP4 SUB SWAP1 DUP6 ADD MSTORE PUSH2 0x8AA JUMP JUMPDEST SUB SWAP1 LOG2 DUP1 CALLVALUE GT PUSH2 0xA57 JUMPI POP POP JUMP JUMPDEST DUP1 CALLVALUE SUB SWAP1 CALLVALUE DUP3 GT PUSH2 0xA90 JUMPI PUSH1 0x0 DUP1 DUP1 SWAP4 DUP2 SWAP4 DUP3 SWAP1 CALLVALUE EQ PUSH2 0xA87 JUMPI JUMPDEST CALLER SWAP1 CALL ISZERO PUSH2 0xA7D JUMPI POP JUMP JUMPDEST MLOAD RETURNDATASIZE PUSH1 0x0 DUP3 RETURNDATACOPY RETURNDATASIZE SWAP1 REVERT JUMPDEST POP PUSH2 0x8FC PUSH2 0xA72 JUMP JUMPDEST PUSH4 0x4E487B71 PUSH1 0xE0 SHL PUSH1 0x0 MSTORE PUSH1 0x11 PUSH1 0x4 MSTORE PUSH1 0x24 PUSH1 0x0 REVERT JUMPDEST SWAP1 SWAP3 DUP4 DUP3 DUP2 RETURNDATASIZE DUP4 GT PUSH2 0xAEE JUMPI JUMPDEST PUSH2 0xABD DUP2 DUP4 PUSH2 0x704 JUMP JUMPDEST DUP2 ADD SUB SLT PUSH2 0x691 JUMPI POP MLOAD SWAP2 PUSH32 0x6F5AF20087F5EC1168F46E6A6B3F04FC77CFB13A534DF5B100EE511EB4E14F8F PUSH2 0x9E8 JUMP JUMPDEST POP RETURNDATASIZE PUSH2 0xAB3 JUMP JUMPDEST DUP6 MLOAD RETURNDATASIZE PUSH1 0x0 DUP3 RETURNDATACOPY RETURNDATASIZE SWAP1 REVERT JUMPDEST DUP6 MLOAD PUSH3 0x461BCD PUSH1 0xE5 SHL DUP2 MSTORE PUSH1 0x4 DUP2 ADD DUP5 SWAP1 MSTORE PUSH1 0x14 PUSH1 0x24 DUP3 ADD MSTORE PUSH20 0x125B9CDD59999A58DA595B9D0819195C1BDCDA5D PUSH1 0x62 SHL PUSH1 0x44 DUP3 ADD MSTORE PUSH1 0x64 SWAP1 REVERT JUMPDEST SWAP1 SWAP5 DUP4 DUP3 DUP2 RETURNDATASIZE DUP4 GT PUSH2 0xB63 JUMPI JUMPDEST PUSH2 0xB52 DUP2 DUP4 PUSH2 0x704 JUMP JUMPDEST DUP2 ADD SUB SLT PUSH2 0x691 JUMPI POP MLOAD SWAP4 CODESIZE PUSH2 0x97D JUMP JUMPDEST POP RETURNDATASIZE PUSH2 0xB48 JUMP JUMPDEST DUP7 MLOAD RETURNDATASIZE PUSH1 0x0 DUP3 RETURNDATACOPY RETURNDATASIZE SWAP1 REVERT INVALID LOG2 PUSH5 0x6970667358 0x22 SLT KECCAK256 0xBE 0xD7 OR CALLER SWAP6 0x21 JUMPI SWAP8 SWAP12 0xD8 MCOPY PC DUP11 PUSH6 0x9C6BB049E33A 0xAC RETURNDATASIZE 0x26 CALLCODE DUP2 0xAF SWAP2 PUSH19 0x84326DE864736F6C6343000818003300000000 "},"methodIdentifiers":{"JSON_API_AGENT_ID()":"011f8b1b","PLATFORM()":"7efc77fa","getFormattedPrice()":"08db3305","getRequiredDeposit()":"58e56db4","handleResponse(uint256,(address,bytes,uint8,uint256,uint256,uint256)[],uint8,(uint256,address,address,bytes4,address[],(address,bytes,uint8,uint256,uint256,uint256)[],uint256,uint256,uint256,uint256,uint256,uint8,uint8,uint256))":"0e3da5b8","lastUpdatedAt()":"54aea127","latestPrice()":"a3e6ba94","pendingRequests(uint256)":"3c652a9a","requestBtcPrice()":"3812b250","requestEthPrice()":"f3adfbc7"}}}}}