{"contracts/SentimentAnalyzer.sol":{"SentimentAnalyzer":{"abi":[{"anonymous":false,"inputs":[{"indexed":true,"internalType":"uint256","name":"requestId","type":"uint256"},{"indexed":false,"internalType":"enum ResponseStatus","name":"status","type":"uint8"}],"name":"AnalysisFailed","type":"event"},{"anonymous":false,"inputs":[{"indexed":true,"internalType":"uint256","name":"requestId","type":"uint256"},{"indexed":false,"internalType":"string","name":"classification","type":"string"}],"name":"ClassificationReceived","type":"event"},{"anonymous":false,"inputs":[{"indexed":true,"internalType":"uint256","name":"requestId","type":"uint256"},{"indexed":false,"internalType":"string","name":"text","type":"string"}],"name":"ClassificationRequested","type":"event"},{"anonymous":false,"inputs":[{"indexed":true,"internalType":"uint256","name":"requestId","type":"uint256"},{"indexed":false,"internalType":"int256","name":"score","type":"int256"}],"name":"ScoreReceived","type":"event"},{"anonymous":false,"inputs":[{"indexed":true,"internalType":"uint256","name":"requestId","type":"uint256"},{"indexed":false,"internalType":"string","name":"text","type":"string"}],"name":"ScoreRequested","type":"event"},{"inputs":[],"name":"LLM_AGENT_ID","outputs":[{"internalType":"uint256","name":"","type":"uint256"}],"stateMutability":"view","type":"function"},{"inputs":[],"name":"PLATFORM","outputs":[{"internalType":"contract IAgentRequester","name":"","type":"address"}],"stateMutability":"view","type":"function"},{"inputs":[{"internalType":"uint256","name":"","type":"uint256"}],"name":"analyses","outputs":[{"internalType":"string","name":"inputText","type":"string"},{"internalType":"string","name":"classification","type":"string"},{"internalType":"int256","name":"score","type":"int256"},{"internalType":"enum SentimentAnalyzer.AnalysisType","name":"analysisType","type":"uint8"},{"internalType":"uint256","name":"timestamp","type":"uint256"},{"internalType":"bool","name":"completed","type":"bool"}],"stateMutability":"view","type":"function"},{"inputs":[{"internalType":"string","name":"text","type":"string"}],"name":"classifySentiment","outputs":[{"internalType":"uint256","name":"requestId","type":"uint256"}],"stateMutability":"payable","type":"function"},{"inputs":[{"internalType":"uint256","name":"requestId","type":"uint256"}],"name":"getAnalysis","outputs":[{"components":[{"internalType":"string","name":"inputText","type":"string"},{"internalType":"string","name":"classification","type":"string"},{"internalType":"int256","name":"score","type":"int256"},{"internalType":"enum SentimentAnalyzer.AnalysisType","name":"analysisType","type":"uint8"},{"internalType":"uint256","name":"timestamp","type":"uint256"},{"internalType":"bool","name":"completed","type":"bool"}],"internalType":"struct SentimentAnalyzer.Analysis","name":"","type":"tuple"}],"stateMutability":"view","type":"function"},{"inputs":[],"name":"getRequiredDeposit","outputs":[{"internalType":"uint256","name":"","type":"uint256"}],"stateMutability":"view","type":"function"},{"inputs":[{"internalType":"uint256","name":"requestId","type":"uint256"},{"components":[{"internalType":"address","name":"validator","type":"address"},{"internalType":"bytes","name":"result","type":"bytes"},{"internalType":"enum ResponseStatus","name":"status","type":"uint8"},{"internalType":"uint256","name":"receipt","type":"uint256"},{"internalType":"uint256","name":"timestamp","type":"uint256"},{"internalType":"uint256","name":"executionCost","type":"uint256"}],"internalType":"struct Response[]","name":"responses","type":"tuple[]"},{"internalType":"enum ResponseStatus","name":"status","type":"uint8"},{"components":[{"internalType":"uint256","name":"id","type":"uint256"},{"internalType":"address","name":"requester","type":"address"},{"internalType":"address","name":"callbackAddress","type":"address"},{"internalType":"bytes4","name":"callbackSelector","type":"bytes4"},{"internalType":"address[]","name":"subcommittee","type":"address[]"},{"components":[{"internalType":"address","name":"validator","type":"address"},{"internalType":"bytes","name":"result","type":"bytes"},{"internalType":"enum ResponseStatus","name":"status","type":"uint8"},{"internalType":"uint256","name":"receipt","type":"uint256"},{"internalType":"uint256","name":"timestamp","type":"uint256"},{"internalType":"uint256","name":"executionCost","type":"uint256"}],"internalType":"struct Response[]","name":"responses","type":"tuple[]"},{"internalType":"uint256","name":"responseCount","type":"uint256"},{"internalType":"uint256","name":"failureCount","type":"uint256"},{"internalType":"uint256","name":"threshold","type":"uint256"},{"internalType":"uint256","name":"createdAt","type":"uint256"},{"internalType":"uint256","name":"deadline","type":"uint256"},{"internalType":"enum ResponseStatus","name":"status","type":"uint8"},{"internalType":"enum ConsensusType","name":"consensusType","type":"uint8"},{"internalType":"uint256","name":"remainingBudget","type":"uint256"}],"internalType":"struct Request","name":"","type":"tuple"}],"name":"handleClassification","outputs":[],"stateMutability":"nonpayable","type":"function"},{"inputs":[{"internalType":"uint256","name":"requestId","type":"uint256"},{"components":[{"internalType":"address","name":"validator","type":"address"},{"internalType":"bytes","name":"result","type":"bytes"},{"internalType":"enum ResponseStatus","name":"status","type":"uint8"},{"internalType":"uint256","name":"receipt","type":"uint256"},{"internalType":"uint256","name":"timestamp","type":"uint256"},{"internalType":"uint256","name":"executionCost","type":"uint256"}],"internalType":"struct Response[]","name":"responses","type":"tuple[]"},{"internalType":"enum ResponseStatus","name":"status","type":"uint8"},{"components":[{"internalType":"uint256","name":"id","type":"uint256"},{"internalType":"address","name":"requester","type":"address"},{"internalType":"address","name":"callbackAddress","type":"address"},{"internalType":"bytes4","name":"callbackSelector","type":"bytes4"},{"internalType":"address[]","name":"subcommittee","type":"address[]"},{"components":[{"internalType":"address","name":"validator","type":"address"},{"internalType":"bytes","name":"result","type":"bytes"},{"internalType":"enum ResponseStatus","name":"status","type":"uint8"},{"internalType":"uint256","name":"receipt","type":"uint256"},{"internalType":"uint256","name":"timestamp","type":"uint256"},{"internalType":"uint256","name":"executionCost","type":"uint256"}],"internalType":"struct Response[]","name":"responses","type":"tuple[]"},{"internalType":"uint256","name":"responseCount","type":"uint256"},{"internalType":"uint256","name":"failureCount","type":"uint256"},{"internalType":"uint256","name":"threshold","type":"uint256"},{"internalType":"uint256","name":"createdAt","type":"uint256"},{"internalType":"uint256","name":"deadline","type":"uint256"},{"internalType":"enum ResponseStatus","name":"status","type":"uint8"},{"internalType":"enum ConsensusType","name":"consensusType","type":"uint8"},{"internalType":"uint256","name":"remainingBudget","type":"uint256"}],"internalType":"struct Request","name":"","type":"tuple"}],"name":"handleScore","outputs":[],"stateMutability":"nonpayable","type":"function"},{"inputs":[],"name":"latestClassification","outputs":[{"internalType":"string","name":"","type":"string"}],"stateMutability":"view","type":"function"},{"inputs":[],"name":"latestScore","outputs":[{"internalType":"int256","name":"","type":"int256"}],"stateMutability":"view","type":"function"},{"inputs":[{"internalType":"string","name":"text","type":"string"}],"name":"scoreSentiment","outputs":[{"internalType":"uint256","name":"requestId","type":"uint256"}],"stateMutability":"payable","type":"function"},{"stateMutability":"payable","type":"receive"}],"evm":{"bytecode":{"linkReferences":{},"object":"6080806040523461001657611c09908161001c8239f35b600080fdfe6080604052600436101561001b575b361561001957600080fd5b005b60003560e01c80631a1ace28146111bf5780632e90c1a91461119c5780633ed7722514610c125780635170b93414610af957806358e56db414610a725780636c9ac38a1461098b5780637552b813146108925780637efc77fa146108635780639bd8cf2e1461015a578063af56cc72146100bc5763c6c1cd4d0361000e57346100b75760003660031901126100b7576020600254604051908152f35b600080fd5b346100b75760203660031901126100b757600435600052600060205261012c60406000206100e981611a0e565b906100f660018201611a0e565b60028201549161014a60ff60038301541661013a60ff60056004860154950154169460405198899860c08a5260c08a01906119a2565b9088820360208a01526119a2565b94604087015260608601906119c7565b6080840152151560a08301520390f35b61016336611936565b90604051917f416e616c797a65207468652073656e74696d656e74206f662074686520666f6c60208401526c03637bbb4b733903a32bc3a171609d1b6040840152662a32bc3a1d101160c91b604d840152808260548501376101dc605584838101601160f91b60548201520360358101865201846115c2565b60405192608084018481106001600160401b038211176106f1576040526003845260005b60608082101561021a579060209182828801015201610200565b5050926102e19360405161022d816115a7565b60078152660c4ead8d8d2e6d60cb1b602082015261024a83611b02565b5261025482611b02565b50604051610261816115a7565b60078152660c4cac2e4d2e6d60cb1b602082015261027e83611b25565b5261028882611b25565b50604051610295816115a7565b60078152661b995d5d1c985b60ca1b60208201526102b283611b35565b526102bc82611b35565b50604051631fcf941360e31b60208201526080602482015294859160a48301906119a2565b9181830360231981016044840152603484527f596f752061726520612073656e74696d656e7420616e616c7973742e20436c6160208501527339b9b4b33c903a34329039b2b73a34b6b2b73a1760611b6040850152603c60608501916000606486015201608484015281518091526080840193602060808360051b8301019301946000915b8383106108325750505050610384925003601f1981018552846115c2565b60405191630ffeb17d60e11b835273037bb9c718f3f7fe5ecbdb0b600d607b5270677693602084600481885afa9384156105fb576000946107fc575b5061041c84956020926103d587341015611b45565b6040516345de5df160e11b815267b24ac1afbcefc708600482015230602482015263034359c560e31b604482015260806064820152978893849283919060848301906119a2565b03925af19384156105fb576000946107c8575b506040519161043d83611571565b610448368284611629565b83526040516104568161158c565b6000815260208401526000604084015260006060840152426080840152600060a084015284600052600060205260406000209183518051906001600160401b0382116106f15781906104a886546119d4565b601f8111610778575b50602090601f831160011461071257600092610707575b50508160011b916000199060031b1c19161783555b60208401518051906001600160401b0382116106f157819061050260018701546119d4565b601f811161069e575b50602090601f831160011461063157600092610626575b50508160011b916000199060031b1c19161760018401555b604084015160028401556003830193606081015193600285101561061057600560a06105b1938a987f9d673ccd61e1e56c20887d3b8f72e6ce7e7b8a3df48af4dec704d46830a738c39860ff80198354169116179055608081015160048501550151151591019060ff801983541691151516179055565b6105c060405192839283611b88565b0390a28034116105d6575b602082604051908152f35b600080806105e5819434611bb0565b818115610607575b3390f1156105fb57816105cb565b6040513d6000823e3d90fd5b506108fc6105ed565b634e487b7160e01b600052602160045260246000fd5b015190508880610522565b600187016000908152602081209350601f198516905b818110610686575090846001959493921061066d575b505050811b01600184015561053a565b015160001960f88460031b161c1916905588808061065d565b92936020600181928786015181550195019301610647565b909150600186016000526020600020601f840160051c8101602085106106ea575b90849392915b601f830160051c820181106106db57505061050b565b600081558594506001016106c5565b50806106bf565b634e487b7160e01b600052604160045260246000fd5b0151905088806104c8565b6000878152602081209350601f198516905b8181106107605750908460019594939210610747575b505050811b0183556104dd565b015160001960f88460031b161c1916905588808061073a565b92936020600181928786015181550195019301610724565b909150856000526020600020601f840160051c8101602085106107c1575b90849392915b601f830160051c820181106107b25750506104b1565b6000815585945060010161079c565b5080610796565b9093506020813d6020116107f4575b816107e4602093836115c2565b810103126100b75751928461042f565b3d91506107d7565b9093506020813d60201161082a575b81610818602093836115c2565b810103126100b757519261041c6103c0565b3d915061080b565b919360019193955060206108518192607f1986820301875289516119a2565b97019301930190928894929593610366565b346100b75760003660031901126100b757602060405173037bb9c718f3f7fe5ecbdb0b600d607b527067768152f35b346100b7576108a036611763565b506108c073037bb9c718f3f7fe5ecbdb0b600d607b527067763314611ab3565b6005811015610610576002811480610981575b1561094957506108e4602091611b02565b5101516020818051810103126100b7576020807f034d74a9bbf999d62d688ddc4cff473536c0a792a81e4a8d158b16aa215af98592015183600052600082526005604060002082600282015501600160ff1982541617905580600255604051908152a2005b7f12741fa7fac2b8ed98f6279878746bb34936177209fa16187fcbe2e6e2ce5668915061097c9060405191829182611aef565b0390a2005b50815115156108d3565b346100b75760003660031901126100b7576040516000600182600154926109b1846119d4565b9283835260209485600182169182600014610a525750506001146109f5575b506109dd925003836115c2565b6109f16040519282849384528301906119a2565b0390f35b84915060016000527fb10e2d527612073b26eecdfd717e6a320cf44b4afac2b0732d9fcbe2b7fa0cf6906000915b858310610a3a5750506109dd9350820101856109d0565b80548389018501528794508693909201918101610a23565b60ff1916858201526109dd95151560051b85010192508791506109d09050565b346100b75760003660031901126100b757604051630ffeb17d60e11b815260208160048173037bb9c718f3f7fe5ecbdb0b600d607b527067765afa80156105fb57600090610ac6575b602090604051908152f35b506020813d602011610af1575b81610ae0602093836115c2565b810103126100b75760209051610abb565b3d9150610ad3565b346100b7576020806003193601126100b757600060a0604051610b1b81611571565b60608152606084820152826040820152826060820152826080820152015260043560005260008152604060002060405190610b5582611571565b610b5e81611a0e565b8252610b6c60018201611a0e565b928083019384526002820154916040840192835260ff6003820154169460608501600287101561061057610bee610c009260c0988352610bdb60ff600560048801549760808c019889520154169660a08a0197151588526040519a8b9a828c5251918b015260e08a01906119a2565b9051888203601f190160408a01526119a2565b945160608701525160808601906119c7565b5160a084015251151560c08301520390f35b610c1b36611936565b90604051917f52617465207468652073656e74696d656e74206f6e2061207363616c65206f66602084015267010189698981817160c51b60408401527f31203d2065787472656d656c79206e656761746976652c203530203d206e657560488401527f7472616c2c20313030203d2065787472656d656c7920706f7369746976652e206068840152662a32bc3a1d101160c91b60888401528082608f850137610cdb609084838101601160f91b608f8201520360708101865201846115c2565b610d796060610d056040519563c6833c3d60e01b602088015260a0602488015260c48701906119a2565b713ab9371037b7363c903090373ab6b132b91760711b604087830392602319840160448a0152603281527f596f752061726520612073656e74696d656e7420616e616c7973742e20526574602082015201526001606487015260646084870152600060a487015260408101865201846115c2565b60405191630ffeb17d60e11b835273037bb9c718f3f7fe5ecbdb0b600d607b5270677693602084600481885afa9384156105fb57600094611166575b50610e118495602092610dca87341015611b45565b6040516345de5df160e11b815267b24ac1afbcefc7086004820152306024820152637552b81360e01b604482015260806064820152978893849283919060848301906119a2565b03925af19384156105fb57600094611132575b5060405191610e3283611571565b610e3d368284611629565b8352604051610e4b8161158c565b6000815260208401526000604084015260016060840152426080840152600060a084015284600052600060205260406000209183518051906001600160401b0382116106f1578190610e9d86546119d4565b601f81116110e2575b50602090601f831160011461107c57600092611071575b50508160011b916000199060031b1c19161783555b60208401518051906001600160401b0382116106f1578190610ef760018701546119d4565b601f811161101e575b50602090601f8311600114610fb157600092610fa6575b50508160011b916000199060031b1c19161760018401555b604084015160028401556003830193606081015193600285101561061057600560a06105b1938a987f7fd82c485a7f5c847af195bb9dd92827c22a50caec68e7922be49c3ae5c7db979860ff80198354169116179055608081015160048501550151151591019060ff801983541691151516179055565b015190508880610f17565b600187016000908152602081209350601f198516905b8181106110065750908460019594939210610fed575b505050811b016001840155610f2f565b015160001960f88460031b161c19169055888080610fdd565b92936020600181928786015181550195019301610fc7565b909150600186016000526020600020601f840160051c81016020851061106a575b90849392915b601f830160051c8201811061105b575050610f00565b60008155859450600101611045565b508061103f565b015190508880610ebd565b6000878152602081209350601f198516905b8181106110ca57509084600195949392106110b1575b505050811b018355610ed2565b015160001960f88460031b161c191690558880806110a4565b9293602060018192878601518155019501930161108e565b909150856000526020600020601f840160051c81016020851061112b575b90849392915b601f830160051c8201811061111c575050610ea6565b60008155859450600101611106565b5080611100565b9093506020813d60201161115e575b8161114e602093836115c2565b810103126100b757519284610e24565b3d9150611141565b9093506020813d602011611194575b81611182602093836115c2565b810103126100b7575192610e11610db5565b3d9150611175565b346100b75760003660031901126100b757602060405167b24ac1afbcefc7088152f35b346100b7576111cd36611763565b5091906111ef73037bb9c718f3f7fe5ecbdb0b600d607b527067763314611ab3565b60059081841015610610576002841480611567575b156115335761121893506020938491611b02565b51015192835184019181858185019403126100b757818501516001600160401b03958682116100b7570183603f820112156100b7578281015161125a8161160e565b9461126860405196876115c2565b818652604082840101116100b757611286916040858701910161197f565b836000526000825260019081604060002001908451918783116106f1576112ad81546119d4565b92601f938481116114ef575b50808685821160011461148d57600091611482575b50600019600383901b1c191690851b1790555b8560005260008452806040600020018360ff1982541617905584519687116106f15761130d83546119d4565b90828211611421575b5050829086116001146113825794807f70c9a38efb3947ac3e3105616f69840852d6a77722f2857a504d32b45731e14b9596600091611377575b50600019600383901b1c191690821b1790555b61097c6040519282849384528301906119a2565b905084015187611350565b601f19861690826000527fb10e2d527612073b26eecdfd717e6a320cf44b4afac2b0732d9fcbe2b7fa0cf69160005b81811061140c57509187917f70c9a38efb3947ac3e3105616f69840852d6a77722f2857a504d32b45731e14b97988594106113f3575b5050811b019055611363565b86015160001960f88460031b161c1916905587806113e7565b868301518455928401929185019185016113b1565b836000527fb10e2d527612073b26eecdfd717e6a320cf44b4afac2b0732d9fcbe2b7fa0cf69083808a01821c830193878b10611479575b01901c019083905b82811061146d5750611316565b60008155018390611460565b93508293611458565b90508701518a6112ce565b869250601f1982169084600052886000209160005b8a8c8383106114da5750505083116114c1575b5050811b0190556112e1565b89015160001960f88460031b161c191690558a806114b5565b84015185558a969094019392830192016114a2565b826000528660002085808401861c82019289851061152a575b01851c019086905b82811061151e5750506112b9565b60008155018690611510565b92508192611508565b50509061097c7f12741fa7fac2b8ed98f6279878746bb34936177209fa16187fcbe2e6e2ce56689160405191829182611aef565b5080511515611204565b60c081019081106001600160401b038211176106f157604052565b602081019081106001600160401b038211176106f157604052565b604081019081106001600160401b038211176106f157604052565b90601f801991011681019081106001600160401b038211176106f157604052565b6001600160401b0381116106f15760051b60200190565b35906001600160a01b03821682036100b757565b6001600160401b0381116106f157601f01601f191660200190565b9291926116358261160e565b9161164360405193846115c2565b8294818452818301116100b7578281602093846000960137010152565b81601f820112156100b75780359160209161167a846115e3565b9360409161168b60405196876115c2565b818652848601918560059160051b830101948086116100b757868301935b8685106116bb57505050505050505090565b6001600160401b0385358181116100b75785019160c09182601f1985870301126100b7578851906116eb82611571565b6116f68c86016115fa565b8252898501359081116100b757840185603f820112156100b75785818b8e6117219401359101611629565b8b82015260608085013593878510156100b7578c9586958c850152608092838201359085015260a09283820135908501520135908201528152019401936116a9565b60031991906080838201126100b75760048035936001600160401b0393916024358581116100b75784611797918301611660565b9460443560058110156100b75794606435928284116100b7576101c0809585840301126100b75760405194850185811084821117611921576040528381013585526117e4602485016115fa565b60209060208701526117f8604486016115fa565b604087015260648501356001600160e01b0319811681036100b757606087015260848501358481116100b757850190836023830112156100b7578282013591611840836115e3565b9261184e60405194856115c2565b8084526024602085019160051b830101918683116100b757602401905b82821061190a5750505050608086015260a48401359283116100b75761189392840101611660565b60a083015260c481013560c083015260e481013560e083015261010481013561010083015261012481013561012083015261014481013561014083015261016481013560058110156100b7576101608301526101848101359060028210156100b7576101a49161018084015201356101a082015290565b838091611916846115fa565b81520191019061186b565b604182634e487b7160e01b6000525260246000fd5b9060206003198301126100b7576004356001600160401b03928382116100b757806023830112156100b75781600401359384116100b757602484830101116100b7576024019190565b60005b8381106119925750506000910152565b8181015183820152602001611982565b906020916119bb8151809281855285808601910161197f565b601f01601f1916010190565b9060028210156106105752565b90600182811c92168015611a04575b60208310146119ee57565b634e487b7160e01b600052602260045260246000fd5b91607f16916119e3565b90604051918260008254611a21816119d4565b90818452602094600191600181169081600014611a915750600114611a52575b505050611a50925003836115c2565b565b600090815285812095935091905b818310611a79575050611a509350820101388080611a41565b85548884018501529485019487945091830191611a60565b92505050611a5094925060ff191682840152151560051b820101388080611a41565b15611aba57565b60405162461bcd60e51b815260206004820152600d60248201526c4f6e6c7920706c6174666f726d60981b6044820152606490fd5b9190602083019260058210156106105752565b805115611b0f5760200190565b634e487b7160e01b600052603260045260246000fd5b805160011015611b0f5760400190565b805160021015611b0f5760600190565b15611b4c57565b60405162461bcd60e51b8152602060048201526014602482015273125b9cdd59999a58da595b9d0819195c1bdcda5d60621b6044820152606490fd5b90918060409360208452816020850152848401376000828201840152601f01601f1916010190565b91908203918211611bbd57565b634e487b7160e01b600052601160045260246000fdfea264697066735822122022b5375b1d5f42fb7c7cafb35eff7978625a74832f1f46ae7468cb373c08737e64736f6c63430008180033","opcodes":"PUSH1 0x80 DUP1 PUSH1 0x40 MSTORE CALLVALUE PUSH2 0x16 JUMPI PUSH2 0x1C09 SWAP1 DUP2 PUSH2 0x1C DUP3 CODECOPY RETURN JUMPDEST PUSH1 0x0 DUP1 REVERT INVALID PUSH1 0x80 PUSH1 0x40 MSTORE PUSH1 0x4 CALLDATASIZE LT ISZERO PUSH2 0x1B JUMPI JUMPDEST CALLDATASIZE ISZERO PUSH2 0x19 JUMPI PUSH1 0x0 DUP1 REVERT JUMPDEST STOP JUMPDEST PUSH1 0x0 CALLDATALOAD PUSH1 0xE0 SHR DUP1 PUSH4 0x1A1ACE28 EQ PUSH2 0x11BF JUMPI DUP1 PUSH4 0x2E90C1A9 EQ PUSH2 0x119C JUMPI DUP1 PUSH4 0x3ED77225 EQ PUSH2 0xC12 JUMPI DUP1 PUSH4 0x5170B934 EQ PUSH2 0xAF9 JUMPI DUP1 PUSH4 0x58E56DB4 EQ PUSH2 0xA72 JUMPI DUP1 PUSH4 0x6C9AC38A EQ PUSH2 0x98B JUMPI DUP1 PUSH4 0x7552B813 EQ PUSH2 0x892 JUMPI DUP1 PUSH4 0x7EFC77FA EQ PUSH2 0x863 JUMPI DUP1 PUSH4 0x9BD8CF2E EQ PUSH2 0x15A JUMPI DUP1 PUSH4 0xAF56CC72 EQ PUSH2 0xBC JUMPI PUSH4 0xC6C1CD4D SUB PUSH2 0xE JUMPI CALLVALUE PUSH2 0xB7 JUMPI PUSH1 0x0 CALLDATASIZE PUSH1 0x3 NOT ADD SLT PUSH2 0xB7 JUMPI PUSH1 0x20 PUSH1 0x2 SLOAD PUSH1 0x40 MLOAD SWAP1 DUP2 MSTORE RETURN JUMPDEST PUSH1 0x0 DUP1 REVERT JUMPDEST CALLVALUE PUSH2 0xB7 JUMPI PUSH1 0x20 CALLDATASIZE PUSH1 0x3 NOT ADD SLT PUSH2 0xB7 JUMPI PUSH1 0x4 CALLDATALOAD PUSH1 0x0 MSTORE PUSH1 0x0 PUSH1 0x20 MSTORE PUSH2 0x12C PUSH1 0x40 PUSH1 0x0 KECCAK256 PUSH2 0xE9 DUP2 PUSH2 0x1A0E JUMP JUMPDEST SWAP1 PUSH2 0xF6 PUSH1 0x1 DUP3 ADD PUSH2 0x1A0E JUMP JUMPDEST PUSH1 0x2 DUP3 ADD SLOAD SWAP2 PUSH2 0x14A PUSH1 0xFF PUSH1 0x3 DUP4 ADD SLOAD AND PUSH2 0x13A PUSH1 0xFF PUSH1 0x5 PUSH1 0x4 DUP7 ADD SLOAD SWAP6 ADD SLOAD AND SWAP5 PUSH1 0x40 MLOAD SWAP9 DUP10 SWAP9 PUSH1 0xC0 DUP11 MSTORE PUSH1 0xC0 DUP11 ADD SWAP1 PUSH2 0x19A2 JUMP JUMPDEST SWAP1 DUP9 DUP3 SUB PUSH1 0x20 DUP11 ADD MSTORE PUSH2 0x19A2 JUMP JUMPDEST SWAP5 PUSH1 0x40 DUP8 ADD MSTORE PUSH1 0x60 DUP7 ADD SWAP1 PUSH2 0x19C7 JUMP JUMPDEST PUSH1 0x80 DUP5 ADD MSTORE ISZERO ISZERO PUSH1 0xA0 DUP4 ADD MSTORE SUB SWAP1 RETURN JUMPDEST PUSH2 0x163 CALLDATASIZE PUSH2 0x1936 JUMP JUMPDEST SWAP1 PUSH1 0x40 MLOAD SWAP2 PUSH32 0x416E616C797A65207468652073656E74696D656E74206F662074686520666F6C PUSH1 0x20 DUP5 ADD MSTORE PUSH13 0x3637BBB4B733903A32BC3A171 PUSH1 0x9D SHL PUSH1 0x40 DUP5 ADD MSTORE PUSH7 0x2A32BC3A1D1011 PUSH1 0xC9 SHL PUSH1 0x4D DUP5 ADD MSTORE DUP1 DUP3 PUSH1 0x54 DUP6 ADD CALLDATACOPY PUSH2 0x1DC PUSH1 0x55 DUP5 DUP4 DUP2 ADD PUSH1 0x11 PUSH1 0xF9 SHL PUSH1 0x54 DUP3 ADD MSTORE SUB PUSH1 0x35 DUP2 ADD DUP7 MSTORE ADD DUP5 PUSH2 0x15C2 JUMP JUMPDEST PUSH1 0x40 MLOAD SWAP3 PUSH1 0x80 DUP5 ADD DUP5 DUP2 LT PUSH1 0x1 PUSH1 0x1 PUSH1 0x40 SHL SUB DUP3 GT OR PUSH2 0x6F1 JUMPI PUSH1 0x40 MSTORE PUSH1 0x3 DUP5 MSTORE PUSH1 0x0 JUMPDEST PUSH1 0x60 DUP1 DUP3 LT ISZERO PUSH2 0x21A JUMPI SWAP1 PUSH1 0x20 SWAP2 DUP3 DUP3 DUP9 ADD ADD MSTORE ADD PUSH2 0x200 JUMP JUMPDEST POP POP SWAP3 PUSH2 0x2E1 SWAP4 PUSH1 0x40 MLOAD PUSH2 0x22D DUP2 PUSH2 0x15A7 JUMP JUMPDEST PUSH1 0x7 DUP2 MSTORE PUSH7 0xC4EAD8D8D2E6D PUSH1 0xCB SHL PUSH1 0x20 DUP3 ADD MSTORE PUSH2 0x24A DUP4 PUSH2 0x1B02 JUMP JUMPDEST MSTORE PUSH2 0x254 DUP3 PUSH2 0x1B02 JUMP JUMPDEST POP PUSH1 0x40 MLOAD PUSH2 0x261 DUP2 PUSH2 0x15A7 JUMP JUMPDEST PUSH1 0x7 DUP2 MSTORE PUSH7 0xC4CAC2E4D2E6D PUSH1 0xCB SHL PUSH1 0x20 DUP3 ADD MSTORE PUSH2 0x27E DUP4 PUSH2 0x1B25 JUMP JUMPDEST MSTORE PUSH2 0x288 DUP3 PUSH2 0x1B25 JUMP JUMPDEST POP PUSH1 0x40 MLOAD PUSH2 0x295 DUP2 PUSH2 0x15A7 JUMP JUMPDEST PUSH1 0x7 DUP2 MSTORE PUSH7 0x1B995D5D1C985B PUSH1 0xCA SHL PUSH1 0x20 DUP3 ADD MSTORE PUSH2 0x2B2 DUP4 PUSH2 0x1B35 JUMP JUMPDEST MSTORE PUSH2 0x2BC DUP3 PUSH2 0x1B35 JUMP JUMPDEST POP PUSH1 0x40 MLOAD PUSH4 0x1FCF9413 PUSH1 0xE3 SHL PUSH1 0x20 DUP3 ADD MSTORE PUSH1 0x80 PUSH1 0x24 DUP3 ADD MSTORE SWAP5 DUP6 SWAP2 PUSH1 0xA4 DUP4 ADD SWAP1 PUSH2 0x19A2 JUMP JUMPDEST SWAP2 DUP2 DUP4 SUB PUSH1 0x23 NOT DUP2 ADD PUSH1 0x44 DUP5 ADD MSTORE PUSH1 0x34 DUP5 MSTORE PUSH32 0x596F752061726520612073656E74696D656E7420616E616C7973742E20436C61 PUSH1 0x20 DUP6 ADD MSTORE PUSH20 0x39B9B4B33C903A34329039B2B73A34B6B2B73A17 PUSH1 0x61 SHL PUSH1 0x40 DUP6 ADD MSTORE PUSH1 0x3C PUSH1 0x60 DUP6 ADD SWAP2 PUSH1 0x0 PUSH1 0x64 DUP7 ADD MSTORE ADD PUSH1 0x84 DUP5 ADD MSTORE DUP2 MLOAD DUP1 SWAP2 MSTORE PUSH1 0x80 DUP5 ADD SWAP4 PUSH1 0x20 PUSH1 0x80 DUP4 PUSH1 0x5 SHL DUP4 ADD ADD SWAP4 ADD SWAP5 PUSH1 0x0 SWAP2 JUMPDEST DUP4 DUP4 LT PUSH2 0x832 JUMPI POP POP POP POP PUSH2 0x384 SWAP3 POP SUB PUSH1 0x1F NOT DUP2 ADD DUP6 MSTORE DUP5 PUSH2 0x15C2 JUMP JUMPDEST PUSH1 0x40 MLOAD SWAP2 PUSH4 0xFFEB17D PUSH1 0xE1 SHL DUP4 MSTORE PUSH20 0x37BB9C718F3F7FE5ECBDB0B600D607B52706776 SWAP4 PUSH1 0x20 DUP5 PUSH1 0x4 DUP2 DUP9 GAS STATICCALL SWAP4 DUP5 ISZERO PUSH2 0x5FB JUMPI PUSH1 0x0 SWAP5 PUSH2 0x7FC JUMPI JUMPDEST POP PUSH2 0x41C DUP5 SWAP6 PUSH1 0x20 SWAP3 PUSH2 0x3D5 DUP8 CALLVALUE LT ISZERO PUSH2 0x1B45 JUMP JUMPDEST PUSH1 0x40 MLOAD PUSH4 0x45DE5DF1 PUSH1 0xE1 SHL DUP2 MSTORE PUSH8 0xB24AC1AFBCEFC708 PUSH1 0x4 DUP3 ADD MSTORE ADDRESS PUSH1 0x24 DUP3 ADD MSTORE PUSH4 0x34359C5 PUSH1 0xE3 SHL PUSH1 0x44 DUP3 ADD MSTORE PUSH1 0x80 PUSH1 0x64 DUP3 ADD MSTORE SWAP8 DUP9 SWAP4 DUP5 SWAP3 DUP4 SWAP2 SWAP1 PUSH1 0x84 DUP4 ADD SWAP1 PUSH2 0x19A2 JUMP JUMPDEST SUB SWAP3 GAS CALL SWAP4 DUP5 ISZERO PUSH2 0x5FB JUMPI PUSH1 0x0 SWAP5 PUSH2 0x7C8 JUMPI JUMPDEST POP PUSH1 0x40 MLOAD SWAP2 PUSH2 0x43D DUP4 PUSH2 0x1571 JUMP JUMPDEST PUSH2 0x448 CALLDATASIZE DUP3 DUP5 PUSH2 0x1629 JUMP JUMPDEST DUP4 MSTORE PUSH1 0x40 MLOAD PUSH2 0x456 DUP2 PUSH2 0x158C JUMP JUMPDEST PUSH1 0x0 DUP2 MSTORE PUSH1 0x20 DUP5 ADD MSTORE PUSH1 0x0 PUSH1 0x40 DUP5 ADD MSTORE PUSH1 0x0 PUSH1 0x60 DUP5 ADD MSTORE TIMESTAMP PUSH1 0x80 DUP5 ADD MSTORE PUSH1 0x0 PUSH1 0xA0 DUP5 ADD MSTORE DUP5 PUSH1 0x0 MSTORE PUSH1 0x0 PUSH1 0x20 MSTORE PUSH1 0x40 PUSH1 0x0 KECCAK256 SWAP2 DUP4 MLOAD DUP1 MLOAD SWAP1 PUSH1 0x1 PUSH1 0x1 PUSH1 0x40 SHL SUB DUP3 GT PUSH2 0x6F1 JUMPI DUP2 SWAP1 PUSH2 0x4A8 DUP7 SLOAD PUSH2 0x19D4 JUMP JUMPDEST PUSH1 0x1F DUP2 GT PUSH2 0x778 JUMPI JUMPDEST POP PUSH1 0x20 SWAP1 PUSH1 0x1F DUP4 GT PUSH1 0x1 EQ PUSH2 0x712 JUMPI PUSH1 0x0 SWAP3 PUSH2 0x707 JUMPI JUMPDEST POP POP DUP2 PUSH1 0x1 SHL SWAP2 PUSH1 0x0 NOT SWAP1 PUSH1 0x3 SHL SHR NOT AND OR DUP4 SSTORE JUMPDEST PUSH1 0x20 DUP5 ADD MLOAD DUP1 MLOAD SWAP1 PUSH1 0x1 PUSH1 0x1 PUSH1 0x40 SHL SUB DUP3 GT PUSH2 0x6F1 JUMPI DUP2 SWAP1 PUSH2 0x502 PUSH1 0x1 DUP8 ADD SLOAD PUSH2 0x19D4 JUMP JUMPDEST PUSH1 0x1F DUP2 GT PUSH2 0x69E JUMPI JUMPDEST POP PUSH1 0x20 SWAP1 PUSH1 0x1F DUP4 GT PUSH1 0x1 EQ PUSH2 0x631 JUMPI PUSH1 0x0 SWAP3 PUSH2 0x626 JUMPI JUMPDEST POP POP DUP2 PUSH1 0x1 SHL SWAP2 PUSH1 0x0 NOT SWAP1 PUSH1 0x3 SHL SHR NOT AND OR PUSH1 0x1 DUP5 ADD SSTORE JUMPDEST PUSH1 0x40 DUP5 ADD MLOAD PUSH1 0x2 DUP5 ADD SSTORE PUSH1 0x3 DUP4 ADD SWAP4 PUSH1 0x60 DUP2 ADD MLOAD SWAP4 PUSH1 0x2 DUP6 LT ISZERO PUSH2 0x610 JUMPI PUSH1 0x5 PUSH1 0xA0 PUSH2 0x5B1 SWAP4 DUP11 SWAP9 PUSH32 0x9D673CCD61E1E56C20887D3B8F72E6CE7E7B8A3DF48AF4DEC704D46830A738C3 SWAP9 PUSH1 0xFF DUP1 NOT DUP4 SLOAD AND SWAP2 AND OR SWAP1 SSTORE PUSH1 0x80 DUP2 ADD MLOAD PUSH1 0x4 DUP6 ADD SSTORE ADD MLOAD ISZERO ISZERO SWAP2 ADD SWAP1 PUSH1 0xFF DUP1 NOT DUP4 SLOAD AND SWAP2 ISZERO ISZERO AND OR SWAP1 SSTORE JUMP JUMPDEST PUSH2 0x5C0 PUSH1 0x40 MLOAD SWAP3 DUP4 SWAP3 DUP4 PUSH2 0x1B88 JUMP JUMPDEST SUB SWAP1 LOG2 DUP1 CALLVALUE GT PUSH2 0x5D6 JUMPI JUMPDEST PUSH1 0x20 DUP3 PUSH1 0x40 MLOAD SWAP1 DUP2 MSTORE RETURN JUMPDEST PUSH1 0x0 DUP1 DUP1 PUSH2 0x5E5 DUP2 SWAP5 CALLVALUE PUSH2 0x1BB0 JUMP JUMPDEST DUP2 DUP2 ISZERO PUSH2 0x607 JUMPI JUMPDEST CALLER SWAP1 CALL ISZERO PUSH2 0x5FB JUMPI DUP2 PUSH2 0x5CB JUMP JUMPDEST PUSH1 0x40 MLOAD RETURNDATASIZE PUSH1 0x0 DUP3 RETURNDATACOPY RETURNDATASIZE SWAP1 REVERT JUMPDEST POP PUSH2 0x8FC PUSH2 0x5ED JUMP JUMPDEST PUSH4 0x4E487B71 PUSH1 0xE0 SHL PUSH1 0x0 MSTORE PUSH1 0x21 PUSH1 0x4 MSTORE PUSH1 0x24 PUSH1 0x0 REVERT JUMPDEST ADD MLOAD SWAP1 POP DUP9 DUP1 PUSH2 0x522 JUMP JUMPDEST PUSH1 0x1 DUP8 ADD PUSH1 0x0 SWAP1 DUP2 MSTORE PUSH1 0x20 DUP2 KECCAK256 SWAP4 POP PUSH1 0x1F NOT DUP6 AND SWAP1 JUMPDEST DUP2 DUP2 LT PUSH2 0x686 JUMPI POP SWAP1 DUP5 PUSH1 0x1 SWAP6 SWAP5 SWAP4 SWAP3 LT PUSH2 0x66D JUMPI JUMPDEST POP POP POP DUP2 SHL ADD PUSH1 0x1 DUP5 ADD SSTORE PUSH2 0x53A JUMP JUMPDEST ADD MLOAD PUSH1 0x0 NOT PUSH1 0xF8 DUP5 PUSH1 0x3 SHL AND SHR NOT AND SWAP1 SSTORE DUP9 DUP1 DUP1 PUSH2 0x65D JUMP JUMPDEST SWAP3 SWAP4 PUSH1 0x20 PUSH1 0x1 DUP2 SWAP3 DUP8 DUP7 ADD MLOAD DUP2 SSTORE ADD SWAP6 ADD SWAP4 ADD PUSH2 0x647 JUMP JUMPDEST SWAP1 SWAP2 POP PUSH1 0x1 DUP7 ADD PUSH1 0x0 MSTORE PUSH1 0x20 PUSH1 0x0 KECCAK256 PUSH1 0x1F DUP5 ADD PUSH1 0x5 SHR DUP2 ADD PUSH1 0x20 DUP6 LT PUSH2 0x6EA JUMPI JUMPDEST SWAP1 DUP5 SWAP4 SWAP3 SWAP2 JUMPDEST PUSH1 0x1F DUP4 ADD PUSH1 0x5 SHR DUP3 ADD DUP2 LT PUSH2 0x6DB JUMPI POP POP PUSH2 0x50B JUMP JUMPDEST PUSH1 0x0 DUP2 SSTORE DUP6 SWAP5 POP PUSH1 0x1 ADD PUSH2 0x6C5 JUMP JUMPDEST POP DUP1 PUSH2 0x6BF JUMP JUMPDEST PUSH4 0x4E487B71 PUSH1 0xE0 SHL PUSH1 0x0 MSTORE PUSH1 0x41 PUSH1 0x4 MSTORE PUSH1 0x24 PUSH1 0x0 REVERT JUMPDEST ADD MLOAD SWAP1 POP DUP9 DUP1 PUSH2 0x4C8 JUMP JUMPDEST PUSH1 0x0 DUP8 DUP2 MSTORE PUSH1 0x20 DUP2 KECCAK256 SWAP4 POP PUSH1 0x1F NOT DUP6 AND SWAP1 JUMPDEST DUP2 DUP2 LT PUSH2 0x760 JUMPI POP SWAP1 DUP5 PUSH1 0x1 SWAP6 SWAP5 SWAP4 SWAP3 LT PUSH2 0x747 JUMPI JUMPDEST POP POP POP DUP2 SHL ADD DUP4 SSTORE PUSH2 0x4DD JUMP JUMPDEST ADD MLOAD PUSH1 0x0 NOT PUSH1 0xF8 DUP5 PUSH1 0x3 SHL AND SHR NOT AND SWAP1 SSTORE DUP9 DUP1 DUP1 PUSH2 0x73A JUMP JUMPDEST SWAP3 SWAP4 PUSH1 0x20 PUSH1 0x1 DUP2 SWAP3 DUP8 DUP7 ADD MLOAD DUP2 SSTORE ADD SWAP6 ADD SWAP4 ADD PUSH2 0x724 JUMP JUMPDEST SWAP1 SWAP2 POP DUP6 PUSH1 0x0 MSTORE PUSH1 0x20 PUSH1 0x0 KECCAK256 PUSH1 0x1F DUP5 ADD PUSH1 0x5 SHR DUP2 ADD PUSH1 0x20 DUP6 LT PUSH2 0x7C1 JUMPI JUMPDEST SWAP1 DUP5 SWAP4 SWAP3 SWAP2 JUMPDEST PUSH1 0x1F DUP4 ADD PUSH1 0x5 SHR DUP3 ADD DUP2 LT PUSH2 0x7B2 JUMPI POP POP PUSH2 0x4B1 JUMP JUMPDEST PUSH1 0x0 DUP2 SSTORE DUP6 SWAP5 POP PUSH1 0x1 ADD PUSH2 0x79C JUMP JUMPDEST POP DUP1 PUSH2 0x796 JUMP JUMPDEST SWAP1 SWAP4 POP PUSH1 0x20 DUP2 RETURNDATASIZE PUSH1 0x20 GT PUSH2 0x7F4 JUMPI JUMPDEST DUP2 PUSH2 0x7E4 PUSH1 0x20 SWAP4 DUP4 PUSH2 0x15C2 JUMP JUMPDEST DUP2 ADD SUB SLT PUSH2 0xB7 JUMPI MLOAD SWAP3 DUP5 PUSH2 0x42F JUMP JUMPDEST RETURNDATASIZE SWAP2 POP PUSH2 0x7D7 JUMP JUMPDEST SWAP1 SWAP4 POP PUSH1 0x20 DUP2 RETURNDATASIZE PUSH1 0x20 GT PUSH2 0x82A JUMPI JUMPDEST DUP2 PUSH2 0x818 PUSH1 0x20 SWAP4 DUP4 PUSH2 0x15C2 JUMP JUMPDEST DUP2 ADD SUB SLT PUSH2 0xB7 JUMPI MLOAD SWAP3 PUSH2 0x41C PUSH2 0x3C0 JUMP JUMPDEST RETURNDATASIZE SWAP2 POP PUSH2 0x80B JUMP JUMPDEST SWAP2 SWAP4 PUSH1 0x1 SWAP2 SWAP4 SWAP6 POP PUSH1 0x20 PUSH2 0x851 DUP2 SWAP3 PUSH1 0x7F NOT DUP7 DUP3 SUB ADD DUP8 MSTORE DUP10 MLOAD PUSH2 0x19A2 JUMP JUMPDEST SWAP8 ADD SWAP4 ADD SWAP4 ADD SWAP1 SWAP3 DUP9 SWAP5 SWAP3 SWAP6 SWAP4 PUSH2 0x366 JUMP JUMPDEST CALLVALUE PUSH2 0xB7 JUMPI PUSH1 0x0 CALLDATASIZE PUSH1 0x3 NOT ADD SLT PUSH2 0xB7 JUMPI PUSH1 0x20 PUSH1 0x40 MLOAD PUSH20 0x37BB9C718F3F7FE5ECBDB0B600D607B52706776 DUP2 MSTORE RETURN JUMPDEST CALLVALUE PUSH2 0xB7 JUMPI PUSH2 0x8A0 CALLDATASIZE PUSH2 0x1763 JUMP JUMPDEST POP PUSH2 0x8C0 PUSH20 0x37BB9C718F3F7FE5ECBDB0B600D607B52706776 CALLER EQ PUSH2 0x1AB3 JUMP JUMPDEST PUSH1 0x5 DUP2 LT ISZERO PUSH2 0x610 JUMPI PUSH1 0x2 DUP2 EQ DUP1 PUSH2 0x981 JUMPI JUMPDEST ISZERO PUSH2 0x949 JUMPI POP PUSH2 0x8E4 PUSH1 0x20 SWAP2 PUSH2 0x1B02 JUMP JUMPDEST MLOAD ADD MLOAD PUSH1 0x20 DUP2 DUP1 MLOAD DUP2 ADD SUB SLT PUSH2 0xB7 JUMPI PUSH1 0x20 DUP1 PUSH32 0x34D74A9BBF999D62D688DDC4CFF473536C0A792A81E4A8D158B16AA215AF985 SWAP3 ADD MLOAD DUP4 PUSH1 0x0 MSTORE PUSH1 0x0 DUP3 MSTORE PUSH1 0x5 PUSH1 0x40 PUSH1 0x0 KECCAK256 DUP3 PUSH1 0x2 DUP3 ADD SSTORE ADD PUSH1 0x1 PUSH1 0xFF NOT DUP3 SLOAD AND OR SWAP1 SSTORE DUP1 PUSH1 0x2 SSTORE PUSH1 0x40 MLOAD SWAP1 DUP2 MSTORE LOG2 STOP JUMPDEST PUSH32 0x12741FA7FAC2B8ED98F6279878746BB34936177209FA16187FCBE2E6E2CE5668 SWAP2 POP PUSH2 0x97C SWAP1 PUSH1 0x40 MLOAD SWAP2 DUP3 SWAP2 DUP3 PUSH2 0x1AEF JUMP JUMPDEST SUB SWAP1 LOG2 STOP JUMPDEST POP DUP2 MLOAD ISZERO ISZERO PUSH2 0x8D3 JUMP JUMPDEST CALLVALUE PUSH2 0xB7 JUMPI PUSH1 0x0 CALLDATASIZE PUSH1 0x3 NOT ADD SLT PUSH2 0xB7 JUMPI PUSH1 0x40 MLOAD PUSH1 0x0 PUSH1 0x1 DUP3 PUSH1 0x1 SLOAD SWAP3 PUSH2 0x9B1 DUP5 PUSH2 0x19D4 JUMP JUMPDEST SWAP3 DUP4 DUP4 MSTORE PUSH1 0x20 SWAP5 DUP6 PUSH1 0x1 DUP3 AND SWAP2 DUP3 PUSH1 0x0 EQ PUSH2 0xA52 JUMPI POP POP PUSH1 0x1 EQ PUSH2 0x9F5 JUMPI JUMPDEST POP PUSH2 0x9DD SWAP3 POP SUB DUP4 PUSH2 0x15C2 JUMP JUMPDEST PUSH2 0x9F1 PUSH1 0x40 MLOAD SWAP3 DUP3 DUP5 SWAP4 DUP5 MSTORE DUP4 ADD SWAP1 PUSH2 0x19A2 JUMP JUMPDEST SUB SWAP1 RETURN JUMPDEST DUP5 SWAP2 POP PUSH1 0x1 PUSH1 0x0 MSTORE PUSH32 0xB10E2D527612073B26EECDFD717E6A320CF44B4AFAC2B0732D9FCBE2B7FA0CF6 SWAP1 PUSH1 0x0 SWAP2 JUMPDEST DUP6 DUP4 LT PUSH2 0xA3A JUMPI POP POP PUSH2 0x9DD SWAP4 POP DUP3 ADD ADD DUP6 PUSH2 0x9D0 JUMP JUMPDEST DUP1 SLOAD DUP4 DUP10 ADD DUP6 ADD MSTORE DUP8 SWAP5 POP DUP7 SWAP4 SWAP1 SWAP3 ADD SWAP2 DUP2 ADD PUSH2 0xA23 JUMP JUMPDEST PUSH1 0xFF NOT AND DUP6 DUP3 ADD MSTORE PUSH2 0x9DD SWAP6 ISZERO ISZERO PUSH1 0x5 SHL DUP6 ADD ADD SWAP3 POP DUP8 SWAP2 POP PUSH2 0x9D0 SWAP1 POP JUMP JUMPDEST CALLVALUE PUSH2 0xB7 JUMPI PUSH1 0x0 CALLDATASIZE PUSH1 0x3 NOT ADD SLT PUSH2 0xB7 JUMPI PUSH1 0x40 MLOAD PUSH4 0xFFEB17D PUSH1 0xE1 SHL DUP2 MSTORE PUSH1 0x20 DUP2 PUSH1 0x4 DUP2 PUSH20 0x37BB9C718F3F7FE5ECBDB0B600D607B52706776 GAS STATICCALL DUP1 ISZERO PUSH2 0x5FB JUMPI PUSH1 0x0 SWAP1 PUSH2 0xAC6 JUMPI JUMPDEST PUSH1 0x20 SWAP1 PUSH1 0x40 MLOAD SWAP1 DUP2 MSTORE RETURN JUMPDEST POP PUSH1 0x20 DUP2 RETURNDATASIZE PUSH1 0x20 GT PUSH2 0xAF1 JUMPI JUMPDEST DUP2 PUSH2 0xAE0 PUSH1 0x20 SWAP4 DUP4 PUSH2 0x15C2 JUMP JUMPDEST DUP2 ADD SUB SLT PUSH2 0xB7 JUMPI PUSH1 0x20 SWAP1 MLOAD PUSH2 0xABB JUMP JUMPDEST RETURNDATASIZE SWAP2 POP PUSH2 0xAD3 JUMP JUMPDEST CALLVALUE PUSH2 0xB7 JUMPI PUSH1 0x20 DUP1 PUSH1 0x3 NOT CALLDATASIZE ADD SLT PUSH2 0xB7 JUMPI PUSH1 0x0 PUSH1 0xA0 PUSH1 0x40 MLOAD PUSH2 0xB1B DUP2 PUSH2 0x1571 JUMP JUMPDEST PUSH1 0x60 DUP2 MSTORE PUSH1 0x60 DUP5 DUP3 ADD MSTORE DUP3 PUSH1 0x40 DUP3 ADD MSTORE DUP3 PUSH1 0x60 DUP3 ADD MSTORE DUP3 PUSH1 0x80 DUP3 ADD MSTORE ADD MSTORE PUSH1 0x4 CALLDATALOAD PUSH1 0x0 MSTORE PUSH1 0x0 DUP2 MSTORE PUSH1 0x40 PUSH1 0x0 KECCAK256 PUSH1 0x40 MLOAD SWAP1 PUSH2 0xB55 DUP3 PUSH2 0x1571 JUMP JUMPDEST PUSH2 0xB5E DUP2 PUSH2 0x1A0E JUMP JUMPDEST DUP3 MSTORE PUSH2 0xB6C PUSH1 0x1 DUP3 ADD PUSH2 0x1A0E JUMP JUMPDEST SWAP3 DUP1 DUP4 ADD SWAP4 DUP5 MSTORE PUSH1 0x2 DUP3 ADD SLOAD SWAP2 PUSH1 0x40 DUP5 ADD SWAP3 DUP4 MSTORE PUSH1 0xFF PUSH1 0x3 DUP3 ADD SLOAD AND SWAP5 PUSH1 0x60 DUP6 ADD PUSH1 0x2 DUP8 LT ISZERO PUSH2 0x610 JUMPI PUSH2 0xBEE PUSH2 0xC00 SWAP3 PUSH1 0xC0 SWAP9 DUP4 MSTORE PUSH2 0xBDB PUSH1 0xFF PUSH1 0x5 PUSH1 0x4 DUP9 ADD SLOAD SWAP8 PUSH1 0x80 DUP13 ADD SWAP9 DUP10 MSTORE ADD SLOAD AND SWAP7 PUSH1 0xA0 DUP11 ADD SWAP8 ISZERO ISZERO DUP9 MSTORE PUSH1 0x40 MLOAD SWAP11 DUP12 SWAP11 DUP3 DUP13 MSTORE MLOAD SWAP2 DUP12 ADD MSTORE PUSH1 0xE0 DUP11 ADD SWAP1 PUSH2 0x19A2 JUMP JUMPDEST SWAP1 MLOAD DUP9 DUP3 SUB PUSH1 0x1F NOT ADD PUSH1 0x40 DUP11 ADD MSTORE PUSH2 0x19A2 JUMP JUMPDEST SWAP5 MLOAD PUSH1 0x60 DUP8 ADD MSTORE MLOAD PUSH1 0x80 DUP7 ADD SWAP1 PUSH2 0x19C7 JUMP JUMPDEST MLOAD PUSH1 0xA0 DUP5 ADD MSTORE MLOAD ISZERO ISZERO PUSH1 0xC0 DUP4 ADD MSTORE SUB SWAP1 RETURN JUMPDEST PUSH2 0xC1B CALLDATASIZE PUSH2 0x1936 JUMP JUMPDEST SWAP1 PUSH1 0x40 MLOAD SWAP2 PUSH32 0x52617465207468652073656E74696D656E74206F6E2061207363616C65206F66 PUSH1 0x20 DUP5 ADD MSTORE PUSH8 0x101896989818171 PUSH1 0xC5 SHL PUSH1 0x40 DUP5 ADD MSTORE PUSH32 0x31203D2065787472656D656C79206E656761746976652C203530203D206E6575 PUSH1 0x48 DUP5 ADD MSTORE PUSH32 0x7472616C2C20313030203D2065787472656D656C7920706F7369746976652E20 PUSH1 0x68 DUP5 ADD MSTORE PUSH7 0x2A32BC3A1D1011 PUSH1 0xC9 SHL PUSH1 0x88 DUP5 ADD MSTORE DUP1 DUP3 PUSH1 0x8F DUP6 ADD CALLDATACOPY PUSH2 0xCDB PUSH1 0x90 DUP5 DUP4 DUP2 ADD PUSH1 0x11 PUSH1 0xF9 SHL PUSH1 0x8F DUP3 ADD MSTORE SUB PUSH1 0x70 DUP2 ADD DUP7 MSTORE ADD DUP5 PUSH2 0x15C2 JUMP JUMPDEST PUSH2 0xD79 PUSH1 0x60 PUSH2 0xD05 PUSH1 0x40 MLOAD SWAP6 PUSH4 0xC6833C3D PUSH1 0xE0 SHL PUSH1 0x20 DUP9 ADD MSTORE PUSH1 0xA0 PUSH1 0x24 DUP9 ADD MSTORE PUSH1 0xC4 DUP8 ADD SWAP1 PUSH2 0x19A2 JUMP JUMPDEST PUSH18 0x3AB9371037B7363C903090373AB6B132B917 PUSH1 0x71 SHL PUSH1 0x40 DUP8 DUP4 SUB SWAP3 PUSH1 0x23 NOT DUP5 ADD PUSH1 0x44 DUP11 ADD MSTORE PUSH1 0x32 DUP2 MSTORE PUSH32 0x596F752061726520612073656E74696D656E7420616E616C7973742E20526574 PUSH1 0x20 DUP3 ADD MSTORE ADD MSTORE PUSH1 0x1 PUSH1 0x64 DUP8 ADD MSTORE PUSH1 0x64 PUSH1 0x84 DUP8 ADD MSTORE PUSH1 0x0 PUSH1 0xA4 DUP8 ADD MSTORE PUSH1 0x40 DUP2 ADD DUP7 MSTORE ADD DUP5 PUSH2 0x15C2 JUMP JUMPDEST PUSH1 0x40 MLOAD SWAP2 PUSH4 0xFFEB17D PUSH1 0xE1 SHL DUP4 MSTORE PUSH20 0x37BB9C718F3F7FE5ECBDB0B600D607B52706776 SWAP4 PUSH1 0x20 DUP5 PUSH1 0x4 DUP2 DUP9 GAS STATICCALL SWAP4 DUP5 ISZERO PUSH2 0x5FB JUMPI PUSH1 0x0 SWAP5 PUSH2 0x1166 JUMPI JUMPDEST POP PUSH2 0xE11 DUP5 SWAP6 PUSH1 0x20 SWAP3 PUSH2 0xDCA DUP8 CALLVALUE LT ISZERO PUSH2 0x1B45 JUMP JUMPDEST PUSH1 0x40 MLOAD PUSH4 0x45DE5DF1 PUSH1 0xE1 SHL DUP2 MSTORE PUSH8 0xB24AC1AFBCEFC708 PUSH1 0x4 DUP3 ADD MSTORE ADDRESS PUSH1 0x24 DUP3 ADD MSTORE PUSH4 0x7552B813 PUSH1 0xE0 SHL PUSH1 0x44 DUP3 ADD MSTORE PUSH1 0x80 PUSH1 0x64 DUP3 ADD MSTORE SWAP8 DUP9 SWAP4 DUP5 SWAP3 DUP4 SWAP2 SWAP1 PUSH1 0x84 DUP4 ADD SWAP1 PUSH2 0x19A2 JUMP JUMPDEST SUB SWAP3 GAS CALL SWAP4 DUP5 ISZERO PUSH2 0x5FB JUMPI PUSH1 0x0 SWAP5 PUSH2 0x1132 JUMPI JUMPDEST POP PUSH1 0x40 MLOAD SWAP2 PUSH2 0xE32 DUP4 PUSH2 0x1571 JUMP JUMPDEST PUSH2 0xE3D CALLDATASIZE DUP3 DUP5 PUSH2 0x1629 JUMP JUMPDEST DUP4 MSTORE PUSH1 0x40 MLOAD PUSH2 0xE4B DUP2 PUSH2 0x158C JUMP JUMPDEST PUSH1 0x0 DUP2 MSTORE PUSH1 0x20 DUP5 ADD MSTORE PUSH1 0x0 PUSH1 0x40 DUP5 ADD MSTORE PUSH1 0x1 PUSH1 0x60 DUP5 ADD MSTORE TIMESTAMP PUSH1 0x80 DUP5 ADD MSTORE PUSH1 0x0 PUSH1 0xA0 DUP5 ADD MSTORE DUP5 PUSH1 0x0 MSTORE PUSH1 0x0 PUSH1 0x20 MSTORE PUSH1 0x40 PUSH1 0x0 KECCAK256 SWAP2 DUP4 MLOAD DUP1 MLOAD SWAP1 PUSH1 0x1 PUSH1 0x1 PUSH1 0x40 SHL SUB DUP3 GT PUSH2 0x6F1 JUMPI DUP2 SWAP1 PUSH2 0xE9D DUP7 SLOAD PUSH2 0x19D4 JUMP JUMPDEST PUSH1 0x1F DUP2 GT PUSH2 0x10E2 JUMPI JUMPDEST POP PUSH1 0x20 SWAP1 PUSH1 0x1F DUP4 GT PUSH1 0x1 EQ PUSH2 0x107C JUMPI PUSH1 0x0 SWAP3 PUSH2 0x1071 JUMPI JUMPDEST POP POP DUP2 PUSH1 0x1 SHL SWAP2 PUSH1 0x0 NOT SWAP1 PUSH1 0x3 SHL SHR NOT AND OR DUP4 SSTORE JUMPDEST PUSH1 0x20 DUP5 ADD MLOAD DUP1 MLOAD SWAP1 PUSH1 0x1 PUSH1 0x1 PUSH1 0x40 SHL SUB DUP3 GT PUSH2 0x6F1 JUMPI DUP2 SWAP1 PUSH2 0xEF7 PUSH1 0x1 DUP8 ADD SLOAD PUSH2 0x19D4 JUMP JUMPDEST PUSH1 0x1F DUP2 GT PUSH2 0x101E JUMPI JUMPDEST POP PUSH1 0x20 SWAP1 PUSH1 0x1F DUP4 GT PUSH1 0x1 EQ PUSH2 0xFB1 JUMPI PUSH1 0x0 SWAP3 PUSH2 0xFA6 JUMPI JUMPDEST POP POP DUP2 PUSH1 0x1 SHL SWAP2 PUSH1 0x0 NOT SWAP1 PUSH1 0x3 SHL SHR NOT AND OR PUSH1 0x1 DUP5 ADD SSTORE JUMPDEST PUSH1 0x40 DUP5 ADD MLOAD PUSH1 0x2 DUP5 ADD SSTORE PUSH1 0x3 DUP4 ADD SWAP4 PUSH1 0x60 DUP2 ADD MLOAD SWAP4 PUSH1 0x2 DUP6 LT ISZERO PUSH2 0x610 JUMPI PUSH1 0x5 PUSH1 0xA0 PUSH2 0x5B1 SWAP4 DUP11 SWAP9 PUSH32 0x7FD82C485A7F5C847AF195BB9DD92827C22A50CAEC68E7922BE49C3AE5C7DB97 SWAP9 PUSH1 0xFF DUP1 NOT DUP4 SLOAD AND SWAP2 AND OR SWAP1 SSTORE PUSH1 0x80 DUP2 ADD MLOAD PUSH1 0x4 DUP6 ADD SSTORE ADD MLOAD ISZERO ISZERO SWAP2 ADD SWAP1 PUSH1 0xFF DUP1 NOT DUP4 SLOAD AND SWAP2 ISZERO ISZERO AND OR SWAP1 SSTORE JUMP JUMPDEST ADD MLOAD SWAP1 POP DUP9 DUP1 PUSH2 0xF17 JUMP JUMPDEST PUSH1 0x1 DUP8 ADD PUSH1 0x0 SWAP1 DUP2 MSTORE PUSH1 0x20 DUP2 KECCAK256 SWAP4 POP PUSH1 0x1F NOT DUP6 AND SWAP1 JUMPDEST DUP2 DUP2 LT PUSH2 0x1006 JUMPI POP SWAP1 DUP5 PUSH1 0x1 SWAP6 SWAP5 SWAP4 SWAP3 LT PUSH2 0xFED JUMPI JUMPDEST POP POP POP DUP2 SHL ADD PUSH1 0x1 DUP5 ADD SSTORE PUSH2 0xF2F JUMP JUMPDEST ADD MLOAD PUSH1 0x0 NOT PUSH1 0xF8 DUP5 PUSH1 0x3 SHL AND SHR NOT AND SWAP1 SSTORE DUP9 DUP1 DUP1 PUSH2 0xFDD JUMP JUMPDEST SWAP3 SWAP4 PUSH1 0x20 PUSH1 0x1 DUP2 SWAP3 DUP8 DUP7 ADD MLOAD DUP2 SSTORE ADD SWAP6 ADD SWAP4 ADD PUSH2 0xFC7 JUMP JUMPDEST SWAP1 SWAP2 POP PUSH1 0x1 DUP7 ADD PUSH1 0x0 MSTORE PUSH1 0x20 PUSH1 0x0 KECCAK256 PUSH1 0x1F DUP5 ADD PUSH1 0x5 SHR DUP2 ADD PUSH1 0x20 DUP6 LT PUSH2 0x106A JUMPI JUMPDEST SWAP1 DUP5 SWAP4 SWAP3 SWAP2 JUMPDEST PUSH1 0x1F DUP4 ADD PUSH1 0x5 SHR DUP3 ADD DUP2 LT PUSH2 0x105B JUMPI POP POP PUSH2 0xF00 JUMP JUMPDEST PUSH1 0x0 DUP2 SSTORE DUP6 SWAP5 POP PUSH1 0x1 ADD PUSH2 0x1045 JUMP JUMPDEST POP DUP1 PUSH2 0x103F JUMP JUMPDEST ADD MLOAD SWAP1 POP DUP9 DUP1 PUSH2 0xEBD JUMP JUMPDEST PUSH1 0x0 DUP8 DUP2 MSTORE PUSH1 0x20 DUP2 KECCAK256 SWAP4 POP PUSH1 0x1F NOT DUP6 AND SWAP1 JUMPDEST DUP2 DUP2 LT PUSH2 0x10CA JUMPI POP SWAP1 DUP5 PUSH1 0x1 SWAP6 SWAP5 SWAP4 SWAP3 LT PUSH2 0x10B1 JUMPI JUMPDEST POP POP POP DUP2 SHL ADD DUP4 SSTORE PUSH2 0xED2 JUMP JUMPDEST ADD MLOAD PUSH1 0x0 NOT PUSH1 0xF8 DUP5 PUSH1 0x3 SHL AND SHR NOT AND SWAP1 SSTORE DUP9 DUP1 DUP1 PUSH2 0x10A4 JUMP JUMPDEST SWAP3 SWAP4 PUSH1 0x20 PUSH1 0x1 DUP2 SWAP3 DUP8 DUP7 ADD MLOAD DUP2 SSTORE ADD SWAP6 ADD SWAP4 ADD PUSH2 0x108E JUMP JUMPDEST SWAP1 SWAP2 POP DUP6 PUSH1 0x0 MSTORE PUSH1 0x20 PUSH1 0x0 KECCAK256 PUSH1 0x1F DUP5 ADD PUSH1 0x5 SHR DUP2 ADD PUSH1 0x20 DUP6 LT PUSH2 0x112B JUMPI JUMPDEST SWAP1 DUP5 SWAP4 SWAP3 SWAP2 JUMPDEST PUSH1 0x1F DUP4 ADD PUSH1 0x5 SHR DUP3 ADD DUP2 LT PUSH2 0x111C JUMPI POP POP PUSH2 0xEA6 JUMP JUMPDEST PUSH1 0x0 DUP2 SSTORE DUP6 SWAP5 POP PUSH1 0x1 ADD PUSH2 0x1106 JUMP JUMPDEST POP DUP1 PUSH2 0x1100 JUMP JUMPDEST SWAP1 SWAP4 POP PUSH1 0x20 DUP2 RETURNDATASIZE PUSH1 0x20 GT PUSH2 0x115E JUMPI JUMPDEST DUP2 PUSH2 0x114E PUSH1 0x20 SWAP4 DUP4 PUSH2 0x15C2 JUMP JUMPDEST DUP2 ADD SUB SLT PUSH2 0xB7 JUMPI MLOAD SWAP3 DUP5 PUSH2 0xE24 JUMP JUMPDEST RETURNDATASIZE SWAP2 POP PUSH2 0x1141 JUMP JUMPDEST SWAP1 SWAP4 POP PUSH1 0x20 DUP2 RETURNDATASIZE PUSH1 0x20 GT PUSH2 0x1194 JUMPI JUMPDEST DUP2 PUSH2 0x1182 PUSH1 0x20 SWAP4 DUP4 PUSH2 0x15C2 JUMP JUMPDEST DUP2 ADD SUB SLT PUSH2 0xB7 JUMPI MLOAD SWAP3 PUSH2 0xE11 PUSH2 0xDB5 JUMP JUMPDEST RETURNDATASIZE SWAP2 POP PUSH2 0x1175 JUMP JUMPDEST CALLVALUE PUSH2 0xB7 JUMPI PUSH1 0x0 CALLDATASIZE PUSH1 0x3 NOT ADD SLT PUSH2 0xB7 JUMPI PUSH1 0x20 PUSH1 0x40 MLOAD PUSH8 0xB24AC1AFBCEFC708 DUP2 MSTORE RETURN JUMPDEST CALLVALUE PUSH2 0xB7 JUMPI PUSH2 0x11CD CALLDATASIZE PUSH2 0x1763 JUMP JUMPDEST POP SWAP2 SWAP1 PUSH2 0x11EF PUSH20 0x37BB9C718F3F7FE5ECBDB0B600D607B52706776 CALLER EQ PUSH2 0x1AB3 JUMP JUMPDEST PUSH1 0x5 SWAP1 DUP2 DUP5 LT ISZERO PUSH2 0x610 JUMPI PUSH1 0x2 DUP5 EQ DUP1 PUSH2 0x1567 JUMPI JUMPDEST ISZERO PUSH2 0x1533 JUMPI PUSH2 0x1218 SWAP4 POP PUSH1 0x20 SWAP4 DUP5 SWAP2 PUSH2 0x1B02 JUMP JUMPDEST MLOAD ADD MLOAD SWAP3 DUP4 MLOAD DUP5 ADD SWAP2 DUP2 DUP6 DUP2 DUP6 ADD SWAP5 SUB SLT PUSH2 0xB7 JUMPI DUP2 DUP6 ADD MLOAD PUSH1 0x1 PUSH1 0x1 PUSH1 0x40 SHL SUB SWAP6 DUP7 DUP3 GT PUSH2 0xB7 JUMPI ADD DUP4 PUSH1 0x3F DUP3 ADD SLT ISZERO PUSH2 0xB7 JUMPI DUP3 DUP2 ADD MLOAD PUSH2 0x125A DUP2 PUSH2 0x160E JUMP JUMPDEST SWAP5 PUSH2 0x1268 PUSH1 0x40 MLOAD SWAP7 DUP8 PUSH2 0x15C2 JUMP JUMPDEST DUP2 DUP7 MSTORE PUSH1 0x40 DUP3 DUP5 ADD ADD GT PUSH2 0xB7 JUMPI PUSH2 0x1286 SWAP2 PUSH1 0x40 DUP6 DUP8 ADD SWAP2 ADD PUSH2 0x197F JUMP JUMPDEST DUP4 PUSH1 0x0 MSTORE PUSH1 0x0 DUP3 MSTORE PUSH1 0x1 SWAP1 DUP2 PUSH1 0x40 PUSH1 0x0 KECCAK256 ADD SWAP1 DUP5 MLOAD SWAP2 DUP8 DUP4 GT PUSH2 0x6F1 JUMPI PUSH2 0x12AD DUP2 SLOAD PUSH2 0x19D4 JUMP JUMPDEST SWAP3 PUSH1 0x1F SWAP4 DUP5 DUP2 GT PUSH2 0x14EF JUMPI JUMPDEST POP DUP1 DUP7 DUP6 DUP3 GT PUSH1 0x1 EQ PUSH2 0x148D JUMPI PUSH1 0x0 SWAP2 PUSH2 0x1482 JUMPI JUMPDEST POP PUSH1 0x0 NOT PUSH1 0x3 DUP4 SWAP1 SHL SHR NOT AND SWAP1 DUP6 SHL OR SWAP1 SSTORE JUMPDEST DUP6 PUSH1 0x0 MSTORE PUSH1 0x0 DUP5 MSTORE DUP1 PUSH1 0x40 PUSH1 0x0 KECCAK256 ADD DUP4 PUSH1 0xFF NOT DUP3 SLOAD AND OR SWAP1 SSTORE DUP5 MLOAD SWAP7 DUP8 GT PUSH2 0x6F1 JUMPI PUSH2 0x130D DUP4 SLOAD PUSH2 0x19D4 JUMP JUMPDEST SWAP1 DUP3 DUP3 GT PUSH2 0x1421 JUMPI JUMPDEST POP POP DUP3 SWAP1 DUP7 GT PUSH1 0x1 EQ PUSH2 0x1382 JUMPI SWAP5 DUP1 PUSH32 0x70C9A38EFB3947AC3E3105616F69840852D6A77722F2857A504D32B45731E14B SWAP6 SWAP7 PUSH1 0x0 SWAP2 PUSH2 0x1377 JUMPI JUMPDEST POP PUSH1 0x0 NOT PUSH1 0x3 DUP4 SWAP1 SHL SHR NOT AND SWAP1 DUP3 SHL OR SWAP1 SSTORE JUMPDEST PUSH2 0x97C PUSH1 0x40 MLOAD SWAP3 DUP3 DUP5 SWAP4 DUP5 MSTORE DUP4 ADD SWAP1 PUSH2 0x19A2 JUMP JUMPDEST SWAP1 POP DUP5 ADD MLOAD DUP8 PUSH2 0x1350 JUMP JUMPDEST PUSH1 0x1F NOT DUP7 AND SWAP1 DUP3 PUSH1 0x0 MSTORE PUSH32 0xB10E2D527612073B26EECDFD717E6A320CF44B4AFAC2B0732D9FCBE2B7FA0CF6 SWAP2 PUSH1 0x0 JUMPDEST DUP2 DUP2 LT PUSH2 0x140C JUMPI POP SWAP2 DUP8 SWAP2 PUSH32 0x70C9A38EFB3947AC3E3105616F69840852D6A77722F2857A504D32B45731E14B SWAP8 SWAP9 DUP6 SWAP5 LT PUSH2 0x13F3 JUMPI JUMPDEST POP POP DUP2 SHL ADD SWAP1 SSTORE PUSH2 0x1363 JUMP JUMPDEST DUP7 ADD MLOAD PUSH1 0x0 NOT PUSH1 0xF8 DUP5 PUSH1 0x3 SHL AND SHR NOT AND SWAP1 SSTORE DUP8 DUP1 PUSH2 0x13E7 JUMP JUMPDEST DUP7 DUP4 ADD MLOAD DUP5 SSTORE SWAP3 DUP5 ADD SWAP3 SWAP2 DUP6 ADD SWAP2 DUP6 ADD PUSH2 0x13B1 JUMP JUMPDEST DUP4 PUSH1 0x0 MSTORE PUSH32 0xB10E2D527612073B26EECDFD717E6A320CF44B4AFAC2B0732D9FCBE2B7FA0CF6 SWAP1 DUP4 DUP1 DUP11 ADD DUP3 SHR DUP4 ADD SWAP4 DUP8 DUP12 LT PUSH2 0x1479 JUMPI JUMPDEST ADD SWAP1 SHR ADD SWAP1 DUP4 SWAP1 JUMPDEST DUP3 DUP2 LT PUSH2 0x146D JUMPI POP PUSH2 0x1316 JUMP JUMPDEST PUSH1 0x0 DUP2 SSTORE ADD DUP4 SWAP1 PUSH2 0x1460 JUMP JUMPDEST SWAP4 POP DUP3 SWAP4 PUSH2 0x1458 JUMP JUMPDEST SWAP1 POP DUP8 ADD MLOAD DUP11 PUSH2 0x12CE JUMP JUMPDEST DUP7 SWAP3 POP PUSH1 0x1F NOT DUP3 AND SWAP1 DUP5 PUSH1 0x0 MSTORE DUP9 PUSH1 0x0 KECCAK256 SWAP2 PUSH1 0x0 JUMPDEST DUP11 DUP13 DUP4 DUP4 LT PUSH2 0x14DA JUMPI POP POP POP DUP4 GT PUSH2 0x14C1 JUMPI JUMPDEST POP POP DUP2 SHL ADD SWAP1 SSTORE PUSH2 0x12E1 JUMP JUMPDEST DUP10 ADD MLOAD PUSH1 0x0 NOT PUSH1 0xF8 DUP5 PUSH1 0x3 SHL AND SHR NOT AND SWAP1 SSTORE DUP11 DUP1 PUSH2 0x14B5 JUMP JUMPDEST DUP5 ADD MLOAD DUP6 SSTORE DUP11 SWAP7 SWAP1 SWAP5 ADD SWAP4 SWAP3 DUP4 ADD SWAP3 ADD PUSH2 0x14A2 JUMP JUMPDEST DUP3 PUSH1 0x0 MSTORE DUP7 PUSH1 0x0 KECCAK256 DUP6 DUP1 DUP5 ADD DUP7 SHR DUP3 ADD SWAP3 DUP10 DUP6 LT PUSH2 0x152A JUMPI JUMPDEST ADD DUP6 SHR ADD SWAP1 DUP7 SWAP1 JUMPDEST DUP3 DUP2 LT PUSH2 0x151E JUMPI POP POP PUSH2 0x12B9 JUMP JUMPDEST PUSH1 0x0 DUP2 SSTORE ADD DUP7 SWAP1 PUSH2 0x1510 JUMP JUMPDEST SWAP3 POP DUP2 SWAP3 PUSH2 0x1508 JUMP JUMPDEST POP POP SWAP1 PUSH2 0x97C PUSH32 0x12741FA7FAC2B8ED98F6279878746BB34936177209FA16187FCBE2E6E2CE5668 SWAP2 PUSH1 0x40 MLOAD SWAP2 DUP3 SWAP2 DUP3 PUSH2 0x1AEF JUMP JUMPDEST POP DUP1 MLOAD ISZERO ISZERO PUSH2 0x1204 JUMP JUMPDEST PUSH1 0xC0 DUP2 ADD SWAP1 DUP2 LT PUSH1 0x1 PUSH1 0x1 PUSH1 0x40 SHL SUB DUP3 GT OR PUSH2 0x6F1 JUMPI PUSH1 0x40 MSTORE JUMP JUMPDEST PUSH1 0x20 DUP2 ADD SWAP1 DUP2 LT PUSH1 0x1 PUSH1 0x1 PUSH1 0x40 SHL SUB DUP3 GT OR PUSH2 0x6F1 JUMPI PUSH1 0x40 MSTORE JUMP JUMPDEST PUSH1 0x40 DUP2 ADD SWAP1 DUP2 LT PUSH1 0x1 PUSH1 0x1 PUSH1 0x40 SHL SUB DUP3 GT OR PUSH2 0x6F1 JUMPI PUSH1 0x40 MSTORE JUMP JUMPDEST SWAP1 PUSH1 0x1F DUP1 NOT SWAP2 ADD AND DUP2 ADD SWAP1 DUP2 LT PUSH1 0x1 PUSH1 0x1 PUSH1 0x40 SHL SUB DUP3 GT OR PUSH2 0x6F1 JUMPI PUSH1 0x40 MSTORE JUMP JUMPDEST PUSH1 0x1 PUSH1 0x1 PUSH1 0x40 SHL SUB DUP2 GT PUSH2 0x6F1 JUMPI PUSH1 0x5 SHL PUSH1 0x20 ADD SWAP1 JUMP JUMPDEST CALLDATALOAD SWAP1 PUSH1 0x1 PUSH1 0x1 PUSH1 0xA0 SHL SUB DUP3 AND DUP3 SUB PUSH2 0xB7 JUMPI JUMP JUMPDEST PUSH1 0x1 PUSH1 0x1 PUSH1 0x40 SHL SUB DUP2 GT PUSH2 0x6F1 JUMPI PUSH1 0x1F ADD PUSH1 0x1F NOT AND PUSH1 0x20 ADD SWAP1 JUMP JUMPDEST SWAP3 SWAP2 SWAP3 PUSH2 0x1635 DUP3 PUSH2 0x160E JUMP JUMPDEST SWAP2 PUSH2 0x1643 PUSH1 0x40 MLOAD SWAP4 DUP5 PUSH2 0x15C2 JUMP JUMPDEST DUP3 SWAP5 DUP2 DUP5 MSTORE DUP2 DUP4 ADD GT PUSH2 0xB7 JUMPI DUP3 DUP2 PUSH1 0x20 SWAP4 DUP5 PUSH1 0x0 SWAP7 ADD CALLDATACOPY ADD ADD MSTORE JUMP JUMPDEST DUP2 PUSH1 0x1F DUP3 ADD SLT ISZERO PUSH2 0xB7 JUMPI DUP1 CALLDATALOAD SWAP2 PUSH1 0x20 SWAP2 PUSH2 0x167A DUP5 PUSH2 0x15E3 JUMP JUMPDEST SWAP4 PUSH1 0x40 SWAP2 PUSH2 0x168B PUSH1 0x40 MLOAD SWAP7 DUP8 PUSH2 0x15C2 JUMP JUMPDEST DUP2 DUP7 MSTORE DUP5 DUP7 ADD SWAP2 DUP6 PUSH1 0x5 SWAP2 PUSH1 0x5 SHL DUP4 ADD ADD SWAP5 DUP1 DUP7 GT PUSH2 0xB7 JUMPI DUP7 DUP4 ADD SWAP4 JUMPDEST DUP7 DUP6 LT PUSH2 0x16BB JUMPI POP POP POP POP POP POP POP POP SWAP1 JUMP JUMPDEST PUSH1 0x1 PUSH1 0x1 PUSH1 0x40 SHL SUB DUP6 CALLDATALOAD DUP2 DUP2 GT PUSH2 0xB7 JUMPI DUP6 ADD SWAP2 PUSH1 0xC0 SWAP2 DUP3 PUSH1 0x1F NOT DUP6 DUP8 SUB ADD SLT PUSH2 0xB7 JUMPI DUP9 MLOAD SWAP1 PUSH2 0x16EB DUP3 PUSH2 0x1571 JUMP JUMPDEST PUSH2 0x16F6 DUP13 DUP7 ADD PUSH2 0x15FA JUMP JUMPDEST DUP3 MSTORE DUP10 DUP6 ADD CALLDATALOAD SWAP1 DUP2 GT PUSH2 0xB7 JUMPI DUP5 ADD DUP6 PUSH1 0x3F DUP3 ADD SLT ISZERO PUSH2 0xB7 JUMPI DUP6 DUP2 DUP12 DUP15 PUSH2 0x1721 SWAP5 ADD CALLDATALOAD SWAP2 ADD PUSH2 0x1629 JUMP JUMPDEST DUP12 DUP3 ADD MSTORE PUSH1 0x60 DUP1 DUP6 ADD CALLDATALOAD SWAP4 DUP8 DUP6 LT ISZERO PUSH2 0xB7 JUMPI DUP13 SWAP6 DUP7 SWAP6 DUP13 DUP6 ADD MSTORE PUSH1 0x80 SWAP3 DUP4 DUP3 ADD CALLDATALOAD SWAP1 DUP6 ADD MSTORE PUSH1 0xA0 SWAP3 DUP4 DUP3 ADD CALLDATALOAD SWAP1 DUP6 ADD MSTORE ADD CALLDATALOAD SWAP1 DUP3 ADD MSTORE DUP2 MSTORE ADD SWAP5 ADD SWAP4 PUSH2 0x16A9 JUMP JUMPDEST PUSH1 0x3 NOT SWAP2 SWAP1 PUSH1 0x80 DUP4 DUP3 ADD SLT PUSH2 0xB7 JUMPI PUSH1 0x4 DUP1 CALLDATALOAD SWAP4 PUSH1 0x1 PUSH1 0x1 PUSH1 0x40 SHL SUB SWAP4 SWAP2 PUSH1 0x24 CALLDATALOAD DUP6 DUP2 GT PUSH2 0xB7 JUMPI DUP5 PUSH2 0x1797 SWAP2 DUP4 ADD PUSH2 0x1660 JUMP JUMPDEST SWAP5 PUSH1 0x44 CALLDATALOAD PUSH1 0x5 DUP2 LT ISZERO PUSH2 0xB7 JUMPI SWAP5 PUSH1 0x64 CALLDATALOAD SWAP3 DUP3 DUP5 GT PUSH2 0xB7 JUMPI PUSH2 0x1C0 DUP1 SWAP6 DUP6 DUP5 SUB ADD SLT PUSH2 0xB7 JUMPI PUSH1 0x40 MLOAD SWAP5 DUP6 ADD DUP6 DUP2 LT DUP5 DUP3 GT OR PUSH2 0x1921 JUMPI PUSH1 0x40 MSTORE DUP4 DUP2 ADD CALLDATALOAD DUP6 MSTORE PUSH2 0x17E4 PUSH1 0x24 DUP6 ADD PUSH2 0x15FA JUMP JUMPDEST PUSH1 0x20 SWAP1 PUSH1 0x20 DUP8 ADD MSTORE PUSH2 0x17F8 PUSH1 0x44 DUP7 ADD PUSH2 0x15FA JUMP JUMPDEST PUSH1 0x40 DUP8 ADD MSTORE PUSH1 0x64 DUP6 ADD CALLDATALOAD PUSH1 0x1 PUSH1 0x1 PUSH1 0xE0 SHL SUB NOT DUP2 AND DUP2 SUB PUSH2 0xB7 JUMPI PUSH1 0x60 DUP8 ADD MSTORE PUSH1 0x84 DUP6 ADD CALLDATALOAD DUP5 DUP2 GT PUSH2 0xB7 JUMPI DUP6 ADD SWAP1 DUP4 PUSH1 0x23 DUP4 ADD SLT ISZERO PUSH2 0xB7 JUMPI DUP3 DUP3 ADD CALLDATALOAD SWAP2 PUSH2 0x1840 DUP4 PUSH2 0x15E3 JUMP JUMPDEST SWAP3 PUSH2 0x184E PUSH1 0x40 MLOAD SWAP5 DUP6 PUSH2 0x15C2 JUMP JUMPDEST DUP1 DUP5 MSTORE PUSH1 0x24 PUSH1 0x20 DUP6 ADD SWAP2 PUSH1 0x5 SHL DUP4 ADD ADD SWAP2 DUP7 DUP4 GT PUSH2 0xB7 JUMPI PUSH1 0x24 ADD SWAP1 JUMPDEST DUP3 DUP3 LT PUSH2 0x190A JUMPI POP POP POP POP PUSH1 0x80 DUP7 ADD MSTORE PUSH1 0xA4 DUP5 ADD CALLDATALOAD SWAP3 DUP4 GT PUSH2 0xB7 JUMPI PUSH2 0x1893 SWAP3 DUP5 ADD ADD PUSH2 0x1660 JUMP JUMPDEST PUSH1 0xA0 DUP4 ADD MSTORE PUSH1 0xC4 DUP2 ADD CALLDATALOAD PUSH1 0xC0 DUP4 ADD MSTORE PUSH1 0xE4 DUP2 ADD CALLDATALOAD PUSH1 0xE0 DUP4 ADD MSTORE PUSH2 0x104 DUP2 ADD CALLDATALOAD PUSH2 0x100 DUP4 ADD MSTORE PUSH2 0x124 DUP2 ADD CALLDATALOAD PUSH2 0x120 DUP4 ADD MSTORE PUSH2 0x144 DUP2 ADD CALLDATALOAD PUSH2 0x140 DUP4 ADD MSTORE PUSH2 0x164 DUP2 ADD CALLDATALOAD PUSH1 0x5 DUP2 LT ISZERO PUSH2 0xB7 JUMPI PUSH2 0x160 DUP4 ADD MSTORE PUSH2 0x184 DUP2 ADD CALLDATALOAD SWAP1 PUSH1 0x2 DUP3 LT ISZERO PUSH2 0xB7 JUMPI PUSH2 0x1A4 SWAP2 PUSH2 0x180 DUP5 ADD MSTORE ADD CALLDATALOAD PUSH2 0x1A0 DUP3 ADD MSTORE SWAP1 JUMP JUMPDEST DUP4 DUP1 SWAP2 PUSH2 0x1916 DUP5 PUSH2 0x15FA JUMP JUMPDEST DUP2 MSTORE ADD SWAP2 ADD SWAP1 PUSH2 0x186B JUMP JUMPDEST PUSH1 0x41 DUP3 PUSH4 0x4E487B71 PUSH1 0xE0 SHL PUSH1 0x0 MSTORE MSTORE PUSH1 0x24 PUSH1 0x0 REVERT JUMPDEST SWAP1 PUSH1 0x20 PUSH1 0x3 NOT DUP4 ADD SLT PUSH2 0xB7 JUMPI PUSH1 0x4 CALLDATALOAD PUSH1 0x1 PUSH1 0x1 PUSH1 0x40 SHL SUB SWAP3 DUP4 DUP3 GT PUSH2 0xB7 JUMPI DUP1 PUSH1 0x23 DUP4 ADD SLT ISZERO PUSH2 0xB7 JUMPI DUP2 PUSH1 0x4 ADD CALLDATALOAD SWAP4 DUP5 GT PUSH2 0xB7 JUMPI PUSH1 0x24 DUP5 DUP4 ADD ADD GT PUSH2 0xB7 JUMPI PUSH1 0x24 ADD SWAP2 SWAP1 JUMP JUMPDEST PUSH1 0x0 JUMPDEST DUP4 DUP2 LT PUSH2 0x1992 JUMPI POP POP PUSH1 0x0 SWAP2 ADD MSTORE JUMP JUMPDEST DUP2 DUP2 ADD MLOAD DUP4 DUP3 ADD MSTORE PUSH1 0x20 ADD PUSH2 0x1982 JUMP JUMPDEST SWAP1 PUSH1 0x20 SWAP2 PUSH2 0x19BB DUP2 MLOAD DUP1 SWAP3 DUP2 DUP6 MSTORE DUP6 DUP1 DUP7 ADD SWAP2 ADD PUSH2 0x197F JUMP JUMPDEST PUSH1 0x1F ADD PUSH1 0x1F NOT AND ADD ADD SWAP1 JUMP JUMPDEST SWAP1 PUSH1 0x2 DUP3 LT ISZERO PUSH2 0x610 JUMPI MSTORE JUMP JUMPDEST SWAP1 PUSH1 0x1 DUP3 DUP2 SHR SWAP3 AND DUP1 ISZERO PUSH2 0x1A04 JUMPI JUMPDEST PUSH1 0x20 DUP4 LT EQ PUSH2 0x19EE JUMPI JUMP JUMPDEST PUSH4 0x4E487B71 PUSH1 0xE0 SHL PUSH1 0x0 MSTORE PUSH1 0x22 PUSH1 0x4 MSTORE PUSH1 0x24 PUSH1 0x0 REVERT JUMPDEST SWAP2 PUSH1 0x7F AND SWAP2 PUSH2 0x19E3 JUMP JUMPDEST SWAP1 PUSH1 0x40 MLOAD SWAP2 DUP3 PUSH1 0x0 DUP3 SLOAD PUSH2 0x1A21 DUP2 PUSH2 0x19D4 JUMP JUMPDEST SWAP1 DUP2 DUP5 MSTORE PUSH1 0x20 SWAP5 PUSH1 0x1 SWAP2 PUSH1 0x1 DUP2 AND SWAP1 DUP2 PUSH1 0x0 EQ PUSH2 0x1A91 JUMPI POP PUSH1 0x1 EQ PUSH2 0x1A52 JUMPI JUMPDEST POP POP POP PUSH2 0x1A50 SWAP3 POP SUB DUP4 PUSH2 0x15C2 JUMP JUMPDEST JUMP JUMPDEST PUSH1 0x0 SWAP1 DUP2 MSTORE DUP6 DUP2 KECCAK256 SWAP6 SWAP4 POP SWAP2 SWAP1 JUMPDEST DUP2 DUP4 LT PUSH2 0x1A79 JUMPI POP POP PUSH2 0x1A50 SWAP4 POP DUP3 ADD ADD CODESIZE DUP1 DUP1 PUSH2 0x1A41 JUMP JUMPDEST DUP6 SLOAD DUP9 DUP5 ADD DUP6 ADD MSTORE SWAP5 DUP6 ADD SWAP5 DUP8 SWAP5 POP SWAP2 DUP4 ADD SWAP2 PUSH2 0x1A60 JUMP JUMPDEST SWAP3 POP POP POP PUSH2 0x1A50 SWAP5 SWAP3 POP PUSH1 0xFF NOT AND DUP3 DUP5 ADD MSTORE ISZERO ISZERO PUSH1 0x5 SHL DUP3 ADD ADD CODESIZE DUP1 DUP1 PUSH2 0x1A41 JUMP JUMPDEST ISZERO PUSH2 0x1ABA JUMPI JUMP JUMPDEST PUSH1 0x40 MLOAD PUSH3 0x461BCD PUSH1 0xE5 SHL DUP2 MSTORE PUSH1 0x20 PUSH1 0x4 DUP3 ADD MSTORE PUSH1 0xD PUSH1 0x24 DUP3 ADD MSTORE PUSH13 0x4F6E6C7920706C6174666F726D PUSH1 0x98 SHL PUSH1 0x44 DUP3 ADD MSTORE PUSH1 0x64 SWAP1 REVERT JUMPDEST SWAP2 SWAP1 PUSH1 0x20 DUP4 ADD SWAP3 PUSH1 0x5 DUP3 LT ISZERO PUSH2 0x610 JUMPI MSTORE JUMP JUMPDEST DUP1 MLOAD ISZERO PUSH2 0x1B0F JUMPI PUSH1 0x20 ADD SWAP1 JUMP JUMPDEST PUSH4 0x4E487B71 PUSH1 0xE0 SHL PUSH1 0x0 MSTORE PUSH1 0x32 PUSH1 0x4 MSTORE PUSH1 0x24 PUSH1 0x0 REVERT JUMPDEST DUP1 MLOAD PUSH1 0x1 LT ISZERO PUSH2 0x1B0F JUMPI PUSH1 0x40 ADD SWAP1 JUMP JUMPDEST DUP1 MLOAD PUSH1 0x2 LT ISZERO PUSH2 0x1B0F JUMPI PUSH1 0x60 ADD SWAP1 JUMP JUMPDEST ISZERO PUSH2 0x1B4C JUMPI JUMP JUMPDEST PUSH1 0x40 MLOAD PUSH3 0x461BCD PUSH1 0xE5 SHL DUP2 MSTORE PUSH1 0x20 PUSH1 0x4 DUP3 ADD MSTORE PUSH1 0x14 PUSH1 0x24 DUP3 ADD MSTORE PUSH20 0x125B9CDD59999A58DA595B9D0819195C1BDCDA5D PUSH1 0x62 SHL PUSH1 0x44 DUP3 ADD MSTORE PUSH1 0x64 SWAP1 REVERT JUMPDEST SWAP1 SWAP2 DUP1 PUSH1 0x40 SWAP4 PUSH1 0x20 DUP5 MSTORE DUP2 PUSH1 0x20 DUP6 ADD MSTORE DUP5 DUP5 ADD CALLDATACOPY PUSH1 0x0 DUP3 DUP3 ADD DUP5 ADD MSTORE PUSH1 0x1F ADD PUSH1 0x1F NOT AND ADD ADD SWAP1 JUMP JUMPDEST SWAP2 SWAP1 DUP3 SUB SWAP2 DUP3 GT PUSH2 0x1BBD JUMPI JUMP JUMPDEST PUSH4 0x4E487B71 PUSH1 0xE0 SHL PUSH1 0x0 MSTORE PUSH1 0x11 PUSH1 0x4 MSTORE PUSH1 0x24 PUSH1 0x0 REVERT INVALID LOG2 PUSH5 0x6970667358 0x22 SLT KECCAK256 0x22 0xB5 CALLDATACOPY JUMPDEST SAR PUSH0 TIMESTAMP 0xFB PUSH29 0x7CAFB35EFF7978625A74832F1F46AE7468CB373C08737E64736F6C6343 STOP ADDMOD XOR STOP CALLER "},"methodIdentifiers":{"LLM_AGENT_ID()":"2e90c1a9","PLATFORM()":"7efc77fa","analyses(uint256)":"af56cc72","classifySentiment(string)":"9bd8cf2e","getAnalysis(uint256)":"5170b934","getRequiredDeposit()":"58e56db4","handleClassification(uint256,(address,bytes,uint8,uint256,uint256,uint256)[],uint8,(uint256,address,address,bytes4,address[],(address,bytes,uint8,uint256,uint256,uint256)[],uint256,uint256,uint256,uint256,uint256,uint8,uint8,uint256))":"1a1ace28","handleScore(uint256,(address,bytes,uint8,uint256,uint256,uint256)[],uint8,(uint256,address,address,bytes4,address[],(address,bytes,uint8,uint256,uint256,uint256)[],uint256,uint256,uint256,uint256,uint256,uint8,uint8,uint256))":"7552b813","latestClassification()":"6c9ac38a","latestScore()":"c6c1cd4d","scoreSentiment(string)":"3ed77225"}}}}}