{"contracts/HealthTips.sol":{"HealthTips":{"abi":[{"anonymous":false,"inputs":[{"indexed":true,"internalType":"uint256","name":"requestId","type":"uint256"},{"indexed":false,"internalType":"enum ResponseStatus","name":"status","type":"uint8"}],"name":"TipFailed","type":"event"},{"anonymous":false,"inputs":[{"indexed":true,"internalType":"uint256","name":"requestId","type":"uint256"},{"indexed":false,"internalType":"string","name":"topic","type":"string"},{"indexed":false,"internalType":"string","name":"tip","type":"string"}],"name":"TipReceived","type":"event"},{"anonymous":false,"inputs":[{"indexed":true,"internalType":"uint256","name":"requestId","type":"uint256"},{"indexed":false,"internalType":"string","name":"topic","type":"string"}],"name":"TipRequested","type":"event"},{"inputs":[],"name":"LLM_AGENT_ID","outputs":[{"internalType":"uint256","name":"","type":"uint256"}],"stateMutability":"view","type":"function"},{"inputs":[],"name":"PLATFORM","outputs":[{"internalType":"contract IAgentRequester","name":"","type":"address"}],"stateMutability":"view","type":"function"},{"inputs":[{"internalType":"string","name":"topic","type":"string"}],"name":"getHealthTip","outputs":[{"internalType":"uint256","name":"requestId","type":"uint256"}],"stateMutability":"payable","type":"function"},{"inputs":[],"name":"getRequiredDeposit","outputs":[{"internalType":"uint256","name":"","type":"uint256"}],"stateMutability":"view","type":"function"},{"inputs":[{"internalType":"uint256","name":"index","type":"uint256"}],"name":"getTip","outputs":[{"internalType":"string","name":"topic","type":"string"},{"internalType":"string","name":"tip","type":"string"}],"stateMutability":"view","type":"function"},{"inputs":[],"name":"getTipCount","outputs":[{"internalType":"uint256","name":"","type":"uint256"}],"stateMutability":"view","type":"function"},{"inputs":[{"internalType":"uint256","name":"requestId","type":"uint256"},{"components":[{"internalType":"address","name":"validator","type":"address"},{"internalType":"bytes","name":"result","type":"bytes"},{"internalType":"enum ResponseStatus","name":"status","type":"uint8"},{"internalType":"uint256","name":"receipt","type":"uint256"},{"internalType":"uint256","name":"timestamp","type":"uint256"},{"internalType":"uint256","name":"executionCost","type":"uint256"}],"internalType":"struct Response[]","name":"responses","type":"tuple[]"},{"internalType":"enum ResponseStatus","name":"status","type":"uint8"},{"components":[{"internalType":"uint256","name":"id","type":"uint256"},{"internalType":"address","name":"requester","type":"address"},{"internalType":"address","name":"callbackAddress","type":"address"},{"internalType":"bytes4","name":"callbackSelector","type":"bytes4"},{"internalType":"address[]","name":"subcommittee","type":"address[]"},{"components":[{"internalType":"address","name":"validator","type":"address"},{"internalType":"bytes","name":"result","type":"bytes"},{"internalType":"enum ResponseStatus","name":"status","type":"uint8"},{"internalType":"uint256","name":"receipt","type":"uint256"},{"internalType":"uint256","name":"timestamp","type":"uint256"},{"internalType":"uint256","name":"executionCost","type":"uint256"}],"internalType":"struct Response[]","name":"responses","type":"tuple[]"},{"internalType":"uint256","name":"responseCount","type":"uint256"},{"internalType":"uint256","name":"failureCount","type":"uint256"},{"internalType":"uint256","name":"threshold","type":"uint256"},{"internalType":"uint256","name":"createdAt","type":"uint256"},{"internalType":"uint256","name":"deadline","type":"uint256"},{"internalType":"enum ResponseStatus","name":"status","type":"uint8"},{"internalType":"enum ConsensusType","name":"consensusType","type":"uint8"},{"internalType":"uint256","name":"remainingBudget","type":"uint256"}],"internalType":"struct Request","name":"","type":"tuple"}],"name":"handleTip","outputs":[],"stateMutability":"nonpayable","type":"function"},{"inputs":[{"internalType":"uint256","name":"","type":"uint256"}],"name":"requestToTipIndex","outputs":[{"internalType":"uint256","name":"","type":"uint256"}],"stateMutability":"view","type":"function"},{"inputs":[{"internalType":"uint256","name":"","type":"uint256"}],"name":"tips","outputs":[{"internalType":"string","name":"","type":"string"}],"stateMutability":"view","type":"function"},{"inputs":[{"internalType":"uint256","name":"","type":"uint256"}],"name":"topics","outputs":[{"internalType":"string","name":"","type":"string"}],"stateMutability":"view","type":"function"},{"stateMutability":"payable","type":"receive"}],"evm":{"bytecode":{"linkReferences":{},"object":"60808060405234610016576112a9908161001c8239f35b600080fdfe60406080815260048036101561001f575b5050361561001d57600080fd5b005b600091823560e01c806318d9adab14610e385780632e90c1a914610e15578063566d8db41461081557806358e56db4146107825780635b703f5c146107225780637dc1a64f146107035780637efc77fa146106d057806390e82784146106a8578063a5c68c59146106595763a71edbb91461009a5750610010565b3461065557600319916080368401126106515780359260249067ffffffffffffffff823581811161064d576100d290369086016110cc565b936044359160058310156106495760643595818711610645576101c0809588360301126106455787519485018581108382111761063357885286830135855261011c868801611097565b946020958682015261013060448901611097565b818a01526064880135976001600160e01b0319891689036104f757606098606083015260848101358481116106135781013660238201121561061357858101359061017a8261107f565b916101878d519384610f33565b8083528a8a84019160051b8301019136831161062f578b8b9101915b8383106106175750505050608083015260a4810135848111610613576101ce908636918401016110cc565b60a083015260c481013560c083015260e481013560e08301526101048101356101008301526101248101356101208301526101448101356101408301526101648101356005811015610613576101608301526101848101356002811015610613576101a0916101a491610180850152013591015273037bb9c718f3f7fe5ecbdb0b600d607b5270677633036105e157888a5260028552878a20549360028114806105d7575b1561051157508051156104ff578480910151015194855186019585818189019803126104fb5785810151908382116104f7570186603f820112156104fb57858101516102be816110b0565b976102cb8b51998a610f33565b8189528a82840101116104f7576102e7918a888a019101611037565b6102f084610eac565b9390936104e75786519283116104d6575050610316816103108454610ef9565b8461122e565b83601f8211600114610471578161034f949392610348928c91610466575b508160011b916000199060031b1c19161790565b9055610e62565b5093805194818652879481549161036583610ef9565b809489015260019260018116908160001461041b57506001146103c3575b50505050828493926103bd92857f4cf0ed97e288251b3ddeecf039b4d8f4cf8e7d705675006acc0147a747065fb69795039085015261105a565b0390a280f35b895283892093955088935b838510610408575050505083016060019180827f4cf0ed97e288251b3ddeecf039b4d8f4cf8e7d705675006acc0147a747065fb686610383565b80548886018301529386019382016103ce565b60ff19166060808b019190915294151560051b890190940196508493508592507f4cf0ed97e288251b3ddeecf039b4d8f4cf8e7d705675006acc0147a747065fb69150879050610383565b905087015138610334565b828a52848a2090601f1983168b5b878282106104c057505091839161034f969594600194106104a7575b5050811b019055610e62565b88015160001960f88460031b161c19169055388061049b565b600184958293958c01518155019401920161047f565b634e487b7160e01b8b526041905289fd5b634e487b7160e01b8b528a905289fd5b8b80fd5b8a80fd5b634e487b7160e01b8a5260328352858afd5b9599989794965050509061052490610eac565b9190916105c657507fd74741a4fb07cc96da114741e7d4ee9892f215c65c763ae6cfeeafecd2ed80ac9495965061055b8154610ef9565b601f81116105a5575b506049815586526334b6b29760e11b60018488207f556e61626c6520746f2067656e657261746520746970206174207468697320748155015551908152a280f35b8188528488206105c091601f0160051c810190600201611217565b38610564565b634e487b7160e01b87528690528686fd5b5081511515610273565b875162461bcd60e51b8152808401869052600d818801526c4f6e6c7920706c6174666f726d60981b6044820152606490fd5b8c80fd5b819061062284611097565b8152019101908a906101a3565b8f80fd5b634e487b7160e01b8b5260418452868bfd5b8980fd5b8880fd5b8780fd5b8380fd5b8280fd5b5090346106555760203660031901126106555735916001548310156106a5575061068e6106886106a193610eac565b90611010565b905191829160208352602083019061105a565b0390f35b80fd5b5090346106555760203660031901126106555760209282913581526002845220549051908152f35b8382346106ff57816003193601126106ff576020905173037bb9c718f3f7fe5ecbdb0b600d607b527067768152f35b5080fd5b8382346106ff57816003193601126106ff576020906001549051908152f35b5091346106a55760203660031901126106a5575035906106a161076161075b61075461074d86610e62565b5095610eac565b5094610f6b565b93610f6b565b610774835194848695865285019061105a565b90838203602085015261105a565b5034610655578260031936011261065557602081518093630ffeb17d60e11b82528173037bb9c718f3f7fe5ecbdb0b600d607b527067765afa91821561080b5783926107d3575b6020838351908152f35b9091506020813d602011610803575b816107ef60209383610f33565b8101031261065557602092505190386107c9565b3d91506107e2565b81513d85823e3d90fd5b50602092836003193601126106a55767ffffffffffffffff928035848111610655573660238201121561065557808201358581116106515760249182810136848484010111610e11578651977f47697665206120636f6e636973652c2065766964656e63652d626173656420688a8a015270032b0b63a34103a34b81030b137baba1d1607d1b888a0152838260518b013761090c60888a86810161017160f51b60518201527f4b65657020697420746f20312d322073656e74656e6365732e20446f206e6f746053820152741034b731b63ab232903234b9b1b630b4b6b2b9399760591b607382015203606881018c52018a610f33565b8751908a820190811182821017610dff579889888a9361094d9c85528181528d85519d8e95631fcf941360e31b8388015260808c88015260a487019061105a565b7f6e742070726f766964696e672061636375726174652c2065766964656e63652d8682039760231989016044890152605283527f596f752061726520612068656c7066756c206865616c7468206173736973746184840152820152713130b9b2b2103432b0b63a34103a34b8399760711b60608201526080810192605c6001988960648a01520160848801525180935260a08101908760a08560051b8301019695935b858510610dcc57505050505050500392610a12601f19948581018c528b610f33565b8851630ffeb17d60e11b81529973037bb9c718f3f7fe5ecbdb0b600d607b527067768c8c8a81845afa9b8c15610dc2578a9c610d93575b508b3410610d59578a516345de5df160e11b815267b24ac1afbcefc708818b015230818a015263a71edbb960e01b6044820152608060648201529b979695949392918d918d9182908b908290610aa390608483019061105a565b03925af19a8b15610d4f57899b610d20575b50885490680100000000000000009182811015610d0e578084610ada92018c55610e62565b919091610cfd57868e8992610af983610af38754610ef9565b8761122e565b8d8092601f8511600114610c8f575091610b2a949184610c82575b5050508160011b916000199060031b1c19161790565b90555b815490811015610c70578082610b4592018355610eac565b610c5f5780808d8b610b5960009554610ef9565b91601f8311610c3f575b5050505055546000198101908111610c2d578a7f7a42dd8a2ec4a9e4bdbac32e23b2ea523f8beab7ddb5e44bd58efb41aae0b6a293601f86808e98968e96878f8c81526002895220558651978689978852870152868601378b85828601015201168101030190a2813411610bdc575b5050505051908152f35b81340392348411610c1c57505082808093819382903414610c13575b3390f115610c0857808080610bd2565b9051903d90823e3d90fd5b506108fc610bf8565b634e487b7160e01b85526011905283fd5b634e487b7160e01b8852601187528488fd5b610c5693601f92528d20910160051c810190611217565b80388b8f610b63565b634e487b7160e01b89528888528589fd5b634e487b7160e01b8952604188528589fd5b0101359050893880610b14565b8a859296949395169087875280872096905b8a838310610cde5750505010610cc2575b505050508286811b019055610b2d565b60001960f88b60031b161c199201013516905538808881610cb2565b87860190960135885596909401958d94938101938d9350810190610ca1565b634e487b7160e01b8b528a8a52878bfd5b634e487b7160e01b8b5260418a52878bfd5b909a508b81813d8311610d48575b610d388183610f33565b8101031261064957519938610ab5565b503d610d2e565b8a513d8b823e3d90fd5b50895162461bcd60e51b81528089018d905260148189015273125b9cdd59999a58da595b9d0819195c1bdcda5d60621b6044820152606490fd5b909b508c81813d8311610dbb575b610dab8183610f33565b8101031261064557519a38610a49565b503d610da1565b8b513d8c823e3d90fd5b9193959750919395610de98291609f19868203018752895161105a565b97019301930190928f938f9695939488906109f0565b634e487b7160e01b8852604187528588fd5b8580fd5b8382346106ff57816003193601126106ff576020905167b24ac1afbcefc7088152f35b50903461065557602036600319011261065557359180548310156106a5575061068e6106886106a1935b906000918254811015610e98578280527f290decd9548b62a8d60345a988386fc84ba6bc95484008f6362f93160ef3e563019190565b634e487b7160e01b83526032600452602483fd5b600154811015610ee35760016000527fb10e2d527612073b26eecdfd717e6a320cf44b4afac2b0732d9fcbe2b7fa0cf60190600090565b634e487b7160e01b600052603260045260246000fd5b90600182811c92168015610f29575b6020831014610f1357565b634e487b7160e01b600052602260045260246000fd5b91607f1691610f08565b90601f8019910116810190811067ffffffffffffffff821117610f5557604052565b634e487b7160e01b600052604160045260246000fd5b90604051918260008254610f7e81610ef9565b90818452602094600191600181169081600014610fee5750600114610faf575b505050610fad92500383610f33565b565b600090815285812095935091905b818310610fd6575050610fad9350820101388080610f9e565b85548884018501529485019487945091830191610fbd565b92505050610fad94925060ff191682840152151560051b820101388080610f9e565b906110215761101e90610f6b565b90565b634e487b7160e01b600052600060045260246000fd5b60005b83811061104a5750506000910152565b818101518382015260200161103a565b9060209161107381518092818552858086019101611037565b601f01601f1916010190565b67ffffffffffffffff8111610f555760051b60200190565b35906001600160a01b03821682036110ab57565b600080fd5b67ffffffffffffffff8111610f5557601f01601f191660200190565b9080601f830112156110ab5760209082356110e68161107f565b936040906110f682519687610f33565b828652848601918560059460051b830101938585116110ab57868301935b85851061112657505050505050505090565b67ffffffffffffffff85358181116110ab57850160c080601f19838c0301126110ab57855192818401848110828211176112025787526111678c8401611097565b8452868301359081116110ab578201918a603f840112156110ab578b83013561118f816110b0565b9061119c89519283610f33565b8082528c8982870101116110ab5780898f9601868401376000948591830101528c8501526060928382013590878210156106a55750878501526080808201359385019390935260a080820135938501939093520135908201528152938701938701611114565b60246000634e487b7160e01b81526041600452fd5b818110611222575050565b60008155600101611217565b9190601f811161123d57505050565b610fad926000526020600020906020601f840160051c83019310611269575b601f0160051c0190611217565b909150819061125c56fea2646970667358221220cbe5ee9bb1f5d23c3e816714b4b00a4741b4aacafa6db7073208c2fecf18a18a64736f6c63430008180033","opcodes":"PUSH1 0x80 DUP1 PUSH1 0x40 MSTORE CALLVALUE PUSH2 0x16 JUMPI PUSH2 0x12A9 SWAP1 DUP2 PUSH2 0x1C DUP3 CODECOPY RETURN JUMPDEST PUSH1 0x0 DUP1 REVERT INVALID PUSH1 0x40 PUSH1 0x80 DUP2 MSTORE PUSH1 0x4 DUP1 CALLDATASIZE LT ISZERO PUSH2 0x1F JUMPI JUMPDEST POP POP CALLDATASIZE ISZERO PUSH2 0x1D JUMPI PUSH1 0x0 DUP1 REVERT JUMPDEST STOP JUMPDEST PUSH1 0x0 SWAP2 DUP3 CALLDATALOAD PUSH1 0xE0 SHR DUP1 PUSH4 0x18D9ADAB EQ PUSH2 0xE38 JUMPI DUP1 PUSH4 0x2E90C1A9 EQ PUSH2 0xE15 JUMPI DUP1 PUSH4 0x566D8DB4 EQ PUSH2 0x815 JUMPI DUP1 PUSH4 0x58E56DB4 EQ PUSH2 0x782 JUMPI DUP1 PUSH4 0x5B703F5C EQ PUSH2 0x722 JUMPI DUP1 PUSH4 0x7DC1A64F EQ PUSH2 0x703 JUMPI DUP1 PUSH4 0x7EFC77FA EQ PUSH2 0x6D0 JUMPI DUP1 PUSH4 0x90E82784 EQ PUSH2 0x6A8 JUMPI DUP1 PUSH4 0xA5C68C59 EQ PUSH2 0x659 JUMPI PUSH4 0xA71EDBB9 EQ PUSH2 0x9A JUMPI POP PUSH2 0x10 JUMP JUMPDEST CALLVALUE PUSH2 0x655 JUMPI PUSH1 0x3 NOT SWAP2 PUSH1 0x80 CALLDATASIZE DUP5 ADD SLT PUSH2 0x651 JUMPI DUP1 CALLDATALOAD SWAP3 PUSH1 0x24 SWAP1 PUSH8 0xFFFFFFFFFFFFFFFF DUP3 CALLDATALOAD DUP2 DUP2 GT PUSH2 0x64D JUMPI PUSH2 0xD2 SWAP1 CALLDATASIZE SWAP1 DUP7 ADD PUSH2 0x10CC JUMP JUMPDEST SWAP4 PUSH1 0x44 CALLDATALOAD SWAP2 PUSH1 0x5 DUP4 LT ISZERO PUSH2 0x649 JUMPI PUSH1 0x64 CALLDATALOAD SWAP6 DUP2 DUP8 GT PUSH2 0x645 JUMPI PUSH2 0x1C0 DUP1 SWAP6 DUP9 CALLDATASIZE SUB ADD SLT PUSH2 0x645 JUMPI DUP8 MLOAD SWAP5 DUP6 ADD DUP6 DUP2 LT DUP4 DUP3 GT OR PUSH2 0x633 JUMPI DUP9 MSTORE DUP7 DUP4 ADD CALLDATALOAD DUP6 MSTORE PUSH2 0x11C DUP7 DUP9 ADD PUSH2 0x1097 JUMP JUMPDEST SWAP5 PUSH1 0x20 SWAP6 DUP7 DUP3 ADD MSTORE PUSH2 0x130 PUSH1 0x44 DUP10 ADD PUSH2 0x1097 JUMP JUMPDEST DUP2 DUP11 ADD MSTORE PUSH1 0x64 DUP9 ADD CALLDATALOAD SWAP8 PUSH1 0x1 PUSH1 0x1 PUSH1 0xE0 SHL SUB NOT DUP10 AND DUP10 SUB PUSH2 0x4F7 JUMPI PUSH1 0x60 SWAP9 PUSH1 0x60 DUP4 ADD MSTORE PUSH1 0x84 DUP2 ADD CALLDATALOAD DUP5 DUP2 GT PUSH2 0x613 JUMPI DUP2 ADD CALLDATASIZE PUSH1 0x23 DUP3 ADD SLT ISZERO PUSH2 0x613 JUMPI DUP6 DUP2 ADD CALLDATALOAD SWAP1 PUSH2 0x17A DUP3 PUSH2 0x107F JUMP JUMPDEST SWAP2 PUSH2 0x187 DUP14 MLOAD SWAP4 DUP5 PUSH2 0xF33 JUMP JUMPDEST DUP1 DUP4 MSTORE DUP11 DUP11 DUP5 ADD SWAP2 PUSH1 0x5 SHL DUP4 ADD ADD SWAP2 CALLDATASIZE DUP4 GT PUSH2 0x62F JUMPI DUP12 DUP12 SWAP2 ADD SWAP2 JUMPDEST DUP4 DUP4 LT PUSH2 0x617 JUMPI POP POP POP POP PUSH1 0x80 DUP4 ADD MSTORE PUSH1 0xA4 DUP2 ADD CALLDATALOAD DUP5 DUP2 GT PUSH2 0x613 JUMPI PUSH2 0x1CE SWAP1 DUP7 CALLDATASIZE SWAP2 DUP5 ADD ADD PUSH2 0x10CC JUMP JUMPDEST PUSH1 0xA0 DUP4 ADD MSTORE PUSH1 0xC4 DUP2 ADD CALLDATALOAD PUSH1 0xC0 DUP4 ADD MSTORE PUSH1 0xE4 DUP2 ADD CALLDATALOAD PUSH1 0xE0 DUP4 ADD MSTORE PUSH2 0x104 DUP2 ADD CALLDATALOAD PUSH2 0x100 DUP4 ADD MSTORE PUSH2 0x124 DUP2 ADD CALLDATALOAD PUSH2 0x120 DUP4 ADD MSTORE PUSH2 0x144 DUP2 ADD CALLDATALOAD PUSH2 0x140 DUP4 ADD MSTORE PUSH2 0x164 DUP2 ADD CALLDATALOAD PUSH1 0x5 DUP2 LT ISZERO PUSH2 0x613 JUMPI PUSH2 0x160 DUP4 ADD MSTORE PUSH2 0x184 DUP2 ADD CALLDATALOAD PUSH1 0x2 DUP2 LT ISZERO PUSH2 0x613 JUMPI PUSH2 0x1A0 SWAP2 PUSH2 0x1A4 SWAP2 PUSH2 0x180 DUP6 ADD MSTORE ADD CALLDATALOAD SWAP2 ADD MSTORE PUSH20 0x37BB9C718F3F7FE5ECBDB0B600D607B52706776 CALLER SUB PUSH2 0x5E1 JUMPI DUP9 DUP11 MSTORE PUSH1 0x2 DUP6 MSTORE DUP8 DUP11 KECCAK256 SLOAD SWAP4 PUSH1 0x2 DUP2 EQ DUP1 PUSH2 0x5D7 JUMPI JUMPDEST ISZERO PUSH2 0x511 JUMPI POP DUP1 MLOAD ISZERO PUSH2 0x4FF JUMPI DUP5 DUP1 SWAP2 ADD MLOAD ADD MLOAD SWAP5 DUP6 MLOAD DUP7 ADD SWAP6 DUP6 DUP2 DUP2 DUP10 ADD SWAP9 SUB SLT PUSH2 0x4FB JUMPI DUP6 DUP2 ADD MLOAD SWAP1 DUP4 DUP3 GT PUSH2 0x4F7 JUMPI ADD DUP7 PUSH1 0x3F DUP3 ADD SLT ISZERO PUSH2 0x4FB JUMPI DUP6 DUP2 ADD MLOAD PUSH2 0x2BE DUP2 PUSH2 0x10B0 JUMP JUMPDEST SWAP8 PUSH2 0x2CB DUP12 MLOAD SWAP10 DUP11 PUSH2 0xF33 JUMP JUMPDEST DUP2 DUP10 MSTORE DUP11 DUP3 DUP5 ADD ADD GT PUSH2 0x4F7 JUMPI PUSH2 0x2E7 SWAP2 DUP11 DUP9 DUP11 ADD SWAP2 ADD PUSH2 0x1037 JUMP JUMPDEST PUSH2 0x2F0 DUP5 PUSH2 0xEAC JUMP JUMPDEST SWAP4 SWAP1 SWAP4 PUSH2 0x4E7 JUMPI DUP7 MLOAD SWAP3 DUP4 GT PUSH2 0x4D6 JUMPI POP POP PUSH2 0x316 DUP2 PUSH2 0x310 DUP5 SLOAD PUSH2 0xEF9 JUMP JUMPDEST DUP5 PUSH2 0x122E JUMP JUMPDEST DUP4 PUSH1 0x1F DUP3 GT PUSH1 0x1 EQ PUSH2 0x471 JUMPI DUP2 PUSH2 0x34F SWAP5 SWAP4 SWAP3 PUSH2 0x348 SWAP3 DUP13 SWAP2 PUSH2 0x466 JUMPI JUMPDEST POP DUP2 PUSH1 0x1 SHL SWAP2 PUSH1 0x0 NOT SWAP1 PUSH1 0x3 SHL SHR NOT AND OR SWAP1 JUMP JUMPDEST SWAP1 SSTORE PUSH2 0xE62 JUMP JUMPDEST POP SWAP4 DUP1 MLOAD SWAP5 DUP2 DUP7 MSTORE DUP8 SWAP5 DUP2 SLOAD SWAP2 PUSH2 0x365 DUP4 PUSH2 0xEF9 JUMP JUMPDEST DUP1 SWAP5 DUP10 ADD MSTORE PUSH1 0x1 SWAP3 PUSH1 0x1 DUP2 AND SWAP1 DUP2 PUSH1 0x0 EQ PUSH2 0x41B JUMPI POP PUSH1 0x1 EQ PUSH2 0x3C3 JUMPI JUMPDEST POP POP POP POP DUP3 DUP5 SWAP4 SWAP3 PUSH2 0x3BD SWAP3 DUP6 PUSH32 0x4CF0ED97E288251B3DDEECF039B4D8F4CF8E7D705675006ACC0147A747065FB6 SWAP8 SWAP6 SUB SWAP1 DUP6 ADD MSTORE PUSH2 0x105A JUMP JUMPDEST SUB SWAP1 LOG2 DUP1 RETURN JUMPDEST DUP10 MSTORE DUP4 DUP10 KECCAK256 SWAP4 SWAP6 POP DUP9 SWAP4 JUMPDEST DUP4 DUP6 LT PUSH2 0x408 JUMPI POP POP POP POP DUP4 ADD PUSH1 0x60 ADD SWAP2 DUP1 DUP3 PUSH32 0x4CF0ED97E288251B3DDEECF039B4D8F4CF8E7D705675006ACC0147A747065FB6 DUP7 PUSH2 0x383 JUMP JUMPDEST DUP1 SLOAD DUP9 DUP7 ADD DUP4 ADD MSTORE SWAP4 DUP7 ADD SWAP4 DUP3 ADD PUSH2 0x3CE JUMP JUMPDEST PUSH1 0xFF NOT AND PUSH1 0x60 DUP1 DUP12 ADD SWAP2 SWAP1 SWAP2 MSTORE SWAP5 ISZERO ISZERO PUSH1 0x5 SHL DUP10 ADD SWAP1 SWAP5 ADD SWAP7 POP DUP5 SWAP4 POP DUP6 SWAP3 POP PUSH32 0x4CF0ED97E288251B3DDEECF039B4D8F4CF8E7D705675006ACC0147A747065FB6 SWAP2 POP DUP8 SWAP1 POP PUSH2 0x383 JUMP JUMPDEST SWAP1 POP DUP8 ADD MLOAD CODESIZE PUSH2 0x334 JUMP JUMPDEST DUP3 DUP11 MSTORE DUP5 DUP11 KECCAK256 SWAP1 PUSH1 0x1F NOT DUP4 AND DUP12 JUMPDEST DUP8 DUP3 DUP3 LT PUSH2 0x4C0 JUMPI POP POP SWAP2 DUP4 SWAP2 PUSH2 0x34F SWAP7 SWAP6 SWAP5 PUSH1 0x1 SWAP5 LT PUSH2 0x4A7 JUMPI JUMPDEST POP POP DUP2 SHL ADD SWAP1 SSTORE PUSH2 0xE62 JUMP JUMPDEST DUP9 ADD MLOAD PUSH1 0x0 NOT PUSH1 0xF8 DUP5 PUSH1 0x3 SHL AND SHR NOT AND SWAP1 SSTORE CODESIZE DUP1 PUSH2 0x49B JUMP JUMPDEST PUSH1 0x1 DUP5 SWAP6 DUP3 SWAP4 SWAP6 DUP13 ADD MLOAD DUP2 SSTORE ADD SWAP5 ADD SWAP3 ADD PUSH2 0x47F JUMP JUMPDEST PUSH4 0x4E487B71 PUSH1 0xE0 SHL DUP12 MSTORE PUSH1 0x41 SWAP1 MSTORE DUP10 REVERT JUMPDEST PUSH4 0x4E487B71 PUSH1 0xE0 SHL DUP12 MSTORE DUP11 SWAP1 MSTORE DUP10 REVERT JUMPDEST DUP12 DUP1 REVERT JUMPDEST DUP11 DUP1 REVERT JUMPDEST PUSH4 0x4E487B71 PUSH1 0xE0 SHL DUP11 MSTORE PUSH1 0x32 DUP4 MSTORE DUP6 DUP11 REVERT JUMPDEST SWAP6 SWAP10 SWAP9 SWAP8 SWAP5 SWAP7 POP POP POP SWAP1 PUSH2 0x524 SWAP1 PUSH2 0xEAC JUMP JUMPDEST SWAP2 SWAP1 SWAP2 PUSH2 0x5C6 JUMPI POP PUSH32 0xD74741A4FB07CC96DA114741E7D4EE9892F215C65C763AE6CFEEAFECD2ED80AC SWAP5 SWAP6 SWAP7 POP PUSH2 0x55B DUP2 SLOAD PUSH2 0xEF9 JUMP JUMPDEST PUSH1 0x1F DUP2 GT PUSH2 0x5A5 JUMPI JUMPDEST POP PUSH1 0x49 DUP2 SSTORE DUP7 MSTORE PUSH4 0x34B6B297 PUSH1 0xE1 SHL PUSH1 0x1 DUP5 DUP9 KECCAK256 PUSH32 0x556E61626C6520746F2067656E65726174652074697020617420746869732074 DUP2 SSTORE ADD SSTORE MLOAD SWAP1 DUP2 MSTORE LOG2 DUP1 RETURN JUMPDEST DUP2 DUP9 MSTORE DUP5 DUP9 KECCAK256 PUSH2 0x5C0 SWAP2 PUSH1 0x1F ADD PUSH1 0x5 SHR DUP2 ADD SWAP1 PUSH1 0x2 ADD PUSH2 0x1217 JUMP JUMPDEST CODESIZE PUSH2 0x564 JUMP JUMPDEST PUSH4 0x4E487B71 PUSH1 0xE0 SHL DUP8 MSTORE DUP7 SWAP1 MSTORE DUP7 DUP7 REVERT JUMPDEST POP DUP2 MLOAD ISZERO ISZERO PUSH2 0x273 JUMP JUMPDEST DUP8 MLOAD PUSH3 0x461BCD PUSH1 0xE5 SHL DUP2 MSTORE DUP1 DUP5 ADD DUP7 SWAP1 MSTORE PUSH1 0xD DUP2 DUP9 ADD MSTORE PUSH13 0x4F6E6C7920706C6174666F726D PUSH1 0x98 SHL PUSH1 0x44 DUP3 ADD MSTORE PUSH1 0x64 SWAP1 REVERT JUMPDEST DUP13 DUP1 REVERT JUMPDEST DUP2 SWAP1 PUSH2 0x622 DUP5 PUSH2 0x1097 JUMP JUMPDEST DUP2 MSTORE ADD SWAP2 ADD SWAP1 DUP11 SWAP1 PUSH2 0x1A3 JUMP JUMPDEST DUP16 DUP1 REVERT JUMPDEST PUSH4 0x4E487B71 PUSH1 0xE0 SHL DUP12 MSTORE PUSH1 0x41 DUP5 MSTORE DUP7 DUP12 REVERT JUMPDEST DUP10 DUP1 REVERT JUMPDEST DUP9 DUP1 REVERT JUMPDEST DUP8 DUP1 REVERT JUMPDEST DUP4 DUP1 REVERT JUMPDEST DUP3 DUP1 REVERT JUMPDEST POP SWAP1 CALLVALUE PUSH2 0x655 JUMPI PUSH1 0x20 CALLDATASIZE PUSH1 0x3 NOT ADD SLT PUSH2 0x655 JUMPI CALLDATALOAD SWAP2 PUSH1 0x1 SLOAD DUP4 LT ISZERO PUSH2 0x6A5 JUMPI POP PUSH2 0x68E PUSH2 0x688 PUSH2 0x6A1 SWAP4 PUSH2 0xEAC JUMP JUMPDEST SWAP1 PUSH2 0x1010 JUMP JUMPDEST SWAP1 MLOAD SWAP2 DUP3 SWAP2 PUSH1 0x20 DUP4 MSTORE PUSH1 0x20 DUP4 ADD SWAP1 PUSH2 0x105A JUMP JUMPDEST SUB SWAP1 RETURN JUMPDEST DUP1 REVERT JUMPDEST POP SWAP1 CALLVALUE PUSH2 0x655 JUMPI PUSH1 0x20 CALLDATASIZE PUSH1 0x3 NOT ADD SLT PUSH2 0x655 JUMPI PUSH1 0x20 SWAP3 DUP3 SWAP2 CALLDATALOAD DUP2 MSTORE PUSH1 0x2 DUP5 MSTORE KECCAK256 SLOAD SWAP1 MLOAD SWAP1 DUP2 MSTORE RETURN JUMPDEST DUP4 DUP3 CALLVALUE PUSH2 0x6FF JUMPI DUP2 PUSH1 0x3 NOT CALLDATASIZE ADD SLT PUSH2 0x6FF JUMPI PUSH1 0x20 SWAP1 MLOAD PUSH20 0x37BB9C718F3F7FE5ECBDB0B600D607B52706776 DUP2 MSTORE RETURN JUMPDEST POP DUP1 REVERT JUMPDEST DUP4 DUP3 CALLVALUE PUSH2 0x6FF JUMPI DUP2 PUSH1 0x3 NOT CALLDATASIZE ADD SLT PUSH2 0x6FF JUMPI PUSH1 0x20 SWAP1 PUSH1 0x1 SLOAD SWAP1 MLOAD SWAP1 DUP2 MSTORE RETURN JUMPDEST POP SWAP2 CALLVALUE PUSH2 0x6A5 JUMPI PUSH1 0x20 CALLDATASIZE PUSH1 0x3 NOT ADD SLT PUSH2 0x6A5 JUMPI POP CALLDATALOAD SWAP1 PUSH2 0x6A1 PUSH2 0x761 PUSH2 0x75B PUSH2 0x754 PUSH2 0x74D DUP7 PUSH2 0xE62 JUMP JUMPDEST POP SWAP6 PUSH2 0xEAC JUMP JUMPDEST POP SWAP5 PUSH2 0xF6B JUMP JUMPDEST SWAP4 PUSH2 0xF6B JUMP JUMPDEST PUSH2 0x774 DUP4 MLOAD SWAP5 DUP5 DUP7 SWAP6 DUP7 MSTORE DUP6 ADD SWAP1 PUSH2 0x105A JUMP JUMPDEST SWAP1 DUP4 DUP3 SUB PUSH1 0x20 DUP6 ADD MSTORE PUSH2 0x105A JUMP JUMPDEST POP CALLVALUE PUSH2 0x655 JUMPI DUP3 PUSH1 0x3 NOT CALLDATASIZE ADD SLT PUSH2 0x655 JUMPI PUSH1 0x20 DUP2 MLOAD DUP1 SWAP4 PUSH4 0xFFEB17D PUSH1 0xE1 SHL DUP3 MSTORE DUP2 PUSH20 0x37BB9C718F3F7FE5ECBDB0B600D607B52706776 GAS STATICCALL SWAP2 DUP3 ISZERO PUSH2 0x80B JUMPI DUP4 SWAP3 PUSH2 0x7D3 JUMPI JUMPDEST PUSH1 0x20 DUP4 DUP4 MLOAD SWAP1 DUP2 MSTORE RETURN JUMPDEST SWAP1 SWAP2 POP PUSH1 0x20 DUP2 RETURNDATASIZE PUSH1 0x20 GT PUSH2 0x803 JUMPI JUMPDEST DUP2 PUSH2 0x7EF PUSH1 0x20 SWAP4 DUP4 PUSH2 0xF33 JUMP JUMPDEST DUP2 ADD SUB SLT PUSH2 0x655 JUMPI PUSH1 0x20 SWAP3 POP MLOAD SWAP1 CODESIZE PUSH2 0x7C9 JUMP JUMPDEST RETURNDATASIZE SWAP2 POP PUSH2 0x7E2 JUMP JUMPDEST DUP2 MLOAD RETURNDATASIZE DUP6 DUP3 RETURNDATACOPY RETURNDATASIZE SWAP1 REVERT JUMPDEST POP PUSH1 0x20 SWAP3 DUP4 PUSH1 0x3 NOT CALLDATASIZE ADD SLT PUSH2 0x6A5 JUMPI PUSH8 0xFFFFFFFFFFFFFFFF SWAP3 DUP1 CALLDATALOAD DUP5 DUP2 GT PUSH2 0x655 JUMPI CALLDATASIZE PUSH1 0x23 DUP3 ADD SLT ISZERO PUSH2 0x655 JUMPI DUP1 DUP3 ADD CALLDATALOAD DUP6 DUP2 GT PUSH2 0x651 JUMPI PUSH1 0x24 SWAP2 DUP3 DUP2 ADD CALLDATASIZE DUP5 DUP5 DUP5 ADD ADD GT PUSH2 0xE11 JUMPI DUP7 MLOAD SWAP8 PUSH32 0x47697665206120636F6E636973652C2065766964656E63652D62617365642068 DUP11 DUP11 ADD MSTORE PUSH17 0x32B0B63A34103A34B81030B137BABA1D1 PUSH1 0x7D SHL DUP9 DUP11 ADD MSTORE DUP4 DUP3 PUSH1 0x51 DUP12 ADD CALLDATACOPY PUSH2 0x90C PUSH1 0x88 DUP11 DUP7 DUP2 ADD PUSH2 0x171 PUSH1 0xF5 SHL PUSH1 0x51 DUP3 ADD MSTORE PUSH32 0x4B65657020697420746F20312D322073656E74656E6365732E20446F206E6F74 PUSH1 0x53 DUP3 ADD MSTORE PUSH21 0x1034B731B63AB232903234B9B1B630B4B6B2B93997 PUSH1 0x59 SHL PUSH1 0x73 DUP3 ADD MSTORE SUB PUSH1 0x68 DUP2 ADD DUP13 MSTORE ADD DUP11 PUSH2 0xF33 JUMP JUMPDEST DUP8 MLOAD SWAP1 DUP11 DUP3 ADD SWAP1 DUP2 GT DUP3 DUP3 LT OR PUSH2 0xDFF JUMPI SWAP9 DUP10 DUP9 DUP11 SWAP4 PUSH2 0x94D SWAP13 DUP6 MSTORE DUP2 DUP2 MSTORE DUP14 DUP6 MLOAD SWAP14 DUP15 SWAP6 PUSH4 0x1FCF9413 PUSH1 0xE3 SHL DUP4 DUP9 ADD MSTORE PUSH1 0x80 DUP13 DUP9 ADD MSTORE PUSH1 0xA4 DUP8 ADD SWAP1 PUSH2 0x105A JUMP JUMPDEST PUSH32 0x6E742070726F766964696E672061636375726174652C2065766964656E63652D DUP7 DUP3 SUB SWAP8 PUSH1 0x23 NOT DUP10 ADD PUSH1 0x44 DUP10 ADD MSTORE PUSH1 0x52 DUP4 MSTORE PUSH32 0x596F752061726520612068656C7066756C206865616C74682061737369737461 DUP5 DUP5 ADD MSTORE DUP3 ADD MSTORE PUSH18 0x3130B9B2B2103432B0B63A34103A34B83997 PUSH1 0x71 SHL PUSH1 0x60 DUP3 ADD MSTORE PUSH1 0x80 DUP2 ADD SWAP3 PUSH1 0x5C PUSH1 0x1 SWAP9 DUP10 PUSH1 0x64 DUP11 ADD MSTORE ADD PUSH1 0x84 DUP9 ADD MSTORE MLOAD DUP1 SWAP4 MSTORE PUSH1 0xA0 DUP2 ADD SWAP1 DUP8 PUSH1 0xA0 DUP6 PUSH1 0x5 SHL DUP4 ADD ADD SWAP7 SWAP6 SWAP4 JUMPDEST DUP6 DUP6 LT PUSH2 0xDCC JUMPI POP POP POP POP POP POP POP SUB SWAP3 PUSH2 0xA12 PUSH1 0x1F NOT SWAP5 DUP6 DUP2 ADD DUP13 MSTORE DUP12 PUSH2 0xF33 JUMP JUMPDEST DUP9 MLOAD PUSH4 0xFFEB17D PUSH1 0xE1 SHL DUP2 MSTORE SWAP10 PUSH20 0x37BB9C718F3F7FE5ECBDB0B600D607B52706776 DUP13 DUP13 DUP11 DUP2 DUP5 GAS STATICCALL SWAP12 DUP13 ISZERO PUSH2 0xDC2 JUMPI DUP11 SWAP13 PUSH2 0xD93 JUMPI JUMPDEST POP DUP12 CALLVALUE LT PUSH2 0xD59 JUMPI DUP11 MLOAD PUSH4 0x45DE5DF1 PUSH1 0xE1 SHL DUP2 MSTORE PUSH8 0xB24AC1AFBCEFC708 DUP2 DUP12 ADD MSTORE ADDRESS DUP2 DUP11 ADD MSTORE PUSH4 0xA71EDBB9 PUSH1 0xE0 SHL PUSH1 0x44 DUP3 ADD MSTORE PUSH1 0x80 PUSH1 0x64 DUP3 ADD MSTORE SWAP12 SWAP8 SWAP7 SWAP6 SWAP5 SWAP4 SWAP3 SWAP2 DUP14 SWAP2 DUP14 SWAP2 DUP3 SWAP1 DUP12 SWAP1 DUP3 SWAP1 PUSH2 0xAA3 SWAP1 PUSH1 0x84 DUP4 ADD SWAP1 PUSH2 0x105A JUMP JUMPDEST SUB SWAP3 GAS CALL SWAP11 DUP12 ISZERO PUSH2 0xD4F JUMPI DUP10 SWAP12 PUSH2 0xD20 JUMPI JUMPDEST POP DUP9 SLOAD SWAP1 PUSH9 0x10000000000000000 SWAP2 DUP3 DUP2 LT ISZERO PUSH2 0xD0E JUMPI DUP1 DUP5 PUSH2 0xADA SWAP3 ADD DUP13 SSTORE PUSH2 0xE62 JUMP JUMPDEST SWAP2 SWAP1 SWAP2 PUSH2 0xCFD JUMPI DUP7 DUP15 DUP10 SWAP3 PUSH2 0xAF9 DUP4 PUSH2 0xAF3 DUP8 SLOAD PUSH2 0xEF9 JUMP JUMPDEST DUP8 PUSH2 0x122E JUMP JUMPDEST DUP14 DUP1 SWAP3 PUSH1 0x1F DUP6 GT PUSH1 0x1 EQ PUSH2 0xC8F JUMPI POP SWAP2 PUSH2 0xB2A SWAP5 SWAP2 DUP5 PUSH2 0xC82 JUMPI JUMPDEST POP POP POP DUP2 PUSH1 0x1 SHL SWAP2 PUSH1 0x0 NOT SWAP1 PUSH1 0x3 SHL SHR NOT AND OR SWAP1 JUMP JUMPDEST SWAP1 SSTORE JUMPDEST DUP2 SLOAD SWAP1 DUP2 LT ISZERO PUSH2 0xC70 JUMPI DUP1 DUP3 PUSH2 0xB45 SWAP3 ADD DUP4 SSTORE PUSH2 0xEAC JUMP JUMPDEST PUSH2 0xC5F JUMPI DUP1 DUP1 DUP14 DUP12 PUSH2 0xB59 PUSH1 0x0 SWAP6 SLOAD PUSH2 0xEF9 JUMP JUMPDEST SWAP2 PUSH1 0x1F DUP4 GT PUSH2 0xC3F JUMPI JUMPDEST POP POP POP POP SSTORE SLOAD PUSH1 0x0 NOT DUP2 ADD SWAP1 DUP2 GT PUSH2 0xC2D JUMPI DUP11 PUSH32 0x7A42DD8A2EC4A9E4BDBAC32E23B2EA523F8BEAB7DDB5E44BD58EFB41AAE0B6A2 SWAP4 PUSH1 0x1F DUP7 DUP1 DUP15 SWAP9 SWAP7 DUP15 SWAP7 DUP8 DUP16 DUP13 DUP2 MSTORE PUSH1 0x2 DUP10 MSTORE KECCAK256 SSTORE DUP7 MLOAD SWAP8 DUP7 DUP10 SWAP8 DUP9 MSTORE DUP8 ADD MSTORE DUP7 DUP7 ADD CALLDATACOPY DUP12 DUP6 DUP3 DUP7 ADD ADD MSTORE ADD AND DUP2 ADD SUB ADD SWAP1 LOG2 DUP2 CALLVALUE GT PUSH2 0xBDC JUMPI JUMPDEST POP POP POP POP MLOAD SWAP1 DUP2 MSTORE RETURN JUMPDEST DUP2 CALLVALUE SUB SWAP3 CALLVALUE DUP5 GT PUSH2 0xC1C JUMPI POP POP DUP3 DUP1 DUP1 SWAP4 DUP2 SWAP4 DUP3 SWAP1 CALLVALUE EQ PUSH2 0xC13 JUMPI JUMPDEST CALLER SWAP1 CALL ISZERO PUSH2 0xC08 JUMPI DUP1 DUP1 DUP1 PUSH2 0xBD2 JUMP JUMPDEST SWAP1 MLOAD SWAP1 RETURNDATASIZE SWAP1 DUP3 RETURNDATACOPY RETURNDATASIZE SWAP1 REVERT JUMPDEST POP PUSH2 0x8FC PUSH2 0xBF8 JUMP JUMPDEST PUSH4 0x4E487B71 PUSH1 0xE0 SHL DUP6 MSTORE PUSH1 0x11 SWAP1 MSTORE DUP4 REVERT JUMPDEST PUSH4 0x4E487B71 PUSH1 0xE0 SHL DUP9 MSTORE PUSH1 0x11 DUP8 MSTORE DUP5 DUP9 REVERT JUMPDEST PUSH2 0xC56 SWAP4 PUSH1 0x1F SWAP3 MSTORE DUP14 KECCAK256 SWAP2 ADD PUSH1 0x5 SHR DUP2 ADD SWAP1 PUSH2 0x1217 JUMP JUMPDEST DUP1 CODESIZE DUP12 DUP16 PUSH2 0xB63 JUMP JUMPDEST PUSH4 0x4E487B71 PUSH1 0xE0 SHL DUP10 MSTORE DUP9 DUP9 MSTORE DUP6 DUP10 REVERT JUMPDEST PUSH4 0x4E487B71 PUSH1 0xE0 SHL DUP10 MSTORE PUSH1 0x41 DUP9 MSTORE DUP6 DUP10 REVERT JUMPDEST ADD ADD CALLDATALOAD SWAP1 POP DUP10 CODESIZE DUP1 PUSH2 0xB14 JUMP JUMPDEST DUP11 DUP6 SWAP3 SWAP7 SWAP5 SWAP4 SWAP6 AND SWAP1 DUP8 DUP8 MSTORE DUP1 DUP8 KECCAK256 SWAP7 SWAP1 JUMPDEST DUP11 DUP4 DUP4 LT PUSH2 0xCDE JUMPI POP POP POP LT PUSH2 0xCC2 JUMPI JUMPDEST POP POP POP POP DUP3 DUP7 DUP2 SHL ADD SWAP1 SSTORE PUSH2 0xB2D JUMP JUMPDEST PUSH1 0x0 NOT PUSH1 0xF8 DUP12 PUSH1 0x3 SHL AND SHR NOT SWAP3 ADD ADD CALLDATALOAD AND SWAP1 SSTORE CODESIZE DUP1 DUP9 DUP2 PUSH2 0xCB2 JUMP JUMPDEST DUP8 DUP7 ADD SWAP1 SWAP7 ADD CALLDATALOAD DUP9 SSTORE SWAP7 SWAP1 SWAP5 ADD SWAP6 DUP14 SWAP5 SWAP4 DUP2 ADD SWAP4 DUP14 SWAP4 POP DUP2 ADD SWAP1 PUSH2 0xCA1 JUMP JUMPDEST PUSH4 0x4E487B71 PUSH1 0xE0 SHL DUP12 MSTORE DUP11 DUP11 MSTORE DUP8 DUP12 REVERT JUMPDEST PUSH4 0x4E487B71 PUSH1 0xE0 SHL DUP12 MSTORE PUSH1 0x41 DUP11 MSTORE DUP8 DUP12 REVERT JUMPDEST SWAP1 SWAP11 POP DUP12 DUP2 DUP2 RETURNDATASIZE DUP4 GT PUSH2 0xD48 JUMPI JUMPDEST PUSH2 0xD38 DUP2 DUP4 PUSH2 0xF33 JUMP JUMPDEST DUP2 ADD SUB SLT PUSH2 0x649 JUMPI MLOAD SWAP10 CODESIZE PUSH2 0xAB5 JUMP JUMPDEST POP RETURNDATASIZE PUSH2 0xD2E JUMP JUMPDEST DUP11 MLOAD RETURNDATASIZE DUP12 DUP3 RETURNDATACOPY RETURNDATASIZE SWAP1 REVERT JUMPDEST POP DUP10 MLOAD PUSH3 0x461BCD PUSH1 0xE5 SHL DUP2 MSTORE DUP1 DUP10 ADD DUP14 SWAP1 MSTORE PUSH1 0x14 DUP2 DUP10 ADD MSTORE PUSH20 0x125B9CDD59999A58DA595B9D0819195C1BDCDA5D PUSH1 0x62 SHL PUSH1 0x44 DUP3 ADD MSTORE PUSH1 0x64 SWAP1 REVERT JUMPDEST SWAP1 SWAP12 POP DUP13 DUP2 DUP2 RETURNDATASIZE DUP4 GT PUSH2 0xDBB JUMPI JUMPDEST PUSH2 0xDAB DUP2 DUP4 PUSH2 0xF33 JUMP JUMPDEST DUP2 ADD SUB SLT PUSH2 0x645 JUMPI MLOAD SWAP11 CODESIZE PUSH2 0xA49 JUMP JUMPDEST POP RETURNDATASIZE PUSH2 0xDA1 JUMP JUMPDEST DUP12 MLOAD RETURNDATASIZE DUP13 DUP3 RETURNDATACOPY RETURNDATASIZE SWAP1 REVERT JUMPDEST SWAP2 SWAP4 SWAP6 SWAP8 POP SWAP2 SWAP4 SWAP6 PUSH2 0xDE9 DUP3 SWAP2 PUSH1 0x9F NOT DUP7 DUP3 SUB ADD DUP8 MSTORE DUP10 MLOAD PUSH2 0x105A JUMP JUMPDEST SWAP8 ADD SWAP4 ADD SWAP4 ADD SWAP1 SWAP3 DUP16 SWAP4 DUP16 SWAP7 SWAP6 SWAP4 SWAP5 DUP9 SWAP1 PUSH2 0x9F0 JUMP JUMPDEST PUSH4 0x4E487B71 PUSH1 0xE0 SHL DUP9 MSTORE PUSH1 0x41 DUP8 MSTORE DUP6 DUP9 REVERT JUMPDEST DUP6 DUP1 REVERT JUMPDEST DUP4 DUP3 CALLVALUE PUSH2 0x6FF JUMPI DUP2 PUSH1 0x3 NOT CALLDATASIZE ADD SLT PUSH2 0x6FF JUMPI PUSH1 0x20 SWAP1 MLOAD PUSH8 0xB24AC1AFBCEFC708 DUP2 MSTORE RETURN JUMPDEST POP SWAP1 CALLVALUE PUSH2 0x655 JUMPI PUSH1 0x20 CALLDATASIZE PUSH1 0x3 NOT ADD SLT PUSH2 0x655 JUMPI CALLDATALOAD SWAP2 DUP1 SLOAD DUP4 LT ISZERO PUSH2 0x6A5 JUMPI POP PUSH2 0x68E PUSH2 0x688 PUSH2 0x6A1 SWAP4 JUMPDEST SWAP1 PUSH1 0x0 SWAP2 DUP3 SLOAD DUP2 LT ISZERO PUSH2 0xE98 JUMPI DUP3 DUP1 MSTORE PUSH32 0x290DECD9548B62A8D60345A988386FC84BA6BC95484008F6362F93160EF3E563 ADD SWAP2 SWAP1 JUMP JUMPDEST PUSH4 0x4E487B71 PUSH1 0xE0 SHL DUP4 MSTORE PUSH1 0x32 PUSH1 0x4 MSTORE PUSH1 0x24 DUP4 REVERT JUMPDEST PUSH1 0x1 SLOAD DUP2 LT ISZERO PUSH2 0xEE3 JUMPI PUSH1 0x1 PUSH1 0x0 MSTORE PUSH32 0xB10E2D527612073B26EECDFD717E6A320CF44B4AFAC2B0732D9FCBE2B7FA0CF6 ADD SWAP1 PUSH1 0x0 SWAP1 JUMP JUMPDEST PUSH4 0x4E487B71 PUSH1 0xE0 SHL PUSH1 0x0 MSTORE PUSH1 0x32 PUSH1 0x4 MSTORE PUSH1 0x24 PUSH1 0x0 REVERT JUMPDEST SWAP1 PUSH1 0x1 DUP3 DUP2 SHR SWAP3 AND DUP1 ISZERO PUSH2 0xF29 JUMPI JUMPDEST PUSH1 0x20 DUP4 LT EQ PUSH2 0xF13 JUMPI JUMP JUMPDEST PUSH4 0x4E487B71 PUSH1 0xE0 SHL PUSH1 0x0 MSTORE PUSH1 0x22 PUSH1 0x4 MSTORE PUSH1 0x24 PUSH1 0x0 REVERT JUMPDEST SWAP2 PUSH1 0x7F AND SWAP2 PUSH2 0xF08 JUMP JUMPDEST SWAP1 PUSH1 0x1F DUP1 NOT SWAP2 ADD AND DUP2 ADD SWAP1 DUP2 LT PUSH8 0xFFFFFFFFFFFFFFFF DUP3 GT OR PUSH2 0xF55 JUMPI PUSH1 0x40 MSTORE JUMP JUMPDEST PUSH4 0x4E487B71 PUSH1 0xE0 SHL PUSH1 0x0 MSTORE PUSH1 0x41 PUSH1 0x4 MSTORE PUSH1 0x24 PUSH1 0x0 REVERT JUMPDEST SWAP1 PUSH1 0x40 MLOAD SWAP2 DUP3 PUSH1 0x0 DUP3 SLOAD PUSH2 0xF7E DUP2 PUSH2 0xEF9 JUMP JUMPDEST SWAP1 DUP2 DUP5 MSTORE PUSH1 0x20 SWAP5 PUSH1 0x1 SWAP2 PUSH1 0x1 DUP2 AND SWAP1 DUP2 PUSH1 0x0 EQ PUSH2 0xFEE JUMPI POP PUSH1 0x1 EQ PUSH2 0xFAF JUMPI JUMPDEST POP POP POP PUSH2 0xFAD SWAP3 POP SUB DUP4 PUSH2 0xF33 JUMP JUMPDEST JUMP JUMPDEST PUSH1 0x0 SWAP1 DUP2 MSTORE DUP6 DUP2 KECCAK256 SWAP6 SWAP4 POP SWAP2 SWAP1 JUMPDEST DUP2 DUP4 LT PUSH2 0xFD6 JUMPI POP POP PUSH2 0xFAD SWAP4 POP DUP3 ADD ADD CODESIZE DUP1 DUP1 PUSH2 0xF9E JUMP JUMPDEST DUP6 SLOAD DUP9 DUP5 ADD DUP6 ADD MSTORE SWAP5 DUP6 ADD SWAP5 DUP8 SWAP5 POP SWAP2 DUP4 ADD SWAP2 PUSH2 0xFBD JUMP JUMPDEST SWAP3 POP POP POP PUSH2 0xFAD SWAP5 SWAP3 POP PUSH1 0xFF NOT AND DUP3 DUP5 ADD MSTORE ISZERO ISZERO PUSH1 0x5 SHL DUP3 ADD ADD CODESIZE DUP1 DUP1 PUSH2 0xF9E JUMP JUMPDEST SWAP1 PUSH2 0x1021 JUMPI PUSH2 0x101E SWAP1 PUSH2 0xF6B JUMP JUMPDEST SWAP1 JUMP JUMPDEST PUSH4 0x4E487B71 PUSH1 0xE0 SHL PUSH1 0x0 MSTORE PUSH1 0x0 PUSH1 0x4 MSTORE PUSH1 0x24 PUSH1 0x0 REVERT JUMPDEST PUSH1 0x0 JUMPDEST DUP4 DUP2 LT PUSH2 0x104A JUMPI POP POP PUSH1 0x0 SWAP2 ADD MSTORE JUMP JUMPDEST DUP2 DUP2 ADD MLOAD DUP4 DUP3 ADD MSTORE PUSH1 0x20 ADD PUSH2 0x103A JUMP JUMPDEST SWAP1 PUSH1 0x20 SWAP2 PUSH2 0x1073 DUP2 MLOAD DUP1 SWAP3 DUP2 DUP6 MSTORE DUP6 DUP1 DUP7 ADD SWAP2 ADD PUSH2 0x1037 JUMP JUMPDEST PUSH1 0x1F ADD PUSH1 0x1F NOT AND ADD ADD SWAP1 JUMP JUMPDEST PUSH8 0xFFFFFFFFFFFFFFFF DUP2 GT PUSH2 0xF55 JUMPI PUSH1 0x5 SHL PUSH1 0x20 ADD SWAP1 JUMP JUMPDEST CALLDATALOAD SWAP1 PUSH1 0x1 PUSH1 0x1 PUSH1 0xA0 SHL SUB DUP3 AND DUP3 SUB PUSH2 0x10AB JUMPI JUMP JUMPDEST PUSH1 0x0 DUP1 REVERT JUMPDEST PUSH8 0xFFFFFFFFFFFFFFFF DUP2 GT PUSH2 0xF55 JUMPI PUSH1 0x1F ADD PUSH1 0x1F NOT AND PUSH1 0x20 ADD SWAP1 JUMP JUMPDEST SWAP1 DUP1 PUSH1 0x1F DUP4 ADD SLT ISZERO PUSH2 0x10AB JUMPI PUSH1 0x20 SWAP1 DUP3 CALLDATALOAD PUSH2 0x10E6 DUP2 PUSH2 0x107F JUMP JUMPDEST SWAP4 PUSH1 0x40 SWAP1 PUSH2 0x10F6 DUP3 MLOAD SWAP7 DUP8 PUSH2 0xF33 JUMP JUMPDEST DUP3 DUP7 MSTORE DUP5 DUP7 ADD SWAP2 DUP6 PUSH1 0x5 SWAP5 PUSH1 0x5 SHL DUP4 ADD ADD SWAP4 DUP6 DUP6 GT PUSH2 0x10AB JUMPI DUP7 DUP4 ADD SWAP4 JUMPDEST DUP6 DUP6 LT PUSH2 0x1126 JUMPI POP POP POP POP POP POP POP POP SWAP1 JUMP JUMPDEST PUSH8 0xFFFFFFFFFFFFFFFF DUP6 CALLDATALOAD DUP2 DUP2 GT PUSH2 0x10AB JUMPI DUP6 ADD PUSH1 0xC0 DUP1 PUSH1 0x1F NOT DUP4 DUP13 SUB ADD SLT PUSH2 0x10AB JUMPI DUP6 MLOAD SWAP3 DUP2 DUP5 ADD DUP5 DUP2 LT DUP3 DUP3 GT OR PUSH2 0x1202 JUMPI DUP8 MSTORE PUSH2 0x1167 DUP13 DUP5 ADD PUSH2 0x1097 JUMP JUMPDEST DUP5 MSTORE DUP7 DUP4 ADD CALLDATALOAD SWAP1 DUP2 GT PUSH2 0x10AB JUMPI DUP3 ADD SWAP2 DUP11 PUSH1 0x3F DUP5 ADD SLT ISZERO PUSH2 0x10AB JUMPI DUP12 DUP4 ADD CALLDATALOAD PUSH2 0x118F DUP2 PUSH2 0x10B0 JUMP JUMPDEST SWAP1 PUSH2 0x119C DUP10 MLOAD SWAP3 DUP4 PUSH2 0xF33 JUMP JUMPDEST DUP1 DUP3 MSTORE DUP13 DUP10 DUP3 DUP8 ADD ADD GT PUSH2 0x10AB JUMPI DUP1 DUP10 DUP16 SWAP7 ADD DUP7 DUP5 ADD CALLDATACOPY PUSH1 0x0 SWAP5 DUP6 SWAP2 DUP4 ADD ADD MSTORE DUP13 DUP6 ADD MSTORE PUSH1 0x60 SWAP3 DUP4 DUP3 ADD CALLDATALOAD SWAP1 DUP8 DUP3 LT ISZERO PUSH2 0x6A5 JUMPI POP DUP8 DUP6 ADD MSTORE PUSH1 0x80 DUP1 DUP3 ADD CALLDATALOAD SWAP4 DUP6 ADD SWAP4 SWAP1 SWAP4 MSTORE PUSH1 0xA0 DUP1 DUP3 ADD CALLDATALOAD SWAP4 DUP6 ADD SWAP4 SWAP1 SWAP4 MSTORE ADD CALLDATALOAD SWAP1 DUP3 ADD MSTORE DUP2 MSTORE SWAP4 DUP8 ADD SWAP4 DUP8 ADD PUSH2 0x1114 JUMP JUMPDEST PUSH1 0x24 PUSH1 0x0 PUSH4 0x4E487B71 PUSH1 0xE0 SHL DUP2 MSTORE PUSH1 0x41 PUSH1 0x4 MSTORE REVERT JUMPDEST DUP2 DUP2 LT PUSH2 0x1222 JUMPI POP POP JUMP JUMPDEST PUSH1 0x0 DUP2 SSTORE PUSH1 0x1 ADD PUSH2 0x1217 JUMP JUMPDEST SWAP2 SWAP1 PUSH1 0x1F DUP2 GT PUSH2 0x123D JUMPI POP POP POP JUMP JUMPDEST PUSH2 0xFAD SWAP3 PUSH1 0x0 MSTORE PUSH1 0x20 PUSH1 0x0 KECCAK256 SWAP1 PUSH1 0x20 PUSH1 0x1F DUP5 ADD PUSH1 0x5 SHR DUP4 ADD SWAP4 LT PUSH2 0x1269 JUMPI JUMPDEST PUSH1 0x1F ADD PUSH1 0x5 SHR ADD SWAP1 PUSH2 0x1217 JUMP JUMPDEST SWAP1 SWAP2 POP DUP2 SWAP1 PUSH2 0x125C JUMP INVALID LOG2 PUSH5 0x6970667358 0x22 SLT KECCAK256 0xCB 0xE5 0xEE SWAP12 0xB1 CREATE2 0xD2 EXTCODECOPY RETURNDATACOPY DUP2 PUSH8 0x14B4B00A4741B4AA 0xCA STATICCALL PUSH14 0xB7073208C2FECF18A18A64736F6C PUSH4 0x43000818 STOP CALLER "},"methodIdentifiers":{"LLM_AGENT_ID()":"2e90c1a9","PLATFORM()":"7efc77fa","getHealthTip(string)":"566d8db4","getRequiredDeposit()":"58e56db4","getTip(uint256)":"5b703f5c","getTipCount()":"7dc1a64f","handleTip(uint256,(address,bytes,uint8,uint256,uint256,uint256)[],uint8,(uint256,address,address,bytes4,address[],(address,bytes,uint8,uint256,uint256,uint256)[],uint256,uint256,uint256,uint256,uint256,uint8,uint8,uint256))":"a71edbb9","requestToTipIndex(uint256)":"90e82784","tips(uint256)":"a5c68c59","topics(uint256)":"18d9adab"}}}}}