{"contracts/SentimentAnalyzer.sol":{"SentimentAnalyzer":{"abi":[{"anonymous":false,"inputs":[{"indexed":true,"internalType":"uint256","name":"requestId","type":"uint256"},{"indexed":false,"internalType":"enum ResponseStatus","name":"status","type":"uint8"}],"name":"AnalysisFailed","type":"event"},{"anonymous":false,"inputs":[{"indexed":true,"internalType":"uint256","name":"requestId","type":"uint256"},{"indexed":false,"internalType":"string","name":"classification","type":"string"}],"name":"ClassificationReceived","type":"event"},{"anonymous":false,"inputs":[{"indexed":true,"internalType":"uint256","name":"requestId","type":"uint256"},{"indexed":false,"internalType":"string","name":"text","type":"string"}],"name":"ClassificationRequested","type":"event"},{"anonymous":false,"inputs":[{"indexed":true,"internalType":"uint256","name":"requestId","type":"uint256"},{"indexed":false,"internalType":"int256","name":"score","type":"int256"}],"name":"ScoreReceived","type":"event"},{"anonymous":false,"inputs":[{"indexed":true,"internalType":"uint256","name":"requestId","type":"uint256"},{"indexed":false,"internalType":"string","name":"text","type":"string"}],"name":"ScoreRequested","type":"event"},{"inputs":[],"name":"LLM_AGENT_ID","outputs":[{"internalType":"uint256","name":"","type":"uint256"}],"stateMutability":"view","type":"function"},{"inputs":[],"name":"PLATFORM","outputs":[{"internalType":"contract IAgentRequester","name":"","type":"address"}],"stateMutability":"view","type":"function"},{"inputs":[{"internalType":"uint256","name":"","type":"uint256"}],"name":"analyses","outputs":[{"internalType":"string","name":"inputText","type":"string"},{"internalType":"string","name":"classification","type":"string"},{"internalType":"int256","name":"score","type":"int256"},{"internalType":"enum SentimentAnalyzer.AnalysisType","name":"analysisType","type":"uint8"},{"internalType":"uint256","name":"timestamp","type":"uint256"},{"internalType":"bool","name":"completed","type":"bool"}],"stateMutability":"view","type":"function"},{"inputs":[{"internalType":"string","name":"text","type":"string"}],"name":"classifySentiment","outputs":[{"internalType":"uint256","name":"requestId","type":"uint256"}],"stateMutability":"payable","type":"function"},{"inputs":[{"internalType":"uint256","name":"requestId","type":"uint256"}],"name":"getAnalysis","outputs":[{"components":[{"internalType":"string","name":"inputText","type":"string"},{"internalType":"string","name":"classification","type":"string"},{"internalType":"int256","name":"score","type":"int256"},{"internalType":"enum SentimentAnalyzer.AnalysisType","name":"analysisType","type":"uint8"},{"internalType":"uint256","name":"timestamp","type":"uint256"},{"internalType":"bool","name":"completed","type":"bool"}],"internalType":"struct SentimentAnalyzer.Analysis","name":"","type":"tuple"}],"stateMutability":"view","type":"function"},{"inputs":[],"name":"getRequiredDeposit","outputs":[{"internalType":"uint256","name":"","type":"uint256"}],"stateMutability":"view","type":"function"},{"inputs":[{"internalType":"uint256","name":"requestId","type":"uint256"},{"components":[{"internalType":"address","name":"validator","type":"address"},{"internalType":"bytes","name":"result","type":"bytes"},{"internalType":"enum ResponseStatus","name":"status","type":"uint8"},{"internalType":"uint256","name":"receipt","type":"uint256"},{"internalType":"uint256","name":"timestamp","type":"uint256"},{"internalType":"uint256","name":"executionCost","type":"uint256"}],"internalType":"struct Response[]","name":"responses","type":"tuple[]"},{"internalType":"enum ResponseStatus","name":"status","type":"uint8"},{"components":[{"internalType":"uint256","name":"id","type":"uint256"},{"internalType":"address","name":"requester","type":"address"},{"internalType":"address","name":"callbackAddress","type":"address"},{"internalType":"bytes4","name":"callbackSelector","type":"bytes4"},{"internalType":"address[]","name":"subcommittee","type":"address[]"},{"components":[{"internalType":"address","name":"validator","type":"address"},{"internalType":"bytes","name":"result","type":"bytes"},{"internalType":"enum ResponseStatus","name":"status","type":"uint8"},{"internalType":"uint256","name":"receipt","type":"uint256"},{"internalType":"uint256","name":"timestamp","type":"uint256"},{"internalType":"uint256","name":"executionCost","type":"uint256"}],"internalType":"struct Response[]","name":"responses","type":"tuple[]"},{"internalType":"uint256","name":"responseCount","type":"uint256"},{"internalType":"uint256","name":"failureCount","type":"uint256"},{"internalType":"uint256","name":"threshold","type":"uint256"},{"internalType":"uint256","name":"createdAt","type":"uint256"},{"internalType":"uint256","name":"deadline","type":"uint256"},{"internalType":"enum ResponseStatus","name":"status","type":"uint8"},{"internalType":"enum ConsensusType","name":"consensusType","type":"uint8"},{"internalType":"uint256","name":"remainingBudget","type":"uint256"}],"internalType":"struct Request","name":"","type":"tuple"}],"name":"handleClassification","outputs":[],"stateMutability":"nonpayable","type":"function"},{"inputs":[{"internalType":"uint256","name":"requestId","type":"uint256"},{"components":[{"internalType":"address","name":"validator","type":"address"},{"internalType":"bytes","name":"result","type":"bytes"},{"internalType":"enum ResponseStatus","name":"status","type":"uint8"},{"internalType":"uint256","name":"receipt","type":"uint256"},{"internalType":"uint256","name":"timestamp","type":"uint256"},{"internalType":"uint256","name":"executionCost","type":"uint256"}],"internalType":"struct Response[]","name":"responses","type":"tuple[]"},{"internalType":"enum ResponseStatus","name":"status","type":"uint8"},{"components":[{"internalType":"uint256","name":"id","type":"uint256"},{"internalType":"address","name":"requester","type":"address"},{"internalType":"address","name":"callbackAddress","type":"address"},{"internalType":"bytes4","name":"callbackSelector","type":"bytes4"},{"internalType":"address[]","name":"subcommittee","type":"address[]"},{"components":[{"internalType":"address","name":"validator","type":"address"},{"internalType":"bytes","name":"result","type":"bytes"},{"internalType":"enum ResponseStatus","name":"status","type":"uint8"},{"internalType":"uint256","name":"receipt","type":"uint256"},{"internalType":"uint256","name":"timestamp","type":"uint256"},{"internalType":"uint256","name":"executionCost","type":"uint256"}],"internalType":"struct Response[]","name":"responses","type":"tuple[]"},{"internalType":"uint256","name":"responseCount","type":"uint256"},{"internalType":"uint256","name":"failureCount","type":"uint256"},{"internalType":"uint256","name":"threshold","type":"uint256"},{"internalType":"uint256","name":"createdAt","type":"uint256"},{"internalType":"uint256","name":"deadline","type":"uint256"},{"internalType":"enum ResponseStatus","name":"status","type":"uint8"},{"internalType":"enum ConsensusType","name":"consensusType","type":"uint8"},{"internalType":"uint256","name":"remainingBudget","type":"uint256"}],"internalType":"struct Request","name":"","type":"tuple"}],"name":"handleScore","outputs":[],"stateMutability":"nonpayable","type":"function"},{"inputs":[],"name":"latestClassification","outputs":[{"internalType":"string","name":"","type":"string"}],"stateMutability":"view","type":"function"},{"inputs":[],"name":"latestScore","outputs":[{"internalType":"int256","name":"","type":"int256"}],"stateMutability":"view","type":"function"},{"inputs":[{"internalType":"string","name":"text","type":"string"}],"name":"scoreSentiment","outputs":[{"internalType":"uint256","name":"requestId","type":"uint256"}],"stateMutability":"payable","type":"function"},{"stateMutability":"payable","type":"receive"}],"evm":{"bytecode":{"linkReferences":{},"object":"6080806040523461001657611c34908161001c8239f35b600080fdfe6080604052600436101561001b575b361561001957600080fd5b005b60003560e01c80631a1ace28146112505780632e90c1a91461122d5780633ed7722514610c5f5780635170b93414610b4657806358e56db414610abf5780636c9ac38a146109d85780637552b813146108df5780637efc77fa146108b05780639bd8cf2e1461015a578063af56cc72146100bc5763c6c1cd4d0361000e57346100b75760003660031901126100b7576020600254604051908152f35b600080fd5b346100b75760203660031901126100b757600435600052600060205261012c60406000206100e981611a9f565b906100f660018201611a9f565b60028201549161014a60ff60038301541661013a60ff60056004860154950154169460405198899860c08a5260c08a0190611a33565b9088820360208a0152611a33565b9460408701526060860190611a58565b6080840152151560a08301520390f35b610163366119c7565b90604051907f416e616c797a65207468652073656e74696d656e74206f662074686520666f6c60208301526c03637bbb4b733903a32bc3a171609d1b6040830152662a32bc3a1d101160c91b604d830152828160548401376101dc605583858101601160f91b6054820152036035810185520183611653565b60405192608084018481106001600160401b038211176106b9576040526003845260005b60608082101561021a579060209182828801015201610200565b5050926102e19260405161022d81611638565b60078152660c4ead8d8d2e6d60cb1b602082015261024a83611b93565b5261025482611b93565b5060405161026181611638565b60078152660c4cac2e4d2e6d60cb1b602082015261027e83611bb6565b5261028882611bb6565b5060405161029581611638565b60078152661b995d5d1c985b60ca1b60208201526102b283611bc6565b526102bc82611bc6565b50604051631fcf941360e31b60208201526080602482015293849160a4830190611a33565b9181830360231981016044840152603484527f596f752061726520612073656e74696d656e7420616e616c7973742e20436c6160208501527339b9b4b33c903a34329039b2b73a34b6b2b73a1760611b6040850152603c60608501916000606486015201608484015281518091526080840193602060808360051b8301019301946000915b83831061087f5750505050610384925003601f198101845283611653565b604051630ffeb17d60e11b815273037bb9c718f3f7fe5ecbdb0b600d607b5270677690602081600481855afa9081156107ca5760009161084d575b506702ea11e32ad5000081018091116108375734106107d6576040516345de5df160e11b815267b24ac1afbcefc708600482015230602482015263034359c560e31b60448201526080606482015292602091849182908190610425906084830190611a33565b039134905af19182156107ca57600092610796575b5060405161044781611602565b6104523685846116ba565b81526040516104608161161d565b6000815260208201526000604082015260006060820152426080820152600060a082015282600052600060205260406000209381518051906001600160401b0382116106b95781906104b28854611a65565b601f8111610746575b50602090601f83116001146106da576000926106cf575b50508160011b916000199060031b1c19161785555b60208201518051906001600160401b0382116106b957819061050c6001890154611a65565b601f8111610666575b50602090601f83116001146105f9576000926105ee575b50508160011b916000199060031b1c19161760018601555b60408201516002860155600385019260608301519260028410156105d857602096600560a06105be9389987f9d673ccd61e1e56c20887d3b8f72e6ce7e7b8a3df48af4dec704d46830a738c39860ff80198354169116179055608081015160048501550151151591019060ff801983541691151516179055565b6105cd60405192839283611bd6565b0390a2604051908152f35b634e487b7160e01b600052602160045260246000fd5b01519050878061052c565b600189016000908152602081209350601f198516905b81811061064e5750908460019594939210610635575b505050811b016001860155610544565b015160001960f88460031b161c19169055878080610625565b9293602060018192878601518155019501930161060f565b909150600188016000526020600020601f840160051c8101602085106106b2575b90849392915b601f830160051c820181106106a3575050610515565b6000815585945060010161068d565b5080610687565b634e487b7160e01b600052604160045260246000fd5b0151905087806104d2565b9250876000526020600020906000935b601f198416851061072b576001945083601f19811610610712575b505050811b0185556104e7565b015160001960f88460031b161c19169055878080610705565b818101518355602094850194600190930192909101906106ea565b909150876000526020600020601f840160051c81016020851061078f575b90849392915b601f830160051c820181106107805750506104bb565b6000815585945060010161076a565b5080610764565b9091506020813d6020116107c2575b816107b260209383611653565b810103126100b75751908361043a565b3d91506107a5565b6040513d6000823e3d90fd5b60405162461bcd60e51b815260206004820152603360248201527f4e65656420302e32342053545420746f74616c20286465706f736974202b20336044820152722076616c696461746f7273207820302e30372960681b6064820152608490fd5b634e487b7160e01b600052601160045260246000fd5b90506020813d602011610877575b8161086860209383611653565b810103126100b75751856103bf565b3d915061085b565b9193600191939550602061089e8192607f198682030187528951611a33565b97019301930190928794929593610366565b346100b75760003660031901126100b757602060405173037bb9c718f3f7fe5ecbdb0b600d607b527067768152f35b346100b7576108ed366117f4565b5061090d73037bb9c718f3f7fe5ecbdb0b600d607b527067763314611b44565b60058110156105d85760028114806109ce575b156109965750610931602091611b93565b5101516020818051810103126100b7576020807f034d74a9bbf999d62d688ddc4cff473536c0a792a81e4a8d158b16aa215af98592015183600052600082526005604060002082600282015501600160ff1982541617905580600255604051908152a2005b7f12741fa7fac2b8ed98f6279878746bb34936177209fa16187fcbe2e6e2ce566891506109c99060405191829182611b80565b0390a2005b5081511515610920565b346100b75760003660031901126100b7576040516000600182600154926109fe84611a65565b9283835260209485600182169182600014610a9f575050600114610a42575b50610a2a92500383611653565b610a3e604051928284938452830190611a33565b0390f35b84915060016000527fb10e2d527612073b26eecdfd717e6a320cf44b4afac2b0732d9fcbe2b7fa0cf6906000915b858310610a87575050610a2a935082010185610a1d565b80548389018501528794508693909201918101610a70565b60ff191685820152610a2a95151560051b8501019250879150610a1d9050565b346100b75760003660031901126100b757604051630ffeb17d60e11b815260208160048173037bb9c718f3f7fe5ecbdb0b600d607b527067765afa80156107ca57600090610b13575b602090604051908152f35b506020813d602011610b3e575b81610b2d60209383611653565b810103126100b75760209051610b08565b3d9150610b20565b346100b7576020806003193601126100b757600060a0604051610b6881611602565b60608152606084820152826040820152826060820152826080820152015260043560005260008152604060002060405190610ba282611602565b610bab81611a9f565b8252610bb960018201611a9f565b928083019384526002820154916040840192835260ff600382015416946060850160028710156105d857610c3b610c4d9260c0988352610c2860ff600560048801549760808c019889520154169660a08a0197151588526040519a8b9a828c5251918b015260e08a0190611a33565b9051888203601f190160408a0152611a33565b94516060870152516080860190611a58565b5160a084015251151560c08301520390f35b610c68366119c7565b90604051907f52617465207468652073656e74696d656e74206f6e2061207363616c65206f66602083015267010189698981817160c51b60408301527f31203d2065787472656d656c79206e656761746976652c203530203d206e657560488301527f7472616c2c20313030203d2065787472656d656c7920706f7369746976652e206068830152662a32bc3a1d101160c91b60888301528281608f840137610d28609083858101601160f91b608f820152036070810185520183611653565b610dc66060610d526040519463c6833c3d60e01b602087015260a0602487015260c4860190611a33565b713ab9371037b7363c903090373ab6b132b91760711b60408683039260231984016044890152603281527f596f752061726520612073656e74696d656e7420616e616c7973742e20526574602082015201526001606486015260646084860152600060a48601526040810185520183611653565b604051630ffeb17d60e11b815273037bb9c718f3f7fe5ecbdb0b600d607b5270677690602081600481855afa9081156107ca576000916111fb575b506702ea11e32ad5000081018091116108375734106111c0576040516345de5df160e11b815267b24ac1afbcefc7086004820152306024820152637552b81360e01b60448201526080606482015292602091849182908190610e67906084830190611a33565b039134905af19182156107ca5760009261118c575b50604051610e8981611602565b610e943685846116ba565b8152604051610ea28161161d565b6000815260208201526000604082015260016060820152426080820152600060a082015282600052600060205260406000209381518051906001600160401b0382116106b9578190610ef48854611a65565b601f811161113c575b50602090601f83116001146110d6576000926110cb575b50508160011b916000199060031b1c19161785555b60208201518051906001600160401b0382116106b9578190610f4e6001890154611a65565b601f8111611078575b50602090601f831160011461100b57600092611000575b50508160011b916000199060031b1c19161760018601555b60408201516002860155600385019260608301519260028410156105d857602096600560a06105be9389987f7fd82c485a7f5c847af195bb9dd92827c22a50caec68e7922be49c3ae5c7db979860ff80198354169116179055608081015160048501550151151591019060ff801983541691151516179055565b015190508780610f6e565b600189016000908152602081209350601f198516905b8181106110605750908460019594939210611047575b505050811b016001860155610f86565b015160001960f88460031b161c19169055878080611037565b92936020600181928786015181550195019301611021565b909150600188016000526020600020601f840160051c8101602085106110c4575b90849392915b601f830160051c820181106110b5575050610f57565b6000815585945060010161109f565b5080611099565b015190508780610f14565b6000898152602081209350601f198516905b818110611124575090846001959493921061110b575b505050811b018555610f29565b015160001960f88460031b161c191690558780806110fe565b929360206001819287860151815501950193016110e8565b909150876000526020600020601f840160051c810160208510611185575b90849392915b601f830160051c82018110611176575050610efd565b60008155859450600101611160565b508061115a565b9091506020813d6020116111b8575b816111a860209383611653565b810103126100b757519083610e7c565b3d915061119b565b60405162461bcd60e51b815260206004820152601360248201527213995959080c0b8c8d0814d515081d1bdd185b606a1b6044820152606490fd5b90506020813d602011611225575b8161121660209383611653565b810103126100b7575185610e01565b3d9150611209565b346100b75760003660031901126100b757602060405167b24ac1afbcefc7088152f35b346100b75761125e366117f4565b50919061128073037bb9c718f3f7fe5ecbdb0b600d607b527067763314611b44565b600590818410156105d85760028414806115f8575b156115c4576112a993506020938491611b93565b51015192835184019181858185019403126100b757818501516001600160401b03958682116100b7570183603f820112156100b757828101516112eb8161169f565b946112f96040519687611653565b818652604082840101116100b7576113179160408587019101611a10565b836000526000825260019081604060002001908451918783116106b95761133e8154611a65565b92601f93848111611580575b50808685821160011461151e57600091611513575b50600019600383901b1c191690851b1790555b8560005260008452806040600020018360ff1982541617905584519687116106b95761139e8354611a65565b908282116114b2575b5050829086116001146114135794807f70c9a38efb3947ac3e3105616f69840852d6a77722f2857a504d32b45731e14b9596600091611408575b50600019600383901b1c191690821b1790555b6109c9604051928284938452830190611a33565b9050840151876113e1565b601f19861690826000527fb10e2d527612073b26eecdfd717e6a320cf44b4afac2b0732d9fcbe2b7fa0cf69160005b81811061149d57509187917f70c9a38efb3947ac3e3105616f69840852d6a77722f2857a504d32b45731e14b9798859410611484575b5050811b0190556113f4565b86015160001960f88460031b161c191690558780611478565b86830151845592840192918501918501611442565b836000527fb10e2d527612073b26eecdfd717e6a320cf44b4afac2b0732d9fcbe2b7fa0cf69083808a01821c830193878b1061150a575b01901c019083905b8281106114fe57506113a7565b600081550183906114f1565b935082936114e9565b90508701518a61135f565b869250601f1982169084600052886000209160005b8a8c83831061156b575050508311611552575b5050811b019055611372565b89015160001960f88460031b161c191690558a80611546565b84015185558a96909401939283019201611533565b826000528660002085808401861c8201928985106115bb575b01851c019086905b8281106115af57505061134a565b600081550186906115a1565b92508192611599565b5050906109c97f12741fa7fac2b8ed98f6279878746bb34936177209fa16187fcbe2e6e2ce56689160405191829182611b80565b5080511515611295565b60c081019081106001600160401b038211176106b957604052565b602081019081106001600160401b038211176106b957604052565b604081019081106001600160401b038211176106b957604052565b90601f801991011681019081106001600160401b038211176106b957604052565b6001600160401b0381116106b95760051b60200190565b35906001600160a01b03821682036100b757565b6001600160401b0381116106b957601f01601f191660200190565b9291926116c68261169f565b916116d46040519384611653565b8294818452818301116100b7578281602093846000960137010152565b81601f820112156100b75780359160209161170b84611674565b9360409161171c6040519687611653565b818652848601918560059160051b830101948086116100b757868301935b86851061174c57505050505050505090565b6001600160401b0385358181116100b75785019160c09182601f1985870301126100b75788519061177c82611602565b6117878c860161168b565b8252898501359081116100b757840185603f820112156100b75785818b8e6117b294013591016116ba565b8b82015260608085013593878510156100b7578c9586958c850152608092838201359085015260a092838201359085015201359082015281520194019361173a565b60031991906080838201126100b75760048035936001600160401b0393916024358581116100b757846118289183016116f1565b9460443560058110156100b75794606435928284116100b7576101c0809585840301126100b757604051948501858110848211176119b2576040528381013585526118756024850161168b565b60209060208701526118896044860161168b565b604087015260648501356001600160e01b0319811681036100b757606087015260848501358481116100b757850190836023830112156100b75782820135916118d183611674565b926118df6040519485611653565b8084526024602085019160051b830101918683116100b757602401905b82821061199b5750505050608086015260a48401359283116100b757611924928401016116f1565b60a083015260c481013560c083015260e481013560e083015261010481013561010083015261012481013561012083015261014481013561014083015261016481013560058110156100b7576101608301526101848101359060028210156100b7576101a49161018084015201356101a082015290565b8380916119a78461168b565b8152019101906118fc565b604182634e487b7160e01b6000525260246000fd5b9060206003198301126100b7576004356001600160401b03928382116100b757806023830112156100b75781600401359384116100b757602484830101116100b7576024019190565b60005b838110611a235750506000910152565b8181015183820152602001611a13565b90602091611a4c81518092818552858086019101611a10565b601f01601f1916010190565b9060028210156105d85752565b90600182811c92168015611a95575b6020831014611a7f57565b634e487b7160e01b600052602260045260246000fd5b91607f1691611a74565b90604051918260008254611ab281611a65565b90818452602094600191600181169081600014611b225750600114611ae3575b505050611ae192500383611653565b565b600090815285812095935091905b818310611b0a575050611ae19350820101388080611ad2565b85548884018501529485019487945091830191611af1565b92505050611ae194925060ff191682840152151560051b820101388080611ad2565b15611b4b57565b60405162461bcd60e51b815260206004820152600d60248201526c4f6e6c7920706c6174666f726d60981b6044820152606490fd5b9190602083019260058210156105d85752565b805115611ba05760200190565b634e487b7160e01b600052603260045260246000fd5b805160011015611ba05760400190565b805160021015611ba05760600190565b90918060409360208452816020850152848401376000828201840152601f01601f191601019056fea2646970667358221220070bfdf8cb54381fca850c19bc5271f7284941688816722454fad53ea7fc991064736f6c63430008180033","opcodes":"PUSH1 0x80 DUP1 PUSH1 0x40 MSTORE CALLVALUE PUSH2 0x16 JUMPI PUSH2 0x1C34 SWAP1 DUP2 PUSH2 0x1C DUP3 CODECOPY RETURN JUMPDEST PUSH1 0x0 DUP1 REVERT INVALID PUSH1 0x80 PUSH1 0x40 MSTORE PUSH1 0x4 CALLDATASIZE LT ISZERO PUSH2 0x1B JUMPI JUMPDEST CALLDATASIZE ISZERO PUSH2 0x19 JUMPI PUSH1 0x0 DUP1 REVERT JUMPDEST STOP JUMPDEST PUSH1 0x0 CALLDATALOAD PUSH1 0xE0 SHR DUP1 PUSH4 0x1A1ACE28 EQ PUSH2 0x1250 JUMPI DUP1 PUSH4 0x2E90C1A9 EQ PUSH2 0x122D JUMPI DUP1 PUSH4 0x3ED77225 EQ PUSH2 0xC5F JUMPI DUP1 PUSH4 0x5170B934 EQ PUSH2 0xB46 JUMPI DUP1 PUSH4 0x58E56DB4 EQ PUSH2 0xABF JUMPI DUP1 PUSH4 0x6C9AC38A EQ PUSH2 0x9D8 JUMPI DUP1 PUSH4 0x7552B813 EQ PUSH2 0x8DF JUMPI DUP1 PUSH4 0x7EFC77FA EQ PUSH2 0x8B0 JUMPI DUP1 PUSH4 0x9BD8CF2E EQ PUSH2 0x15A JUMPI DUP1 PUSH4 0xAF56CC72 EQ PUSH2 0xBC JUMPI PUSH4 0xC6C1CD4D SUB PUSH2 0xE JUMPI CALLVALUE PUSH2 0xB7 JUMPI PUSH1 0x0 CALLDATASIZE PUSH1 0x3 NOT ADD SLT PUSH2 0xB7 JUMPI PUSH1 0x20 PUSH1 0x2 SLOAD PUSH1 0x40 MLOAD SWAP1 DUP2 MSTORE RETURN JUMPDEST PUSH1 0x0 DUP1 REVERT JUMPDEST CALLVALUE PUSH2 0xB7 JUMPI PUSH1 0x20 CALLDATASIZE PUSH1 0x3 NOT ADD SLT PUSH2 0xB7 JUMPI PUSH1 0x4 CALLDATALOAD PUSH1 0x0 MSTORE PUSH1 0x0 PUSH1 0x20 MSTORE PUSH2 0x12C PUSH1 0x40 PUSH1 0x0 KECCAK256 PUSH2 0xE9 DUP2 PUSH2 0x1A9F JUMP JUMPDEST SWAP1 PUSH2 0xF6 PUSH1 0x1 DUP3 ADD PUSH2 0x1A9F JUMP JUMPDEST PUSH1 0x2 DUP3 ADD SLOAD SWAP2 PUSH2 0x14A PUSH1 0xFF PUSH1 0x3 DUP4 ADD SLOAD AND PUSH2 0x13A PUSH1 0xFF PUSH1 0x5 PUSH1 0x4 DUP7 ADD SLOAD SWAP6 ADD SLOAD AND SWAP5 PUSH1 0x40 MLOAD SWAP9 DUP10 SWAP9 PUSH1 0xC0 DUP11 MSTORE PUSH1 0xC0 DUP11 ADD SWAP1 PUSH2 0x1A33 JUMP JUMPDEST SWAP1 DUP9 DUP3 SUB PUSH1 0x20 DUP11 ADD MSTORE PUSH2 0x1A33 JUMP JUMPDEST SWAP5 PUSH1 0x40 DUP8 ADD MSTORE PUSH1 0x60 DUP7 ADD SWAP1 PUSH2 0x1A58 JUMP JUMPDEST PUSH1 0x80 DUP5 ADD MSTORE ISZERO ISZERO PUSH1 0xA0 DUP4 ADD MSTORE SUB SWAP1 RETURN JUMPDEST PUSH2 0x163 CALLDATASIZE PUSH2 0x19C7 JUMP JUMPDEST SWAP1 PUSH1 0x40 MLOAD SWAP1 PUSH32 0x416E616C797A65207468652073656E74696D656E74206F662074686520666F6C PUSH1 0x20 DUP4 ADD MSTORE PUSH13 0x3637BBB4B733903A32BC3A171 PUSH1 0x9D SHL PUSH1 0x40 DUP4 ADD MSTORE PUSH7 0x2A32BC3A1D1011 PUSH1 0xC9 SHL PUSH1 0x4D DUP4 ADD MSTORE DUP3 DUP2 PUSH1 0x54 DUP5 ADD CALLDATACOPY PUSH2 0x1DC PUSH1 0x55 DUP4 DUP6 DUP2 ADD PUSH1 0x11 PUSH1 0xF9 SHL PUSH1 0x54 DUP3 ADD MSTORE SUB PUSH1 0x35 DUP2 ADD DUP6 MSTORE ADD DUP4 PUSH2 0x1653 JUMP JUMPDEST PUSH1 0x40 MLOAD SWAP3 PUSH1 0x80 DUP5 ADD DUP5 DUP2 LT PUSH1 0x1 PUSH1 0x1 PUSH1 0x40 SHL SUB DUP3 GT OR PUSH2 0x6B9 JUMPI PUSH1 0x40 MSTORE PUSH1 0x3 DUP5 MSTORE PUSH1 0x0 JUMPDEST PUSH1 0x60 DUP1 DUP3 LT ISZERO PUSH2 0x21A JUMPI SWAP1 PUSH1 0x20 SWAP2 DUP3 DUP3 DUP9 ADD ADD MSTORE ADD PUSH2 0x200 JUMP JUMPDEST POP POP SWAP3 PUSH2 0x2E1 SWAP3 PUSH1 0x40 MLOAD PUSH2 0x22D DUP2 PUSH2 0x1638 JUMP JUMPDEST PUSH1 0x7 DUP2 MSTORE PUSH7 0xC4EAD8D8D2E6D PUSH1 0xCB SHL PUSH1 0x20 DUP3 ADD MSTORE PUSH2 0x24A DUP4 PUSH2 0x1B93 JUMP JUMPDEST MSTORE PUSH2 0x254 DUP3 PUSH2 0x1B93 JUMP JUMPDEST POP PUSH1 0x40 MLOAD PUSH2 0x261 DUP2 PUSH2 0x1638 JUMP JUMPDEST PUSH1 0x7 DUP2 MSTORE PUSH7 0xC4CAC2E4D2E6D PUSH1 0xCB SHL PUSH1 0x20 DUP3 ADD MSTORE PUSH2 0x27E DUP4 PUSH2 0x1BB6 JUMP JUMPDEST MSTORE PUSH2 0x288 DUP3 PUSH2 0x1BB6 JUMP JUMPDEST POP PUSH1 0x40 MLOAD PUSH2 0x295 DUP2 PUSH2 0x1638 JUMP JUMPDEST PUSH1 0x7 DUP2 MSTORE PUSH7 0x1B995D5D1C985B PUSH1 0xCA SHL PUSH1 0x20 DUP3 ADD MSTORE PUSH2 0x2B2 DUP4 PUSH2 0x1BC6 JUMP JUMPDEST MSTORE PUSH2 0x2BC DUP3 PUSH2 0x1BC6 JUMP JUMPDEST POP PUSH1 0x40 MLOAD PUSH4 0x1FCF9413 PUSH1 0xE3 SHL PUSH1 0x20 DUP3 ADD MSTORE PUSH1 0x80 PUSH1 0x24 DUP3 ADD MSTORE SWAP4 DUP5 SWAP2 PUSH1 0xA4 DUP4 ADD SWAP1 PUSH2 0x1A33 JUMP JUMPDEST SWAP2 DUP2 DUP4 SUB PUSH1 0x23 NOT DUP2 ADD PUSH1 0x44 DUP5 ADD MSTORE PUSH1 0x34 DUP5 MSTORE PUSH32 0x596F752061726520612073656E74696D656E7420616E616C7973742E20436C61 PUSH1 0x20 DUP6 ADD MSTORE PUSH20 0x39B9B4B33C903A34329039B2B73A34B6B2B73A17 PUSH1 0x61 SHL PUSH1 0x40 DUP6 ADD MSTORE PUSH1 0x3C PUSH1 0x60 DUP6 ADD SWAP2 PUSH1 0x0 PUSH1 0x64 DUP7 ADD MSTORE ADD PUSH1 0x84 DUP5 ADD MSTORE DUP2 MLOAD DUP1 SWAP2 MSTORE PUSH1 0x80 DUP5 ADD SWAP4 PUSH1 0x20 PUSH1 0x80 DUP4 PUSH1 0x5 SHL DUP4 ADD ADD SWAP4 ADD SWAP5 PUSH1 0x0 SWAP2 JUMPDEST DUP4 DUP4 LT PUSH2 0x87F JUMPI POP POP POP POP PUSH2 0x384 SWAP3 POP SUB PUSH1 0x1F NOT DUP2 ADD DUP5 MSTORE DUP4 PUSH2 0x1653 JUMP JUMPDEST PUSH1 0x40 MLOAD PUSH4 0xFFEB17D PUSH1 0xE1 SHL DUP2 MSTORE PUSH20 0x37BB9C718F3F7FE5ECBDB0B600D607B52706776 SWAP1 PUSH1 0x20 DUP2 PUSH1 0x4 DUP2 DUP6 GAS STATICCALL SWAP1 DUP2 ISZERO PUSH2 0x7CA JUMPI PUSH1 0x0 SWAP2 PUSH2 0x84D JUMPI JUMPDEST POP PUSH8 0x2EA11E32AD50000 DUP2 ADD DUP1 SWAP2 GT PUSH2 0x837 JUMPI CALLVALUE LT PUSH2 0x7D6 JUMPI PUSH1 0x40 MLOAD PUSH4 0x45DE5DF1 PUSH1 0xE1 SHL DUP2 MSTORE PUSH8 0xB24AC1AFBCEFC708 PUSH1 0x4 DUP3 ADD MSTORE ADDRESS PUSH1 0x24 DUP3 ADD MSTORE PUSH4 0x34359C5 PUSH1 0xE3 SHL PUSH1 0x44 DUP3 ADD MSTORE PUSH1 0x80 PUSH1 0x64 DUP3 ADD MSTORE SWAP3 PUSH1 0x20 SWAP2 DUP5 SWAP2 DUP3 SWAP1 DUP2 SWAP1 PUSH2 0x425 SWAP1 PUSH1 0x84 DUP4 ADD SWAP1 PUSH2 0x1A33 JUMP JUMPDEST SUB SWAP2 CALLVALUE SWAP1 GAS CALL SWAP2 DUP3 ISZERO PUSH2 0x7CA JUMPI PUSH1 0x0 SWAP3 PUSH2 0x796 JUMPI JUMPDEST POP PUSH1 0x40 MLOAD PUSH2 0x447 DUP2 PUSH2 0x1602 JUMP JUMPDEST PUSH2 0x452 CALLDATASIZE DUP6 DUP5 PUSH2 0x16BA JUMP JUMPDEST DUP2 MSTORE PUSH1 0x40 MLOAD PUSH2 0x460 DUP2 PUSH2 0x161D JUMP JUMPDEST PUSH1 0x0 DUP2 MSTORE PUSH1 0x20 DUP3 ADD MSTORE PUSH1 0x0 PUSH1 0x40 DUP3 ADD MSTORE PUSH1 0x0 PUSH1 0x60 DUP3 ADD MSTORE TIMESTAMP PUSH1 0x80 DUP3 ADD MSTORE PUSH1 0x0 PUSH1 0xA0 DUP3 ADD MSTORE DUP3 PUSH1 0x0 MSTORE PUSH1 0x0 PUSH1 0x20 MSTORE PUSH1 0x40 PUSH1 0x0 KECCAK256 SWAP4 DUP2 MLOAD DUP1 MLOAD SWAP1 PUSH1 0x1 PUSH1 0x1 PUSH1 0x40 SHL SUB DUP3 GT PUSH2 0x6B9 JUMPI DUP2 SWAP1 PUSH2 0x4B2 DUP9 SLOAD PUSH2 0x1A65 JUMP JUMPDEST PUSH1 0x1F DUP2 GT PUSH2 0x746 JUMPI JUMPDEST POP PUSH1 0x20 SWAP1 PUSH1 0x1F DUP4 GT PUSH1 0x1 EQ PUSH2 0x6DA JUMPI PUSH1 0x0 SWAP3 PUSH2 0x6CF JUMPI JUMPDEST POP POP DUP2 PUSH1 0x1 SHL SWAP2 PUSH1 0x0 NOT SWAP1 PUSH1 0x3 SHL SHR NOT AND OR DUP6 SSTORE JUMPDEST PUSH1 0x20 DUP3 ADD MLOAD DUP1 MLOAD SWAP1 PUSH1 0x1 PUSH1 0x1 PUSH1 0x40 SHL SUB DUP3 GT PUSH2 0x6B9 JUMPI DUP2 SWAP1 PUSH2 0x50C PUSH1 0x1 DUP10 ADD SLOAD PUSH2 0x1A65 JUMP JUMPDEST PUSH1 0x1F DUP2 GT PUSH2 0x666 JUMPI JUMPDEST POP PUSH1 0x20 SWAP1 PUSH1 0x1F DUP4 GT PUSH1 0x1 EQ PUSH2 0x5F9 JUMPI PUSH1 0x0 SWAP3 PUSH2 0x5EE JUMPI JUMPDEST POP POP DUP2 PUSH1 0x1 SHL SWAP2 PUSH1 0x0 NOT SWAP1 PUSH1 0x3 SHL SHR NOT AND OR PUSH1 0x1 DUP7 ADD SSTORE JUMPDEST PUSH1 0x40 DUP3 ADD MLOAD PUSH1 0x2 DUP7 ADD SSTORE PUSH1 0x3 DUP6 ADD SWAP3 PUSH1 0x60 DUP4 ADD MLOAD SWAP3 PUSH1 0x2 DUP5 LT ISZERO PUSH2 0x5D8 JUMPI PUSH1 0x20 SWAP7 PUSH1 0x5 PUSH1 0xA0 PUSH2 0x5BE SWAP4 DUP10 SWAP9 PUSH32 0x9D673CCD61E1E56C20887D3B8F72E6CE7E7B8A3DF48AF4DEC704D46830A738C3 SWAP9 PUSH1 0xFF DUP1 NOT DUP4 SLOAD AND SWAP2 AND OR SWAP1 SSTORE PUSH1 0x80 DUP2 ADD MLOAD PUSH1 0x4 DUP6 ADD SSTORE ADD MLOAD ISZERO ISZERO SWAP2 ADD SWAP1 PUSH1 0xFF DUP1 NOT DUP4 SLOAD AND SWAP2 ISZERO ISZERO AND OR SWAP1 SSTORE JUMP JUMPDEST PUSH2 0x5CD PUSH1 0x40 MLOAD SWAP3 DUP4 SWAP3 DUP4 PUSH2 0x1BD6 JUMP JUMPDEST SUB SWAP1 LOG2 PUSH1 0x40 MLOAD SWAP1 DUP2 MSTORE RETURN JUMPDEST PUSH4 0x4E487B71 PUSH1 0xE0 SHL PUSH1 0x0 MSTORE PUSH1 0x21 PUSH1 0x4 MSTORE PUSH1 0x24 PUSH1 0x0 REVERT JUMPDEST ADD MLOAD SWAP1 POP DUP8 DUP1 PUSH2 0x52C JUMP JUMPDEST PUSH1 0x1 DUP10 ADD PUSH1 0x0 SWAP1 DUP2 MSTORE PUSH1 0x20 DUP2 KECCAK256 SWAP4 POP PUSH1 0x1F NOT DUP6 AND SWAP1 JUMPDEST DUP2 DUP2 LT PUSH2 0x64E JUMPI POP SWAP1 DUP5 PUSH1 0x1 SWAP6 SWAP5 SWAP4 SWAP3 LT PUSH2 0x635 JUMPI JUMPDEST POP POP POP DUP2 SHL ADD PUSH1 0x1 DUP7 ADD SSTORE PUSH2 0x544 JUMP JUMPDEST ADD MLOAD PUSH1 0x0 NOT PUSH1 0xF8 DUP5 PUSH1 0x3 SHL AND SHR NOT AND SWAP1 SSTORE DUP8 DUP1 DUP1 PUSH2 0x625 JUMP JUMPDEST SWAP3 SWAP4 PUSH1 0x20 PUSH1 0x1 DUP2 SWAP3 DUP8 DUP7 ADD MLOAD DUP2 SSTORE ADD SWAP6 ADD SWAP4 ADD PUSH2 0x60F JUMP JUMPDEST SWAP1 SWAP2 POP PUSH1 0x1 DUP9 ADD PUSH1 0x0 MSTORE PUSH1 0x20 PUSH1 0x0 KECCAK256 PUSH1 0x1F DUP5 ADD PUSH1 0x5 SHR DUP2 ADD PUSH1 0x20 DUP6 LT PUSH2 0x6B2 JUMPI JUMPDEST SWAP1 DUP5 SWAP4 SWAP3 SWAP2 JUMPDEST PUSH1 0x1F DUP4 ADD PUSH1 0x5 SHR DUP3 ADD DUP2 LT PUSH2 0x6A3 JUMPI POP POP PUSH2 0x515 JUMP JUMPDEST PUSH1 0x0 DUP2 SSTORE DUP6 SWAP5 POP PUSH1 0x1 ADD PUSH2 0x68D JUMP JUMPDEST POP DUP1 PUSH2 0x687 JUMP JUMPDEST PUSH4 0x4E487B71 PUSH1 0xE0 SHL PUSH1 0x0 MSTORE PUSH1 0x41 PUSH1 0x4 MSTORE PUSH1 0x24 PUSH1 0x0 REVERT JUMPDEST ADD MLOAD SWAP1 POP DUP8 DUP1 PUSH2 0x4D2 JUMP JUMPDEST SWAP3 POP DUP8 PUSH1 0x0 MSTORE PUSH1 0x20 PUSH1 0x0 KECCAK256 SWAP1 PUSH1 0x0 SWAP4 JUMPDEST PUSH1 0x1F NOT DUP5 AND DUP6 LT PUSH2 0x72B JUMPI PUSH1 0x1 SWAP5 POP DUP4 PUSH1 0x1F NOT DUP2 AND LT PUSH2 0x712 JUMPI JUMPDEST POP POP POP DUP2 SHL ADD DUP6 SSTORE PUSH2 0x4E7 JUMP JUMPDEST ADD MLOAD PUSH1 0x0 NOT PUSH1 0xF8 DUP5 PUSH1 0x3 SHL AND SHR NOT AND SWAP1 SSTORE DUP8 DUP1 DUP1 PUSH2 0x705 JUMP JUMPDEST DUP2 DUP2 ADD MLOAD DUP4 SSTORE PUSH1 0x20 SWAP5 DUP6 ADD SWAP5 PUSH1 0x1 SWAP1 SWAP4 ADD SWAP3 SWAP1 SWAP2 ADD SWAP1 PUSH2 0x6EA JUMP JUMPDEST SWAP1 SWAP2 POP DUP8 PUSH1 0x0 MSTORE PUSH1 0x20 PUSH1 0x0 KECCAK256 PUSH1 0x1F DUP5 ADD PUSH1 0x5 SHR DUP2 ADD PUSH1 0x20 DUP6 LT PUSH2 0x78F JUMPI JUMPDEST SWAP1 DUP5 SWAP4 SWAP3 SWAP2 JUMPDEST PUSH1 0x1F DUP4 ADD PUSH1 0x5 SHR DUP3 ADD DUP2 LT PUSH2 0x780 JUMPI POP POP PUSH2 0x4BB JUMP JUMPDEST PUSH1 0x0 DUP2 SSTORE DUP6 SWAP5 POP PUSH1 0x1 ADD PUSH2 0x76A JUMP JUMPDEST POP DUP1 PUSH2 0x764 JUMP JUMPDEST SWAP1 SWAP2 POP PUSH1 0x20 DUP2 RETURNDATASIZE PUSH1 0x20 GT PUSH2 0x7C2 JUMPI JUMPDEST DUP2 PUSH2 0x7B2 PUSH1 0x20 SWAP4 DUP4 PUSH2 0x1653 JUMP JUMPDEST DUP2 ADD SUB SLT PUSH2 0xB7 JUMPI MLOAD SWAP1 DUP4 PUSH2 0x43A JUMP JUMPDEST RETURNDATASIZE SWAP2 POP PUSH2 0x7A5 JUMP JUMPDEST PUSH1 0x40 MLOAD RETURNDATASIZE PUSH1 0x0 DUP3 RETURNDATACOPY RETURNDATASIZE SWAP1 REVERT JUMPDEST PUSH1 0x40 MLOAD PUSH3 0x461BCD PUSH1 0xE5 SHL DUP2 MSTORE PUSH1 0x20 PUSH1 0x4 DUP3 ADD MSTORE PUSH1 0x33 PUSH1 0x24 DUP3 ADD MSTORE PUSH32 0x4E65656420302E32342053545420746F74616C20286465706F736974202B2033 PUSH1 0x44 DUP3 ADD MSTORE PUSH19 0x2076616C696461746F7273207820302E303729 PUSH1 0x68 SHL PUSH1 0x64 DUP3 ADD MSTORE PUSH1 0x84 SWAP1 REVERT JUMPDEST PUSH4 0x4E487B71 PUSH1 0xE0 SHL PUSH1 0x0 MSTORE PUSH1 0x11 PUSH1 0x4 MSTORE PUSH1 0x24 PUSH1 0x0 REVERT JUMPDEST SWAP1 POP PUSH1 0x20 DUP2 RETURNDATASIZE PUSH1 0x20 GT PUSH2 0x877 JUMPI JUMPDEST DUP2 PUSH2 0x868 PUSH1 0x20 SWAP4 DUP4 PUSH2 0x1653 JUMP JUMPDEST DUP2 ADD SUB SLT PUSH2 0xB7 JUMPI MLOAD DUP6 PUSH2 0x3BF JUMP JUMPDEST RETURNDATASIZE SWAP2 POP PUSH2 0x85B JUMP JUMPDEST SWAP2 SWAP4 PUSH1 0x1 SWAP2 SWAP4 SWAP6 POP PUSH1 0x20 PUSH2 0x89E DUP2 SWAP3 PUSH1 0x7F NOT DUP7 DUP3 SUB ADD DUP8 MSTORE DUP10 MLOAD PUSH2 0x1A33 JUMP JUMPDEST SWAP8 ADD SWAP4 ADD SWAP4 ADD SWAP1 SWAP3 DUP8 SWAP5 SWAP3 SWAP6 SWAP4 PUSH2 0x366 JUMP JUMPDEST CALLVALUE PUSH2 0xB7 JUMPI PUSH1 0x0 CALLDATASIZE PUSH1 0x3 NOT ADD SLT PUSH2 0xB7 JUMPI PUSH1 0x20 PUSH1 0x40 MLOAD PUSH20 0x37BB9C718F3F7FE5ECBDB0B600D607B52706776 DUP2 MSTORE RETURN JUMPDEST CALLVALUE PUSH2 0xB7 JUMPI PUSH2 0x8ED CALLDATASIZE PUSH2 0x17F4 JUMP JUMPDEST POP PUSH2 0x90D PUSH20 0x37BB9C718F3F7FE5ECBDB0B600D607B52706776 CALLER EQ PUSH2 0x1B44 JUMP JUMPDEST PUSH1 0x5 DUP2 LT ISZERO PUSH2 0x5D8 JUMPI PUSH1 0x2 DUP2 EQ DUP1 PUSH2 0x9CE JUMPI JUMPDEST ISZERO PUSH2 0x996 JUMPI POP PUSH2 0x931 PUSH1 0x20 SWAP2 PUSH2 0x1B93 JUMP JUMPDEST MLOAD ADD MLOAD PUSH1 0x20 DUP2 DUP1 MLOAD DUP2 ADD SUB SLT PUSH2 0xB7 JUMPI PUSH1 0x20 DUP1 PUSH32 0x34D74A9BBF999D62D688DDC4CFF473536C0A792A81E4A8D158B16AA215AF985 SWAP3 ADD MLOAD DUP4 PUSH1 0x0 MSTORE PUSH1 0x0 DUP3 MSTORE PUSH1 0x5 PUSH1 0x40 PUSH1 0x0 KECCAK256 DUP3 PUSH1 0x2 DUP3 ADD SSTORE ADD PUSH1 0x1 PUSH1 0xFF NOT DUP3 SLOAD AND OR SWAP1 SSTORE DUP1 PUSH1 0x2 SSTORE PUSH1 0x40 MLOAD SWAP1 DUP2 MSTORE LOG2 STOP JUMPDEST PUSH32 0x12741FA7FAC2B8ED98F6279878746BB34936177209FA16187FCBE2E6E2CE5668 SWAP2 POP PUSH2 0x9C9 SWAP1 PUSH1 0x40 MLOAD SWAP2 DUP3 SWAP2 DUP3 PUSH2 0x1B80 JUMP JUMPDEST SUB SWAP1 LOG2 STOP JUMPDEST POP DUP2 MLOAD ISZERO ISZERO PUSH2 0x920 JUMP JUMPDEST CALLVALUE PUSH2 0xB7 JUMPI PUSH1 0x0 CALLDATASIZE PUSH1 0x3 NOT ADD SLT PUSH2 0xB7 JUMPI PUSH1 0x40 MLOAD PUSH1 0x0 PUSH1 0x1 DUP3 PUSH1 0x1 SLOAD SWAP3 PUSH2 0x9FE DUP5 PUSH2 0x1A65 JUMP JUMPDEST SWAP3 DUP4 DUP4 MSTORE PUSH1 0x20 SWAP5 DUP6 PUSH1 0x1 DUP3 AND SWAP2 DUP3 PUSH1 0x0 EQ PUSH2 0xA9F JUMPI POP POP PUSH1 0x1 EQ PUSH2 0xA42 JUMPI JUMPDEST POP PUSH2 0xA2A SWAP3 POP SUB DUP4 PUSH2 0x1653 JUMP JUMPDEST PUSH2 0xA3E PUSH1 0x40 MLOAD SWAP3 DUP3 DUP5 SWAP4 DUP5 MSTORE DUP4 ADD SWAP1 PUSH2 0x1A33 JUMP JUMPDEST SUB SWAP1 RETURN JUMPDEST DUP5 SWAP2 POP PUSH1 0x1 PUSH1 0x0 MSTORE PUSH32 0xB10E2D527612073B26EECDFD717E6A320CF44B4AFAC2B0732D9FCBE2B7FA0CF6 SWAP1 PUSH1 0x0 SWAP2 JUMPDEST DUP6 DUP4 LT PUSH2 0xA87 JUMPI POP POP PUSH2 0xA2A SWAP4 POP DUP3 ADD ADD DUP6 PUSH2 0xA1D JUMP JUMPDEST DUP1 SLOAD DUP4 DUP10 ADD DUP6 ADD MSTORE DUP8 SWAP5 POP DUP7 SWAP4 SWAP1 SWAP3 ADD SWAP2 DUP2 ADD PUSH2 0xA70 JUMP JUMPDEST PUSH1 0xFF NOT AND DUP6 DUP3 ADD MSTORE PUSH2 0xA2A SWAP6 ISZERO ISZERO PUSH1 0x5 SHL DUP6 ADD ADD SWAP3 POP DUP8 SWAP2 POP PUSH2 0xA1D SWAP1 POP JUMP JUMPDEST CALLVALUE PUSH2 0xB7 JUMPI PUSH1 0x0 CALLDATASIZE PUSH1 0x3 NOT ADD SLT PUSH2 0xB7 JUMPI PUSH1 0x40 MLOAD PUSH4 0xFFEB17D PUSH1 0xE1 SHL DUP2 MSTORE PUSH1 0x20 DUP2 PUSH1 0x4 DUP2 PUSH20 0x37BB9C718F3F7FE5ECBDB0B600D607B52706776 GAS STATICCALL DUP1 ISZERO PUSH2 0x7CA JUMPI PUSH1 0x0 SWAP1 PUSH2 0xB13 JUMPI JUMPDEST PUSH1 0x20 SWAP1 PUSH1 0x40 MLOAD SWAP1 DUP2 MSTORE RETURN JUMPDEST POP PUSH1 0x20 DUP2 RETURNDATASIZE PUSH1 0x20 GT PUSH2 0xB3E JUMPI JUMPDEST DUP2 PUSH2 0xB2D PUSH1 0x20 SWAP4 DUP4 PUSH2 0x1653 JUMP JUMPDEST DUP2 ADD SUB SLT PUSH2 0xB7 JUMPI PUSH1 0x20 SWAP1 MLOAD PUSH2 0xB08 JUMP JUMPDEST RETURNDATASIZE SWAP2 POP PUSH2 0xB20 JUMP JUMPDEST CALLVALUE PUSH2 0xB7 JUMPI PUSH1 0x20 DUP1 PUSH1 0x3 NOT CALLDATASIZE ADD SLT PUSH2 0xB7 JUMPI PUSH1 0x0 PUSH1 0xA0 PUSH1 0x40 MLOAD PUSH2 0xB68 DUP2 PUSH2 0x1602 JUMP JUMPDEST PUSH1 0x60 DUP2 MSTORE PUSH1 0x60 DUP5 DUP3 ADD MSTORE DUP3 PUSH1 0x40 DUP3 ADD MSTORE DUP3 PUSH1 0x60 DUP3 ADD MSTORE DUP3 PUSH1 0x80 DUP3 ADD MSTORE ADD MSTORE PUSH1 0x4 CALLDATALOAD PUSH1 0x0 MSTORE PUSH1 0x0 DUP2 MSTORE PUSH1 0x40 PUSH1 0x0 KECCAK256 PUSH1 0x40 MLOAD SWAP1 PUSH2 0xBA2 DUP3 PUSH2 0x1602 JUMP JUMPDEST PUSH2 0xBAB DUP2 PUSH2 0x1A9F JUMP JUMPDEST DUP3 MSTORE PUSH2 0xBB9 PUSH1 0x1 DUP3 ADD PUSH2 0x1A9F JUMP JUMPDEST SWAP3 DUP1 DUP4 ADD SWAP4 DUP5 MSTORE PUSH1 0x2 DUP3 ADD SLOAD SWAP2 PUSH1 0x40 DUP5 ADD SWAP3 DUP4 MSTORE PUSH1 0xFF PUSH1 0x3 DUP3 ADD SLOAD AND SWAP5 PUSH1 0x60 DUP6 ADD PUSH1 0x2 DUP8 LT ISZERO PUSH2 0x5D8 JUMPI PUSH2 0xC3B PUSH2 0xC4D SWAP3 PUSH1 0xC0 SWAP9 DUP4 MSTORE PUSH2 0xC28 PUSH1 0xFF PUSH1 0x5 PUSH1 0x4 DUP9 ADD SLOAD SWAP8 PUSH1 0x80 DUP13 ADD SWAP9 DUP10 MSTORE ADD SLOAD AND SWAP7 PUSH1 0xA0 DUP11 ADD SWAP8 ISZERO ISZERO DUP9 MSTORE PUSH1 0x40 MLOAD SWAP11 DUP12 SWAP11 DUP3 DUP13 MSTORE MLOAD SWAP2 DUP12 ADD MSTORE PUSH1 0xE0 DUP11 ADD SWAP1 PUSH2 0x1A33 JUMP JUMPDEST SWAP1 MLOAD DUP9 DUP3 SUB PUSH1 0x1F NOT ADD PUSH1 0x40 DUP11 ADD MSTORE PUSH2 0x1A33 JUMP JUMPDEST SWAP5 MLOAD PUSH1 0x60 DUP8 ADD MSTORE MLOAD PUSH1 0x80 DUP7 ADD SWAP1 PUSH2 0x1A58 JUMP JUMPDEST MLOAD PUSH1 0xA0 DUP5 ADD MSTORE MLOAD ISZERO ISZERO PUSH1 0xC0 DUP4 ADD MSTORE SUB SWAP1 RETURN JUMPDEST PUSH2 0xC68 CALLDATASIZE PUSH2 0x19C7 JUMP JUMPDEST SWAP1 PUSH1 0x40 MLOAD SWAP1 PUSH32 0x52617465207468652073656E74696D656E74206F6E2061207363616C65206F66 PUSH1 0x20 DUP4 ADD MSTORE PUSH8 0x101896989818171 PUSH1 0xC5 SHL PUSH1 0x40 DUP4 ADD MSTORE PUSH32 0x31203D2065787472656D656C79206E656761746976652C203530203D206E6575 PUSH1 0x48 DUP4 ADD MSTORE PUSH32 0x7472616C2C20313030203D2065787472656D656C7920706F7369746976652E20 PUSH1 0x68 DUP4 ADD MSTORE PUSH7 0x2A32BC3A1D1011 PUSH1 0xC9 SHL PUSH1 0x88 DUP4 ADD MSTORE DUP3 DUP2 PUSH1 0x8F DUP5 ADD CALLDATACOPY PUSH2 0xD28 PUSH1 0x90 DUP4 DUP6 DUP2 ADD PUSH1 0x11 PUSH1 0xF9 SHL PUSH1 0x8F DUP3 ADD MSTORE SUB PUSH1 0x70 DUP2 ADD DUP6 MSTORE ADD DUP4 PUSH2 0x1653 JUMP JUMPDEST PUSH2 0xDC6 PUSH1 0x60 PUSH2 0xD52 PUSH1 0x40 MLOAD SWAP5 PUSH4 0xC6833C3D PUSH1 0xE0 SHL PUSH1 0x20 DUP8 ADD MSTORE PUSH1 0xA0 PUSH1 0x24 DUP8 ADD MSTORE PUSH1 0xC4 DUP7 ADD SWAP1 PUSH2 0x1A33 JUMP JUMPDEST PUSH18 0x3AB9371037B7363C903090373AB6B132B917 PUSH1 0x71 SHL PUSH1 0x40 DUP7 DUP4 SUB SWAP3 PUSH1 0x23 NOT DUP5 ADD PUSH1 0x44 DUP10 ADD MSTORE PUSH1 0x32 DUP2 MSTORE PUSH32 0x596F752061726520612073656E74696D656E7420616E616C7973742E20526574 PUSH1 0x20 DUP3 ADD MSTORE ADD MSTORE PUSH1 0x1 PUSH1 0x64 DUP7 ADD MSTORE PUSH1 0x64 PUSH1 0x84 DUP7 ADD MSTORE PUSH1 0x0 PUSH1 0xA4 DUP7 ADD MSTORE PUSH1 0x40 DUP2 ADD DUP6 MSTORE ADD DUP4 PUSH2 0x1653 JUMP JUMPDEST PUSH1 0x40 MLOAD PUSH4 0xFFEB17D PUSH1 0xE1 SHL DUP2 MSTORE PUSH20 0x37BB9C718F3F7FE5ECBDB0B600D607B52706776 SWAP1 PUSH1 0x20 DUP2 PUSH1 0x4 DUP2 DUP6 GAS STATICCALL SWAP1 DUP2 ISZERO PUSH2 0x7CA JUMPI PUSH1 0x0 SWAP2 PUSH2 0x11FB JUMPI JUMPDEST POP PUSH8 0x2EA11E32AD50000 DUP2 ADD DUP1 SWAP2 GT PUSH2 0x837 JUMPI CALLVALUE LT PUSH2 0x11C0 JUMPI PUSH1 0x40 MLOAD PUSH4 0x45DE5DF1 PUSH1 0xE1 SHL DUP2 MSTORE PUSH8 0xB24AC1AFBCEFC708 PUSH1 0x4 DUP3 ADD MSTORE ADDRESS PUSH1 0x24 DUP3 ADD MSTORE PUSH4 0x7552B813 PUSH1 0xE0 SHL PUSH1 0x44 DUP3 ADD MSTORE PUSH1 0x80 PUSH1 0x64 DUP3 ADD MSTORE SWAP3 PUSH1 0x20 SWAP2 DUP5 SWAP2 DUP3 SWAP1 DUP2 SWAP1 PUSH2 0xE67 SWAP1 PUSH1 0x84 DUP4 ADD SWAP1 PUSH2 0x1A33 JUMP JUMPDEST SUB SWAP2 CALLVALUE SWAP1 GAS CALL SWAP2 DUP3 ISZERO PUSH2 0x7CA JUMPI PUSH1 0x0 SWAP3 PUSH2 0x118C JUMPI JUMPDEST POP PUSH1 0x40 MLOAD PUSH2 0xE89 DUP2 PUSH2 0x1602 JUMP JUMPDEST PUSH2 0xE94 CALLDATASIZE DUP6 DUP5 PUSH2 0x16BA JUMP JUMPDEST DUP2 MSTORE PUSH1 0x40 MLOAD PUSH2 0xEA2 DUP2 PUSH2 0x161D JUMP JUMPDEST PUSH1 0x0 DUP2 MSTORE PUSH1 0x20 DUP3 ADD MSTORE PUSH1 0x0 PUSH1 0x40 DUP3 ADD MSTORE PUSH1 0x1 PUSH1 0x60 DUP3 ADD MSTORE TIMESTAMP PUSH1 0x80 DUP3 ADD MSTORE PUSH1 0x0 PUSH1 0xA0 DUP3 ADD MSTORE DUP3 PUSH1 0x0 MSTORE PUSH1 0x0 PUSH1 0x20 MSTORE PUSH1 0x40 PUSH1 0x0 KECCAK256 SWAP4 DUP2 MLOAD DUP1 MLOAD SWAP1 PUSH1 0x1 PUSH1 0x1 PUSH1 0x40 SHL SUB DUP3 GT PUSH2 0x6B9 JUMPI DUP2 SWAP1 PUSH2 0xEF4 DUP9 SLOAD PUSH2 0x1A65 JUMP JUMPDEST PUSH1 0x1F DUP2 GT PUSH2 0x113C JUMPI JUMPDEST POP PUSH1 0x20 SWAP1 PUSH1 0x1F DUP4 GT PUSH1 0x1 EQ PUSH2 0x10D6 JUMPI PUSH1 0x0 SWAP3 PUSH2 0x10CB JUMPI JUMPDEST POP POP DUP2 PUSH1 0x1 SHL SWAP2 PUSH1 0x0 NOT SWAP1 PUSH1 0x3 SHL SHR NOT AND OR DUP6 SSTORE JUMPDEST PUSH1 0x20 DUP3 ADD MLOAD DUP1 MLOAD SWAP1 PUSH1 0x1 PUSH1 0x1 PUSH1 0x40 SHL SUB DUP3 GT PUSH2 0x6B9 JUMPI DUP2 SWAP1 PUSH2 0xF4E PUSH1 0x1 DUP10 ADD SLOAD PUSH2 0x1A65 JUMP JUMPDEST PUSH1 0x1F DUP2 GT PUSH2 0x1078 JUMPI JUMPDEST POP PUSH1 0x20 SWAP1 PUSH1 0x1F DUP4 GT PUSH1 0x1 EQ PUSH2 0x100B JUMPI PUSH1 0x0 SWAP3 PUSH2 0x1000 JUMPI JUMPDEST POP POP DUP2 PUSH1 0x1 SHL SWAP2 PUSH1 0x0 NOT SWAP1 PUSH1 0x3 SHL SHR NOT AND OR PUSH1 0x1 DUP7 ADD SSTORE JUMPDEST PUSH1 0x40 DUP3 ADD MLOAD PUSH1 0x2 DUP7 ADD SSTORE PUSH1 0x3 DUP6 ADD SWAP3 PUSH1 0x60 DUP4 ADD MLOAD SWAP3 PUSH1 0x2 DUP5 LT ISZERO PUSH2 0x5D8 JUMPI PUSH1 0x20 SWAP7 PUSH1 0x5 PUSH1 0xA0 PUSH2 0x5BE SWAP4 DUP10 SWAP9 PUSH32 0x7FD82C485A7F5C847AF195BB9DD92827C22A50CAEC68E7922BE49C3AE5C7DB97 SWAP9 PUSH1 0xFF DUP1 NOT DUP4 SLOAD AND SWAP2 AND OR SWAP1 SSTORE PUSH1 0x80 DUP2 ADD MLOAD PUSH1 0x4 DUP6 ADD SSTORE ADD MLOAD ISZERO ISZERO SWAP2 ADD SWAP1 PUSH1 0xFF DUP1 NOT DUP4 SLOAD AND SWAP2 ISZERO ISZERO AND OR SWAP1 SSTORE JUMP JUMPDEST ADD MLOAD SWAP1 POP DUP8 DUP1 PUSH2 0xF6E JUMP JUMPDEST PUSH1 0x1 DUP10 ADD PUSH1 0x0 SWAP1 DUP2 MSTORE PUSH1 0x20 DUP2 KECCAK256 SWAP4 POP PUSH1 0x1F NOT DUP6 AND SWAP1 JUMPDEST DUP2 DUP2 LT PUSH2 0x1060 JUMPI POP SWAP1 DUP5 PUSH1 0x1 SWAP6 SWAP5 SWAP4 SWAP3 LT PUSH2 0x1047 JUMPI JUMPDEST POP POP POP DUP2 SHL ADD PUSH1 0x1 DUP7 ADD SSTORE PUSH2 0xF86 JUMP JUMPDEST ADD MLOAD PUSH1 0x0 NOT PUSH1 0xF8 DUP5 PUSH1 0x3 SHL AND SHR NOT AND SWAP1 SSTORE DUP8 DUP1 DUP1 PUSH2 0x1037 JUMP JUMPDEST SWAP3 SWAP4 PUSH1 0x20 PUSH1 0x1 DUP2 SWAP3 DUP8 DUP7 ADD MLOAD DUP2 SSTORE ADD SWAP6 ADD SWAP4 ADD PUSH2 0x1021 JUMP JUMPDEST SWAP1 SWAP2 POP PUSH1 0x1 DUP9 ADD PUSH1 0x0 MSTORE PUSH1 0x20 PUSH1 0x0 KECCAK256 PUSH1 0x1F DUP5 ADD PUSH1 0x5 SHR DUP2 ADD PUSH1 0x20 DUP6 LT PUSH2 0x10C4 JUMPI JUMPDEST SWAP1 DUP5 SWAP4 SWAP3 SWAP2 JUMPDEST PUSH1 0x1F DUP4 ADD PUSH1 0x5 SHR DUP3 ADD DUP2 LT PUSH2 0x10B5 JUMPI POP POP PUSH2 0xF57 JUMP JUMPDEST PUSH1 0x0 DUP2 SSTORE DUP6 SWAP5 POP PUSH1 0x1 ADD PUSH2 0x109F JUMP JUMPDEST POP DUP1 PUSH2 0x1099 JUMP JUMPDEST ADD MLOAD SWAP1 POP DUP8 DUP1 PUSH2 0xF14 JUMP JUMPDEST PUSH1 0x0 DUP10 DUP2 MSTORE PUSH1 0x20 DUP2 KECCAK256 SWAP4 POP PUSH1 0x1F NOT DUP6 AND SWAP1 JUMPDEST DUP2 DUP2 LT PUSH2 0x1124 JUMPI POP SWAP1 DUP5 PUSH1 0x1 SWAP6 SWAP5 SWAP4 SWAP3 LT PUSH2 0x110B JUMPI JUMPDEST POP POP POP DUP2 SHL ADD DUP6 SSTORE PUSH2 0xF29 JUMP JUMPDEST ADD MLOAD PUSH1 0x0 NOT PUSH1 0xF8 DUP5 PUSH1 0x3 SHL AND SHR NOT AND SWAP1 SSTORE DUP8 DUP1 DUP1 PUSH2 0x10FE JUMP JUMPDEST SWAP3 SWAP4 PUSH1 0x20 PUSH1 0x1 DUP2 SWAP3 DUP8 DUP7 ADD MLOAD DUP2 SSTORE ADD SWAP6 ADD SWAP4 ADD PUSH2 0x10E8 JUMP JUMPDEST SWAP1 SWAP2 POP DUP8 PUSH1 0x0 MSTORE PUSH1 0x20 PUSH1 0x0 KECCAK256 PUSH1 0x1F DUP5 ADD PUSH1 0x5 SHR DUP2 ADD PUSH1 0x20 DUP6 LT PUSH2 0x1185 JUMPI JUMPDEST SWAP1 DUP5 SWAP4 SWAP3 SWAP2 JUMPDEST PUSH1 0x1F DUP4 ADD PUSH1 0x5 SHR DUP3 ADD DUP2 LT PUSH2 0x1176 JUMPI POP POP PUSH2 0xEFD JUMP JUMPDEST PUSH1 0x0 DUP2 SSTORE DUP6 SWAP5 POP PUSH1 0x1 ADD PUSH2 0x1160 JUMP JUMPDEST POP DUP1 PUSH2 0x115A JUMP JUMPDEST SWAP1 SWAP2 POP PUSH1 0x20 DUP2 RETURNDATASIZE PUSH1 0x20 GT PUSH2 0x11B8 JUMPI JUMPDEST DUP2 PUSH2 0x11A8 PUSH1 0x20 SWAP4 DUP4 PUSH2 0x1653 JUMP JUMPDEST DUP2 ADD SUB SLT PUSH2 0xB7 JUMPI MLOAD SWAP1 DUP4 PUSH2 0xE7C JUMP JUMPDEST RETURNDATASIZE SWAP2 POP PUSH2 0x119B JUMP JUMPDEST PUSH1 0x40 MLOAD PUSH3 0x461BCD PUSH1 0xE5 SHL DUP2 MSTORE PUSH1 0x20 PUSH1 0x4 DUP3 ADD MSTORE PUSH1 0x13 PUSH1 0x24 DUP3 ADD MSTORE PUSH19 0x13995959080C0B8C8D0814D515081D1BDD185B PUSH1 0x6A SHL PUSH1 0x44 DUP3 ADD MSTORE PUSH1 0x64 SWAP1 REVERT JUMPDEST SWAP1 POP PUSH1 0x20 DUP2 RETURNDATASIZE PUSH1 0x20 GT PUSH2 0x1225 JUMPI JUMPDEST DUP2 PUSH2 0x1216 PUSH1 0x20 SWAP4 DUP4 PUSH2 0x1653 JUMP JUMPDEST DUP2 ADD SUB SLT PUSH2 0xB7 JUMPI MLOAD DUP6 PUSH2 0xE01 JUMP JUMPDEST RETURNDATASIZE SWAP2 POP PUSH2 0x1209 JUMP JUMPDEST CALLVALUE PUSH2 0xB7 JUMPI PUSH1 0x0 CALLDATASIZE PUSH1 0x3 NOT ADD SLT PUSH2 0xB7 JUMPI PUSH1 0x20 PUSH1 0x40 MLOAD PUSH8 0xB24AC1AFBCEFC708 DUP2 MSTORE RETURN JUMPDEST CALLVALUE PUSH2 0xB7 JUMPI PUSH2 0x125E CALLDATASIZE PUSH2 0x17F4 JUMP JUMPDEST POP SWAP2 SWAP1 PUSH2 0x1280 PUSH20 0x37BB9C718F3F7FE5ECBDB0B600D607B52706776 CALLER EQ PUSH2 0x1B44 JUMP JUMPDEST PUSH1 0x5 SWAP1 DUP2 DUP5 LT ISZERO PUSH2 0x5D8 JUMPI PUSH1 0x2 DUP5 EQ DUP1 PUSH2 0x15F8 JUMPI JUMPDEST ISZERO PUSH2 0x15C4 JUMPI PUSH2 0x12A9 SWAP4 POP PUSH1 0x20 SWAP4 DUP5 SWAP2 PUSH2 0x1B93 JUMP JUMPDEST MLOAD ADD MLOAD SWAP3 DUP4 MLOAD DUP5 ADD SWAP2 DUP2 DUP6 DUP2 DUP6 ADD SWAP5 SUB SLT PUSH2 0xB7 JUMPI DUP2 DUP6 ADD MLOAD PUSH1 0x1 PUSH1 0x1 PUSH1 0x40 SHL SUB SWAP6 DUP7 DUP3 GT PUSH2 0xB7 JUMPI ADD DUP4 PUSH1 0x3F DUP3 ADD SLT ISZERO PUSH2 0xB7 JUMPI DUP3 DUP2 ADD MLOAD PUSH2 0x12EB DUP2 PUSH2 0x169F JUMP JUMPDEST SWAP5 PUSH2 0x12F9 PUSH1 0x40 MLOAD SWAP7 DUP8 PUSH2 0x1653 JUMP JUMPDEST DUP2 DUP7 MSTORE PUSH1 0x40 DUP3 DUP5 ADD ADD GT PUSH2 0xB7 JUMPI PUSH2 0x1317 SWAP2 PUSH1 0x40 DUP6 DUP8 ADD SWAP2 ADD PUSH2 0x1A10 JUMP JUMPDEST DUP4 PUSH1 0x0 MSTORE PUSH1 0x0 DUP3 MSTORE PUSH1 0x1 SWAP1 DUP2 PUSH1 0x40 PUSH1 0x0 KECCAK256 ADD SWAP1 DUP5 MLOAD SWAP2 DUP8 DUP4 GT PUSH2 0x6B9 JUMPI PUSH2 0x133E DUP2 SLOAD PUSH2 0x1A65 JUMP JUMPDEST SWAP3 PUSH1 0x1F SWAP4 DUP5 DUP2 GT PUSH2 0x1580 JUMPI JUMPDEST POP DUP1 DUP7 DUP6 DUP3 GT PUSH1 0x1 EQ PUSH2 0x151E JUMPI PUSH1 0x0 SWAP2 PUSH2 0x1513 JUMPI JUMPDEST POP PUSH1 0x0 NOT PUSH1 0x3 DUP4 SWAP1 SHL SHR NOT AND SWAP1 DUP6 SHL OR SWAP1 SSTORE JUMPDEST DUP6 PUSH1 0x0 MSTORE PUSH1 0x0 DUP5 MSTORE DUP1 PUSH1 0x40 PUSH1 0x0 KECCAK256 ADD DUP4 PUSH1 0xFF NOT DUP3 SLOAD AND OR SWAP1 SSTORE DUP5 MLOAD SWAP7 DUP8 GT PUSH2 0x6B9 JUMPI PUSH2 0x139E DUP4 SLOAD PUSH2 0x1A65 JUMP JUMPDEST SWAP1 DUP3 DUP3 GT PUSH2 0x14B2 JUMPI JUMPDEST POP POP DUP3 SWAP1 DUP7 GT PUSH1 0x1 EQ PUSH2 0x1413 JUMPI SWAP5 DUP1 PUSH32 0x70C9A38EFB3947AC3E3105616F69840852D6A77722F2857A504D32B45731E14B SWAP6 SWAP7 PUSH1 0x0 SWAP2 PUSH2 0x1408 JUMPI JUMPDEST POP PUSH1 0x0 NOT PUSH1 0x3 DUP4 SWAP1 SHL SHR NOT AND SWAP1 DUP3 SHL OR SWAP1 SSTORE JUMPDEST PUSH2 0x9C9 PUSH1 0x40 MLOAD SWAP3 DUP3 DUP5 SWAP4 DUP5 MSTORE DUP4 ADD SWAP1 PUSH2 0x1A33 JUMP JUMPDEST SWAP1 POP DUP5 ADD MLOAD DUP8 PUSH2 0x13E1 JUMP JUMPDEST PUSH1 0x1F NOT DUP7 AND SWAP1 DUP3 PUSH1 0x0 MSTORE PUSH32 0xB10E2D527612073B26EECDFD717E6A320CF44B4AFAC2B0732D9FCBE2B7FA0CF6 SWAP2 PUSH1 0x0 JUMPDEST DUP2 DUP2 LT PUSH2 0x149D JUMPI POP SWAP2 DUP8 SWAP2 PUSH32 0x70C9A38EFB3947AC3E3105616F69840852D6A77722F2857A504D32B45731E14B SWAP8 SWAP9 DUP6 SWAP5 LT PUSH2 0x1484 JUMPI JUMPDEST POP POP DUP2 SHL ADD SWAP1 SSTORE PUSH2 0x13F4 JUMP JUMPDEST DUP7 ADD MLOAD PUSH1 0x0 NOT PUSH1 0xF8 DUP5 PUSH1 0x3 SHL AND SHR NOT AND SWAP1 SSTORE DUP8 DUP1 PUSH2 0x1478 JUMP JUMPDEST DUP7 DUP4 ADD MLOAD DUP5 SSTORE SWAP3 DUP5 ADD SWAP3 SWAP2 DUP6 ADD SWAP2 DUP6 ADD PUSH2 0x1442 JUMP JUMPDEST DUP4 PUSH1 0x0 MSTORE PUSH32 0xB10E2D527612073B26EECDFD717E6A320CF44B4AFAC2B0732D9FCBE2B7FA0CF6 SWAP1 DUP4 DUP1 DUP11 ADD DUP3 SHR DUP4 ADD SWAP4 DUP8 DUP12 LT PUSH2 0x150A JUMPI JUMPDEST ADD SWAP1 SHR ADD SWAP1 DUP4 SWAP1 JUMPDEST DUP3 DUP2 LT PUSH2 0x14FE JUMPI POP PUSH2 0x13A7 JUMP JUMPDEST PUSH1 0x0 DUP2 SSTORE ADD DUP4 SWAP1 PUSH2 0x14F1 JUMP JUMPDEST SWAP4 POP DUP3 SWAP4 PUSH2 0x14E9 JUMP JUMPDEST SWAP1 POP DUP8 ADD MLOAD DUP11 PUSH2 0x135F JUMP JUMPDEST DUP7 SWAP3 POP PUSH1 0x1F NOT DUP3 AND SWAP1 DUP5 PUSH1 0x0 MSTORE DUP9 PUSH1 0x0 KECCAK256 SWAP2 PUSH1 0x0 JUMPDEST DUP11 DUP13 DUP4 DUP4 LT PUSH2 0x156B JUMPI POP POP POP DUP4 GT PUSH2 0x1552 JUMPI JUMPDEST POP POP DUP2 SHL ADD SWAP1 SSTORE PUSH2 0x1372 JUMP JUMPDEST DUP10 ADD MLOAD PUSH1 0x0 NOT PUSH1 0xF8 DUP5 PUSH1 0x3 SHL AND SHR NOT AND SWAP1 SSTORE DUP11 DUP1 PUSH2 0x1546 JUMP JUMPDEST DUP5 ADD MLOAD DUP6 SSTORE DUP11 SWAP7 SWAP1 SWAP5 ADD SWAP4 SWAP3 DUP4 ADD SWAP3 ADD PUSH2 0x1533 JUMP JUMPDEST DUP3 PUSH1 0x0 MSTORE DUP7 PUSH1 0x0 KECCAK256 DUP6 DUP1 DUP5 ADD DUP7 SHR DUP3 ADD SWAP3 DUP10 DUP6 LT PUSH2 0x15BB JUMPI JUMPDEST ADD DUP6 SHR ADD SWAP1 DUP7 SWAP1 JUMPDEST DUP3 DUP2 LT PUSH2 0x15AF JUMPI POP POP PUSH2 0x134A JUMP JUMPDEST PUSH1 0x0 DUP2 SSTORE ADD DUP7 SWAP1 PUSH2 0x15A1 JUMP JUMPDEST SWAP3 POP DUP2 SWAP3 PUSH2 0x1599 JUMP JUMPDEST POP POP SWAP1 PUSH2 0x9C9 PUSH32 0x12741FA7FAC2B8ED98F6279878746BB34936177209FA16187FCBE2E6E2CE5668 SWAP2 PUSH1 0x40 MLOAD SWAP2 DUP3 SWAP2 DUP3 PUSH2 0x1B80 JUMP JUMPDEST POP DUP1 MLOAD ISZERO ISZERO PUSH2 0x1295 JUMP JUMPDEST PUSH1 0xC0 DUP2 ADD SWAP1 DUP2 LT PUSH1 0x1 PUSH1 0x1 PUSH1 0x40 SHL SUB DUP3 GT OR PUSH2 0x6B9 JUMPI PUSH1 0x40 MSTORE JUMP JUMPDEST PUSH1 0x20 DUP2 ADD SWAP1 DUP2 LT PUSH1 0x1 PUSH1 0x1 PUSH1 0x40 SHL SUB DUP3 GT OR PUSH2 0x6B9 JUMPI PUSH1 0x40 MSTORE JUMP JUMPDEST PUSH1 0x40 DUP2 ADD SWAP1 DUP2 LT PUSH1 0x1 PUSH1 0x1 PUSH1 0x40 SHL SUB DUP3 GT OR PUSH2 0x6B9 JUMPI PUSH1 0x40 MSTORE JUMP JUMPDEST SWAP1 PUSH1 0x1F DUP1 NOT SWAP2 ADD AND DUP2 ADD SWAP1 DUP2 LT PUSH1 0x1 PUSH1 0x1 PUSH1 0x40 SHL SUB DUP3 GT OR PUSH2 0x6B9 JUMPI PUSH1 0x40 MSTORE JUMP JUMPDEST PUSH1 0x1 PUSH1 0x1 PUSH1 0x40 SHL SUB DUP2 GT PUSH2 0x6B9 JUMPI PUSH1 0x5 SHL PUSH1 0x20 ADD SWAP1 JUMP JUMPDEST CALLDATALOAD SWAP1 PUSH1 0x1 PUSH1 0x1 PUSH1 0xA0 SHL SUB DUP3 AND DUP3 SUB PUSH2 0xB7 JUMPI JUMP JUMPDEST PUSH1 0x1 PUSH1 0x1 PUSH1 0x40 SHL SUB DUP2 GT PUSH2 0x6B9 JUMPI PUSH1 0x1F ADD PUSH1 0x1F NOT AND PUSH1 0x20 ADD SWAP1 JUMP JUMPDEST SWAP3 SWAP2 SWAP3 PUSH2 0x16C6 DUP3 PUSH2 0x169F JUMP JUMPDEST SWAP2 PUSH2 0x16D4 PUSH1 0x40 MLOAD SWAP4 DUP5 PUSH2 0x1653 JUMP JUMPDEST DUP3 SWAP5 DUP2 DUP5 MSTORE DUP2 DUP4 ADD GT PUSH2 0xB7 JUMPI DUP3 DUP2 PUSH1 0x20 SWAP4 DUP5 PUSH1 0x0 SWAP7 ADD CALLDATACOPY ADD ADD MSTORE JUMP JUMPDEST DUP2 PUSH1 0x1F DUP3 ADD SLT ISZERO PUSH2 0xB7 JUMPI DUP1 CALLDATALOAD SWAP2 PUSH1 0x20 SWAP2 PUSH2 0x170B DUP5 PUSH2 0x1674 JUMP JUMPDEST SWAP4 PUSH1 0x40 SWAP2 PUSH2 0x171C PUSH1 0x40 MLOAD SWAP7 DUP8 PUSH2 0x1653 JUMP JUMPDEST DUP2 DUP7 MSTORE DUP5 DUP7 ADD SWAP2 DUP6 PUSH1 0x5 SWAP2 PUSH1 0x5 SHL DUP4 ADD ADD SWAP5 DUP1 DUP7 GT PUSH2 0xB7 JUMPI DUP7 DUP4 ADD SWAP4 JUMPDEST DUP7 DUP6 LT PUSH2 0x174C JUMPI POP POP POP POP POP POP POP POP SWAP1 JUMP JUMPDEST PUSH1 0x1 PUSH1 0x1 PUSH1 0x40 SHL SUB DUP6 CALLDATALOAD DUP2 DUP2 GT PUSH2 0xB7 JUMPI DUP6 ADD SWAP2 PUSH1 0xC0 SWAP2 DUP3 PUSH1 0x1F NOT DUP6 DUP8 SUB ADD SLT PUSH2 0xB7 JUMPI DUP9 MLOAD SWAP1 PUSH2 0x177C DUP3 PUSH2 0x1602 JUMP JUMPDEST PUSH2 0x1787 DUP13 DUP7 ADD PUSH2 0x168B JUMP JUMPDEST DUP3 MSTORE DUP10 DUP6 ADD CALLDATALOAD SWAP1 DUP2 GT PUSH2 0xB7 JUMPI DUP5 ADD DUP6 PUSH1 0x3F DUP3 ADD SLT ISZERO PUSH2 0xB7 JUMPI DUP6 DUP2 DUP12 DUP15 PUSH2 0x17B2 SWAP5 ADD CALLDATALOAD SWAP2 ADD PUSH2 0x16BA JUMP JUMPDEST DUP12 DUP3 ADD MSTORE PUSH1 0x60 DUP1 DUP6 ADD CALLDATALOAD SWAP4 DUP8 DUP6 LT ISZERO PUSH2 0xB7 JUMPI DUP13 SWAP6 DUP7 SWAP6 DUP13 DUP6 ADD MSTORE PUSH1 0x80 SWAP3 DUP4 DUP3 ADD CALLDATALOAD SWAP1 DUP6 ADD MSTORE PUSH1 0xA0 SWAP3 DUP4 DUP3 ADD CALLDATALOAD SWAP1 DUP6 ADD MSTORE ADD CALLDATALOAD SWAP1 DUP3 ADD MSTORE DUP2 MSTORE ADD SWAP5 ADD SWAP4 PUSH2 0x173A JUMP JUMPDEST PUSH1 0x3 NOT SWAP2 SWAP1 PUSH1 0x80 DUP4 DUP3 ADD SLT PUSH2 0xB7 JUMPI PUSH1 0x4 DUP1 CALLDATALOAD SWAP4 PUSH1 0x1 PUSH1 0x1 PUSH1 0x40 SHL SUB SWAP4 SWAP2 PUSH1 0x24 CALLDATALOAD DUP6 DUP2 GT PUSH2 0xB7 JUMPI DUP5 PUSH2 0x1828 SWAP2 DUP4 ADD PUSH2 0x16F1 JUMP JUMPDEST SWAP5 PUSH1 0x44 CALLDATALOAD PUSH1 0x5 DUP2 LT ISZERO PUSH2 0xB7 JUMPI SWAP5 PUSH1 0x64 CALLDATALOAD SWAP3 DUP3 DUP5 GT PUSH2 0xB7 JUMPI PUSH2 0x1C0 DUP1 SWAP6 DUP6 DUP5 SUB ADD SLT PUSH2 0xB7 JUMPI PUSH1 0x40 MLOAD SWAP5 DUP6 ADD DUP6 DUP2 LT DUP5 DUP3 GT OR PUSH2 0x19B2 JUMPI PUSH1 0x40 MSTORE DUP4 DUP2 ADD CALLDATALOAD DUP6 MSTORE PUSH2 0x1875 PUSH1 0x24 DUP6 ADD PUSH2 0x168B JUMP JUMPDEST PUSH1 0x20 SWAP1 PUSH1 0x20 DUP8 ADD MSTORE PUSH2 0x1889 PUSH1 0x44 DUP7 ADD PUSH2 0x168B JUMP JUMPDEST PUSH1 0x40 DUP8 ADD MSTORE PUSH1 0x64 DUP6 ADD CALLDATALOAD PUSH1 0x1 PUSH1 0x1 PUSH1 0xE0 SHL SUB NOT DUP2 AND DUP2 SUB PUSH2 0xB7 JUMPI PUSH1 0x60 DUP8 ADD MSTORE PUSH1 0x84 DUP6 ADD CALLDATALOAD DUP5 DUP2 GT PUSH2 0xB7 JUMPI DUP6 ADD SWAP1 DUP4 PUSH1 0x23 DUP4 ADD SLT ISZERO PUSH2 0xB7 JUMPI DUP3 DUP3 ADD CALLDATALOAD SWAP2 PUSH2 0x18D1 DUP4 PUSH2 0x1674 JUMP JUMPDEST SWAP3 PUSH2 0x18DF PUSH1 0x40 MLOAD SWAP5 DUP6 PUSH2 0x1653 JUMP JUMPDEST DUP1 DUP5 MSTORE PUSH1 0x24 PUSH1 0x20 DUP6 ADD SWAP2 PUSH1 0x5 SHL DUP4 ADD ADD SWAP2 DUP7 DUP4 GT PUSH2 0xB7 JUMPI PUSH1 0x24 ADD SWAP1 JUMPDEST DUP3 DUP3 LT PUSH2 0x199B JUMPI POP POP POP POP PUSH1 0x80 DUP7 ADD MSTORE PUSH1 0xA4 DUP5 ADD CALLDATALOAD SWAP3 DUP4 GT PUSH2 0xB7 JUMPI PUSH2 0x1924 SWAP3 DUP5 ADD ADD PUSH2 0x16F1 JUMP JUMPDEST PUSH1 0xA0 DUP4 ADD MSTORE PUSH1 0xC4 DUP2 ADD CALLDATALOAD PUSH1 0xC0 DUP4 ADD MSTORE PUSH1 0xE4 DUP2 ADD CALLDATALOAD PUSH1 0xE0 DUP4 ADD MSTORE PUSH2 0x104 DUP2 ADD CALLDATALOAD PUSH2 0x100 DUP4 ADD MSTORE PUSH2 0x124 DUP2 ADD CALLDATALOAD PUSH2 0x120 DUP4 ADD MSTORE PUSH2 0x144 DUP2 ADD CALLDATALOAD PUSH2 0x140 DUP4 ADD MSTORE PUSH2 0x164 DUP2 ADD CALLDATALOAD PUSH1 0x5 DUP2 LT ISZERO PUSH2 0xB7 JUMPI PUSH2 0x160 DUP4 ADD MSTORE PUSH2 0x184 DUP2 ADD CALLDATALOAD SWAP1 PUSH1 0x2 DUP3 LT ISZERO PUSH2 0xB7 JUMPI PUSH2 0x1A4 SWAP2 PUSH2 0x180 DUP5 ADD MSTORE ADD CALLDATALOAD PUSH2 0x1A0 DUP3 ADD MSTORE SWAP1 JUMP JUMPDEST DUP4 DUP1 SWAP2 PUSH2 0x19A7 DUP5 PUSH2 0x168B JUMP JUMPDEST DUP2 MSTORE ADD SWAP2 ADD SWAP1 PUSH2 0x18FC JUMP JUMPDEST PUSH1 0x41 DUP3 PUSH4 0x4E487B71 PUSH1 0xE0 SHL PUSH1 0x0 MSTORE MSTORE PUSH1 0x24 PUSH1 0x0 REVERT JUMPDEST SWAP1 PUSH1 0x20 PUSH1 0x3 NOT DUP4 ADD SLT PUSH2 0xB7 JUMPI PUSH1 0x4 CALLDATALOAD PUSH1 0x1 PUSH1 0x1 PUSH1 0x40 SHL SUB SWAP3 DUP4 DUP3 GT PUSH2 0xB7 JUMPI DUP1 PUSH1 0x23 DUP4 ADD SLT ISZERO PUSH2 0xB7 JUMPI DUP2 PUSH1 0x4 ADD CALLDATALOAD SWAP4 DUP5 GT PUSH2 0xB7 JUMPI PUSH1 0x24 DUP5 DUP4 ADD ADD GT PUSH2 0xB7 JUMPI PUSH1 0x24 ADD SWAP2 SWAP1 JUMP JUMPDEST PUSH1 0x0 JUMPDEST DUP4 DUP2 LT PUSH2 0x1A23 JUMPI POP POP PUSH1 0x0 SWAP2 ADD MSTORE JUMP JUMPDEST DUP2 DUP2 ADD MLOAD DUP4 DUP3 ADD MSTORE PUSH1 0x20 ADD PUSH2 0x1A13 JUMP JUMPDEST SWAP1 PUSH1 0x20 SWAP2 PUSH2 0x1A4C DUP2 MLOAD DUP1 SWAP3 DUP2 DUP6 MSTORE DUP6 DUP1 DUP7 ADD SWAP2 ADD PUSH2 0x1A10 JUMP JUMPDEST PUSH1 0x1F ADD PUSH1 0x1F NOT AND ADD ADD SWAP1 JUMP JUMPDEST SWAP1 PUSH1 0x2 DUP3 LT ISZERO PUSH2 0x5D8 JUMPI MSTORE JUMP JUMPDEST SWAP1 PUSH1 0x1 DUP3 DUP2 SHR SWAP3 AND DUP1 ISZERO PUSH2 0x1A95 JUMPI JUMPDEST PUSH1 0x20 DUP4 LT EQ PUSH2 0x1A7F JUMPI JUMP JUMPDEST PUSH4 0x4E487B71 PUSH1 0xE0 SHL PUSH1 0x0 MSTORE PUSH1 0x22 PUSH1 0x4 MSTORE PUSH1 0x24 PUSH1 0x0 REVERT JUMPDEST SWAP2 PUSH1 0x7F AND SWAP2 PUSH2 0x1A74 JUMP JUMPDEST SWAP1 PUSH1 0x40 MLOAD SWAP2 DUP3 PUSH1 0x0 DUP3 SLOAD PUSH2 0x1AB2 DUP2 PUSH2 0x1A65 JUMP JUMPDEST SWAP1 DUP2 DUP5 MSTORE PUSH1 0x20 SWAP5 PUSH1 0x1 SWAP2 PUSH1 0x1 DUP2 AND SWAP1 DUP2 PUSH1 0x0 EQ PUSH2 0x1B22 JUMPI POP PUSH1 0x1 EQ PUSH2 0x1AE3 JUMPI JUMPDEST POP POP POP PUSH2 0x1AE1 SWAP3 POP SUB DUP4 PUSH2 0x1653 JUMP JUMPDEST JUMP JUMPDEST PUSH1 0x0 SWAP1 DUP2 MSTORE DUP6 DUP2 KECCAK256 SWAP6 SWAP4 POP SWAP2 SWAP1 JUMPDEST DUP2 DUP4 LT PUSH2 0x1B0A JUMPI POP POP PUSH2 0x1AE1 SWAP4 POP DUP3 ADD ADD CODESIZE DUP1 DUP1 PUSH2 0x1AD2 JUMP JUMPDEST DUP6 SLOAD DUP9 DUP5 ADD DUP6 ADD MSTORE SWAP5 DUP6 ADD SWAP5 DUP8 SWAP5 POP SWAP2 DUP4 ADD SWAP2 PUSH2 0x1AF1 JUMP JUMPDEST SWAP3 POP POP POP PUSH2 0x1AE1 SWAP5 SWAP3 POP PUSH1 0xFF NOT AND DUP3 DUP5 ADD MSTORE ISZERO ISZERO PUSH1 0x5 SHL DUP3 ADD ADD CODESIZE DUP1 DUP1 PUSH2 0x1AD2 JUMP JUMPDEST ISZERO PUSH2 0x1B4B JUMPI JUMP JUMPDEST PUSH1 0x40 MLOAD PUSH3 0x461BCD PUSH1 0xE5 SHL DUP2 MSTORE PUSH1 0x20 PUSH1 0x4 DUP3 ADD MSTORE PUSH1 0xD PUSH1 0x24 DUP3 ADD MSTORE PUSH13 0x4F6E6C7920706C6174666F726D PUSH1 0x98 SHL PUSH1 0x44 DUP3 ADD MSTORE PUSH1 0x64 SWAP1 REVERT JUMPDEST SWAP2 SWAP1 PUSH1 0x20 DUP4 ADD SWAP3 PUSH1 0x5 DUP3 LT ISZERO PUSH2 0x5D8 JUMPI MSTORE JUMP JUMPDEST DUP1 MLOAD ISZERO PUSH2 0x1BA0 JUMPI PUSH1 0x20 ADD SWAP1 JUMP JUMPDEST PUSH4 0x4E487B71 PUSH1 0xE0 SHL PUSH1 0x0 MSTORE PUSH1 0x32 PUSH1 0x4 MSTORE PUSH1 0x24 PUSH1 0x0 REVERT JUMPDEST DUP1 MLOAD PUSH1 0x1 LT ISZERO PUSH2 0x1BA0 JUMPI PUSH1 0x40 ADD SWAP1 JUMP JUMPDEST DUP1 MLOAD PUSH1 0x2 LT ISZERO PUSH2 0x1BA0 JUMPI PUSH1 0x60 ADD SWAP1 JUMP JUMPDEST SWAP1 SWAP2 DUP1 PUSH1 0x40 SWAP4 PUSH1 0x20 DUP5 MSTORE DUP2 PUSH1 0x20 DUP6 ADD MSTORE DUP5 DUP5 ADD CALLDATACOPY PUSH1 0x0 DUP3 DUP3 ADD DUP5 ADD MSTORE PUSH1 0x1F ADD PUSH1 0x1F NOT AND ADD ADD SWAP1 JUMP INVALID LOG2 PUSH5 0x6970667358 0x22 SLT KECCAK256 SMOD SIGNEXTEND REVERT 0xF8 0xCB SLOAD CODESIZE 0x1F 0xCA DUP6 0xC NOT 0xBC MSTORE PUSH18 0xF7284941688816722454FAD53EA7FC991064 PUSH20 0x6F6C634300081800330000000000000000000000 "},"methodIdentifiers":{"LLM_AGENT_ID()":"2e90c1a9","PLATFORM()":"7efc77fa","analyses(uint256)":"af56cc72","classifySentiment(string)":"9bd8cf2e","getAnalysis(uint256)":"5170b934","getRequiredDeposit()":"58e56db4","handleClassification(uint256,(address,bytes,uint8,uint256,uint256,uint256)[],uint8,(uint256,address,address,bytes4,address[],(address,bytes,uint8,uint256,uint256,uint256)[],uint256,uint256,uint256,uint256,uint256,uint8,uint8,uint256))":"1a1ace28","handleScore(uint256,(address,bytes,uint8,uint256,uint256,uint256)[],uint8,(uint256,address,address,bytes4,address[],(address,bytes,uint8,uint256,uint256,uint256)[],uint256,uint256,uint256,uint256,uint256,uint8,uint8,uint256))":"7552b813","latestClassification()":"6c9ac38a","latestScore()":"c6c1cd4d","scoreSentiment(string)":"3ed77225"}}}}}