{"contracts/HealthTips.sol":{"HealthTips":{"abi":[{"anonymous":false,"inputs":[{"indexed":true,"internalType":"uint256","name":"requestId","type":"uint256"},{"indexed":false,"internalType":"enum ResponseStatus","name":"status","type":"uint8"}],"name":"TipFailed","type":"event"},{"anonymous":false,"inputs":[{"indexed":true,"internalType":"uint256","name":"requestId","type":"uint256"},{"indexed":false,"internalType":"string","name":"topic","type":"string"},{"indexed":false,"internalType":"string","name":"tip","type":"string"}],"name":"TipReceived","type":"event"},{"anonymous":false,"inputs":[{"indexed":true,"internalType":"uint256","name":"requestId","type":"uint256"},{"indexed":false,"internalType":"string","name":"topic","type":"string"}],"name":"TipRequested","type":"event"},{"inputs":[],"name":"LLM_AGENT_ID","outputs":[{"internalType":"uint256","name":"","type":"uint256"}],"stateMutability":"view","type":"function"},{"inputs":[],"name":"PLATFORM","outputs":[{"internalType":"contract IAgentRequester","name":"","type":"address"}],"stateMutability":"view","type":"function"},{"inputs":[{"internalType":"string","name":"topic","type":"string"}],"name":"getHealthTip","outputs":[{"internalType":"uint256","name":"requestId","type":"uint256"}],"stateMutability":"payable","type":"function"},{"inputs":[],"name":"getRequiredDeposit","outputs":[{"internalType":"uint256","name":"","type":"uint256"}],"stateMutability":"view","type":"function"},{"inputs":[{"internalType":"uint256","name":"index","type":"uint256"}],"name":"getTip","outputs":[{"internalType":"string","name":"topic","type":"string"},{"internalType":"string","name":"tip","type":"string"}],"stateMutability":"view","type":"function"},{"inputs":[],"name":"getTipCount","outputs":[{"internalType":"uint256","name":"","type":"uint256"}],"stateMutability":"view","type":"function"},{"inputs":[{"internalType":"uint256","name":"requestId","type":"uint256"},{"components":[{"internalType":"address","name":"validator","type":"address"},{"internalType":"bytes","name":"result","type":"bytes"},{"internalType":"enum ResponseStatus","name":"status","type":"uint8"},{"internalType":"uint256","name":"receipt","type":"uint256"},{"internalType":"uint256","name":"timestamp","type":"uint256"},{"internalType":"uint256","name":"executionCost","type":"uint256"}],"internalType":"struct Response[]","name":"responses","type":"tuple[]"},{"internalType":"enum ResponseStatus","name":"status","type":"uint8"},{"components":[{"internalType":"uint256","name":"id","type":"uint256"},{"internalType":"address","name":"requester","type":"address"},{"internalType":"address","name":"callbackAddress","type":"address"},{"internalType":"bytes4","name":"callbackSelector","type":"bytes4"},{"internalType":"address[]","name":"subcommittee","type":"address[]"},{"components":[{"internalType":"address","name":"validator","type":"address"},{"internalType":"bytes","name":"result","type":"bytes"},{"internalType":"enum ResponseStatus","name":"status","type":"uint8"},{"internalType":"uint256","name":"receipt","type":"uint256"},{"internalType":"uint256","name":"timestamp","type":"uint256"},{"internalType":"uint256","name":"executionCost","type":"uint256"}],"internalType":"struct Response[]","name":"responses","type":"tuple[]"},{"internalType":"uint256","name":"responseCount","type":"uint256"},{"internalType":"uint256","name":"failureCount","type":"uint256"},{"internalType":"uint256","name":"threshold","type":"uint256"},{"internalType":"uint256","name":"createdAt","type":"uint256"},{"internalType":"uint256","name":"deadline","type":"uint256"},{"internalType":"enum ResponseStatus","name":"status","type":"uint8"},{"internalType":"enum ConsensusType","name":"consensusType","type":"uint8"},{"internalType":"uint256","name":"remainingBudget","type":"uint256"}],"internalType":"struct Request","name":"","type":"tuple"}],"name":"handleTip","outputs":[],"stateMutability":"nonpayable","type":"function"},{"inputs":[{"internalType":"uint256","name":"","type":"uint256"}],"name":"requestToTipIndex","outputs":[{"internalType":"uint256","name":"","type":"uint256"}],"stateMutability":"view","type":"function"},{"inputs":[{"internalType":"uint256","name":"","type":"uint256"}],"name":"tips","outputs":[{"internalType":"string","name":"","type":"string"}],"stateMutability":"view","type":"function"},{"inputs":[{"internalType":"uint256","name":"","type":"uint256"}],"name":"topics","outputs":[{"internalType":"string","name":"","type":"string"}],"stateMutability":"view","type":"function"},{"stateMutability":"payable","type":"receive"}],"evm":{"bytecode":{"linkReferences":{},"object":"6080806040523461001657611252908161001c8239f35b600080fdfe60406080815260048036101561001f575b5050361561001d57600080fd5b005b600091823560e01c806318d9adab14610de15780632e90c1a914610dbe578063566d8db41461081557806358e56db4146107825780635b703f5c146107225780637dc1a64f146107035780637efc77fa146106d057806390e82784146106a8578063a5c68c59146106595763a71edbb91461009a5750610010565b3461065557600319916080368401126106515780359260249067ffffffffffffffff823581811161064d576100d29036908601611075565b936044359160058310156106495760643595818711610645576101c0809588360301126106455787519485018581108382111761063357885286830135855261011c868801611040565b946020958682015261013060448901611040565b818a01526064880135976001600160e01b0319891689036104f757606098606083015260848101358481116106135781013660238201121561061357858101359061017a82611028565b916101878d519384610edc565b8083528a8a84019160051b8301019136831161062f578b8b9101915b8383106106175750505050608083015260a4810135848111610613576101ce90863691840101611075565b60a083015260c481013560c083015260e481013560e08301526101048101356101008301526101248101356101208301526101448101356101408301526101648101356005811015610613576101608301526101848101356002811015610613576101a0916101a491610180850152013591015273037bb9c718f3f7fe5ecbdb0b600d607b5270677633036105e157888a5260028552878a20549360028114806105d7575b1561051157508051156104ff578480910151015194855186019585818189019803126104fb5785810151908382116104f7570186603f820112156104fb57858101516102be81611059565b976102cb8b51998a610edc565b8189528a82840101116104f7576102e7918a888a019101610fe0565b6102f084610e55565b9390936104e75786519283116104d6575050610316816103108454610ea2565b846111d7565b83601f8211600114610471578161034f949392610348928c91610466575b508160011b916000199060031b1c19161790565b9055610e0b565b5093805194818652879481549161036583610ea2565b809489015260019260018116908160001461041b57506001146103c3575b50505050828493926103bd92857f4cf0ed97e288251b3ddeecf039b4d8f4cf8e7d705675006acc0147a747065fb697950390850152611003565b0390a280f35b895283892093955088935b838510610408575050505083016060019180827f4cf0ed97e288251b3ddeecf039b4d8f4cf8e7d705675006acc0147a747065fb686610383565b80548886018301529386019382016103ce565b60ff19166060808b019190915294151560051b890190940196508493508592507f4cf0ed97e288251b3ddeecf039b4d8f4cf8e7d705675006acc0147a747065fb69150879050610383565b905087015138610334565b828a52848a2090601f1983168b5b878282106104c057505091839161034f969594600194106104a7575b5050811b019055610e0b565b88015160001960f88460031b161c19169055388061049b565b600184958293958c01518155019401920161047f565b634e487b7160e01b8b526041905289fd5b634e487b7160e01b8b528a905289fd5b8b80fd5b8a80fd5b634e487b7160e01b8a5260328352858afd5b9599989794965050509061052490610e55565b9190916105c657507fd74741a4fb07cc96da114741e7d4ee9892f215c65c763ae6cfeeafecd2ed80ac9495965061055b8154610ea2565b601f81116105a5575b506049815586526334b6b29760e11b60018488207f556e61626c6520746f2067656e657261746520746970206174207468697320748155015551908152a280f35b8188528488206105c091601f0160051c8101906002016111c0565b38610564565b634e487b7160e01b87528690528686fd5b5081511515610273565b875162461bcd60e51b8152808401869052600d818801526c4f6e6c7920706c6174666f726d60981b6044820152606490fd5b8c80fd5b819061062284611040565b8152019101908a906101a3565b8f80fd5b634e487b7160e01b8b5260418452868bfd5b8980fd5b8880fd5b8780fd5b8380fd5b8280fd5b5090346106555760203660031901126106555735916001548310156106a5575061068e6106886106a193610e55565b90610fb9565b9051918291602083526020830190611003565b0390f35b80fd5b5090346106555760203660031901126106555760209282913581526002845220549051908152f35b8382346106ff57816003193601126106ff576020905173037bb9c718f3f7fe5ecbdb0b600d607b527067768152f35b5080fd5b8382346106ff57816003193601126106ff576020906001549051908152f35b5091346106a55760203660031901126106a5575035906106a161076161075b61075461074d86610e0b565b5095610e55565b5094610f14565b93610f14565b6107748351948486958652850190611003565b908382036020850152611003565b5034610655578260031936011261065557602081518093630ffeb17d60e11b82528173037bb9c718f3f7fe5ecbdb0b600d607b527067765afa91821561080b5783926107d3575b6020838351908152f35b9091506020813d602011610803575b816107ef60209383610edc565b8101031261065557602092505190386107c9565b3d91506107e2565b81513d85823e3d90fd5b506020918260031936011261065157803567ffffffffffffffff948582116106a557366023830112156106a55781830135928684116106ff576024908184019136818787010111610651578651987f47697665206120636f6e636973652c2065766964656e63652d62617365642068898b015270032b0b63a34103a34b81030b137baba1d1607d1b888b0152868460518c013761090e60888b89810161017160f51b60518201527f4b65657020697420746f20312d322073656e74656e6365732e20446f206e6f746053820152741034b731b63ab232903234b9b1b630b4b6b2b9399760591b607382015203606881018d52018b610edc565b87519089820190811182821017610c1b578089528582528851631fcf941360e31b8b8201526080848201529a8b919061094b9060a4840190611003565b8281039360231985016044850152605282527f596f752061726520612068656c7066756c206865616c746820617373697374618d8301527f6e742070726f766964696e672061636375726174652c2065766964656e63652d8c830152713130b9b2b2103432b0b63a34103a34b8399760711b60608301526080820190605c600196876064880152016084860152518091528c60a0830160a08360051b8501019493878c935b858510610d8c57505050505050500395610a12601f19978881018d528c610edc565b8851630ffeb17d60e11b815273037bb9c718f3f7fe5ecbdb0b600d607b52706776908b818781855afa908115610d82578891610d55575b506702ea11e32ad500008101809111610d43573410610d0b5789516345de5df160e11b815267b24ac1afbcefc70886820152308582015263a71edbb960e01b6044820152608060648201529a9b8c918c9182908190610aac906084830190611003565b039134905af1998a15610d0157869a610cce575b50855490680100000000000000009182811015610cbc578084610ae592018955610e0b565b919091610cab57898d8692610b0483610afe8754610ea2565b876111d7565b8a91601f8411600114610c3a5750928291610b36948c93610c2d575b5050508160011b916000199060031b1c19161790565b90555b815490811015610c1b578082610b5192018355610e55565b610c0a57808b610b6360009354610ea2565b601f8111610beb575b50505554600019810192908311610bda5750507f7a42dd8a2ec4a9e4bdbac32e23b2ea523f8beab7ddb5e44bd58efb41aae0b6a293601f8685818a968d968d809c9a526002885288842055875198878a9889528801528787013785828601015201168101030190a251908152f35b634e487b7160e01b85526011905283fd5b601f610c0392848b528a20910160051c8101906111c0565b8b38610b6c565b634e487b7160e01b86528584528286fd5b634e487b7160e01b8652604184528286fd5b0101359050863880610b20565b939190928c8116868d52858d20958d905b8a838310610c895750505010610c6c575b505050508289811b019055610b39565b8c60f86000199160031b161c199201013516905538808581610c5c565b9093508497849395968493978901013581550196019301918993928f92610c4b565b634e487b7160e01b88528786528488fd5b634e487b7160e01b8852604186528488fd5b9099508a81813d8311610cfa575b610ce68183610edc565b81010312610cf657519838610ac0565b8580fd5b503d610cdc565b89513d88823e3d90fd5b895162461bcd60e51b81528086018c90526013818601527213995959080c0b8c8d0814d515081d1bdd185b606a1b6044820152606490fd5b634e487b7160e01b8852601186528488fd5b90508b81813d8311610d7b575b610d6c8183610edc565b8101031261064d575138610a49565b503d610d62565b8b513d8a823e3d90fd5b9193959750919395610da98291609f198682030187528951611003565b97019301930190928f959492938f88906109f0565b8382346106ff57816003193601126106ff576020905167b24ac1afbcefc7088152f35b50903461065557602036600319011261065557359180548310156106a5575061068e6106886106a1935b906000918254811015610e41578280527f290decd9548b62a8d60345a988386fc84ba6bc95484008f6362f93160ef3e563019190565b634e487b7160e01b83526032600452602483fd5b600154811015610e8c5760016000527fb10e2d527612073b26eecdfd717e6a320cf44b4afac2b0732d9fcbe2b7fa0cf60190600090565b634e487b7160e01b600052603260045260246000fd5b90600182811c92168015610ed2575b6020831014610ebc57565b634e487b7160e01b600052602260045260246000fd5b91607f1691610eb1565b90601f8019910116810190811067ffffffffffffffff821117610efe57604052565b634e487b7160e01b600052604160045260246000fd5b90604051918260008254610f2781610ea2565b90818452602094600191600181169081600014610f975750600114610f58575b505050610f5692500383610edc565b565b600090815285812095935091905b818310610f7f575050610f569350820101388080610f47565b85548884018501529485019487945091830191610f66565b92505050610f5694925060ff191682840152151560051b820101388080610f47565b90610fca57610fc790610f14565b90565b634e487b7160e01b600052600060045260246000fd5b60005b838110610ff35750506000910152565b8181015183820152602001610fe3565b9060209161101c81518092818552858086019101610fe0565b601f01601f1916010190565b67ffffffffffffffff8111610efe5760051b60200190565b35906001600160a01b038216820361105457565b600080fd5b67ffffffffffffffff8111610efe57601f01601f191660200190565b9080601f8301121561105457602090823561108f81611028565b9360409061109f82519687610edc565b828652848601918560059460051b8301019385851161105457868301935b8585106110cf57505050505050505090565b67ffffffffffffffff853581811161105457850160c080601f19838c03011261105457855192818401848110828211176111ab5787526111108c8401611040565b845286830135908111611054578201918a603f84011215611054578b83013561113881611059565b9061114589519283610edc565b8082528c8982870101116110545780898f9601868401376000948591830101528c8501526060928382013590878210156106a55750878501526080808201359385019390935260a0808201359385019390935201359082015281529387019387016110bd565b60246000634e487b7160e01b81526041600452fd5b8181106111cb575050565b600081556001016111c0565b9190601f81116111e657505050565b610f56926000526020600020906020601f840160051c83019310611212575b601f0160051c01906111c0565b909150819061120556fea264697066735822122052d910b15425ab117171736d761ee5155d11a82f983e67d1d1234203c9397ab464736f6c63430008180033","opcodes":"PUSH1 0x80 DUP1 PUSH1 0x40 MSTORE CALLVALUE PUSH2 0x16 JUMPI PUSH2 0x1252 SWAP1 DUP2 PUSH2 0x1C DUP3 CODECOPY RETURN JUMPDEST PUSH1 0x0 DUP1 REVERT INVALID PUSH1 0x40 PUSH1 0x80 DUP2 MSTORE PUSH1 0x4 DUP1 CALLDATASIZE LT ISZERO PUSH2 0x1F JUMPI JUMPDEST POP POP CALLDATASIZE ISZERO PUSH2 0x1D JUMPI PUSH1 0x0 DUP1 REVERT JUMPDEST STOP JUMPDEST PUSH1 0x0 SWAP2 DUP3 CALLDATALOAD PUSH1 0xE0 SHR DUP1 PUSH4 0x18D9ADAB EQ PUSH2 0xDE1 JUMPI DUP1 PUSH4 0x2E90C1A9 EQ PUSH2 0xDBE JUMPI DUP1 PUSH4 0x566D8DB4 EQ PUSH2 0x815 JUMPI DUP1 PUSH4 0x58E56DB4 EQ PUSH2 0x782 JUMPI DUP1 PUSH4 0x5B703F5C EQ PUSH2 0x722 JUMPI DUP1 PUSH4 0x7DC1A64F EQ PUSH2 0x703 JUMPI DUP1 PUSH4 0x7EFC77FA EQ PUSH2 0x6D0 JUMPI DUP1 PUSH4 0x90E82784 EQ PUSH2 0x6A8 JUMPI DUP1 PUSH4 0xA5C68C59 EQ PUSH2 0x659 JUMPI PUSH4 0xA71EDBB9 EQ PUSH2 0x9A JUMPI POP PUSH2 0x10 JUMP JUMPDEST CALLVALUE PUSH2 0x655 JUMPI PUSH1 0x3 NOT SWAP2 PUSH1 0x80 CALLDATASIZE DUP5 ADD SLT PUSH2 0x651 JUMPI DUP1 CALLDATALOAD SWAP3 PUSH1 0x24 SWAP1 PUSH8 0xFFFFFFFFFFFFFFFF DUP3 CALLDATALOAD DUP2 DUP2 GT PUSH2 0x64D JUMPI PUSH2 0xD2 SWAP1 CALLDATASIZE SWAP1 DUP7 ADD PUSH2 0x1075 JUMP JUMPDEST SWAP4 PUSH1 0x44 CALLDATALOAD SWAP2 PUSH1 0x5 DUP4 LT ISZERO PUSH2 0x649 JUMPI PUSH1 0x64 CALLDATALOAD SWAP6 DUP2 DUP8 GT PUSH2 0x645 JUMPI PUSH2 0x1C0 DUP1 SWAP6 DUP9 CALLDATASIZE SUB ADD SLT PUSH2 0x645 JUMPI DUP8 MLOAD SWAP5 DUP6 ADD DUP6 DUP2 LT DUP4 DUP3 GT OR PUSH2 0x633 JUMPI DUP9 MSTORE DUP7 DUP4 ADD CALLDATALOAD DUP6 MSTORE PUSH2 0x11C DUP7 DUP9 ADD PUSH2 0x1040 JUMP JUMPDEST SWAP5 PUSH1 0x20 SWAP6 DUP7 DUP3 ADD MSTORE PUSH2 0x130 PUSH1 0x44 DUP10 ADD PUSH2 0x1040 JUMP JUMPDEST DUP2 DUP11 ADD MSTORE PUSH1 0x64 DUP9 ADD CALLDATALOAD SWAP8 PUSH1 0x1 PUSH1 0x1 PUSH1 0xE0 SHL SUB NOT DUP10 AND DUP10 SUB PUSH2 0x4F7 JUMPI PUSH1 0x60 SWAP9 PUSH1 0x60 DUP4 ADD MSTORE PUSH1 0x84 DUP2 ADD CALLDATALOAD DUP5 DUP2 GT PUSH2 0x613 JUMPI DUP2 ADD CALLDATASIZE PUSH1 0x23 DUP3 ADD SLT ISZERO PUSH2 0x613 JUMPI DUP6 DUP2 ADD CALLDATALOAD SWAP1 PUSH2 0x17A DUP3 PUSH2 0x1028 JUMP JUMPDEST SWAP2 PUSH2 0x187 DUP14 MLOAD SWAP4 DUP5 PUSH2 0xEDC JUMP JUMPDEST DUP1 DUP4 MSTORE DUP11 DUP11 DUP5 ADD SWAP2 PUSH1 0x5 SHL DUP4 ADD ADD SWAP2 CALLDATASIZE DUP4 GT PUSH2 0x62F JUMPI DUP12 DUP12 SWAP2 ADD SWAP2 JUMPDEST DUP4 DUP4 LT PUSH2 0x617 JUMPI POP POP POP POP PUSH1 0x80 DUP4 ADD MSTORE PUSH1 0xA4 DUP2 ADD CALLDATALOAD DUP5 DUP2 GT PUSH2 0x613 JUMPI PUSH2 0x1CE SWAP1 DUP7 CALLDATASIZE SWAP2 DUP5 ADD ADD PUSH2 0x1075 JUMP JUMPDEST PUSH1 0xA0 DUP4 ADD MSTORE PUSH1 0xC4 DUP2 ADD CALLDATALOAD PUSH1 0xC0 DUP4 ADD MSTORE PUSH1 0xE4 DUP2 ADD CALLDATALOAD PUSH1 0xE0 DUP4 ADD MSTORE PUSH2 0x104 DUP2 ADD CALLDATALOAD PUSH2 0x100 DUP4 ADD MSTORE PUSH2 0x124 DUP2 ADD CALLDATALOAD PUSH2 0x120 DUP4 ADD MSTORE PUSH2 0x144 DUP2 ADD CALLDATALOAD PUSH2 0x140 DUP4 ADD MSTORE PUSH2 0x164 DUP2 ADD CALLDATALOAD PUSH1 0x5 DUP2 LT ISZERO PUSH2 0x613 JUMPI PUSH2 0x160 DUP4 ADD MSTORE PUSH2 0x184 DUP2 ADD CALLDATALOAD PUSH1 0x2 DUP2 LT ISZERO PUSH2 0x613 JUMPI PUSH2 0x1A0 SWAP2 PUSH2 0x1A4 SWAP2 PUSH2 0x180 DUP6 ADD MSTORE ADD CALLDATALOAD SWAP2 ADD MSTORE PUSH20 0x37BB9C718F3F7FE5ECBDB0B600D607B52706776 CALLER SUB PUSH2 0x5E1 JUMPI DUP9 DUP11 MSTORE PUSH1 0x2 DUP6 MSTORE DUP8 DUP11 KECCAK256 SLOAD SWAP4 PUSH1 0x2 DUP2 EQ DUP1 PUSH2 0x5D7 JUMPI JUMPDEST ISZERO PUSH2 0x511 JUMPI POP DUP1 MLOAD ISZERO PUSH2 0x4FF JUMPI DUP5 DUP1 SWAP2 ADD MLOAD ADD MLOAD SWAP5 DUP6 MLOAD DUP7 ADD SWAP6 DUP6 DUP2 DUP2 DUP10 ADD SWAP9 SUB SLT PUSH2 0x4FB JUMPI DUP6 DUP2 ADD MLOAD SWAP1 DUP4 DUP3 GT PUSH2 0x4F7 JUMPI ADD DUP7 PUSH1 0x3F DUP3 ADD SLT ISZERO PUSH2 0x4FB JUMPI DUP6 DUP2 ADD MLOAD PUSH2 0x2BE DUP2 PUSH2 0x1059 JUMP JUMPDEST SWAP8 PUSH2 0x2CB DUP12 MLOAD SWAP10 DUP11 PUSH2 0xEDC JUMP JUMPDEST DUP2 DUP10 MSTORE DUP11 DUP3 DUP5 ADD ADD GT PUSH2 0x4F7 JUMPI PUSH2 0x2E7 SWAP2 DUP11 DUP9 DUP11 ADD SWAP2 ADD PUSH2 0xFE0 JUMP JUMPDEST PUSH2 0x2F0 DUP5 PUSH2 0xE55 JUMP JUMPDEST SWAP4 SWAP1 SWAP4 PUSH2 0x4E7 JUMPI DUP7 MLOAD SWAP3 DUP4 GT PUSH2 0x4D6 JUMPI POP POP PUSH2 0x316 DUP2 PUSH2 0x310 DUP5 SLOAD PUSH2 0xEA2 JUMP JUMPDEST DUP5 PUSH2 0x11D7 JUMP JUMPDEST DUP4 PUSH1 0x1F DUP3 GT PUSH1 0x1 EQ PUSH2 0x471 JUMPI DUP2 PUSH2 0x34F SWAP5 SWAP4 SWAP3 PUSH2 0x348 SWAP3 DUP13 SWAP2 PUSH2 0x466 JUMPI JUMPDEST POP DUP2 PUSH1 0x1 SHL SWAP2 PUSH1 0x0 NOT SWAP1 PUSH1 0x3 SHL SHR NOT AND OR SWAP1 JUMP JUMPDEST SWAP1 SSTORE PUSH2 0xE0B JUMP JUMPDEST POP SWAP4 DUP1 MLOAD SWAP5 DUP2 DUP7 MSTORE DUP8 SWAP5 DUP2 SLOAD SWAP2 PUSH2 0x365 DUP4 PUSH2 0xEA2 JUMP JUMPDEST DUP1 SWAP5 DUP10 ADD MSTORE PUSH1 0x1 SWAP3 PUSH1 0x1 DUP2 AND SWAP1 DUP2 PUSH1 0x0 EQ PUSH2 0x41B JUMPI POP PUSH1 0x1 EQ PUSH2 0x3C3 JUMPI JUMPDEST POP POP POP POP DUP3 DUP5 SWAP4 SWAP3 PUSH2 0x3BD SWAP3 DUP6 PUSH32 0x4CF0ED97E288251B3DDEECF039B4D8F4CF8E7D705675006ACC0147A747065FB6 SWAP8 SWAP6 SUB SWAP1 DUP6 ADD MSTORE PUSH2 0x1003 JUMP JUMPDEST SUB SWAP1 LOG2 DUP1 RETURN JUMPDEST DUP10 MSTORE DUP4 DUP10 KECCAK256 SWAP4 SWAP6 POP DUP9 SWAP4 JUMPDEST DUP4 DUP6 LT PUSH2 0x408 JUMPI POP POP POP POP DUP4 ADD PUSH1 0x60 ADD SWAP2 DUP1 DUP3 PUSH32 0x4CF0ED97E288251B3DDEECF039B4D8F4CF8E7D705675006ACC0147A747065FB6 DUP7 PUSH2 0x383 JUMP JUMPDEST DUP1 SLOAD DUP9 DUP7 ADD DUP4 ADD MSTORE SWAP4 DUP7 ADD SWAP4 DUP3 ADD PUSH2 0x3CE JUMP JUMPDEST PUSH1 0xFF NOT AND PUSH1 0x60 DUP1 DUP12 ADD SWAP2 SWAP1 SWAP2 MSTORE SWAP5 ISZERO ISZERO PUSH1 0x5 SHL DUP10 ADD SWAP1 SWAP5 ADD SWAP7 POP DUP5 SWAP4 POP DUP6 SWAP3 POP PUSH32 0x4CF0ED97E288251B3DDEECF039B4D8F4CF8E7D705675006ACC0147A747065FB6 SWAP2 POP DUP8 SWAP1 POP PUSH2 0x383 JUMP JUMPDEST SWAP1 POP DUP8 ADD MLOAD CODESIZE PUSH2 0x334 JUMP JUMPDEST DUP3 DUP11 MSTORE DUP5 DUP11 KECCAK256 SWAP1 PUSH1 0x1F NOT DUP4 AND DUP12 JUMPDEST DUP8 DUP3 DUP3 LT PUSH2 0x4C0 JUMPI POP POP SWAP2 DUP4 SWAP2 PUSH2 0x34F SWAP7 SWAP6 SWAP5 PUSH1 0x1 SWAP5 LT PUSH2 0x4A7 JUMPI JUMPDEST POP POP DUP2 SHL ADD SWAP1 SSTORE PUSH2 0xE0B JUMP JUMPDEST DUP9 ADD MLOAD PUSH1 0x0 NOT PUSH1 0xF8 DUP5 PUSH1 0x3 SHL AND SHR NOT AND SWAP1 SSTORE CODESIZE DUP1 PUSH2 0x49B JUMP JUMPDEST PUSH1 0x1 DUP5 SWAP6 DUP3 SWAP4 SWAP6 DUP13 ADD MLOAD DUP2 SSTORE ADD SWAP5 ADD SWAP3 ADD PUSH2 0x47F JUMP JUMPDEST PUSH4 0x4E487B71 PUSH1 0xE0 SHL DUP12 MSTORE PUSH1 0x41 SWAP1 MSTORE DUP10 REVERT JUMPDEST PUSH4 0x4E487B71 PUSH1 0xE0 SHL DUP12 MSTORE DUP11 SWAP1 MSTORE DUP10 REVERT JUMPDEST DUP12 DUP1 REVERT JUMPDEST DUP11 DUP1 REVERT JUMPDEST PUSH4 0x4E487B71 PUSH1 0xE0 SHL DUP11 MSTORE PUSH1 0x32 DUP4 MSTORE DUP6 DUP11 REVERT JUMPDEST SWAP6 SWAP10 SWAP9 SWAP8 SWAP5 SWAP7 POP POP POP SWAP1 PUSH2 0x524 SWAP1 PUSH2 0xE55 JUMP JUMPDEST SWAP2 SWAP1 SWAP2 PUSH2 0x5C6 JUMPI POP PUSH32 0xD74741A4FB07CC96DA114741E7D4EE9892F215C65C763AE6CFEEAFECD2ED80AC SWAP5 SWAP6 SWAP7 POP PUSH2 0x55B DUP2 SLOAD PUSH2 0xEA2 JUMP JUMPDEST PUSH1 0x1F DUP2 GT PUSH2 0x5A5 JUMPI JUMPDEST POP PUSH1 0x49 DUP2 SSTORE DUP7 MSTORE PUSH4 0x34B6B297 PUSH1 0xE1 SHL PUSH1 0x1 DUP5 DUP9 KECCAK256 PUSH32 0x556E61626C6520746F2067656E65726174652074697020617420746869732074 DUP2 SSTORE ADD SSTORE MLOAD SWAP1 DUP2 MSTORE LOG2 DUP1 RETURN JUMPDEST DUP2 DUP9 MSTORE DUP5 DUP9 KECCAK256 PUSH2 0x5C0 SWAP2 PUSH1 0x1F ADD PUSH1 0x5 SHR DUP2 ADD SWAP1 PUSH1 0x2 ADD PUSH2 0x11C0 JUMP JUMPDEST CODESIZE PUSH2 0x564 JUMP JUMPDEST PUSH4 0x4E487B71 PUSH1 0xE0 SHL DUP8 MSTORE DUP7 SWAP1 MSTORE DUP7 DUP7 REVERT JUMPDEST POP DUP2 MLOAD ISZERO ISZERO PUSH2 0x273 JUMP JUMPDEST DUP8 MLOAD PUSH3 0x461BCD PUSH1 0xE5 SHL DUP2 MSTORE DUP1 DUP5 ADD DUP7 SWAP1 MSTORE PUSH1 0xD DUP2 DUP9 ADD MSTORE PUSH13 0x4F6E6C7920706C6174666F726D PUSH1 0x98 SHL PUSH1 0x44 DUP3 ADD MSTORE PUSH1 0x64 SWAP1 REVERT JUMPDEST DUP13 DUP1 REVERT JUMPDEST DUP2 SWAP1 PUSH2 0x622 DUP5 PUSH2 0x1040 JUMP JUMPDEST DUP2 MSTORE ADD SWAP2 ADD SWAP1 DUP11 SWAP1 PUSH2 0x1A3 JUMP JUMPDEST DUP16 DUP1 REVERT JUMPDEST PUSH4 0x4E487B71 PUSH1 0xE0 SHL DUP12 MSTORE PUSH1 0x41 DUP5 MSTORE DUP7 DUP12 REVERT JUMPDEST DUP10 DUP1 REVERT JUMPDEST DUP9 DUP1 REVERT JUMPDEST DUP8 DUP1 REVERT JUMPDEST DUP4 DUP1 REVERT JUMPDEST DUP3 DUP1 REVERT JUMPDEST POP SWAP1 CALLVALUE PUSH2 0x655 JUMPI PUSH1 0x20 CALLDATASIZE PUSH1 0x3 NOT ADD SLT PUSH2 0x655 JUMPI CALLDATALOAD SWAP2 PUSH1 0x1 SLOAD DUP4 LT ISZERO PUSH2 0x6A5 JUMPI POP PUSH2 0x68E PUSH2 0x688 PUSH2 0x6A1 SWAP4 PUSH2 0xE55 JUMP JUMPDEST SWAP1 PUSH2 0xFB9 JUMP JUMPDEST SWAP1 MLOAD SWAP2 DUP3 SWAP2 PUSH1 0x20 DUP4 MSTORE PUSH1 0x20 DUP4 ADD SWAP1 PUSH2 0x1003 JUMP JUMPDEST SUB SWAP1 RETURN JUMPDEST DUP1 REVERT JUMPDEST POP SWAP1 CALLVALUE PUSH2 0x655 JUMPI PUSH1 0x20 CALLDATASIZE PUSH1 0x3 NOT ADD SLT PUSH2 0x655 JUMPI PUSH1 0x20 SWAP3 DUP3 SWAP2 CALLDATALOAD DUP2 MSTORE PUSH1 0x2 DUP5 MSTORE KECCAK256 SLOAD SWAP1 MLOAD SWAP1 DUP2 MSTORE RETURN JUMPDEST DUP4 DUP3 CALLVALUE PUSH2 0x6FF JUMPI DUP2 PUSH1 0x3 NOT CALLDATASIZE ADD SLT PUSH2 0x6FF JUMPI PUSH1 0x20 SWAP1 MLOAD PUSH20 0x37BB9C718F3F7FE5ECBDB0B600D607B52706776 DUP2 MSTORE RETURN JUMPDEST POP DUP1 REVERT JUMPDEST DUP4 DUP3 CALLVALUE PUSH2 0x6FF JUMPI DUP2 PUSH1 0x3 NOT CALLDATASIZE ADD SLT PUSH2 0x6FF JUMPI PUSH1 0x20 SWAP1 PUSH1 0x1 SLOAD SWAP1 MLOAD SWAP1 DUP2 MSTORE RETURN JUMPDEST POP SWAP2 CALLVALUE PUSH2 0x6A5 JUMPI PUSH1 0x20 CALLDATASIZE PUSH1 0x3 NOT ADD SLT PUSH2 0x6A5 JUMPI POP CALLDATALOAD SWAP1 PUSH2 0x6A1 PUSH2 0x761 PUSH2 0x75B PUSH2 0x754 PUSH2 0x74D DUP7 PUSH2 0xE0B JUMP JUMPDEST POP SWAP6 PUSH2 0xE55 JUMP JUMPDEST POP SWAP5 PUSH2 0xF14 JUMP JUMPDEST SWAP4 PUSH2 0xF14 JUMP JUMPDEST PUSH2 0x774 DUP4 MLOAD SWAP5 DUP5 DUP7 SWAP6 DUP7 MSTORE DUP6 ADD SWAP1 PUSH2 0x1003 JUMP JUMPDEST SWAP1 DUP4 DUP3 SUB PUSH1 0x20 DUP6 ADD MSTORE PUSH2 0x1003 JUMP JUMPDEST POP CALLVALUE PUSH2 0x655 JUMPI DUP3 PUSH1 0x3 NOT CALLDATASIZE ADD SLT PUSH2 0x655 JUMPI PUSH1 0x20 DUP2 MLOAD DUP1 SWAP4 PUSH4 0xFFEB17D PUSH1 0xE1 SHL DUP3 MSTORE DUP2 PUSH20 0x37BB9C718F3F7FE5ECBDB0B600D607B52706776 GAS STATICCALL SWAP2 DUP3 ISZERO PUSH2 0x80B JUMPI DUP4 SWAP3 PUSH2 0x7D3 JUMPI JUMPDEST PUSH1 0x20 DUP4 DUP4 MLOAD SWAP1 DUP2 MSTORE RETURN JUMPDEST SWAP1 SWAP2 POP PUSH1 0x20 DUP2 RETURNDATASIZE PUSH1 0x20 GT PUSH2 0x803 JUMPI JUMPDEST DUP2 PUSH2 0x7EF PUSH1 0x20 SWAP4 DUP4 PUSH2 0xEDC JUMP JUMPDEST DUP2 ADD SUB SLT PUSH2 0x655 JUMPI PUSH1 0x20 SWAP3 POP MLOAD SWAP1 CODESIZE PUSH2 0x7C9 JUMP JUMPDEST RETURNDATASIZE SWAP2 POP PUSH2 0x7E2 JUMP JUMPDEST DUP2 MLOAD RETURNDATASIZE DUP6 DUP3 RETURNDATACOPY RETURNDATASIZE SWAP1 REVERT JUMPDEST POP PUSH1 0x20 SWAP2 DUP3 PUSH1 0x3 NOT CALLDATASIZE ADD SLT PUSH2 0x651 JUMPI DUP1 CALLDATALOAD PUSH8 0xFFFFFFFFFFFFFFFF SWAP5 DUP6 DUP3 GT PUSH2 0x6A5 JUMPI CALLDATASIZE PUSH1 0x23 DUP4 ADD SLT ISZERO PUSH2 0x6A5 JUMPI DUP2 DUP4 ADD CALLDATALOAD SWAP3 DUP7 DUP5 GT PUSH2 0x6FF JUMPI PUSH1 0x24 SWAP1 DUP2 DUP5 ADD SWAP2 CALLDATASIZE DUP2 DUP8 DUP8 ADD ADD GT PUSH2 0x651 JUMPI DUP7 MLOAD SWAP9 PUSH32 0x47697665206120636F6E636973652C2065766964656E63652D62617365642068 DUP10 DUP12 ADD MSTORE PUSH17 0x32B0B63A34103A34B81030B137BABA1D1 PUSH1 0x7D SHL DUP9 DUP12 ADD MSTORE DUP7 DUP5 PUSH1 0x51 DUP13 ADD CALLDATACOPY PUSH2 0x90E PUSH1 0x88 DUP12 DUP10 DUP2 ADD PUSH2 0x171 PUSH1 0xF5 SHL PUSH1 0x51 DUP3 ADD MSTORE PUSH32 0x4B65657020697420746F20312D322073656E74656E6365732E20446F206E6F74 PUSH1 0x53 DUP3 ADD MSTORE PUSH21 0x1034B731B63AB232903234B9B1B630B4B6B2B93997 PUSH1 0x59 SHL PUSH1 0x73 DUP3 ADD MSTORE SUB PUSH1 0x68 DUP2 ADD DUP14 MSTORE ADD DUP12 PUSH2 0xEDC JUMP JUMPDEST DUP8 MLOAD SWAP1 DUP10 DUP3 ADD SWAP1 DUP2 GT DUP3 DUP3 LT OR PUSH2 0xC1B JUMPI DUP1 DUP10 MSTORE DUP6 DUP3 MSTORE DUP9 MLOAD PUSH4 0x1FCF9413 PUSH1 0xE3 SHL DUP12 DUP3 ADD MSTORE PUSH1 0x80 DUP5 DUP3 ADD MSTORE SWAP11 DUP12 SWAP2 SWAP1 PUSH2 0x94B SWAP1 PUSH1 0xA4 DUP5 ADD SWAP1 PUSH2 0x1003 JUMP JUMPDEST DUP3 DUP2 SUB SWAP4 PUSH1 0x23 NOT DUP6 ADD PUSH1 0x44 DUP6 ADD MSTORE PUSH1 0x52 DUP3 MSTORE PUSH32 0x596F752061726520612068656C7066756C206865616C74682061737369737461 DUP14 DUP4 ADD MSTORE PUSH32 0x6E742070726F766964696E672061636375726174652C2065766964656E63652D DUP13 DUP4 ADD MSTORE PUSH18 0x3130B9B2B2103432B0B63A34103A34B83997 PUSH1 0x71 SHL PUSH1 0x60 DUP4 ADD MSTORE PUSH1 0x80 DUP3 ADD SWAP1 PUSH1 0x5C PUSH1 0x1 SWAP7 DUP8 PUSH1 0x64 DUP9 ADD MSTORE ADD PUSH1 0x84 DUP7 ADD MSTORE MLOAD DUP1 SWAP2 MSTORE DUP13 PUSH1 0xA0 DUP4 ADD PUSH1 0xA0 DUP4 PUSH1 0x5 SHL DUP6 ADD ADD SWAP5 SWAP4 DUP8 DUP13 SWAP4 JUMPDEST DUP6 DUP6 LT PUSH2 0xD8C JUMPI POP POP POP POP POP POP POP SUB SWAP6 PUSH2 0xA12 PUSH1 0x1F NOT SWAP8 DUP9 DUP2 ADD DUP14 MSTORE DUP13 PUSH2 0xEDC JUMP JUMPDEST DUP9 MLOAD PUSH4 0xFFEB17D PUSH1 0xE1 SHL DUP2 MSTORE PUSH20 0x37BB9C718F3F7FE5ECBDB0B600D607B52706776 SWAP1 DUP12 DUP2 DUP8 DUP2 DUP6 GAS STATICCALL SWAP1 DUP2 ISZERO PUSH2 0xD82 JUMPI DUP9 SWAP2 PUSH2 0xD55 JUMPI JUMPDEST POP PUSH8 0x2EA11E32AD50000 DUP2 ADD DUP1 SWAP2 GT PUSH2 0xD43 JUMPI CALLVALUE LT PUSH2 0xD0B JUMPI DUP10 MLOAD PUSH4 0x45DE5DF1 PUSH1 0xE1 SHL DUP2 MSTORE PUSH8 0xB24AC1AFBCEFC708 DUP7 DUP3 ADD MSTORE ADDRESS DUP6 DUP3 ADD MSTORE PUSH4 0xA71EDBB9 PUSH1 0xE0 SHL PUSH1 0x44 DUP3 ADD MSTORE PUSH1 0x80 PUSH1 0x64 DUP3 ADD MSTORE SWAP11 SWAP12 DUP13 SWAP2 DUP13 SWAP2 DUP3 SWAP1 DUP2 SWAP1 PUSH2 0xAAC SWAP1 PUSH1 0x84 DUP4 ADD SWAP1 PUSH2 0x1003 JUMP JUMPDEST SUB SWAP2 CALLVALUE SWAP1 GAS CALL SWAP10 DUP11 ISZERO PUSH2 0xD01 JUMPI DUP7 SWAP11 PUSH2 0xCCE JUMPI JUMPDEST POP DUP6 SLOAD SWAP1 PUSH9 0x10000000000000000 SWAP2 DUP3 DUP2 LT ISZERO PUSH2 0xCBC JUMPI DUP1 DUP5 PUSH2 0xAE5 SWAP3 ADD DUP10 SSTORE PUSH2 0xE0B JUMP JUMPDEST SWAP2 SWAP1 SWAP2 PUSH2 0xCAB JUMPI DUP10 DUP14 DUP7 SWAP3 PUSH2 0xB04 DUP4 PUSH2 0xAFE DUP8 SLOAD PUSH2 0xEA2 JUMP JUMPDEST DUP8 PUSH2 0x11D7 JUMP JUMPDEST DUP11 SWAP2 PUSH1 0x1F DUP5 GT PUSH1 0x1 EQ PUSH2 0xC3A JUMPI POP SWAP3 DUP3 SWAP2 PUSH2 0xB36 SWAP5 DUP13 SWAP4 PUSH2 0xC2D JUMPI JUMPDEST POP POP POP DUP2 PUSH1 0x1 SHL SWAP2 PUSH1 0x0 NOT SWAP1 PUSH1 0x3 SHL SHR NOT AND OR SWAP1 JUMP JUMPDEST SWAP1 SSTORE JUMPDEST DUP2 SLOAD SWAP1 DUP2 LT ISZERO PUSH2 0xC1B JUMPI DUP1 DUP3 PUSH2 0xB51 SWAP3 ADD DUP4 SSTORE PUSH2 0xE55 JUMP JUMPDEST PUSH2 0xC0A JUMPI DUP1 DUP12 PUSH2 0xB63 PUSH1 0x0 SWAP4 SLOAD PUSH2 0xEA2 JUMP JUMPDEST PUSH1 0x1F DUP2 GT PUSH2 0xBEB JUMPI JUMPDEST POP POP SSTORE SLOAD PUSH1 0x0 NOT DUP2 ADD SWAP3 SWAP1 DUP4 GT PUSH2 0xBDA JUMPI POP POP PUSH32 0x7A42DD8A2EC4A9E4BDBAC32E23B2EA523F8BEAB7DDB5E44BD58EFB41AAE0B6A2 SWAP4 PUSH1 0x1F DUP7 DUP6 DUP2 DUP11 SWAP7 DUP14 SWAP7 DUP14 DUP1 SWAP13 SWAP11 MSTORE PUSH1 0x2 DUP9 MSTORE DUP9 DUP5 KECCAK256 SSTORE DUP8 MLOAD SWAP9 DUP8 DUP11 SWAP9 DUP10 MSTORE DUP9 ADD MSTORE DUP8 DUP8 ADD CALLDATACOPY DUP6 DUP3 DUP7 ADD ADD MSTORE ADD AND DUP2 ADD SUB ADD SWAP1 LOG2 MLOAD SWAP1 DUP2 MSTORE RETURN JUMPDEST PUSH4 0x4E487B71 PUSH1 0xE0 SHL DUP6 MSTORE PUSH1 0x11 SWAP1 MSTORE DUP4 REVERT JUMPDEST PUSH1 0x1F PUSH2 0xC03 SWAP3 DUP5 DUP12 MSTORE DUP11 KECCAK256 SWAP2 ADD PUSH1 0x5 SHR DUP2 ADD SWAP1 PUSH2 0x11C0 JUMP JUMPDEST DUP12 CODESIZE PUSH2 0xB6C JUMP JUMPDEST PUSH4 0x4E487B71 PUSH1 0xE0 SHL DUP7 MSTORE DUP6 DUP5 MSTORE DUP3 DUP7 REVERT JUMPDEST PUSH4 0x4E487B71 PUSH1 0xE0 SHL DUP7 MSTORE PUSH1 0x41 DUP5 MSTORE DUP3 DUP7 REVERT JUMPDEST ADD ADD CALLDATALOAD SWAP1 POP DUP7 CODESIZE DUP1 PUSH2 0xB20 JUMP JUMPDEST SWAP4 SWAP2 SWAP1 SWAP3 DUP13 DUP2 AND DUP7 DUP14 MSTORE DUP6 DUP14 KECCAK256 SWAP6 DUP14 SWAP1 JUMPDEST DUP11 DUP4 DUP4 LT PUSH2 0xC89 JUMPI POP POP POP LT PUSH2 0xC6C JUMPI JUMPDEST POP POP POP POP DUP3 DUP10 DUP2 SHL ADD SWAP1 SSTORE PUSH2 0xB39 JUMP JUMPDEST DUP13 PUSH1 0xF8 PUSH1 0x0 NOT SWAP2 PUSH1 0x3 SHL AND SHR NOT SWAP3 ADD ADD CALLDATALOAD AND SWAP1 SSTORE CODESIZE DUP1 DUP6 DUP2 PUSH2 0xC5C JUMP JUMPDEST SWAP1 SWAP4 POP DUP5 SWAP8 DUP5 SWAP4 SWAP6 SWAP7 DUP5 SWAP4 SWAP8 DUP10 ADD ADD CALLDATALOAD DUP2 SSTORE ADD SWAP7 ADD SWAP4 ADD SWAP2 DUP10 SWAP4 SWAP3 DUP16 SWAP3 PUSH2 0xC4B JUMP JUMPDEST PUSH4 0x4E487B71 PUSH1 0xE0 SHL DUP9 MSTORE DUP8 DUP7 MSTORE DUP5 DUP9 REVERT JUMPDEST PUSH4 0x4E487B71 PUSH1 0xE0 SHL DUP9 MSTORE PUSH1 0x41 DUP7 MSTORE DUP5 DUP9 REVERT JUMPDEST SWAP1 SWAP10 POP DUP11 DUP2 DUP2 RETURNDATASIZE DUP4 GT PUSH2 0xCFA JUMPI JUMPDEST PUSH2 0xCE6 DUP2 DUP4 PUSH2 0xEDC JUMP JUMPDEST DUP2 ADD SUB SLT PUSH2 0xCF6 JUMPI MLOAD SWAP9 CODESIZE PUSH2 0xAC0 JUMP JUMPDEST DUP6 DUP1 REVERT JUMPDEST POP RETURNDATASIZE PUSH2 0xCDC JUMP JUMPDEST DUP10 MLOAD RETURNDATASIZE DUP9 DUP3 RETURNDATACOPY RETURNDATASIZE SWAP1 REVERT JUMPDEST DUP10 MLOAD PUSH3 0x461BCD PUSH1 0xE5 SHL DUP2 MSTORE DUP1 DUP7 ADD DUP13 SWAP1 MSTORE PUSH1 0x13 DUP2 DUP7 ADD MSTORE PUSH19 0x13995959080C0B8C8D0814D515081D1BDD185B PUSH1 0x6A SHL PUSH1 0x44 DUP3 ADD MSTORE PUSH1 0x64 SWAP1 REVERT JUMPDEST PUSH4 0x4E487B71 PUSH1 0xE0 SHL DUP9 MSTORE PUSH1 0x11 DUP7 MSTORE DUP5 DUP9 REVERT JUMPDEST SWAP1 POP DUP12 DUP2 DUP2 RETURNDATASIZE DUP4 GT PUSH2 0xD7B JUMPI JUMPDEST PUSH2 0xD6C DUP2 DUP4 PUSH2 0xEDC JUMP JUMPDEST DUP2 ADD SUB SLT PUSH2 0x64D JUMPI MLOAD CODESIZE PUSH2 0xA49 JUMP JUMPDEST POP RETURNDATASIZE PUSH2 0xD62 JUMP JUMPDEST DUP12 MLOAD RETURNDATASIZE DUP11 DUP3 RETURNDATACOPY RETURNDATASIZE SWAP1 REVERT JUMPDEST SWAP2 SWAP4 SWAP6 SWAP8 POP SWAP2 SWAP4 SWAP6 PUSH2 0xDA9 DUP3 SWAP2 PUSH1 0x9F NOT DUP7 DUP3 SUB ADD DUP8 MSTORE DUP10 MLOAD PUSH2 0x1003 JUMP JUMPDEST SWAP8 ADD SWAP4 ADD SWAP4 ADD SWAP1 SWAP3 DUP16 SWAP6 SWAP5 SWAP3 SWAP4 DUP16 DUP9 SWAP1 PUSH2 0x9F0 JUMP JUMPDEST DUP4 DUP3 CALLVALUE PUSH2 0x6FF JUMPI DUP2 PUSH1 0x3 NOT CALLDATASIZE ADD SLT PUSH2 0x6FF JUMPI PUSH1 0x20 SWAP1 MLOAD PUSH8 0xB24AC1AFBCEFC708 DUP2 MSTORE RETURN JUMPDEST POP SWAP1 CALLVALUE PUSH2 0x655 JUMPI PUSH1 0x20 CALLDATASIZE PUSH1 0x3 NOT ADD SLT PUSH2 0x655 JUMPI CALLDATALOAD SWAP2 DUP1 SLOAD DUP4 LT ISZERO PUSH2 0x6A5 JUMPI POP PUSH2 0x68E PUSH2 0x688 PUSH2 0x6A1 SWAP4 JUMPDEST SWAP1 PUSH1 0x0 SWAP2 DUP3 SLOAD DUP2 LT ISZERO PUSH2 0xE41 JUMPI DUP3 DUP1 MSTORE PUSH32 0x290DECD9548B62A8D60345A988386FC84BA6BC95484008F6362F93160EF3E563 ADD SWAP2 SWAP1 JUMP JUMPDEST PUSH4 0x4E487B71 PUSH1 0xE0 SHL DUP4 MSTORE PUSH1 0x32 PUSH1 0x4 MSTORE PUSH1 0x24 DUP4 REVERT JUMPDEST PUSH1 0x1 SLOAD DUP2 LT ISZERO PUSH2 0xE8C JUMPI PUSH1 0x1 PUSH1 0x0 MSTORE PUSH32 0xB10E2D527612073B26EECDFD717E6A320CF44B4AFAC2B0732D9FCBE2B7FA0CF6 ADD SWAP1 PUSH1 0x0 SWAP1 JUMP JUMPDEST PUSH4 0x4E487B71 PUSH1 0xE0 SHL PUSH1 0x0 MSTORE PUSH1 0x32 PUSH1 0x4 MSTORE PUSH1 0x24 PUSH1 0x0 REVERT JUMPDEST SWAP1 PUSH1 0x1 DUP3 DUP2 SHR SWAP3 AND DUP1 ISZERO PUSH2 0xED2 JUMPI JUMPDEST PUSH1 0x20 DUP4 LT EQ PUSH2 0xEBC JUMPI JUMP JUMPDEST PUSH4 0x4E487B71 PUSH1 0xE0 SHL PUSH1 0x0 MSTORE PUSH1 0x22 PUSH1 0x4 MSTORE PUSH1 0x24 PUSH1 0x0 REVERT JUMPDEST SWAP2 PUSH1 0x7F AND SWAP2 PUSH2 0xEB1 JUMP JUMPDEST SWAP1 PUSH1 0x1F DUP1 NOT SWAP2 ADD AND DUP2 ADD SWAP1 DUP2 LT PUSH8 0xFFFFFFFFFFFFFFFF DUP3 GT OR PUSH2 0xEFE JUMPI PUSH1 0x40 MSTORE JUMP JUMPDEST PUSH4 0x4E487B71 PUSH1 0xE0 SHL PUSH1 0x0 MSTORE PUSH1 0x41 PUSH1 0x4 MSTORE PUSH1 0x24 PUSH1 0x0 REVERT JUMPDEST SWAP1 PUSH1 0x40 MLOAD SWAP2 DUP3 PUSH1 0x0 DUP3 SLOAD PUSH2 0xF27 DUP2 PUSH2 0xEA2 JUMP JUMPDEST SWAP1 DUP2 DUP5 MSTORE PUSH1 0x20 SWAP5 PUSH1 0x1 SWAP2 PUSH1 0x1 DUP2 AND SWAP1 DUP2 PUSH1 0x0 EQ PUSH2 0xF97 JUMPI POP PUSH1 0x1 EQ PUSH2 0xF58 JUMPI JUMPDEST POP POP POP PUSH2 0xF56 SWAP3 POP SUB DUP4 PUSH2 0xEDC JUMP JUMPDEST JUMP JUMPDEST PUSH1 0x0 SWAP1 DUP2 MSTORE DUP6 DUP2 KECCAK256 SWAP6 SWAP4 POP SWAP2 SWAP1 JUMPDEST DUP2 DUP4 LT PUSH2 0xF7F JUMPI POP POP PUSH2 0xF56 SWAP4 POP DUP3 ADD ADD CODESIZE DUP1 DUP1 PUSH2 0xF47 JUMP JUMPDEST DUP6 SLOAD DUP9 DUP5 ADD DUP6 ADD MSTORE SWAP5 DUP6 ADD SWAP5 DUP8 SWAP5 POP SWAP2 DUP4 ADD SWAP2 PUSH2 0xF66 JUMP JUMPDEST SWAP3 POP POP POP PUSH2 0xF56 SWAP5 SWAP3 POP PUSH1 0xFF NOT AND DUP3 DUP5 ADD MSTORE ISZERO ISZERO PUSH1 0x5 SHL DUP3 ADD ADD CODESIZE DUP1 DUP1 PUSH2 0xF47 JUMP JUMPDEST SWAP1 PUSH2 0xFCA JUMPI PUSH2 0xFC7 SWAP1 PUSH2 0xF14 JUMP JUMPDEST SWAP1 JUMP JUMPDEST PUSH4 0x4E487B71 PUSH1 0xE0 SHL PUSH1 0x0 MSTORE PUSH1 0x0 PUSH1 0x4 MSTORE PUSH1 0x24 PUSH1 0x0 REVERT JUMPDEST PUSH1 0x0 JUMPDEST DUP4 DUP2 LT PUSH2 0xFF3 JUMPI POP POP PUSH1 0x0 SWAP2 ADD MSTORE JUMP JUMPDEST DUP2 DUP2 ADD MLOAD DUP4 DUP3 ADD MSTORE PUSH1 0x20 ADD PUSH2 0xFE3 JUMP JUMPDEST SWAP1 PUSH1 0x20 SWAP2 PUSH2 0x101C DUP2 MLOAD DUP1 SWAP3 DUP2 DUP6 MSTORE DUP6 DUP1 DUP7 ADD SWAP2 ADD PUSH2 0xFE0 JUMP JUMPDEST PUSH1 0x1F ADD PUSH1 0x1F NOT AND ADD ADD SWAP1 JUMP JUMPDEST PUSH8 0xFFFFFFFFFFFFFFFF DUP2 GT PUSH2 0xEFE JUMPI PUSH1 0x5 SHL PUSH1 0x20 ADD SWAP1 JUMP JUMPDEST CALLDATALOAD SWAP1 PUSH1 0x1 PUSH1 0x1 PUSH1 0xA0 SHL SUB DUP3 AND DUP3 SUB PUSH2 0x1054 JUMPI JUMP JUMPDEST PUSH1 0x0 DUP1 REVERT JUMPDEST PUSH8 0xFFFFFFFFFFFFFFFF DUP2 GT PUSH2 0xEFE JUMPI PUSH1 0x1F ADD PUSH1 0x1F NOT AND PUSH1 0x20 ADD SWAP1 JUMP JUMPDEST SWAP1 DUP1 PUSH1 0x1F DUP4 ADD SLT ISZERO PUSH2 0x1054 JUMPI PUSH1 0x20 SWAP1 DUP3 CALLDATALOAD PUSH2 0x108F DUP2 PUSH2 0x1028 JUMP JUMPDEST SWAP4 PUSH1 0x40 SWAP1 PUSH2 0x109F DUP3 MLOAD SWAP7 DUP8 PUSH2 0xEDC JUMP JUMPDEST DUP3 DUP7 MSTORE DUP5 DUP7 ADD SWAP2 DUP6 PUSH1 0x5 SWAP5 PUSH1 0x5 SHL DUP4 ADD ADD SWAP4 DUP6 DUP6 GT PUSH2 0x1054 JUMPI DUP7 DUP4 ADD SWAP4 JUMPDEST DUP6 DUP6 LT PUSH2 0x10CF JUMPI POP POP POP POP POP POP POP POP SWAP1 JUMP JUMPDEST PUSH8 0xFFFFFFFFFFFFFFFF DUP6 CALLDATALOAD DUP2 DUP2 GT PUSH2 0x1054 JUMPI DUP6 ADD PUSH1 0xC0 DUP1 PUSH1 0x1F NOT DUP4 DUP13 SUB ADD SLT PUSH2 0x1054 JUMPI DUP6 MLOAD SWAP3 DUP2 DUP5 ADD DUP5 DUP2 LT DUP3 DUP3 GT OR PUSH2 0x11AB JUMPI DUP8 MSTORE PUSH2 0x1110 DUP13 DUP5 ADD PUSH2 0x1040 JUMP JUMPDEST DUP5 MSTORE DUP7 DUP4 ADD CALLDATALOAD SWAP1 DUP2 GT PUSH2 0x1054 JUMPI DUP3 ADD SWAP2 DUP11 PUSH1 0x3F DUP5 ADD SLT ISZERO PUSH2 0x1054 JUMPI DUP12 DUP4 ADD CALLDATALOAD PUSH2 0x1138 DUP2 PUSH2 0x1059 JUMP JUMPDEST SWAP1 PUSH2 0x1145 DUP10 MLOAD SWAP3 DUP4 PUSH2 0xEDC JUMP JUMPDEST DUP1 DUP3 MSTORE DUP13 DUP10 DUP3 DUP8 ADD ADD GT PUSH2 0x1054 JUMPI DUP1 DUP10 DUP16 SWAP7 ADD DUP7 DUP5 ADD CALLDATACOPY PUSH1 0x0 SWAP5 DUP6 SWAP2 DUP4 ADD ADD MSTORE DUP13 DUP6 ADD MSTORE PUSH1 0x60 SWAP3 DUP4 DUP3 ADD CALLDATALOAD SWAP1 DUP8 DUP3 LT ISZERO PUSH2 0x6A5 JUMPI POP DUP8 DUP6 ADD MSTORE PUSH1 0x80 DUP1 DUP3 ADD CALLDATALOAD SWAP4 DUP6 ADD SWAP4 SWAP1 SWAP4 MSTORE PUSH1 0xA0 DUP1 DUP3 ADD CALLDATALOAD SWAP4 DUP6 ADD SWAP4 SWAP1 SWAP4 MSTORE ADD CALLDATALOAD SWAP1 DUP3 ADD MSTORE DUP2 MSTORE SWAP4 DUP8 ADD SWAP4 DUP8 ADD PUSH2 0x10BD JUMP JUMPDEST PUSH1 0x24 PUSH1 0x0 PUSH4 0x4E487B71 PUSH1 0xE0 SHL DUP2 MSTORE PUSH1 0x41 PUSH1 0x4 MSTORE REVERT JUMPDEST DUP2 DUP2 LT PUSH2 0x11CB JUMPI POP POP JUMP JUMPDEST PUSH1 0x0 DUP2 SSTORE PUSH1 0x1 ADD PUSH2 0x11C0 JUMP JUMPDEST SWAP2 SWAP1 PUSH1 0x1F DUP2 GT PUSH2 0x11E6 JUMPI POP POP POP JUMP JUMPDEST PUSH2 0xF56 SWAP3 PUSH1 0x0 MSTORE PUSH1 0x20 PUSH1 0x0 KECCAK256 SWAP1 PUSH1 0x20 PUSH1 0x1F DUP5 ADD PUSH1 0x5 SHR DUP4 ADD SWAP4 LT PUSH2 0x1212 JUMPI JUMPDEST PUSH1 0x1F ADD PUSH1 0x5 SHR ADD SWAP1 PUSH2 0x11C0 JUMP JUMPDEST SWAP1 SWAP2 POP DUP2 SWAP1 PUSH2 0x1205 JUMP INVALID LOG2 PUSH5 0x6970667358 0x22 SLT KECCAK256 MSTORE 0xD9 LT 0xB1 SLOAD 0x25 0xAB GT PUSH18 0x71736D761EE5155D11A82F983E67D1D12342 SUB 0xC9 CODECOPY PUSH27 0xB464736F6C63430008180033000000000000000000000000000000 "},"methodIdentifiers":{"LLM_AGENT_ID()":"2e90c1a9","PLATFORM()":"7efc77fa","getHealthTip(string)":"566d8db4","getRequiredDeposit()":"58e56db4","getTip(uint256)":"5b703f5c","getTipCount()":"7dc1a64f","handleTip(uint256,(address,bytes,uint8,uint256,uint256,uint256)[],uint8,(uint256,address,address,bytes4,address[],(address,bytes,uint8,uint256,uint256,uint256)[],uint256,uint256,uint256,uint256,uint256,uint8,uint8,uint256))":"a71edbb9","requestToTipIndex(uint256)":"90e82784","tips(uint256)":"a5c68c59","topics(uint256)":"18d9adab"}}}}}