{"contracts/DrugInfo.sol":{"DrugInfo":{"abi":[{"anonymous":false,"inputs":[{"indexed":true,"internalType":"uint256","name":"requestId","type":"uint256"},{"indexed":false,"internalType":"enum ResponseStatus","name":"status","type":"uint8"}],"name":"DrugInfoFailed","type":"event"},{"anonymous":false,"inputs":[{"indexed":true,"internalType":"uint256","name":"requestId","type":"uint256"},{"indexed":false,"internalType":"string","name":"drugName","type":"string"},{"indexed":false,"internalType":"string","name":"result","type":"string"}],"name":"DrugInfoReceived","type":"event"},{"anonymous":false,"inputs":[{"indexed":true,"internalType":"uint256","name":"requestId","type":"uint256"},{"indexed":false,"internalType":"string","name":"drugName","type":"string"}],"name":"DrugInfoRequested","type":"event"},{"inputs":[],"name":"PLATFORM","outputs":[{"internalType":"contract IAgentRequester","name":"","type":"address"}],"stateMutability":"view","type":"function"},{"inputs":[],"name":"WEB_AGENT_ID","outputs":[{"internalType":"uint256","name":"","type":"uint256"}],"stateMutability":"view","type":"function"},{"inputs":[{"internalType":"uint256","name":"","type":"uint256"}],"name":"drugNames","outputs":[{"internalType":"string","name":"","type":"string"}],"stateMutability":"view","type":"function"},{"inputs":[{"internalType":"string","name":"drugName","type":"string"}],"name":"getDrugInfo","outputs":[{"internalType":"uint256","name":"requestId","type":"uint256"}],"stateMutability":"payable","type":"function"},{"inputs":[],"name":"getRequiredDeposit","outputs":[{"internalType":"uint256","name":"","type":"uint256"}],"stateMutability":"view","type":"function"},{"inputs":[{"internalType":"uint256","name":"index","type":"uint256"}],"name":"getResult","outputs":[{"internalType":"string","name":"drugName","type":"string"},{"internalType":"string","name":"result","type":"string"}],"stateMutability":"view","type":"function"},{"inputs":[],"name":"getResultCount","outputs":[{"internalType":"uint256","name":"","type":"uint256"}],"stateMutability":"view","type":"function"},{"inputs":[{"internalType":"uint256","name":"requestId","type":"uint256"},{"components":[{"internalType":"address","name":"validator","type":"address"},{"internalType":"bytes","name":"result","type":"bytes"},{"internalType":"enum ResponseStatus","name":"status","type":"uint8"},{"internalType":"uint256","name":"receipt","type":"uint256"},{"internalType":"uint256","name":"timestamp","type":"uint256"},{"internalType":"uint256","name":"executionCost","type":"uint256"}],"internalType":"struct Response[]","name":"responses","type":"tuple[]"},{"internalType":"enum ResponseStatus","name":"status","type":"uint8"},{"components":[{"internalType":"uint256","name":"id","type":"uint256"},{"internalType":"address","name":"requester","type":"address"},{"internalType":"address","name":"callbackAddress","type":"address"},{"internalType":"bytes4","name":"callbackSelector","type":"bytes4"},{"internalType":"address[]","name":"subcommittee","type":"address[]"},{"components":[{"internalType":"address","name":"validator","type":"address"},{"internalType":"bytes","name":"result","type":"bytes"},{"internalType":"enum ResponseStatus","name":"status","type":"uint8"},{"internalType":"uint256","name":"receipt","type":"uint256"},{"internalType":"uint256","name":"timestamp","type":"uint256"},{"internalType":"uint256","name":"executionCost","type":"uint256"}],"internalType":"struct Response[]","name":"responses","type":"tuple[]"},{"internalType":"uint256","name":"responseCount","type":"uint256"},{"internalType":"uint256","name":"failureCount","type":"uint256"},{"internalType":"uint256","name":"threshold","type":"uint256"},{"internalType":"uint256","name":"createdAt","type":"uint256"},{"internalType":"uint256","name":"deadline","type":"uint256"},{"internalType":"enum ResponseStatus","name":"status","type":"uint8"},{"internalType":"enum ConsensusType","name":"consensusType","type":"uint8"},{"internalType":"uint256","name":"remainingBudget","type":"uint256"}],"internalType":"struct Request","name":"","type":"tuple"}],"name":"handleResult","outputs":[],"stateMutability":"nonpayable","type":"function"},{"inputs":[{"internalType":"uint256","name":"","type":"uint256"}],"name":"requestToResultIndex","outputs":[{"internalType":"uint256","name":"","type":"uint256"}],"stateMutability":"view","type":"function"},{"inputs":[{"internalType":"uint256","name":"","type":"uint256"}],"name":"searchResults","outputs":[{"internalType":"string","name":"","type":"string"}],"stateMutability":"view","type":"function"},{"stateMutability":"payable","type":"receive"}],"evm":{"bytecode":{"linkReferences":{},"object":"60808060405234610016576111cf908161001c8239f35b600080fdfe60806040818152600480361015610021575b505050361561001f57600080fd5b005b600092833560e01c90816329fad5fe14610d6f575080634282574e14610860578063445bd91a14610839578063497482a01461028057806358e56db4146101ec5780637efc77fa146101bd57806385b64cf514610195578063995e433914610116578063af9db5a7146100e85763b81c392a0361001157346100e45760203660031901126100e457359180548310156100e157506100ca6100c46100dd93610ff0565b9061110a565b9051918291602083526020830190610f7e565b0390f35b80fd5b8280fd5b50346100e45760203660031901126100e45735916001548310156100e157506100ca6100c46100dd93610fa3565b5091346100e15760203660031901126100e157506100dd61016d61017461015b943561016261014e61014783610ff0565b5092610fa3565b5091865197888092611074565b0387610d8b565b845192838092611074565b0382610d8b565b6101878351948486958652850190610f7e565b908382036020850152610f7e565b5050346101b957816003193601126101b95760209051680516658387d1455b868152f35b5080fd5b5050346101b957816003193601126101b9576020905173037bb9c718f3f7fe5ecbdb0b600d607b527067768152f35b5090346100e457826003193601126100e457602081518093630ffeb17d60e11b82528173037bb9c718f3f7fe5ecbdb0b600d607b527067765afa91821561027657839261023e575b6020838351908152f35b9091506020813d60201161026e575b8161025a60209383610d8b565b810103126100e45760209250519038610234565b3d915061024d565b81513d85823e3d90fd5b50906020918260031936011261083557803567ffffffffffffffff948582116100e157366023830112156100e15781830135928684116101b957602480840193368287830101116108355786517f457874726163742074686520757365732c20646f736167652c20616e64207369898201526d032329032b33332b1ba399037b3160951b888201528686604e830137610330604f82898101601760f91b604e82015203602f810184520182610d8b565b875199898b019081118b82101761082357808952858b528851635d966f2360e11b8b82015260e08582015260076101048201526673756d6d61727960c81b6101248201526101206044820152601e6101448201527f557365732c20646f736167652c20616e6420736964652065666665637473000061016482015261016060648201529a516101848c018190526101a4600582901b8d0181019493928b928e928e9291908b9085015b8282106107eb575050505060609261046f94927f68747470733a2f2f7777772e64727567732e636f6d2f7365617263682e706870743f7365617263687465726d3d445255475f4e414d4560581b9361044060e49a6023199788868303016084870152610f7e565b9260a48185039788019101526035835282015201528c600195818760c48194015201528a81018d52018b610d8b565b8751630ffeb17d60e11b815273037bb9c718f3f7fe5ecbdb0b600d607b52706776908a818781855afa9081156107e15787916107b0575b50670429d069189e0000810180911161079e5734106107665788516345de5df160e11b8152680516658387d1455b868682015230858201526321412ba760e11b604482015260806064820152999a8b918b918290819061050a906084830190610f7e565b039134905af198891561075c578599610729575b5084549068010000000000000000918281101561071757808461054392018855610ff0565b91909161070657888c86926105628361055c875461103a565b87611152565b8991601f84116001146106975750928291610594948b9361068a575b5050508160011b916000199060031b1c19161790565b90555b8154908110156106785780826105af92018355610fa3565b61066757806105c06000925461103a565b601f8111610649575b5055546000198101929083116106385750507f84a36581ef5402b73b738a564da2f28ed179aa557278c4cf4e21441d7faf9fa49284838793898098965260028b528482205583519485938b8552818c86015285850137828201840152601f01601f19168101030190a251908152f35b634e487b7160e01b84526011905282fd5b8187528b872061066191601f0160051c81019061113b565b386105c9565b634e487b7160e01b85528484528285fd5b634e487b7160e01b8552604184528285fd5b010135905086388061057e565b93919092601f198116868c52858c20958c905b8a8383106106e757505050106106cb575b505050508288811b019055610597565b60001960f88d60031b161c1992010135169055388085816106bb565b87860190960135885596909401958a94938101938f93508101906106aa565b634e487b7160e01b87528686528487fd5b634e487b7160e01b8752604186528487fd5b9098508981813d8311610755575b6107418183610d8b565b810103126107515751973861051e565b8480fd5b503d610737565b88513d87823e3d90fd5b885162461bcd60e51b81528086018b90526013818601527213995959080c0b8cccc814d515081d1bdd185b606a1b6044820152606490fd5b634e487b7160e01b8752601186528487fd5b90508a81813d83116107da575b6107c78183610d8b565b810103126107d65751386104a6565b8680fd5b503d6107bd565b8a513d89823e3d90fd5b939195509361080c60019397989983926101a3199082030186528851610f7e565b960192019201908c938f93928f93989796986103d9565b634e487b7160e01b8652604185528386fd5b8380fd5b50346100e45760203660031901126100e45760209282913581526002845220549051908152f35b50346100e457600319916080368401126108355781359260249267ffffffffffffffff908435828111610d6b5761089a9036908301610e10565b91604435926005841015610d675760643594828611610c1d576101c080918736030112610c1d57865190810181811084821117610d555787528584013581526108e4888701610ddb565b95602096878301526108f860448201610ddb565b8289015260648101356001600160e01b031981168103610d355760608301526084810135848111610d3557810136602382011215610d3557858101359061093e82610dc3565b9161094b8b519384610d8b565b8083528b8a84019160051b83010191368311610d51578c8b9101915b838310610d395750505050608083015260a4810135848111610d355761099290863691840101610e10565b60a083015260c481013560c083015260e481013560e08301526101048101356101008301526101248101356101208301526101448101356101408301526101648101356005811015610d35576101608301526101848101356002811015610d35576101a0916101a491610180850152013591015273037bb9c718f3f7fe5ecbdb0b600d607b527067763303610d03578789526002855285892054936002811480610cf9575b15610c335750805115610c2157848091015101519586518701968581818a01990312610c1d578581015190838211610c19570187603f82011215610c1d5785810151610a8281610df4565b98610a8f89519a8b610d8b565b818a52888284010111610c1957610aab9188888b019101610f5b565b610ab484610fa3565b939093610c09578751928311610bf8575050610ada81610ad4845461103a565b84611152565b83601f8211600114610b6d57927f893517a5d723982dec709b52dda08b1b426e7c2fe2e98b38ed33eb60f1abc86696959492610b3383610b3a94610b5c978d91610b62575b508160011b916000199060031b1c19161790565b9055610ff0565b5093610b4f8451958587968752860190611074565b9184830390850152610f7e565b0390a280f35b905089015138610b1f565b82895284892090601f1983168a5b818110610be1575083610b5c96937f893517a5d723982dec709b52dda08b1b426e7c2fe2e98b38ed33eb60f1abc8669a99989693610b3a9660019410610bc8575b5050811b019055610ff0565b8a015160001960f88460031b161c191690553880610bbc565b91928760018192868d015181550194019201610b7b565b634e487b7160e01b8a526041905288fd5b634e487b7160e01b8a5289905288fd5b8a80fd5b8980fd5b634e487b7160e01b8952603283528689fd5b9495939050610c46915097969597610fa3565b919091610ce857507f25de5ae65e960cdb90c690dfdeefd74729e50b4647a4c4e85d31ee95d362243594959650610c7d815461103a565b601f8111610cc7575b506049815586526334b7b71760e11b60018488207f556e61626c6520746f207265747269657665206472756720696e666f726d61748155015551908152a280f35b818852848820610ce291601f0160051c81019060020161113b565b38610c86565b634e487b7160e01b87528690528686fd5b5081511515610a37565b855162461bcd60e51b8152808401869052600d818901526c4f6e6c7920706c6174666f726d60981b6044820152606490fd5b8b80fd5b8190610d4484610ddb565b8152019101908a90610967565b8e80fd5b634e487b7160e01b8b5260418552888bfd5b8880fd5b8780fd5b8490346101b957816003193601126101b9576020906001548152f35b90601f8019910116810190811067ffffffffffffffff821117610dad57604052565b634e487b7160e01b600052604160045260246000fd5b67ffffffffffffffff8111610dad5760051b60200190565b35906001600160a01b0382168203610def57565b600080fd5b67ffffffffffffffff8111610dad57601f01601f191660200190565b9080601f83011215610def576020908235610e2a81610dc3565b93604090610e3a82519687610d8b565b828652848601918560059460051b83010193858511610def57868301935b858510610e6a57505050505050505090565b67ffffffffffffffff8535818111610def57850160c080601f19838c030112610def5785519281840184811082821117610f46578752610eab8c8401610ddb565b845286830135908111610def578201918a603f84011215610def578b830135610ed381610df4565b90610ee089519283610d8b565b8082528c898287010111610def5780898f9601868401376000948591830101528c8501526060928382013590878210156100e15750878501526080808201359385019390935260a080820135938501939093520135908201528152938701938701610e58565b60246000634e487b7160e01b81526041600452fd5b60005b838110610f6e5750506000910152565b8181015183820152602001610f5e565b90602091610f9781518092818552858086019101610f5b565b601f01601f1916010190565b600154811015610fda5760016000527fb10e2d527612073b26eecdfd717e6a320cf44b4afac2b0732d9fcbe2b7fa0cf60190600090565b634e487b7160e01b600052603260045260246000fd5b906000918254811015611026578280527f290decd9548b62a8d60345a988386fc84ba6bc95484008f6362f93160ef3e563019190565b634e487b7160e01b83526032600452602483fd5b90600182811c9216801561106a575b602083101461105457565b634e487b7160e01b600052602260045260246000fd5b91607f1691611049565b8054600093926110838261103a565b918282526020936001916001811690816000146110eb57506001146110aa575b5050505050565b90939495506000929192528360002092846000945b8386106110d7575050505001019038808080806110a3565b8054858701830152940193859082016110bf565b60ff19168685015250505090151560051b0101915038808080806110a3565b906111255761112261016d9160405192838092611074565b90565b634e487b7160e01b600052600060045260246000fd5b818110611146575050565b6000815560010161113b565b9190601f811161116157505050565b61118d926000526020600020906020601f840160051c8301931061118f575b601f0160051c019061113b565b565b909150819061118056fea2646970667358221220e745053da247baf41335443a3b9bade6041589239c78a36911e7b28969b0a82d64736f6c63430008180033","opcodes":"PUSH1 0x80 DUP1 PUSH1 0x40 MSTORE CALLVALUE PUSH2 0x16 JUMPI PUSH2 0x11CF SWAP1 DUP2 PUSH2 0x1C DUP3 CODECOPY RETURN JUMPDEST PUSH1 0x0 DUP1 REVERT INVALID PUSH1 0x80 PUSH1 0x40 DUP2 DUP2 MSTORE PUSH1 0x4 DUP1 CALLDATASIZE LT ISZERO PUSH2 0x21 JUMPI JUMPDEST POP POP POP CALLDATASIZE ISZERO PUSH2 0x1F JUMPI PUSH1 0x0 DUP1 REVERT JUMPDEST STOP JUMPDEST PUSH1 0x0 SWAP3 DUP4 CALLDATALOAD PUSH1 0xE0 SHR SWAP1 DUP2 PUSH4 0x29FAD5FE EQ PUSH2 0xD6F JUMPI POP DUP1 PUSH4 0x4282574E EQ PUSH2 0x860 JUMPI DUP1 PUSH4 0x445BD91A EQ PUSH2 0x839 JUMPI DUP1 PUSH4 0x497482A0 EQ PUSH2 0x280 JUMPI DUP1 PUSH4 0x58E56DB4 EQ PUSH2 0x1EC JUMPI DUP1 PUSH4 0x7EFC77FA EQ PUSH2 0x1BD JUMPI DUP1 PUSH4 0x85B64CF5 EQ PUSH2 0x195 JUMPI DUP1 PUSH4 0x995E4339 EQ PUSH2 0x116 JUMPI DUP1 PUSH4 0xAF9DB5A7 EQ PUSH2 0xE8 JUMPI PUSH4 0xB81C392A SUB PUSH2 0x11 JUMPI CALLVALUE PUSH2 0xE4 JUMPI PUSH1 0x20 CALLDATASIZE PUSH1 0x3 NOT ADD SLT PUSH2 0xE4 JUMPI CALLDATALOAD SWAP2 DUP1 SLOAD DUP4 LT ISZERO PUSH2 0xE1 JUMPI POP PUSH2 0xCA PUSH2 0xC4 PUSH2 0xDD SWAP4 PUSH2 0xFF0 JUMP JUMPDEST SWAP1 PUSH2 0x110A JUMP JUMPDEST SWAP1 MLOAD SWAP2 DUP3 SWAP2 PUSH1 0x20 DUP4 MSTORE PUSH1 0x20 DUP4 ADD SWAP1 PUSH2 0xF7E JUMP JUMPDEST SUB SWAP1 RETURN JUMPDEST DUP1 REVERT JUMPDEST DUP3 DUP1 REVERT JUMPDEST POP CALLVALUE PUSH2 0xE4 JUMPI PUSH1 0x20 CALLDATASIZE PUSH1 0x3 NOT ADD SLT PUSH2 0xE4 JUMPI CALLDATALOAD SWAP2 PUSH1 0x1 SLOAD DUP4 LT ISZERO PUSH2 0xE1 JUMPI POP PUSH2 0xCA PUSH2 0xC4 PUSH2 0xDD SWAP4 PUSH2 0xFA3 JUMP JUMPDEST POP SWAP2 CALLVALUE PUSH2 0xE1 JUMPI PUSH1 0x20 CALLDATASIZE PUSH1 0x3 NOT ADD SLT PUSH2 0xE1 JUMPI POP PUSH2 0xDD PUSH2 0x16D PUSH2 0x174 PUSH2 0x15B SWAP5 CALLDATALOAD PUSH2 0x162 PUSH2 0x14E PUSH2 0x147 DUP4 PUSH2 0xFF0 JUMP JUMPDEST POP SWAP3 PUSH2 0xFA3 JUMP JUMPDEST POP SWAP2 DUP7 MLOAD SWAP8 DUP9 DUP1 SWAP3 PUSH2 0x1074 JUMP JUMPDEST SUB DUP8 PUSH2 0xD8B JUMP JUMPDEST DUP5 MLOAD SWAP3 DUP4 DUP1 SWAP3 PUSH2 0x1074 JUMP JUMPDEST SUB DUP3 PUSH2 0xD8B JUMP JUMPDEST PUSH2 0x187 DUP4 MLOAD SWAP5 DUP5 DUP7 SWAP6 DUP7 MSTORE DUP6 ADD SWAP1 PUSH2 0xF7E JUMP JUMPDEST SWAP1 DUP4 DUP3 SUB PUSH1 0x20 DUP6 ADD MSTORE PUSH2 0xF7E JUMP JUMPDEST POP POP CALLVALUE PUSH2 0x1B9 JUMPI DUP2 PUSH1 0x3 NOT CALLDATASIZE ADD SLT PUSH2 0x1B9 JUMPI PUSH1 0x20 SWAP1 MLOAD PUSH9 0x516658387D1455B86 DUP2 MSTORE RETURN JUMPDEST POP DUP1 REVERT JUMPDEST POP POP CALLVALUE PUSH2 0x1B9 JUMPI DUP2 PUSH1 0x3 NOT CALLDATASIZE ADD SLT PUSH2 0x1B9 JUMPI PUSH1 0x20 SWAP1 MLOAD PUSH20 0x37BB9C718F3F7FE5ECBDB0B600D607B52706776 DUP2 MSTORE RETURN JUMPDEST POP SWAP1 CALLVALUE PUSH2 0xE4 JUMPI DUP3 PUSH1 0x3 NOT CALLDATASIZE ADD SLT PUSH2 0xE4 JUMPI PUSH1 0x20 DUP2 MLOAD DUP1 SWAP4 PUSH4 0xFFEB17D PUSH1 0xE1 SHL DUP3 MSTORE DUP2 PUSH20 0x37BB9C718F3F7FE5ECBDB0B600D607B52706776 GAS STATICCALL SWAP2 DUP3 ISZERO PUSH2 0x276 JUMPI DUP4 SWAP3 PUSH2 0x23E JUMPI JUMPDEST PUSH1 0x20 DUP4 DUP4 MLOAD SWAP1 DUP2 MSTORE RETURN JUMPDEST SWAP1 SWAP2 POP PUSH1 0x20 DUP2 RETURNDATASIZE PUSH1 0x20 GT PUSH2 0x26E JUMPI JUMPDEST DUP2 PUSH2 0x25A PUSH1 0x20 SWAP4 DUP4 PUSH2 0xD8B JUMP JUMPDEST DUP2 ADD SUB SLT PUSH2 0xE4 JUMPI PUSH1 0x20 SWAP3 POP MLOAD SWAP1 CODESIZE PUSH2 0x234 JUMP JUMPDEST RETURNDATASIZE SWAP2 POP PUSH2 0x24D JUMP JUMPDEST DUP2 MLOAD RETURNDATASIZE DUP6 DUP3 RETURNDATACOPY RETURNDATASIZE SWAP1 REVERT JUMPDEST POP SWAP1 PUSH1 0x20 SWAP2 DUP3 PUSH1 0x3 NOT CALLDATASIZE ADD SLT PUSH2 0x835 JUMPI DUP1 CALLDATALOAD PUSH8 0xFFFFFFFFFFFFFFFF SWAP5 DUP6 DUP3 GT PUSH2 0xE1 JUMPI CALLDATASIZE PUSH1 0x23 DUP4 ADD SLT ISZERO PUSH2 0xE1 JUMPI DUP2 DUP4 ADD CALLDATALOAD SWAP3 DUP7 DUP5 GT PUSH2 0x1B9 JUMPI PUSH1 0x24 DUP1 DUP5 ADD SWAP4 CALLDATASIZE DUP3 DUP8 DUP4 ADD ADD GT PUSH2 0x835 JUMPI DUP7 MLOAD PUSH32 0x457874726163742074686520757365732C20646F736167652C20616E64207369 DUP10 DUP3 ADD MSTORE PUSH14 0x32329032B33332B1BA399037B31 PUSH1 0x95 SHL DUP9 DUP3 ADD MSTORE DUP7 DUP7 PUSH1 0x4E DUP4 ADD CALLDATACOPY PUSH2 0x330 PUSH1 0x4F DUP3 DUP10 DUP2 ADD PUSH1 0x17 PUSH1 0xF9 SHL PUSH1 0x4E DUP3 ADD MSTORE SUB PUSH1 0x2F DUP2 ADD DUP5 MSTORE ADD DUP3 PUSH2 0xD8B JUMP JUMPDEST DUP8 MLOAD SWAP10 DUP10 DUP12 ADD SWAP1 DUP2 GT DUP12 DUP3 LT OR PUSH2 0x823 JUMPI DUP1 DUP10 MSTORE DUP6 DUP12 MSTORE DUP9 MLOAD PUSH4 0x5D966F23 PUSH1 0xE1 SHL DUP12 DUP3 ADD MSTORE PUSH1 0xE0 DUP6 DUP3 ADD MSTORE PUSH1 0x7 PUSH2 0x104 DUP3 ADD MSTORE PUSH7 0x73756D6D617279 PUSH1 0xC8 SHL PUSH2 0x124 DUP3 ADD MSTORE PUSH2 0x120 PUSH1 0x44 DUP3 ADD MSTORE PUSH1 0x1E PUSH2 0x144 DUP3 ADD MSTORE PUSH32 0x557365732C20646F736167652C20616E64207369646520656666656374730000 PUSH2 0x164 DUP3 ADD MSTORE PUSH2 0x160 PUSH1 0x64 DUP3 ADD MSTORE SWAP11 MLOAD PUSH2 0x184 DUP13 ADD DUP2 SWAP1 MSTORE PUSH2 0x1A4 PUSH1 0x5 DUP3 SWAP1 SHL DUP14 ADD DUP2 ADD SWAP5 SWAP4 SWAP3 DUP12 SWAP3 DUP15 SWAP3 DUP15 SWAP3 SWAP2 SWAP1 DUP12 SWAP1 DUP6 ADD JUMPDEST DUP3 DUP3 LT PUSH2 0x7EB JUMPI POP POP POP POP PUSH1 0x60 SWAP3 PUSH2 0x46F SWAP5 SWAP3 PUSH32 0x68747470733A2F2F7777772E64727567732E636F6D2F7365617263682E706870 PUSH21 0x3F7365617263687465726D3D445255475F4E414D45 PUSH1 0x58 SHL SWAP4 PUSH2 0x440 PUSH1 0xE4 SWAP11 PUSH1 0x23 NOT SWAP8 DUP9 DUP7 DUP4 SUB ADD PUSH1 0x84 DUP8 ADD MSTORE PUSH2 0xF7E JUMP JUMPDEST SWAP3 PUSH1 0xA4 DUP2 DUP6 SUB SWAP8 DUP9 ADD SWAP2 ADD MSTORE PUSH1 0x35 DUP4 MSTORE DUP3 ADD MSTORE ADD MSTORE DUP13 PUSH1 0x1 SWAP6 DUP2 DUP8 PUSH1 0xC4 DUP2 SWAP5 ADD MSTORE ADD MSTORE DUP11 DUP2 ADD DUP14 MSTORE ADD DUP12 PUSH2 0xD8B JUMP JUMPDEST DUP8 MLOAD PUSH4 0xFFEB17D PUSH1 0xE1 SHL DUP2 MSTORE PUSH20 0x37BB9C718F3F7FE5ECBDB0B600D607B52706776 SWAP1 DUP11 DUP2 DUP8 DUP2 DUP6 GAS STATICCALL SWAP1 DUP2 ISZERO PUSH2 0x7E1 JUMPI DUP8 SWAP2 PUSH2 0x7B0 JUMPI JUMPDEST POP PUSH8 0x429D069189E0000 DUP2 ADD DUP1 SWAP2 GT PUSH2 0x79E JUMPI CALLVALUE LT PUSH2 0x766 JUMPI DUP9 MLOAD PUSH4 0x45DE5DF1 PUSH1 0xE1 SHL DUP2 MSTORE PUSH9 0x516658387D1455B86 DUP7 DUP3 ADD MSTORE ADDRESS DUP6 DUP3 ADD MSTORE PUSH4 0x21412BA7 PUSH1 0xE1 SHL PUSH1 0x44 DUP3 ADD MSTORE PUSH1 0x80 PUSH1 0x64 DUP3 ADD MSTORE SWAP10 SWAP11 DUP12 SWAP2 DUP12 SWAP2 DUP3 SWAP1 DUP2 SWAP1 PUSH2 0x50A SWAP1 PUSH1 0x84 DUP4 ADD SWAP1 PUSH2 0xF7E JUMP JUMPDEST SUB SWAP2 CALLVALUE SWAP1 GAS CALL SWAP9 DUP10 ISZERO PUSH2 0x75C JUMPI DUP6 SWAP10 PUSH2 0x729 JUMPI JUMPDEST POP DUP5 SLOAD SWAP1 PUSH9 0x10000000000000000 SWAP2 DUP3 DUP2 LT ISZERO PUSH2 0x717 JUMPI DUP1 DUP5 PUSH2 0x543 SWAP3 ADD DUP9 SSTORE PUSH2 0xFF0 JUMP JUMPDEST SWAP2 SWAP1 SWAP2 PUSH2 0x706 JUMPI DUP9 DUP13 DUP7 SWAP3 PUSH2 0x562 DUP4 PUSH2 0x55C DUP8 SLOAD PUSH2 0x103A JUMP JUMPDEST DUP8 PUSH2 0x1152 JUMP JUMPDEST DUP10 SWAP2 PUSH1 0x1F DUP5 GT PUSH1 0x1 EQ PUSH2 0x697 JUMPI POP SWAP3 DUP3 SWAP2 PUSH2 0x594 SWAP5 DUP12 SWAP4 PUSH2 0x68A JUMPI JUMPDEST POP POP POP DUP2 PUSH1 0x1 SHL SWAP2 PUSH1 0x0 NOT SWAP1 PUSH1 0x3 SHL SHR NOT AND OR SWAP1 JUMP JUMPDEST SWAP1 SSTORE JUMPDEST DUP2 SLOAD SWAP1 DUP2 LT ISZERO PUSH2 0x678 JUMPI DUP1 DUP3 PUSH2 0x5AF SWAP3 ADD DUP4 SSTORE PUSH2 0xFA3 JUMP JUMPDEST PUSH2 0x667 JUMPI DUP1 PUSH2 0x5C0 PUSH1 0x0 SWAP3 SLOAD PUSH2 0x103A JUMP JUMPDEST PUSH1 0x1F DUP2 GT PUSH2 0x649 JUMPI JUMPDEST POP SSTORE SLOAD PUSH1 0x0 NOT DUP2 ADD SWAP3 SWAP1 DUP4 GT PUSH2 0x638 JUMPI POP POP PUSH32 0x84A36581EF5402B73B738A564DA2F28ED179AA557278C4CF4E21441D7FAF9FA4 SWAP3 DUP5 DUP4 DUP8 SWAP4 DUP10 DUP1 SWAP9 SWAP7 MSTORE PUSH1 0x2 DUP12 MSTORE DUP5 DUP3 KECCAK256 SSTORE DUP4 MLOAD SWAP5 DUP6 SWAP4 DUP12 DUP6 MSTORE DUP2 DUP13 DUP7 ADD MSTORE DUP6 DUP6 ADD CALLDATACOPY DUP3 DUP3 ADD DUP5 ADD MSTORE PUSH1 0x1F ADD PUSH1 0x1F NOT AND DUP2 ADD SUB ADD SWAP1 LOG2 MLOAD SWAP1 DUP2 MSTORE RETURN JUMPDEST PUSH4 0x4E487B71 PUSH1 0xE0 SHL DUP5 MSTORE PUSH1 0x11 SWAP1 MSTORE DUP3 REVERT JUMPDEST DUP2 DUP8 MSTORE DUP12 DUP8 KECCAK256 PUSH2 0x661 SWAP2 PUSH1 0x1F ADD PUSH1 0x5 SHR DUP2 ADD SWAP1 PUSH2 0x113B JUMP JUMPDEST CODESIZE PUSH2 0x5C9 JUMP JUMPDEST PUSH4 0x4E487B71 PUSH1 0xE0 SHL DUP6 MSTORE DUP5 DUP5 MSTORE DUP3 DUP6 REVERT JUMPDEST PUSH4 0x4E487B71 PUSH1 0xE0 SHL DUP6 MSTORE PUSH1 0x41 DUP5 MSTORE DUP3 DUP6 REVERT JUMPDEST ADD ADD CALLDATALOAD SWAP1 POP DUP7 CODESIZE DUP1 PUSH2 0x57E JUMP JUMPDEST SWAP4 SWAP2 SWAP1 SWAP3 PUSH1 0x1F NOT DUP2 AND DUP7 DUP13 MSTORE DUP6 DUP13 KECCAK256 SWAP6 DUP13 SWAP1 JUMPDEST DUP11 DUP4 DUP4 LT PUSH2 0x6E7 JUMPI POP POP POP LT PUSH2 0x6CB JUMPI JUMPDEST POP POP POP POP DUP3 DUP9 DUP2 SHL ADD SWAP1 SSTORE PUSH2 0x597 JUMP JUMPDEST PUSH1 0x0 NOT PUSH1 0xF8 DUP14 PUSH1 0x3 SHL AND SHR NOT SWAP3 ADD ADD CALLDATALOAD AND SWAP1 SSTORE CODESIZE DUP1 DUP6 DUP2 PUSH2 0x6BB JUMP JUMPDEST DUP8 DUP7 ADD SWAP1 SWAP7 ADD CALLDATALOAD DUP9 SSTORE SWAP7 SWAP1 SWAP5 ADD SWAP6 DUP11 SWAP5 SWAP4 DUP2 ADD SWAP4 DUP16 SWAP4 POP DUP2 ADD SWAP1 PUSH2 0x6AA JUMP JUMPDEST PUSH4 0x4E487B71 PUSH1 0xE0 SHL DUP8 MSTORE DUP7 DUP7 MSTORE DUP5 DUP8 REVERT JUMPDEST PUSH4 0x4E487B71 PUSH1 0xE0 SHL DUP8 MSTORE PUSH1 0x41 DUP7 MSTORE DUP5 DUP8 REVERT JUMPDEST SWAP1 SWAP9 POP DUP10 DUP2 DUP2 RETURNDATASIZE DUP4 GT PUSH2 0x755 JUMPI JUMPDEST PUSH2 0x741 DUP2 DUP4 PUSH2 0xD8B JUMP JUMPDEST DUP2 ADD SUB SLT PUSH2 0x751 JUMPI MLOAD SWAP8 CODESIZE PUSH2 0x51E JUMP JUMPDEST DUP5 DUP1 REVERT JUMPDEST POP RETURNDATASIZE PUSH2 0x737 JUMP JUMPDEST DUP9 MLOAD RETURNDATASIZE DUP8 DUP3 RETURNDATACOPY RETURNDATASIZE SWAP1 REVERT JUMPDEST DUP9 MLOAD PUSH3 0x461BCD PUSH1 0xE5 SHL DUP2 MSTORE DUP1 DUP7 ADD DUP12 SWAP1 MSTORE PUSH1 0x13 DUP2 DUP7 ADD MSTORE PUSH19 0x13995959080C0B8CCCC814D515081D1BDD185B PUSH1 0x6A SHL PUSH1 0x44 DUP3 ADD MSTORE PUSH1 0x64 SWAP1 REVERT JUMPDEST PUSH4 0x4E487B71 PUSH1 0xE0 SHL DUP8 MSTORE PUSH1 0x11 DUP7 MSTORE DUP5 DUP8 REVERT JUMPDEST SWAP1 POP DUP11 DUP2 DUP2 RETURNDATASIZE DUP4 GT PUSH2 0x7DA JUMPI JUMPDEST PUSH2 0x7C7 DUP2 DUP4 PUSH2 0xD8B JUMP JUMPDEST DUP2 ADD SUB SLT PUSH2 0x7D6 JUMPI MLOAD CODESIZE PUSH2 0x4A6 JUMP JUMPDEST DUP7 DUP1 REVERT JUMPDEST POP RETURNDATASIZE PUSH2 0x7BD JUMP JUMPDEST DUP11 MLOAD RETURNDATASIZE DUP10 DUP3 RETURNDATACOPY RETURNDATASIZE SWAP1 REVERT JUMPDEST SWAP4 SWAP2 SWAP6 POP SWAP4 PUSH2 0x80C PUSH1 0x1 SWAP4 SWAP8 SWAP9 SWAP10 DUP4 SWAP3 PUSH2 0x1A3 NOT SWAP1 DUP3 SUB ADD DUP7 MSTORE DUP9 MLOAD PUSH2 0xF7E JUMP JUMPDEST SWAP7 ADD SWAP3 ADD SWAP3 ADD SWAP1 DUP13 SWAP4 DUP16 SWAP4 SWAP3 DUP16 SWAP4 SWAP9 SWAP8 SWAP7 SWAP9 PUSH2 0x3D9 JUMP JUMPDEST PUSH4 0x4E487B71 PUSH1 0xE0 SHL DUP7 MSTORE PUSH1 0x41 DUP6 MSTORE DUP4 DUP7 REVERT JUMPDEST DUP4 DUP1 REVERT JUMPDEST POP CALLVALUE PUSH2 0xE4 JUMPI PUSH1 0x20 CALLDATASIZE PUSH1 0x3 NOT ADD SLT PUSH2 0xE4 JUMPI PUSH1 0x20 SWAP3 DUP3 SWAP2 CALLDATALOAD DUP2 MSTORE PUSH1 0x2 DUP5 MSTORE KECCAK256 SLOAD SWAP1 MLOAD SWAP1 DUP2 MSTORE RETURN JUMPDEST POP CALLVALUE PUSH2 0xE4 JUMPI PUSH1 0x3 NOT SWAP2 PUSH1 0x80 CALLDATASIZE DUP5 ADD SLT PUSH2 0x835 JUMPI DUP2 CALLDATALOAD SWAP3 PUSH1 0x24 SWAP3 PUSH8 0xFFFFFFFFFFFFFFFF SWAP1 DUP5 CALLDATALOAD DUP3 DUP2 GT PUSH2 0xD6B JUMPI PUSH2 0x89A SWAP1 CALLDATASIZE SWAP1 DUP4 ADD PUSH2 0xE10 JUMP JUMPDEST SWAP2 PUSH1 0x44 CALLDATALOAD SWAP3 PUSH1 0x5 DUP5 LT ISZERO PUSH2 0xD67 JUMPI PUSH1 0x64 CALLDATALOAD SWAP5 DUP3 DUP7 GT PUSH2 0xC1D JUMPI PUSH2 0x1C0 DUP1 SWAP2 DUP8 CALLDATASIZE SUB ADD SLT PUSH2 0xC1D JUMPI DUP7 MLOAD SWAP1 DUP2 ADD DUP2 DUP2 LT DUP5 DUP3 GT OR PUSH2 0xD55 JUMPI DUP8 MSTORE DUP6 DUP5 ADD CALLDATALOAD DUP2 MSTORE PUSH2 0x8E4 DUP9 DUP8 ADD PUSH2 0xDDB JUMP JUMPDEST SWAP6 PUSH1 0x20 SWAP7 DUP8 DUP4 ADD MSTORE PUSH2 0x8F8 PUSH1 0x44 DUP3 ADD PUSH2 0xDDB JUMP JUMPDEST DUP3 DUP10 ADD MSTORE PUSH1 0x64 DUP2 ADD CALLDATALOAD PUSH1 0x1 PUSH1 0x1 PUSH1 0xE0 SHL SUB NOT DUP2 AND DUP2 SUB PUSH2 0xD35 JUMPI PUSH1 0x60 DUP4 ADD MSTORE PUSH1 0x84 DUP2 ADD CALLDATALOAD DUP5 DUP2 GT PUSH2 0xD35 JUMPI DUP2 ADD CALLDATASIZE PUSH1 0x23 DUP3 ADD SLT ISZERO PUSH2 0xD35 JUMPI DUP6 DUP2 ADD CALLDATALOAD SWAP1 PUSH2 0x93E DUP3 PUSH2 0xDC3 JUMP JUMPDEST SWAP2 PUSH2 0x94B DUP12 MLOAD SWAP4 DUP5 PUSH2 0xD8B JUMP JUMPDEST DUP1 DUP4 MSTORE DUP12 DUP11 DUP5 ADD SWAP2 PUSH1 0x5 SHL DUP4 ADD ADD SWAP2 CALLDATASIZE DUP4 GT PUSH2 0xD51 JUMPI DUP13 DUP12 SWAP2 ADD SWAP2 JUMPDEST DUP4 DUP4 LT PUSH2 0xD39 JUMPI POP POP POP POP PUSH1 0x80 DUP4 ADD MSTORE PUSH1 0xA4 DUP2 ADD CALLDATALOAD DUP5 DUP2 GT PUSH2 0xD35 JUMPI PUSH2 0x992 SWAP1 DUP7 CALLDATASIZE SWAP2 DUP5 ADD ADD PUSH2 0xE10 JUMP JUMPDEST PUSH1 0xA0 DUP4 ADD MSTORE PUSH1 0xC4 DUP2 ADD CALLDATALOAD PUSH1 0xC0 DUP4 ADD MSTORE PUSH1 0xE4 DUP2 ADD CALLDATALOAD PUSH1 0xE0 DUP4 ADD MSTORE PUSH2 0x104 DUP2 ADD CALLDATALOAD PUSH2 0x100 DUP4 ADD MSTORE PUSH2 0x124 DUP2 ADD CALLDATALOAD PUSH2 0x120 DUP4 ADD MSTORE PUSH2 0x144 DUP2 ADD CALLDATALOAD PUSH2 0x140 DUP4 ADD MSTORE PUSH2 0x164 DUP2 ADD CALLDATALOAD PUSH1 0x5 DUP2 LT ISZERO PUSH2 0xD35 JUMPI PUSH2 0x160 DUP4 ADD MSTORE PUSH2 0x184 DUP2 ADD CALLDATALOAD PUSH1 0x2 DUP2 LT ISZERO PUSH2 0xD35 JUMPI PUSH2 0x1A0 SWAP2 PUSH2 0x1A4 SWAP2 PUSH2 0x180 DUP6 ADD MSTORE ADD CALLDATALOAD SWAP2 ADD MSTORE PUSH20 0x37BB9C718F3F7FE5ECBDB0B600D607B52706776 CALLER SUB PUSH2 0xD03 JUMPI DUP8 DUP10 MSTORE PUSH1 0x2 DUP6 MSTORE DUP6 DUP10 KECCAK256 SLOAD SWAP4 PUSH1 0x2 DUP2 EQ DUP1 PUSH2 0xCF9 JUMPI JUMPDEST ISZERO PUSH2 0xC33 JUMPI POP DUP1 MLOAD ISZERO PUSH2 0xC21 JUMPI DUP5 DUP1 SWAP2 ADD MLOAD ADD MLOAD SWAP6 DUP7 MLOAD DUP8 ADD SWAP7 DUP6 DUP2 DUP2 DUP11 ADD SWAP10 SUB SLT PUSH2 0xC1D JUMPI DUP6 DUP2 ADD MLOAD SWAP1 DUP4 DUP3 GT PUSH2 0xC19 JUMPI ADD DUP8 PUSH1 0x3F DUP3 ADD SLT ISZERO PUSH2 0xC1D JUMPI DUP6 DUP2 ADD MLOAD PUSH2 0xA82 DUP2 PUSH2 0xDF4 JUMP JUMPDEST SWAP9 PUSH2 0xA8F DUP10 MLOAD SWAP11 DUP12 PUSH2 0xD8B JUMP JUMPDEST DUP2 DUP11 MSTORE DUP9 DUP3 DUP5 ADD ADD GT PUSH2 0xC19 JUMPI PUSH2 0xAAB SWAP2 DUP9 DUP9 DUP12 ADD SWAP2 ADD PUSH2 0xF5B JUMP JUMPDEST PUSH2 0xAB4 DUP5 PUSH2 0xFA3 JUMP JUMPDEST SWAP4 SWAP1 SWAP4 PUSH2 0xC09 JUMPI DUP8 MLOAD SWAP3 DUP4 GT PUSH2 0xBF8 JUMPI POP POP PUSH2 0xADA DUP2 PUSH2 0xAD4 DUP5 SLOAD PUSH2 0x103A JUMP JUMPDEST DUP5 PUSH2 0x1152 JUMP JUMPDEST DUP4 PUSH1 0x1F DUP3 GT PUSH1 0x1 EQ PUSH2 0xB6D JUMPI SWAP3 PUSH32 0x893517A5D723982DEC709B52DDA08B1B426E7C2FE2E98B38ED33EB60F1ABC866 SWAP7 SWAP6 SWAP5 SWAP3 PUSH2 0xB33 DUP4 PUSH2 0xB3A SWAP5 PUSH2 0xB5C SWAP8 DUP14 SWAP2 PUSH2 0xB62 JUMPI JUMPDEST POP DUP2 PUSH1 0x1 SHL SWAP2 PUSH1 0x0 NOT SWAP1 PUSH1 0x3 SHL SHR NOT AND OR SWAP1 JUMP JUMPDEST SWAP1 SSTORE PUSH2 0xFF0 JUMP JUMPDEST POP SWAP4 PUSH2 0xB4F DUP5 MLOAD SWAP6 DUP6 DUP8 SWAP7 DUP8 MSTORE DUP7 ADD SWAP1 PUSH2 0x1074 JUMP JUMPDEST SWAP2 DUP5 DUP4 SUB SWAP1 DUP6 ADD MSTORE PUSH2 0xF7E JUMP JUMPDEST SUB SWAP1 LOG2 DUP1 RETURN JUMPDEST SWAP1 POP DUP10 ADD MLOAD CODESIZE PUSH2 0xB1F JUMP JUMPDEST DUP3 DUP10 MSTORE DUP5 DUP10 KECCAK256 SWAP1 PUSH1 0x1F NOT DUP4 AND DUP11 JUMPDEST DUP2 DUP2 LT PUSH2 0xBE1 JUMPI POP DUP4 PUSH2 0xB5C SWAP7 SWAP4 PUSH32 0x893517A5D723982DEC709B52DDA08B1B426E7C2FE2E98B38ED33EB60F1ABC866 SWAP11 SWAP10 SWAP9 SWAP7 SWAP4 PUSH2 0xB3A SWAP7 PUSH1 0x1 SWAP5 LT PUSH2 0xBC8 JUMPI JUMPDEST POP POP DUP2 SHL ADD SWAP1 SSTORE PUSH2 0xFF0 JUMP JUMPDEST DUP11 ADD MLOAD PUSH1 0x0 NOT PUSH1 0xF8 DUP5 PUSH1 0x3 SHL AND SHR NOT AND SWAP1 SSTORE CODESIZE DUP1 PUSH2 0xBBC JUMP JUMPDEST SWAP2 SWAP3 DUP8 PUSH1 0x1 DUP2 SWAP3 DUP7 DUP14 ADD MLOAD DUP2 SSTORE ADD SWAP5 ADD SWAP3 ADD PUSH2 0xB7B JUMP JUMPDEST PUSH4 0x4E487B71 PUSH1 0xE0 SHL DUP11 MSTORE PUSH1 0x41 SWAP1 MSTORE DUP9 REVERT JUMPDEST PUSH4 0x4E487B71 PUSH1 0xE0 SHL DUP11 MSTORE DUP10 SWAP1 MSTORE DUP9 REVERT JUMPDEST DUP11 DUP1 REVERT JUMPDEST DUP10 DUP1 REVERT JUMPDEST PUSH4 0x4E487B71 PUSH1 0xE0 SHL DUP10 MSTORE PUSH1 0x32 DUP4 MSTORE DUP7 DUP10 REVERT JUMPDEST SWAP5 SWAP6 SWAP4 SWAP1 POP PUSH2 0xC46 SWAP2 POP SWAP8 SWAP7 SWAP6 SWAP8 PUSH2 0xFA3 JUMP JUMPDEST SWAP2 SWAP1 SWAP2 PUSH2 0xCE8 JUMPI POP PUSH32 0x25DE5AE65E960CDB90C690DFDEEFD74729E50B4647A4C4E85D31EE95D3622435 SWAP5 SWAP6 SWAP7 POP PUSH2 0xC7D DUP2 SLOAD PUSH2 0x103A JUMP JUMPDEST PUSH1 0x1F DUP2 GT PUSH2 0xCC7 JUMPI JUMPDEST POP PUSH1 0x49 DUP2 SSTORE DUP7 MSTORE PUSH4 0x34B7B717 PUSH1 0xE1 SHL PUSH1 0x1 DUP5 DUP9 KECCAK256 PUSH32 0x556E61626C6520746F207265747269657665206472756720696E666F726D6174 DUP2 SSTORE ADD SSTORE MLOAD SWAP1 DUP2 MSTORE LOG2 DUP1 RETURN JUMPDEST DUP2 DUP9 MSTORE DUP5 DUP9 KECCAK256 PUSH2 0xCE2 SWAP2 PUSH1 0x1F ADD PUSH1 0x5 SHR DUP2 ADD SWAP1 PUSH1 0x2 ADD PUSH2 0x113B JUMP JUMPDEST CODESIZE PUSH2 0xC86 JUMP JUMPDEST PUSH4 0x4E487B71 PUSH1 0xE0 SHL DUP8 MSTORE DUP7 SWAP1 MSTORE DUP7 DUP7 REVERT JUMPDEST POP DUP2 MLOAD ISZERO ISZERO PUSH2 0xA37 JUMP JUMPDEST DUP6 MLOAD PUSH3 0x461BCD PUSH1 0xE5 SHL DUP2 MSTORE DUP1 DUP5 ADD DUP7 SWAP1 MSTORE PUSH1 0xD DUP2 DUP10 ADD MSTORE PUSH13 0x4F6E6C7920706C6174666F726D PUSH1 0x98 SHL PUSH1 0x44 DUP3 ADD MSTORE PUSH1 0x64 SWAP1 REVERT JUMPDEST DUP12 DUP1 REVERT JUMPDEST DUP2 SWAP1 PUSH2 0xD44 DUP5 PUSH2 0xDDB JUMP JUMPDEST DUP2 MSTORE ADD SWAP2 ADD SWAP1 DUP11 SWAP1 PUSH2 0x967 JUMP JUMPDEST DUP15 DUP1 REVERT JUMPDEST PUSH4 0x4E487B71 PUSH1 0xE0 SHL DUP12 MSTORE PUSH1 0x41 DUP6 MSTORE DUP9 DUP12 REVERT JUMPDEST DUP9 DUP1 REVERT JUMPDEST DUP8 DUP1 REVERT JUMPDEST DUP5 SWAP1 CALLVALUE PUSH2 0x1B9 JUMPI DUP2 PUSH1 0x3 NOT CALLDATASIZE ADD SLT PUSH2 0x1B9 JUMPI PUSH1 0x20 SWAP1 PUSH1 0x1 SLOAD DUP2 MSTORE RETURN JUMPDEST SWAP1 PUSH1 0x1F DUP1 NOT SWAP2 ADD AND DUP2 ADD SWAP1 DUP2 LT PUSH8 0xFFFFFFFFFFFFFFFF DUP3 GT OR PUSH2 0xDAD JUMPI PUSH1 0x40 MSTORE JUMP JUMPDEST PUSH4 0x4E487B71 PUSH1 0xE0 SHL PUSH1 0x0 MSTORE PUSH1 0x41 PUSH1 0x4 MSTORE PUSH1 0x24 PUSH1 0x0 REVERT JUMPDEST PUSH8 0xFFFFFFFFFFFFFFFF DUP2 GT PUSH2 0xDAD JUMPI PUSH1 0x5 SHL PUSH1 0x20 ADD SWAP1 JUMP JUMPDEST CALLDATALOAD SWAP1 PUSH1 0x1 PUSH1 0x1 PUSH1 0xA0 SHL SUB DUP3 AND DUP3 SUB PUSH2 0xDEF JUMPI JUMP JUMPDEST PUSH1 0x0 DUP1 REVERT JUMPDEST PUSH8 0xFFFFFFFFFFFFFFFF DUP2 GT PUSH2 0xDAD JUMPI PUSH1 0x1F ADD PUSH1 0x1F NOT AND PUSH1 0x20 ADD SWAP1 JUMP JUMPDEST SWAP1 DUP1 PUSH1 0x1F DUP4 ADD SLT ISZERO PUSH2 0xDEF JUMPI PUSH1 0x20 SWAP1 DUP3 CALLDATALOAD PUSH2 0xE2A DUP2 PUSH2 0xDC3 JUMP JUMPDEST SWAP4 PUSH1 0x40 SWAP1 PUSH2 0xE3A DUP3 MLOAD SWAP7 DUP8 PUSH2 0xD8B JUMP JUMPDEST DUP3 DUP7 MSTORE DUP5 DUP7 ADD SWAP2 DUP6 PUSH1 0x5 SWAP5 PUSH1 0x5 SHL DUP4 ADD ADD SWAP4 DUP6 DUP6 GT PUSH2 0xDEF JUMPI DUP7 DUP4 ADD SWAP4 JUMPDEST DUP6 DUP6 LT PUSH2 0xE6A JUMPI POP POP POP POP POP POP POP POP SWAP1 JUMP JUMPDEST PUSH8 0xFFFFFFFFFFFFFFFF DUP6 CALLDATALOAD DUP2 DUP2 GT PUSH2 0xDEF JUMPI DUP6 ADD PUSH1 0xC0 DUP1 PUSH1 0x1F NOT DUP4 DUP13 SUB ADD SLT PUSH2 0xDEF JUMPI DUP6 MLOAD SWAP3 DUP2 DUP5 ADD DUP5 DUP2 LT DUP3 DUP3 GT OR PUSH2 0xF46 JUMPI DUP8 MSTORE PUSH2 0xEAB DUP13 DUP5 ADD PUSH2 0xDDB JUMP JUMPDEST DUP5 MSTORE DUP7 DUP4 ADD CALLDATALOAD SWAP1 DUP2 GT PUSH2 0xDEF JUMPI DUP3 ADD SWAP2 DUP11 PUSH1 0x3F DUP5 ADD SLT ISZERO PUSH2 0xDEF JUMPI DUP12 DUP4 ADD CALLDATALOAD PUSH2 0xED3 DUP2 PUSH2 0xDF4 JUMP JUMPDEST SWAP1 PUSH2 0xEE0 DUP10 MLOAD SWAP3 DUP4 PUSH2 0xD8B JUMP JUMPDEST DUP1 DUP3 MSTORE DUP13 DUP10 DUP3 DUP8 ADD ADD GT PUSH2 0xDEF JUMPI DUP1 DUP10 DUP16 SWAP7 ADD DUP7 DUP5 ADD CALLDATACOPY PUSH1 0x0 SWAP5 DUP6 SWAP2 DUP4 ADD ADD MSTORE DUP13 DUP6 ADD MSTORE PUSH1 0x60 SWAP3 DUP4 DUP3 ADD CALLDATALOAD SWAP1 DUP8 DUP3 LT ISZERO PUSH2 0xE1 JUMPI POP DUP8 DUP6 ADD MSTORE PUSH1 0x80 DUP1 DUP3 ADD CALLDATALOAD SWAP4 DUP6 ADD SWAP4 SWAP1 SWAP4 MSTORE PUSH1 0xA0 DUP1 DUP3 ADD CALLDATALOAD SWAP4 DUP6 ADD SWAP4 SWAP1 SWAP4 MSTORE ADD CALLDATALOAD SWAP1 DUP3 ADD MSTORE DUP2 MSTORE SWAP4 DUP8 ADD SWAP4 DUP8 ADD PUSH2 0xE58 JUMP JUMPDEST PUSH1 0x24 PUSH1 0x0 PUSH4 0x4E487B71 PUSH1 0xE0 SHL DUP2 MSTORE PUSH1 0x41 PUSH1 0x4 MSTORE REVERT JUMPDEST PUSH1 0x0 JUMPDEST DUP4 DUP2 LT PUSH2 0xF6E JUMPI POP POP PUSH1 0x0 SWAP2 ADD MSTORE JUMP JUMPDEST DUP2 DUP2 ADD MLOAD DUP4 DUP3 ADD MSTORE PUSH1 0x20 ADD PUSH2 0xF5E JUMP JUMPDEST SWAP1 PUSH1 0x20 SWAP2 PUSH2 0xF97 DUP2 MLOAD DUP1 SWAP3 DUP2 DUP6 MSTORE DUP6 DUP1 DUP7 ADD SWAP2 ADD PUSH2 0xF5B JUMP JUMPDEST PUSH1 0x1F ADD PUSH1 0x1F NOT AND ADD ADD SWAP1 JUMP JUMPDEST PUSH1 0x1 SLOAD DUP2 LT ISZERO PUSH2 0xFDA JUMPI PUSH1 0x1 PUSH1 0x0 MSTORE PUSH32 0xB10E2D527612073B26EECDFD717E6A320CF44B4AFAC2B0732D9FCBE2B7FA0CF6 ADD SWAP1 PUSH1 0x0 SWAP1 JUMP JUMPDEST PUSH4 0x4E487B71 PUSH1 0xE0 SHL PUSH1 0x0 MSTORE PUSH1 0x32 PUSH1 0x4 MSTORE PUSH1 0x24 PUSH1 0x0 REVERT JUMPDEST SWAP1 PUSH1 0x0 SWAP2 DUP3 SLOAD DUP2 LT ISZERO PUSH2 0x1026 JUMPI DUP3 DUP1 MSTORE PUSH32 0x290DECD9548B62A8D60345A988386FC84BA6BC95484008F6362F93160EF3E563 ADD SWAP2 SWAP1 JUMP JUMPDEST PUSH4 0x4E487B71 PUSH1 0xE0 SHL DUP4 MSTORE PUSH1 0x32 PUSH1 0x4 MSTORE PUSH1 0x24 DUP4 REVERT JUMPDEST SWAP1 PUSH1 0x1 DUP3 DUP2 SHR SWAP3 AND DUP1 ISZERO PUSH2 0x106A JUMPI JUMPDEST PUSH1 0x20 DUP4 LT EQ PUSH2 0x1054 JUMPI JUMP JUMPDEST PUSH4 0x4E487B71 PUSH1 0xE0 SHL PUSH1 0x0 MSTORE PUSH1 0x22 PUSH1 0x4 MSTORE PUSH1 0x24 PUSH1 0x0 REVERT JUMPDEST SWAP2 PUSH1 0x7F AND SWAP2 PUSH2 0x1049 JUMP JUMPDEST DUP1 SLOAD PUSH1 0x0 SWAP4 SWAP3 PUSH2 0x1083 DUP3 PUSH2 0x103A JUMP JUMPDEST SWAP2 DUP3 DUP3 MSTORE PUSH1 0x20 SWAP4 PUSH1 0x1 SWAP2 PUSH1 0x1 DUP2 AND SWAP1 DUP2 PUSH1 0x0 EQ PUSH2 0x10EB JUMPI POP PUSH1 0x1 EQ PUSH2 0x10AA JUMPI JUMPDEST POP POP POP POP POP JUMP JUMPDEST SWAP1 SWAP4 SWAP5 SWAP6 POP PUSH1 0x0 SWAP3 SWAP2 SWAP3 MSTORE DUP4 PUSH1 0x0 KECCAK256 SWAP3 DUP5 PUSH1 0x0 SWAP5 JUMPDEST DUP4 DUP7 LT PUSH2 0x10D7 JUMPI POP POP POP POP ADD ADD SWAP1 CODESIZE DUP1 DUP1 DUP1 DUP1 PUSH2 0x10A3 JUMP JUMPDEST DUP1 SLOAD DUP6 DUP8 ADD DUP4 ADD MSTORE SWAP5 ADD SWAP4 DUP6 SWAP1 DUP3 ADD PUSH2 0x10BF JUMP JUMPDEST PUSH1 0xFF NOT AND DUP7 DUP6 ADD MSTORE POP POP POP SWAP1 ISZERO ISZERO PUSH1 0x5 SHL ADD ADD SWAP2 POP CODESIZE DUP1 DUP1 DUP1 DUP1 PUSH2 0x10A3 JUMP JUMPDEST SWAP1 PUSH2 0x1125 JUMPI PUSH2 0x1122 PUSH2 0x16D SWAP2 PUSH1 0x40 MLOAD SWAP3 DUP4 DUP1 SWAP3 PUSH2 0x1074 JUMP JUMPDEST SWAP1 JUMP JUMPDEST PUSH4 0x4E487B71 PUSH1 0xE0 SHL PUSH1 0x0 MSTORE PUSH1 0x0 PUSH1 0x4 MSTORE PUSH1 0x24 PUSH1 0x0 REVERT JUMPDEST DUP2 DUP2 LT PUSH2 0x1146 JUMPI POP POP JUMP JUMPDEST PUSH1 0x0 DUP2 SSTORE PUSH1 0x1 ADD PUSH2 0x113B JUMP JUMPDEST SWAP2 SWAP1 PUSH1 0x1F DUP2 GT PUSH2 0x1161 JUMPI POP POP POP JUMP JUMPDEST PUSH2 0x118D SWAP3 PUSH1 0x0 MSTORE PUSH1 0x20 PUSH1 0x0 KECCAK256 SWAP1 PUSH1 0x20 PUSH1 0x1F DUP5 ADD PUSH1 0x5 SHR DUP4 ADD SWAP4 LT PUSH2 0x118F JUMPI JUMPDEST PUSH1 0x1F ADD PUSH1 0x5 SHR ADD SWAP1 PUSH2 0x113B JUMP JUMPDEST JUMP JUMPDEST SWAP1 SWAP2 POP DUP2 SWAP1 PUSH2 0x1180 JUMP INVALID LOG2 PUSH5 0x6970667358 0x22 SLT KECCAK256 0xE7 GASLIMIT SDIV RETURNDATASIZE LOG2 SELFBALANCE 0xBA DELEGATECALL SGT CALLDATALOAD PREVRANDAO GASPRICE EXTCODESIZE SWAP12 0xAD 0xE6 DIV ISZERO DUP10 0x23 SWAP13 PUSH25 0xA36911E7B28969B0A82D64736F6C6343000818003300000000 "},"methodIdentifiers":{"PLATFORM()":"7efc77fa","WEB_AGENT_ID()":"85b64cf5","drugNames(uint256)":"b81c392a","getDrugInfo(string)":"497482a0","getRequiredDeposit()":"58e56db4","getResult(uint256)":"995e4339","getResultCount()":"29fad5fe","handleResult(uint256,(address,bytes,uint8,uint256,uint256,uint256)[],uint8,(uint256,address,address,bytes4,address[],(address,bytes,uint8,uint256,uint256,uint256)[],uint256,uint256,uint256,uint256,uint256,uint8,uint8,uint256))":"4282574e","requestToResultIndex(uint256)":"445bd91a","searchResults(uint256)":"af9db5a7"}}}}}