{"contracts/PriceOracle.sol":{"PriceOracle":{"abi":[{"anonymous":false,"inputs":[{"indexed":true,"internalType":"uint256","name":"requestId","type":"uint256"},{"indexed":false,"internalType":"uint256","name":"price","type":"uint256"}],"name":"PriceReceived","type":"event"},{"anonymous":false,"inputs":[{"indexed":true,"internalType":"uint256","name":"requestId","type":"uint256"},{"indexed":false,"internalType":"string","name":"url","type":"string"},{"indexed":false,"internalType":"string","name":"selector","type":"string"}],"name":"PriceRequested","type":"event"},{"anonymous":false,"inputs":[{"indexed":true,"internalType":"uint256","name":"requestId","type":"uint256"},{"indexed":false,"internalType":"enum ResponseStatus","name":"status","type":"uint8"}],"name":"RequestFailed","type":"event"},{"inputs":[],"name":"JSON_API_AGENT_ID","outputs":[{"internalType":"uint256","name":"","type":"uint256"}],"stateMutability":"view","type":"function"},{"inputs":[],"name":"PLATFORM","outputs":[{"internalType":"contract IAgentRequester","name":"","type":"address"}],"stateMutability":"view","type":"function"},{"inputs":[],"name":"getFormattedPrice","outputs":[{"internalType":"uint256","name":"wholePart","type":"uint256"},{"internalType":"uint256","name":"decimalPart","type":"uint256"}],"stateMutability":"view","type":"function"},{"inputs":[],"name":"getRequiredDeposit","outputs":[{"internalType":"uint256","name":"","type":"uint256"}],"stateMutability":"view","type":"function"},{"inputs":[{"internalType":"uint256","name":"requestId","type":"uint256"},{"components":[{"internalType":"address","name":"validator","type":"address"},{"internalType":"bytes","name":"result","type":"bytes"},{"internalType":"enum ResponseStatus","name":"status","type":"uint8"},{"internalType":"uint256","name":"receipt","type":"uint256"},{"internalType":"uint256","name":"timestamp","type":"uint256"},{"internalType":"uint256","name":"executionCost","type":"uint256"}],"internalType":"struct Response[]","name":"responses","type":"tuple[]"},{"internalType":"enum ResponseStatus","name":"status","type":"uint8"},{"components":[{"internalType":"uint256","name":"id","type":"uint256"},{"internalType":"address","name":"requester","type":"address"},{"internalType":"address","name":"callbackAddress","type":"address"},{"internalType":"bytes4","name":"callbackSelector","type":"bytes4"},{"internalType":"address[]","name":"subcommittee","type":"address[]"},{"components":[{"internalType":"address","name":"validator","type":"address"},{"internalType":"bytes","name":"result","type":"bytes"},{"internalType":"enum ResponseStatus","name":"status","type":"uint8"},{"internalType":"uint256","name":"receipt","type":"uint256"},{"internalType":"uint256","name":"timestamp","type":"uint256"},{"internalType":"uint256","name":"executionCost","type":"uint256"}],"internalType":"struct Response[]","name":"responses","type":"tuple[]"},{"internalType":"uint256","name":"responseCount","type":"uint256"},{"internalType":"uint256","name":"failureCount","type":"uint256"},{"internalType":"uint256","name":"threshold","type":"uint256"},{"internalType":"uint256","name":"createdAt","type":"uint256"},{"internalType":"uint256","name":"deadline","type":"uint256"},{"internalType":"enum ResponseStatus","name":"status","type":"uint8"},{"internalType":"enum ConsensusType","name":"consensusType","type":"uint8"},{"internalType":"uint256","name":"remainingBudget","type":"uint256"}],"internalType":"struct Request","name":"","type":"tuple"}],"name":"handleResponse","outputs":[],"stateMutability":"nonpayable","type":"function"},{"inputs":[],"name":"lastUpdatedAt","outputs":[{"internalType":"uint256","name":"","type":"uint256"}],"stateMutability":"view","type":"function"},{"inputs":[],"name":"latestPrice","outputs":[{"internalType":"uint256","name":"","type":"uint256"}],"stateMutability":"view","type":"function"},{"inputs":[{"internalType":"uint256","name":"","type":"uint256"}],"name":"pendingRequests","outputs":[{"internalType":"bool","name":"","type":"bool"}],"stateMutability":"view","type":"function"},{"inputs":[],"name":"requestBtcPrice","outputs":[{"internalType":"uint256","name":"requestId","type":"uint256"}],"stateMutability":"payable","type":"function"},{"inputs":[],"name":"requestEthPrice","outputs":[{"internalType":"uint256","name":"requestId","type":"uint256"}],"stateMutability":"payable","type":"function"},{"stateMutability":"payable","type":"receive"}],"evm":{"bytecode":{"linkReferences":{},"object":"6080806040523461001657610b23908161001c8239f35b600080fdfe6080604081815260049182361015610022575b505050361561002057600080fd5b005b600092833560e01c918263011f8b1b146106305750816308db3305146106055781630e3da5b8146102c65781633812b250146102525781633c652a9a1461022557816354aea1271461020657816358e56db41461016d575080637efc77fa1461013f578063a3e6ba94146101235763f3adfbc7146100a05780610012565b8160031936011261011f5780610118602092516100bc81610652565b603a81527f68747470733a2f2f6170692e62696e616e63652e636f6d2f6170692f76332f74848201527f69636b65722f70726963653f73796d626f6c3d455448555344540000000000008382015261011261082a565b9061089c565b9051908152f35b5080fd5b503461011f578160031936011261011f57602091549051908152f35b503461011f578160031936011261011f576020905173037bb9c718f3f7fe5ecbdb0b600d607b527067768152f35b919050346101f057826003193601126101f057602081518093630ffeb17d60e11b82528173037bb9c718f3f7fe5ecbdb0b600d607b527067765afa9182156101fc5783926101c0575b6020838351908152f35b9091506020813d6020116101f4575b816101dc60209383610684565b810103126101f057602092505190386101b6565b8280fd5b3d91506101cf565b81513d85823e3d90fd5b50503461011f578160031936011261011f576020906001549051908152f35b9050346101f05760203660031901126101f0578160209360ff923581526002855220541690519015158152f35b50508160031936011261011f57806101186020925161027081610652565b603a81527f68747470733a2f2f6170692e62696e616e63652e636f6d2f6170692f76332f74848201527f69636b65722f70726963653f73796d626f6c3d425443555344540000000000008382015261011261082a565b919050346101f0576003199160803684011261060157803592602480359267ffffffffffffffff938481116105fd5761030290369083016106d7565b926044359060058210156105f9576064358681116105f5576101c0809282360301126105f5578751918201828110888211176105e357885280840135825261034b8582016106be565b966020978884015261035f604483016106be565b838a015260648201356001600160e01b0319811681036105df57606084015260848201358181116105df578201366023820112156105df5785810135906103a5826106a6565b916103b28c519384610684565b808352888b84019160051b830101913683116105db57898c9101915b8383106105c35750505050608084015260a48201359081116105bf576103f9908536918401016106d7565b60a083015260c481013560c083015260e481013560e083015261010481013561010083015261012481013561012083015261014481013561014083015261016481013560058110156105bf5761016083015261018481013560028110156105bf576101a0916101a491610180850152013591015273037bb9c718f3f7fe5ecbdb0b600d607b52706776330361058e578688526002855260ff86892054161561055b578688526002808652868920805460ff19169055811480610551575b1561052357508251156105125750508180910151015191818380518101031261050e57817fea9a71d98ddc7ea55a2fd4ddad706d82f99e1c51f75b9bc9417bbabc10fc91cb930151908186554260015551908152a280f35b8480fd5b634e487b7160e01b87526032905285fd5b925050507f3a4f0cc107942e96d99e5648c0043cdd51686b0ba8c85ceed4b0fbb7db61cbdc9251908152a280f35b50835115156104b6565b50600f6064928587519362461bcd60e51b85528401528201526e155b9adb9bdddb881c995c5d595cdd608a1b6044820152fd5b50600d6064928587519362461bcd60e51b85528401528201526c4f6e6c7920706c6174666f726d60981b6044820152fd5b8a80fd5b81906105ce846106be565b8152019101908b906103ce565b8e80fd5b8b80fd5b634e487b7160e01b8b5260418552858bfd5b8980fd5b8880fd5b8780fd5b8380fd5b82843461062d578060031936011261062d57546305f5e1008251918181048352066020820152f35b80fd5b84903461011f578160031936011261011f578067b6d47da8dbbcb1b160209252f35b6060810190811067ffffffffffffffff82111761066e57604052565b634e487b7160e01b600052604160045260246000fd5b90601f8019910116810190811067ffffffffffffffff82111761066e57604052565b67ffffffffffffffff811161066e5760051b60200190565b35906001600160a01b03821682036106d257565b600080fd5b601f9082601f820112156106d25780356020926106f3826106a6565b94604061070281519788610684565b838752858701928660059560051b870101948386116106d257878701945b8686106107335750505050505050505090565b67ffffffffffffffff86358181116106d25789019060c0601f19928184828b0301126106d25787519382850185811085821117610815578952610777828f016106be565b8552888201358481116106d2578201938a603f860112156106d2578e850135908111610815576107af8f8b51938b8401160183610684565b8082528a8a82870101116106d257808f958b01868401376000948591830101528d85015260609283820135908782101561062d5750888501526080808201359385019390935260a080820135938501939093520135908201528152948801948801610720565b60246000634e487b7160e01b81526041600452fd5b604051906040820182811067ffffffffffffffff82111761066e576040526005825264707269636560d81b6020830152565b919082519283825260005b848110610888575050826000602080949584010152601f8019910116010190565b602081830181015184830182015201610867565b916040928351936020631dde098160e11b81870152606060248701526108f3866108de6108cc608483018761085c565b8281036023190160448401528861085c565b6008606483015203601f198101885287610684565b8151630ffeb17d60e11b815273037bb9c718f3f7fe5ecbdb0b600d607b52706776908281600481855afa908115610ae257600091610ab5575b5067013fbe85edc900008101809111610a9f573410610a47576109909495968291845180809881946345de5df160e11b835267b6d47da8dbbcb1b160048401523060248401526301c7b4b760e31b604484015260806064840152608483019061085c565b039134905af1938415610a3c57600094610a0b575b5090610a067f6f5af20087f5ec1168f46e6a6b3f04fc77cfb13a534df5b100ee511eb4e14f8f93928597866000526002825283600020600160ff198254161790556109f9845195858796875286019061085c565b918483039085015261085c565b0390a2565b90938482813d8311610a35575b610a228183610684565b8101031261062d57505192610a066109a5565b503d610a18565b82513d6000823e3d90fd5b50608491519062461bcd60e51b82526004820152602c60248201527f4e65656420302e31322053545420746f74616c20286465706f736974202b203360448201526b2076616c696461746f72732960a01b6064820152fd5b634e487b7160e01b600052601160045260246000fd5b90508281813d8311610adb575b610acc8183610684565b810103126106d257513861092c565b503d610ac2565b84513d6000823e3d90fdfea26469706673582212205e41d8862dfab27d69eece3e27fab94e727e58a15eb1d8a5a79596eeb6044fe464736f6c63430008180033","opcodes":"PUSH1 0x80 DUP1 PUSH1 0x40 MSTORE CALLVALUE PUSH2 0x16 JUMPI PUSH2 0xB23 SWAP1 DUP2 PUSH2 0x1C DUP3 CODECOPY RETURN JUMPDEST PUSH1 0x0 DUP1 REVERT INVALID PUSH1 0x80 PUSH1 0x40 DUP2 DUP2 MSTORE PUSH1 0x4 SWAP2 DUP3 CALLDATASIZE LT ISZERO PUSH2 0x22 JUMPI JUMPDEST POP POP POP CALLDATASIZE ISZERO PUSH2 0x20 JUMPI PUSH1 0x0 DUP1 REVERT JUMPDEST STOP JUMPDEST PUSH1 0x0 SWAP3 DUP4 CALLDATALOAD PUSH1 0xE0 SHR SWAP2 DUP3 PUSH4 0x11F8B1B EQ PUSH2 0x630 JUMPI POP DUP2 PUSH4 0x8DB3305 EQ PUSH2 0x605 JUMPI DUP2 PUSH4 0xE3DA5B8 EQ PUSH2 0x2C6 JUMPI DUP2 PUSH4 0x3812B250 EQ PUSH2 0x252 JUMPI DUP2 PUSH4 0x3C652A9A EQ PUSH2 0x225 JUMPI DUP2 PUSH4 0x54AEA127 EQ PUSH2 0x206 JUMPI DUP2 PUSH4 0x58E56DB4 EQ PUSH2 0x16D JUMPI POP DUP1 PUSH4 0x7EFC77FA EQ PUSH2 0x13F JUMPI DUP1 PUSH4 0xA3E6BA94 EQ PUSH2 0x123 JUMPI PUSH4 0xF3ADFBC7 EQ PUSH2 0xA0 JUMPI DUP1 PUSH2 0x12 JUMP JUMPDEST DUP2 PUSH1 0x3 NOT CALLDATASIZE ADD SLT PUSH2 0x11F JUMPI DUP1 PUSH2 0x118 PUSH1 0x20 SWAP3 MLOAD PUSH2 0xBC DUP2 PUSH2 0x652 JUMP JUMPDEST PUSH1 0x3A DUP2 MSTORE PUSH32 0x68747470733A2F2F6170692E62696E616E63652E636F6D2F6170692F76332F74 DUP5 DUP3 ADD MSTORE PUSH32 0x69636B65722F70726963653F73796D626F6C3D45544855534454000000000000 DUP4 DUP3 ADD MSTORE PUSH2 0x112 PUSH2 0x82A JUMP JUMPDEST SWAP1 PUSH2 0x89C JUMP JUMPDEST SWAP1 MLOAD SWAP1 DUP2 MSTORE RETURN JUMPDEST POP DUP1 REVERT JUMPDEST POP CALLVALUE PUSH2 0x11F JUMPI DUP2 PUSH1 0x3 NOT CALLDATASIZE ADD SLT PUSH2 0x11F JUMPI PUSH1 0x20 SWAP2 SLOAD SWAP1 MLOAD SWAP1 DUP2 MSTORE RETURN JUMPDEST POP CALLVALUE PUSH2 0x11F JUMPI DUP2 PUSH1 0x3 NOT CALLDATASIZE ADD SLT PUSH2 0x11F JUMPI PUSH1 0x20 SWAP1 MLOAD PUSH20 0x37BB9C718F3F7FE5ECBDB0B600D607B52706776 DUP2 MSTORE RETURN JUMPDEST SWAP2 SWAP1 POP CALLVALUE PUSH2 0x1F0 JUMPI DUP3 PUSH1 0x3 NOT CALLDATASIZE ADD SLT PUSH2 0x1F0 JUMPI PUSH1 0x20 DUP2 MLOAD DUP1 SWAP4 PUSH4 0xFFEB17D PUSH1 0xE1 SHL DUP3 MSTORE DUP2 PUSH20 0x37BB9C718F3F7FE5ECBDB0B600D607B52706776 GAS STATICCALL SWAP2 DUP3 ISZERO PUSH2 0x1FC JUMPI DUP4 SWAP3 PUSH2 0x1C0 JUMPI JUMPDEST PUSH1 0x20 DUP4 DUP4 MLOAD SWAP1 DUP2 MSTORE RETURN JUMPDEST SWAP1 SWAP2 POP PUSH1 0x20 DUP2 RETURNDATASIZE PUSH1 0x20 GT PUSH2 0x1F4 JUMPI JUMPDEST DUP2 PUSH2 0x1DC PUSH1 0x20 SWAP4 DUP4 PUSH2 0x684 JUMP JUMPDEST DUP2 ADD SUB SLT PUSH2 0x1F0 JUMPI PUSH1 0x20 SWAP3 POP MLOAD SWAP1 CODESIZE PUSH2 0x1B6 JUMP JUMPDEST DUP3 DUP1 REVERT JUMPDEST RETURNDATASIZE SWAP2 POP PUSH2 0x1CF JUMP JUMPDEST DUP2 MLOAD RETURNDATASIZE DUP6 DUP3 RETURNDATACOPY RETURNDATASIZE SWAP1 REVERT JUMPDEST POP POP CALLVALUE PUSH2 0x11F JUMPI DUP2 PUSH1 0x3 NOT CALLDATASIZE ADD SLT PUSH2 0x11F JUMPI PUSH1 0x20 SWAP1 PUSH1 0x1 SLOAD SWAP1 MLOAD SWAP1 DUP2 MSTORE RETURN JUMPDEST SWAP1 POP CALLVALUE PUSH2 0x1F0 JUMPI PUSH1 0x20 CALLDATASIZE PUSH1 0x3 NOT ADD SLT PUSH2 0x1F0 JUMPI DUP2 PUSH1 0x20 SWAP4 PUSH1 0xFF SWAP3 CALLDATALOAD DUP2 MSTORE PUSH1 0x2 DUP6 MSTORE KECCAK256 SLOAD AND SWAP1 MLOAD SWAP1 ISZERO ISZERO DUP2 MSTORE RETURN JUMPDEST POP POP DUP2 PUSH1 0x3 NOT CALLDATASIZE ADD SLT PUSH2 0x11F JUMPI DUP1 PUSH2 0x118 PUSH1 0x20 SWAP3 MLOAD PUSH2 0x270 DUP2 PUSH2 0x652 JUMP JUMPDEST PUSH1 0x3A DUP2 MSTORE PUSH32 0x68747470733A2F2F6170692E62696E616E63652E636F6D2F6170692F76332F74 DUP5 DUP3 ADD MSTORE PUSH32 0x69636B65722F70726963653F73796D626F6C3D42544355534454000000000000 DUP4 DUP3 ADD MSTORE PUSH2 0x112 PUSH2 0x82A JUMP JUMPDEST SWAP2 SWAP1 POP CALLVALUE PUSH2 0x1F0 JUMPI PUSH1 0x3 NOT SWAP2 PUSH1 0x80 CALLDATASIZE DUP5 ADD SLT PUSH2 0x601 JUMPI DUP1 CALLDATALOAD SWAP3 PUSH1 0x24 DUP1 CALLDATALOAD SWAP3 PUSH8 0xFFFFFFFFFFFFFFFF SWAP4 DUP5 DUP2 GT PUSH2 0x5FD JUMPI PUSH2 0x302 SWAP1 CALLDATASIZE SWAP1 DUP4 ADD PUSH2 0x6D7 JUMP JUMPDEST SWAP3 PUSH1 0x44 CALLDATALOAD SWAP1 PUSH1 0x5 DUP3 LT ISZERO PUSH2 0x5F9 JUMPI PUSH1 0x64 CALLDATALOAD DUP7 DUP2 GT PUSH2 0x5F5 JUMPI PUSH2 0x1C0 DUP1 SWAP3 DUP3 CALLDATASIZE SUB ADD SLT PUSH2 0x5F5 JUMPI DUP8 MLOAD SWAP2 DUP3 ADD DUP3 DUP2 LT DUP9 DUP3 GT OR PUSH2 0x5E3 JUMPI DUP9 MSTORE DUP1 DUP5 ADD CALLDATALOAD DUP3 MSTORE PUSH2 0x34B DUP6 DUP3 ADD PUSH2 0x6BE JUMP JUMPDEST SWAP7 PUSH1 0x20 SWAP8 DUP9 DUP5 ADD MSTORE PUSH2 0x35F PUSH1 0x44 DUP4 ADD PUSH2 0x6BE JUMP JUMPDEST DUP4 DUP11 ADD MSTORE PUSH1 0x64 DUP3 ADD CALLDATALOAD PUSH1 0x1 PUSH1 0x1 PUSH1 0xE0 SHL SUB NOT DUP2 AND DUP2 SUB PUSH2 0x5DF JUMPI PUSH1 0x60 DUP5 ADD MSTORE PUSH1 0x84 DUP3 ADD CALLDATALOAD DUP2 DUP2 GT PUSH2 0x5DF JUMPI DUP3 ADD CALLDATASIZE PUSH1 0x23 DUP3 ADD SLT ISZERO PUSH2 0x5DF JUMPI DUP6 DUP2 ADD CALLDATALOAD SWAP1 PUSH2 0x3A5 DUP3 PUSH2 0x6A6 JUMP JUMPDEST SWAP2 PUSH2 0x3B2 DUP13 MLOAD SWAP4 DUP5 PUSH2 0x684 JUMP JUMPDEST DUP1 DUP4 MSTORE DUP9 DUP12 DUP5 ADD SWAP2 PUSH1 0x5 SHL DUP4 ADD ADD SWAP2 CALLDATASIZE DUP4 GT PUSH2 0x5DB JUMPI DUP10 DUP13 SWAP2 ADD SWAP2 JUMPDEST DUP4 DUP4 LT PUSH2 0x5C3 JUMPI POP POP POP POP PUSH1 0x80 DUP5 ADD MSTORE PUSH1 0xA4 DUP3 ADD CALLDATALOAD SWAP1 DUP2 GT PUSH2 0x5BF JUMPI PUSH2 0x3F9 SWAP1 DUP6 CALLDATASIZE SWAP2 DUP5 ADD ADD PUSH2 0x6D7 JUMP JUMPDEST PUSH1 0xA0 DUP4 ADD MSTORE PUSH1 0xC4 DUP2 ADD CALLDATALOAD PUSH1 0xC0 DUP4 ADD MSTORE PUSH1 0xE4 DUP2 ADD CALLDATALOAD PUSH1 0xE0 DUP4 ADD MSTORE PUSH2 0x104 DUP2 ADD CALLDATALOAD PUSH2 0x100 DUP4 ADD MSTORE PUSH2 0x124 DUP2 ADD CALLDATALOAD PUSH2 0x120 DUP4 ADD MSTORE PUSH2 0x144 DUP2 ADD CALLDATALOAD PUSH2 0x140 DUP4 ADD MSTORE PUSH2 0x164 DUP2 ADD CALLDATALOAD PUSH1 0x5 DUP2 LT ISZERO PUSH2 0x5BF JUMPI PUSH2 0x160 DUP4 ADD MSTORE PUSH2 0x184 DUP2 ADD CALLDATALOAD PUSH1 0x2 DUP2 LT ISZERO PUSH2 0x5BF JUMPI PUSH2 0x1A0 SWAP2 PUSH2 0x1A4 SWAP2 PUSH2 0x180 DUP6 ADD MSTORE ADD CALLDATALOAD SWAP2 ADD MSTORE PUSH20 0x37BB9C718F3F7FE5ECBDB0B600D607B52706776 CALLER SUB PUSH2 0x58E JUMPI DUP7 DUP9 MSTORE PUSH1 0x2 DUP6 MSTORE PUSH1 0xFF DUP7 DUP10 KECCAK256 SLOAD AND ISZERO PUSH2 0x55B JUMPI DUP7 DUP9 MSTORE PUSH1 0x2 DUP1 DUP7 MSTORE DUP7 DUP10 KECCAK256 DUP1 SLOAD PUSH1 0xFF NOT AND SWAP1 SSTORE DUP2 EQ DUP1 PUSH2 0x551 JUMPI JUMPDEST ISZERO PUSH2 0x523 JUMPI POP DUP3 MLOAD ISZERO PUSH2 0x512 JUMPI POP POP DUP2 DUP1 SWAP2 ADD MLOAD ADD MLOAD SWAP2 DUP2 DUP4 DUP1 MLOAD DUP2 ADD SUB SLT PUSH2 0x50E JUMPI DUP2 PUSH32 0xEA9A71D98DDC7EA55A2FD4DDAD706D82F99E1C51F75B9BC9417BBABC10FC91CB SWAP4 ADD MLOAD SWAP1 DUP2 DUP7 SSTORE TIMESTAMP PUSH1 0x1 SSTORE MLOAD SWAP1 DUP2 MSTORE LOG2 DUP1 RETURN JUMPDEST DUP5 DUP1 REVERT JUMPDEST PUSH4 0x4E487B71 PUSH1 0xE0 SHL DUP8 MSTORE PUSH1 0x32 SWAP1 MSTORE DUP6 REVERT JUMPDEST SWAP3 POP POP POP PUSH32 0x3A4F0CC107942E96D99E5648C0043CDD51686B0BA8C85CEED4B0FBB7DB61CBDC SWAP3 MLOAD SWAP1 DUP2 MSTORE LOG2 DUP1 RETURN JUMPDEST POP DUP4 MLOAD ISZERO ISZERO PUSH2 0x4B6 JUMP JUMPDEST POP PUSH1 0xF PUSH1 0x64 SWAP3 DUP6 DUP8 MLOAD SWAP4 PUSH3 0x461BCD PUSH1 0xE5 SHL DUP6 MSTORE DUP5 ADD MSTORE DUP3 ADD MSTORE PUSH15 0x155B9ADB9BDDDB881C995C5D595CDD PUSH1 0x8A SHL PUSH1 0x44 DUP3 ADD MSTORE REVERT JUMPDEST POP PUSH1 0xD PUSH1 0x64 SWAP3 DUP6 DUP8 MLOAD SWAP4 PUSH3 0x461BCD PUSH1 0xE5 SHL DUP6 MSTORE DUP5 ADD MSTORE DUP3 ADD MSTORE PUSH13 0x4F6E6C7920706C6174666F726D PUSH1 0x98 SHL PUSH1 0x44 DUP3 ADD MSTORE REVERT JUMPDEST DUP11 DUP1 REVERT JUMPDEST DUP2 SWAP1 PUSH2 0x5CE DUP5 PUSH2 0x6BE JUMP JUMPDEST DUP2 MSTORE ADD SWAP2 ADD SWAP1 DUP12 SWAP1 PUSH2 0x3CE JUMP JUMPDEST DUP15 DUP1 REVERT JUMPDEST DUP12 DUP1 REVERT JUMPDEST PUSH4 0x4E487B71 PUSH1 0xE0 SHL DUP12 MSTORE PUSH1 0x41 DUP6 MSTORE DUP6 DUP12 REVERT JUMPDEST DUP10 DUP1 REVERT JUMPDEST DUP9 DUP1 REVERT JUMPDEST DUP8 DUP1 REVERT JUMPDEST DUP4 DUP1 REVERT JUMPDEST DUP3 DUP5 CALLVALUE PUSH2 0x62D JUMPI DUP1 PUSH1 0x3 NOT CALLDATASIZE ADD SLT PUSH2 0x62D JUMPI SLOAD PUSH4 0x5F5E100 DUP3 MLOAD SWAP2 DUP2 DUP2 DIV DUP4 MSTORE MOD PUSH1 0x20 DUP3 ADD MSTORE RETURN JUMPDEST DUP1 REVERT JUMPDEST DUP5 SWAP1 CALLVALUE PUSH2 0x11F JUMPI DUP2 PUSH1 0x3 NOT CALLDATASIZE ADD SLT PUSH2 0x11F JUMPI DUP1 PUSH8 0xB6D47DA8DBBCB1B1 PUSH1 0x20 SWAP3 MSTORE RETURN JUMPDEST PUSH1 0x60 DUP2 ADD SWAP1 DUP2 LT PUSH8 0xFFFFFFFFFFFFFFFF DUP3 GT OR PUSH2 0x66E JUMPI PUSH1 0x40 MSTORE JUMP JUMPDEST PUSH4 0x4E487B71 PUSH1 0xE0 SHL PUSH1 0x0 MSTORE PUSH1 0x41 PUSH1 0x4 MSTORE PUSH1 0x24 PUSH1 0x0 REVERT JUMPDEST SWAP1 PUSH1 0x1F DUP1 NOT SWAP2 ADD AND DUP2 ADD SWAP1 DUP2 LT PUSH8 0xFFFFFFFFFFFFFFFF DUP3 GT OR PUSH2 0x66E JUMPI PUSH1 0x40 MSTORE JUMP JUMPDEST PUSH8 0xFFFFFFFFFFFFFFFF DUP2 GT PUSH2 0x66E JUMPI PUSH1 0x5 SHL PUSH1 0x20 ADD SWAP1 JUMP JUMPDEST CALLDATALOAD SWAP1 PUSH1 0x1 PUSH1 0x1 PUSH1 0xA0 SHL SUB DUP3 AND DUP3 SUB PUSH2 0x6D2 JUMPI JUMP JUMPDEST PUSH1 0x0 DUP1 REVERT JUMPDEST PUSH1 0x1F SWAP1 DUP3 PUSH1 0x1F DUP3 ADD SLT ISZERO PUSH2 0x6D2 JUMPI DUP1 CALLDATALOAD PUSH1 0x20 SWAP3 PUSH2 0x6F3 DUP3 PUSH2 0x6A6 JUMP JUMPDEST SWAP5 PUSH1 0x40 PUSH2 0x702 DUP2 MLOAD SWAP8 DUP9 PUSH2 0x684 JUMP JUMPDEST DUP4 DUP8 MSTORE DUP6 DUP8 ADD SWAP3 DUP7 PUSH1 0x5 SWAP6 PUSH1 0x5 SHL DUP8 ADD ADD SWAP5 DUP4 DUP7 GT PUSH2 0x6D2 JUMPI DUP8 DUP8 ADD SWAP5 JUMPDEST DUP7 DUP7 LT PUSH2 0x733 JUMPI POP POP POP POP POP POP POP POP POP SWAP1 JUMP JUMPDEST PUSH8 0xFFFFFFFFFFFFFFFF DUP7 CALLDATALOAD DUP2 DUP2 GT PUSH2 0x6D2 JUMPI DUP10 ADD SWAP1 PUSH1 0xC0 PUSH1 0x1F NOT SWAP3 DUP2 DUP5 DUP3 DUP12 SUB ADD SLT PUSH2 0x6D2 JUMPI DUP8 MLOAD SWAP4 DUP3 DUP6 ADD DUP6 DUP2 LT DUP6 DUP3 GT OR PUSH2 0x815 JUMPI DUP10 MSTORE PUSH2 0x777 DUP3 DUP16 ADD PUSH2 0x6BE JUMP JUMPDEST DUP6 MSTORE DUP9 DUP3 ADD CALLDATALOAD DUP5 DUP2 GT PUSH2 0x6D2 JUMPI DUP3 ADD SWAP4 DUP11 PUSH1 0x3F DUP7 ADD SLT ISZERO PUSH2 0x6D2 JUMPI DUP15 DUP6 ADD CALLDATALOAD SWAP1 DUP2 GT PUSH2 0x815 JUMPI PUSH2 0x7AF DUP16 DUP12 MLOAD SWAP4 DUP12 DUP5 ADD AND ADD DUP4 PUSH2 0x684 JUMP JUMPDEST DUP1 DUP3 MSTORE DUP11 DUP11 DUP3 DUP8 ADD ADD GT PUSH2 0x6D2 JUMPI DUP1 DUP16 SWAP6 DUP12 ADD DUP7 DUP5 ADD CALLDATACOPY PUSH1 0x0 SWAP5 DUP6 SWAP2 DUP4 ADD ADD MSTORE DUP14 DUP6 ADD MSTORE PUSH1 0x60 SWAP3 DUP4 DUP3 ADD CALLDATALOAD SWAP1 DUP8 DUP3 LT ISZERO PUSH2 0x62D JUMPI POP DUP9 DUP6 ADD MSTORE PUSH1 0x80 DUP1 DUP3 ADD CALLDATALOAD SWAP4 DUP6 ADD SWAP4 SWAP1 SWAP4 MSTORE PUSH1 0xA0 DUP1 DUP3 ADD CALLDATALOAD SWAP4 DUP6 ADD SWAP4 SWAP1 SWAP4 MSTORE ADD CALLDATALOAD SWAP1 DUP3 ADD MSTORE DUP2 MSTORE SWAP5 DUP9 ADD SWAP5 DUP9 ADD PUSH2 0x720 JUMP JUMPDEST PUSH1 0x24 PUSH1 0x0 PUSH4 0x4E487B71 PUSH1 0xE0 SHL DUP2 MSTORE PUSH1 0x41 PUSH1 0x4 MSTORE REVERT JUMPDEST PUSH1 0x40 MLOAD SWAP1 PUSH1 0x40 DUP3 ADD DUP3 DUP2 LT PUSH8 0xFFFFFFFFFFFFFFFF DUP3 GT OR PUSH2 0x66E JUMPI PUSH1 0x40 MSTORE PUSH1 0x5 DUP3 MSTORE PUSH5 0x7072696365 PUSH1 0xD8 SHL PUSH1 0x20 DUP4 ADD MSTORE JUMP JUMPDEST SWAP2 SWAP1 DUP3 MLOAD SWAP3 DUP4 DUP3 MSTORE PUSH1 0x0 JUMPDEST DUP5 DUP2 LT PUSH2 0x888 JUMPI POP POP DUP3 PUSH1 0x0 PUSH1 0x20 DUP1 SWAP5 SWAP6 DUP5 ADD ADD MSTORE PUSH1 0x1F DUP1 NOT SWAP2 ADD AND ADD ADD SWAP1 JUMP JUMPDEST PUSH1 0x20 DUP2 DUP4 ADD DUP2 ADD MLOAD DUP5 DUP4 ADD DUP3 ADD MSTORE ADD PUSH2 0x867 JUMP JUMPDEST SWAP2 PUSH1 0x40 SWAP3 DUP4 MLOAD SWAP4 PUSH1 0x20 PUSH4 0x1DDE0981 PUSH1 0xE1 SHL DUP2 DUP8 ADD MSTORE PUSH1 0x60 PUSH1 0x24 DUP8 ADD MSTORE PUSH2 0x8F3 DUP7 PUSH2 0x8DE PUSH2 0x8CC PUSH1 0x84 DUP4 ADD DUP8 PUSH2 0x85C JUMP JUMPDEST DUP3 DUP2 SUB PUSH1 0x23 NOT ADD PUSH1 0x44 DUP5 ADD MSTORE DUP9 PUSH2 0x85C JUMP JUMPDEST PUSH1 0x8 PUSH1 0x64 DUP4 ADD MSTORE SUB PUSH1 0x1F NOT DUP2 ADD DUP9 MSTORE DUP8 PUSH2 0x684 JUMP JUMPDEST DUP2 MLOAD PUSH4 0xFFEB17D PUSH1 0xE1 SHL DUP2 MSTORE PUSH20 0x37BB9C718F3F7FE5ECBDB0B600D607B52706776 SWAP1 DUP3 DUP2 PUSH1 0x4 DUP2 DUP6 GAS STATICCALL SWAP1 DUP2 ISZERO PUSH2 0xAE2 JUMPI PUSH1 0x0 SWAP2 PUSH2 0xAB5 JUMPI JUMPDEST POP PUSH8 0x13FBE85EDC90000 DUP2 ADD DUP1 SWAP2 GT PUSH2 0xA9F JUMPI CALLVALUE LT PUSH2 0xA47 JUMPI PUSH2 0x990 SWAP5 SWAP6 SWAP7 DUP3 SWAP2 DUP5 MLOAD DUP1 DUP1 SWAP9 DUP2 SWAP5 PUSH4 0x45DE5DF1 PUSH1 0xE1 SHL DUP4 MSTORE PUSH8 0xB6D47DA8DBBCB1B1 PUSH1 0x4 DUP5 ADD MSTORE ADDRESS PUSH1 0x24 DUP5 ADD MSTORE PUSH4 0x1C7B4B7 PUSH1 0xE3 SHL PUSH1 0x44 DUP5 ADD MSTORE PUSH1 0x80 PUSH1 0x64 DUP5 ADD MSTORE PUSH1 0x84 DUP4 ADD SWAP1 PUSH2 0x85C JUMP JUMPDEST SUB SWAP2 CALLVALUE SWAP1 GAS CALL SWAP4 DUP5 ISZERO PUSH2 0xA3C JUMPI PUSH1 0x0 SWAP5 PUSH2 0xA0B JUMPI JUMPDEST POP SWAP1 PUSH2 0xA06 PUSH32 0x6F5AF20087F5EC1168F46E6A6B3F04FC77CFB13A534DF5B100EE511EB4E14F8F SWAP4 SWAP3 DUP6 SWAP8 DUP7 PUSH1 0x0 MSTORE PUSH1 0x2 DUP3 MSTORE DUP4 PUSH1 0x0 KECCAK256 PUSH1 0x1 PUSH1 0xFF NOT DUP3 SLOAD AND OR SWAP1 SSTORE PUSH2 0x9F9 DUP5 MLOAD SWAP6 DUP6 DUP8 SWAP7 DUP8 MSTORE DUP7 ADD SWAP1 PUSH2 0x85C JUMP JUMPDEST SWAP2 DUP5 DUP4 SUB SWAP1 DUP6 ADD MSTORE PUSH2 0x85C JUMP JUMPDEST SUB SWAP1 LOG2 JUMP JUMPDEST SWAP1 SWAP4 DUP5 DUP3 DUP2 RETURNDATASIZE DUP4 GT PUSH2 0xA35 JUMPI JUMPDEST PUSH2 0xA22 DUP2 DUP4 PUSH2 0x684 JUMP JUMPDEST DUP2 ADD SUB SLT PUSH2 0x62D JUMPI POP MLOAD SWAP3 PUSH2 0xA06 PUSH2 0x9A5 JUMP JUMPDEST POP RETURNDATASIZE PUSH2 0xA18 JUMP JUMPDEST DUP3 MLOAD RETURNDATASIZE PUSH1 0x0 DUP3 RETURNDATACOPY RETURNDATASIZE SWAP1 REVERT JUMPDEST POP PUSH1 0x84 SWAP2 MLOAD SWAP1 PUSH3 0x461BCD PUSH1 0xE5 SHL DUP3 MSTORE PUSH1 0x4 DUP3 ADD MSTORE PUSH1 0x2C PUSH1 0x24 DUP3 ADD MSTORE PUSH32 0x4E65656420302E31322053545420746F74616C20286465706F736974202B2033 PUSH1 0x44 DUP3 ADD MSTORE PUSH12 0x2076616C696461746F727329 PUSH1 0xA0 SHL PUSH1 0x64 DUP3 ADD MSTORE REVERT JUMPDEST PUSH4 0x4E487B71 PUSH1 0xE0 SHL PUSH1 0x0 MSTORE PUSH1 0x11 PUSH1 0x4 MSTORE PUSH1 0x24 PUSH1 0x0 REVERT JUMPDEST SWAP1 POP DUP3 DUP2 DUP2 RETURNDATASIZE DUP4 GT PUSH2 0xADB JUMPI JUMPDEST PUSH2 0xACC DUP2 DUP4 PUSH2 0x684 JUMP JUMPDEST DUP2 ADD SUB SLT PUSH2 0x6D2 JUMPI MLOAD CODESIZE PUSH2 0x92C JUMP JUMPDEST POP RETURNDATASIZE PUSH2 0xAC2 JUMP JUMPDEST DUP5 MLOAD RETURNDATASIZE PUSH1 0x0 DUP3 RETURNDATACOPY RETURNDATASIZE SWAP1 REVERT INVALID LOG2 PUSH5 0x6970667358 0x22 SLT KECCAK256 MCOPY COINBASE 0xD8 DUP7 0x2D STATICCALL 0xB2 PUSH30 0x69EECE3E27FAB94E727E58A15EB1D8A5A79596EEB6044FE464736F6C6343 STOP ADDMOD XOR STOP CALLER "},"methodIdentifiers":{"JSON_API_AGENT_ID()":"011f8b1b","PLATFORM()":"7efc77fa","getFormattedPrice()":"08db3305","getRequiredDeposit()":"58e56db4","handleResponse(uint256,(address,bytes,uint8,uint256,uint256,uint256)[],uint8,(uint256,address,address,bytes4,address[],(address,bytes,uint8,uint256,uint256,uint256)[],uint256,uint256,uint256,uint256,uint256,uint8,uint8,uint256))":"0e3da5b8","lastUpdatedAt()":"54aea127","latestPrice()":"a3e6ba94","pendingRequests(uint256)":"3c652a9a","requestBtcPrice()":"3812b250","requestEthPrice()":"f3adfbc7"}}}}}